:0600000002008B0203C1A7
:01000B0032C2
:0100130032BA
:03001B0002259922
:0100230032AA
:01002B0032A2
:01003300329A
:01003B003292
:01004300328A
:03004B00020D3271
:01005300327A
:01005B003272
:01006300326A
:01006B003262
:030073000226F072
:01007B003252
:030083000205E192
:03010D0002008667
:0300860002011064
:03011000020113D6
:2001130053BEFBE5BE30E6FB75C6A9E5C620E6FB43BE04121C4A120CEED2AF122502120225
:20013300AAD280900064E4F5F0120D71C280D281900064E4F5F0120D71C28190F0AF74019A
:10015300F075C90890F0B0E070051217F180F52230
:0400E4007809E4F2C1
:20016300AFF0AE83E5827801F208EEF208EFF27804E4F27801E2F5F008E245F070030202E1
:20018300A47801E2FA08E2FB08E2FC7801E2F5F008E245F060717801E2F5F008E245F060A9
:2001A30040C002C003C0047801E2F58208E2F58308E2F5F0122D3BFC7801E22401FA08E2D6
:2001C3003400FB08E2FF8A828B838FF0122D3BFAECC39AFC8C19751A00D004D003D0028085
:2001E30005E4F519F51AAF1974052AFAE43BFB8A828B838CF0122D3BFA7805EFB5020474D2
:20020300018001E4F2800578057401F27805E260030202A47801E22402FD08E23400FE080E
:20022300E2FF8D828E838FF0122D3BFDA3122D3BFEA3122D3BFF7801E2F58208E2F5830851
:20024300E2F5F0122D3BF5197801E22405FA08E23400FB08E2FC8A828B838CF0122D3BFAC5
:200263008AF0E51984E5F0FA2DFDE43EFE8D828E838FF07800E2122B907801E2F58208E2E4
:20028300F58308E2F5F0122D3BFF0F7801E2F58208E2F58308E2F5F0EF122B9078047401DC
:2002A300F27804E2F5822290DF0074FFF090DF01E4F090DF0214F090DF03E4F090DF04F01E
:2002C30090DF05F090DF077406F090DF08E4F090DF0C7499F090DF0DF4F090DF0E03F090B4
:2002E300DF0F7461F090DF10747EF090DF117415F090DF127407F090DF137430F090DF1469
:2003030003F090DF1514F090DF16746CF090DF1A74B6F090DF1B7411F090DF1C74E9F09000
:20032300DF1D742AF090DF1EE4F090DF1F741FF090DF247431F090DF257409F090DF2EE414
:20034300F090DF177407F090DF18E4F090DF197491F090DF097426F090DF0A7430F090DF63
:200363000B7470F090DF067402F090DF2D74C0F0439A01D2A874D144F0602F90F0D1E4F07B
:2003830090F0D275F000122B9090F0D375F00074B1122B90A374F0122B90A3E4122B909074
:2003A300F0D675F0007420022B9022E582FF24FD40087809EFF27582012275820022C0E098
:2003C300C0F0C082C083C007C006C005C004C003C002C000C0D075D00090DF3BE0FFBF0D60
:2003E30002800302052DAFD97806E260030204C590DF3AE0FE90F0D1E0FD7C0090F0D2E0C8
:20040300FB7A00EDC39BFDEC9AFCBD2016BC0013787DE2FC08E2FD787D74012CF2E43D086D
:20042300F28034C00790F0D3E0FBA3E0FCA3E0FD90F0D1E0FA53021F7F00EA2BFBEF3CFCCA
:200443008B828C838DF0EE122B9090F0D1E0FF0F90F0D1EFF0D007787FE2FE90F0D1E0FDFA
:200463007C0090F0D2E0FB7A00EDC39BFDEC9AFCBD2016BC0013787DE2FC08E2FD787D74A7
:20048300012CF2E43D08F28034C00790F0D3E0FBA3E0FCA3E0FD90F0D1E0FA53021F7F0059
:2004A300EA2BFBEF3CFC8B828C838DF0EE122B9090F0D1E0FF0F90F0D1EFF0D00778067476
:2004C30002F290F0D1E0FE7D0090F0D2E0FC7B00EEC39CFEED9BFDBE2016BD0013787DE265
:2004E300FD08E2FE787D74012DF2E43E08F2803090F0D3E0FCA3E0FDA3E0FE90F0D1E0FB63
:2005030053031F7A00EB2CFCEA3DFD8C828D838EF0EF122B9090F0D1E0FF0F90F0D1EFF0EB
:200523007806E2780604F20205C890DF3BE0FFBF130280030205C87808E2FF24F950030293
:2005430005C8EF2F90054B73800C801B8077804080318049806F90F1D8E0FEA3E0FF8FD9F2
:2005630078087401F2805E90F1D8E0FEA3E0FF8ED97807E2600778087404F280487808E4B5
:20058300F2804290DF00E0F5D978087403F2803590DF01E0F5D978087405F2802890F1D6E1
:2005A300E0FF04F0EF24D7F582E434F0F583E0F5D990F1D6E0FF90F1D7E0FEC3EF9E4005D5
:2005C30078087406F2D0D0D000D002D003D004D005D006D007D083D082D0F0D0E032C0E0DA
:2005E300C007C006C000C0D075D000539BFCE5E930E70875E10453E97F8023E5E930E6164D
:20060300787BE2FE08E2FF787B74012EF2E43F08F253E9BF8008E5E930E50353E9DFD0D052
:20062300D000D006D007D0E032E5827810F2780AE2FD7E000DBD00010E78417412F208E4A2
:20064300F2087460F278447416F208E4F2087460F27809E2F582C006C005120F7890F1E490
:2006630075F0001220B6D005D006781090DF06E2F090F1D7E4F0780FE2FCEC700302074770
:20068300C005C006C006C005C0041227A9AB82D004D005D0067811EBF21C7812E2FA08E21D
:2006A300FEC006C005C004C002C0031206B3800BC002C00690F01675F060221581D002D0D2
:2006C30004D005D006ECB401009200D006D0057814E2FA08E2FBC006C005C004C003A20089
:2006E300E433C0E07411C0E074F0C0E07460C0E01206F8800BC002C00390F01675F0602206
:20070300AA82E58124FCF581D003D004D005D006EA700302067D90F1D7E0FB7A000BBB0007
:20072300010AC3EB94FFEA6480948050A290F1D7E0FB04F0EB24D7F582E434F0F583781109
:20074300E2F0808B7B007C00C3EB9DEC9E506BEB4C6038780BE2F5F008E245F0602DC005A8
:20076300C006780BE2FA08E2FD7E007F008A828D838EF0EFC006C005C004C003120D71D072
:2007830003D004D005D006D006D00575C9A875C958780D7919E2F308E209F37810E2F582FA
:2007A300C006C005C004C0031207BED003D004D005D0060BBB00910C808E22AF8290DF0EBA
:2007C300E0FE90DF02E0FD90DF04E0FC7881E22401F208E23400F290F1D8E0FAA3E0FB4A9E
:2007E300601E90DF0EE053E0FCF090DF04E054FC4402F090DF02E4F07807F27808F2801F5C
:200803007819E2F5F008E245F0600778087402F2800578087405F290F1D7E090DF02F07591
:20082300E10490DF3BE0FBBB01F890DF06EFF090F1D6E4F075E10390DF3BE0FFBF13F878F4
:2008430019E2F5F008E245F06038C0047819E2FA08E2FB7C007F008A828B838CF0EFC006A2
:20086300C005C004120D71D004D005D00690F1D8E0FCA3E0FF4CD004700878087405F24360
:20088300880290F1D8E0FBA3E0FF4B600578077401F290DF3BE0FFBF130280F690DF3BE022
:2008A300FFBF160375E10490DF02EDF090DF0EEEF090DF04ECF022AF827822E4F27823F2BC
:2008C300F50A781BE2F5F008E242F008E242F008E245F06016C2AF78247932E3F20809E36E
:2008E300F20809E3F20809E3F2D2AF90F1F575F000C0071220B6784774DAF20874F1F208C6
:20090300E4F2784A74DEF20874F1F208E4F27809E2F582121054D00775E10490DF3BE0FCB4
:20092300BC01F890DF06EFF07806E4F278A07411F278A17420F208E4F290F0B175F00012A3
:200943002B3C75E10290DF3BE0FFBF0DF8781BE2F50B08E2F50C08E2F50D08E2F50E7821B6
:20096300E4F275C9A875C95874D144F0603274D144F0601A90F0D1E0FD90F0D275F000122D
:200983002D3BFEEDC39EFD8D087509008005E4F508F509AE087828EEB40100E433F28005A5
:2009A30078287401F27828E26003020B3E782974D1F20874F0F208E4F27C0074D144F06094
:2009C3002C74D144F0601790F0D1E0FB90F0D275F000122D3BFAEBC39AFA7B0080047A00E6
:2009E3007B00782CEAB40100E433F28005782C7401F2782CE26003020A8E7829E22402FA77
:200A030008E23400FB08E2FF8A828B838FF0122D3BF50FA3122D3BF510A3122D3BF51178FD
:200A230029E22401F51208E23400F51308E2F5148512828513838514F0122D3BF50878298E
:200A4300E22405FA08E23400FB08E2FF8A828B838FF0122D3BFA8AF0E50884E5F0250FFA91
:200A6300E43510FFAE118A828F838EF0122D3BFC8512828513838514F0122D3BFF0F85129E
:200A8300828513838514F0EF122B907822ECF27821E22401F27821E2B4011178607401F2E7
:200AA300758201121C937582DD1229437821E2B40300500A7822E2F582122943806790F1C3
:200AC300DAE0FEA3E0FFC007C0067822E2C0E0120AD7800BC006C00790F1DE75F0002285BA
:200AE300820A1581D006D00790F1DCE0FEA3E0FFC0077422C0E074F0C0E07460C0E0120BD5
:200B030006800BC006C00790F1DE75F00022AE82158115811581D007EE600A7822E2F582BA
:200B230012294380C3E50A707A781FE2600D90DF02E0FF7821E2B507028068E50B450C453B
:200B43000D450E6049C2AF78327924E3F5F0C3E295F0FC09E3F5F008E295F0FD09E3F5F0D5
:200B630008E295F0FE09E3F5F008E295F0FF782DC3E50B9CE50C9DE50D9EE50E9FE433F219
:200B8300D2AF782DE26007782374AAF28015788EE270030209651227A9E582784DF278233D
:200BA30074BBF275E10490DF3BE0FFBF01F874D144F0602C74D144F0601790F0D1E0FF90C1
:200BC300F0D275F000122D3BFEEFC39EFE7F0080047E007F007820EEB40100E433F280055C
:200BE30078207401F27820E26003020CC2782E74D1F20874F0F208E4F274D144F0602C74B4
:200C0300D144F0601790F0D1E0FC90F0D275F000122D3BFBECC39BFB7C0080047B007C00C0
:200C23007831EBB40100E433F2800578317401F27831E26003020BB1782EE22402FA08E28C
:200C43003400FB08E2FC8A828B838CF0122D3BF512A3122D3BF513A3122D3BF514782EE292
:200C63002401FD08E23400FE08E2FF8D828E838FF0122D3BF50F782EE22405FA08E2340064
:200C8300FB08E2FC8A828B838CF0122D3BFA8AF0E50F84E5F02512FAE43513FCAB148A827B
:200CA3008C838BF0122D3B8D828E838FF0122D3BFC0C8D828E838FF0EC122B90020BB1787E
:200CC30023E2700B787FE22401F208E23400F27860E4F2758201121C937823E2F58222AF65
:0B0CE30083E58290F1D8F0EFA3F0222F
:0A00E8007832E4F208F208F208F2A0
:200CEE007832E4F208F208F208F2F5E4F5E275E4017836E5E2F27837E5E3F27836E2FE0808
:200D0E00E2FFC3E49E74A09F50E775E40075DB0075DA5D75E544A2DEE43342D8D2B9D2AF05
:200D2E0075E40622C0E0C007C006C005C004C000C0D075D0007832E2FC08E2FD08E2FE087A
:200D4E00E2FF783274012CF2E43D08F2E43E08F2E43F08F2D0D0D000D004D005D006D0074D
:200D6E00D0E032AF82AE83ADF0FC7838EFF208EEF208EDF208ECF2C2AF783C7932E3F20895
:200D8E0009E3F20809E3F20809E3F2D2AFC2AF7832793CE3F5F0C3E295F0FA09E3F5F00885
:200DAE00E295F0FB09E3F5F008E295F0FE09E3F5F008E295F0FF78407938C3E39A09E39B16
:190DCE0009E39E09E39FE433F2D2AF7840E2700875C9A875C95880B52288
:200DE700AD82AE83AFF00DBD00010E8D828E838FF0E4022B90C018858118AD82AE83AFF0DF
:200E070074012DFAE43EFB8F048A828B838CF07401122B908D828E838FF0E51824FDF8E60C
:200E2700122B90D01822C018858118C082C083C0F0058105810581A81808740126FAE408CE
:200E470036FB0886048A828B838CF0122D3BFFBF01005005758200804CE51824FBF8E518D0
:200E67002404F9E6F70809E6F70809E6F7A8180886820886830886F0122D3BFFE518240494
:200E8700F886820886830886F0EF122B908A828B838CF0122D3BFF1F8A828B838CF0EF123B
:200EA7002B90758201851881D01822AD82AE83AFF00DBD00010E8D828E838FF0E4022B9038
:200EC700C018858118AD82AE83AFF0E51824FDF8E6122B900DBD00010E8D828E838FF07461
:200EE70001122B90E51824FDF8E670057582018003758200D01822C018858118C082C083B5
:200F0700C0F0058105810581A81808740126FAE40836FB0886048A828B838CF0122D3BFF6D
:200F2700BF010050057582008041E51824FBF8E5182404F9E6F70809E6F70809E6F7A81832
:200F47000886820886830886F0122D3BFFE5182404F886820886830886F0EF122B908A82F6
:200F67008B838CF0E4122B90758201851881D01822AF82BF0002800CBF0102804ABF020341
:200F8700021011227841E2FD08E2FE08E2FF8D828E838FF074FC122B90A3740D122B90745B
:200FA700022DFDE43EFE8D828E838FF0742D122B90A3740E122B907844E2F58208E2F58368
:200FC70008E2F5F0020DE77841E2FD08E2FE08E2FF8D828E838FF07448122B90A37411127A
:200FE7002B9074022DFDE43EFE8D828E838FF074E6122B90A37411122B907844E2F5820897
:20100700E2F58308E2F5F00211307841E2FD08E2FE08E2FF8D828E838FF074DB122B90A396
:201027007413122B9074022DFDE43EFE8D828E838FF07480122B90A37414122B907844E29F
:20104700F58208E2F58308E2F5F00213BCAF82BF0002800CBF0102804ABF02030210ED2221
:201067007847E2FD08E2FE08E2FF8D828E838FF074C7122B90A3740E122B9074022DFDE4DD
:201087003EFE8D828E838FF074FE122B90A3740E122B90784AE2F58208E2F58308E2F5F0F1
:2010A700020EB27847E2FD08E2FE08E2FF8D828E838FF07486122B90A37412122B90740226
:2010C7002DFDE43EFE8D828E838FF0743B122B90A37413122B90784AE2F58208E2F5830828
:2010E700E2F5F002126D7847E2FD08E2FE08E2FF8D828E838FF074D9122B90A37415122B10
:201107009074022DFDE43EFE8D828E838FF0744C122B90A37417122B90784AE2F58208E24C
:09112700F58308E2F5F0021590D1
:20113000AD82AE83AFF074022DFDE43EFE8D828E838FF07402022B90C018858118C082C016
:2011500083C0F07E007D007A087C00EE2EFBED33FFEB2BFBEF33FF74022BFBE43FFFE51830
:2011700024FDF8E6235401FE7D00EBC39EFBEF9DFF8B068F05E51824FDF88607E51824FDB5
:20119000F8EF2FF61ABAFF011CEA4C70BE8D04A8180886820886830886F0EC122B90A81876
:2011B00008740126FAE40836FB0886048E078A828B838CF0EF122B90A81808740226FDE4A7
:2011D0000836FE0886078D828E838FF0E4122B90851881D01822C018E581F5182404F581CD
:2011F000AD82AE83AFF074022DFAE43EFB8F048A828B838CF0A81808122D3BF6A81808E617
:2012100024FE5005758200804EE51824FBF8A9180909E6F70809E6F70809E6F7A81808E634
:201230002DFDE43EFE8D828E838FF0122D3BFDA818080886820886830886F0ED122B908A93
:20125000828B838CF0122D3BFF0F8A828B838CF0EF122B90758201851881D01822AD82AE9B
:2012700083AFF0E4122B900DBD00010E8D828E838FF0E4022B90C01885811805810581ADC3
:2012900082AE83AFF07C007A067B00C005C006C0078C07EF2FFC8AF005F0E51824FDF8E60B
:2012B0008002C313D5F0FBFFA8180874035FF6087600A81808B6000C08B60008D007D006F8
:2012D000D005801CD007D006D005A81808B6010608B60002800FA81808B6030A08B60006E8
:2012F00075820180400CEA24FEFAEB34FFFB30E79A8D828E838FF0122D3BC454F02CFB8D75
:20131000828E838FF0122B900DBD00010E8D828E838FF0122D3B2404FC8D828E838FF01217
:201330002B90758200851881D01822C018E581F5182406F581C8E5182404C8A68208A683CA
:2013500008A6F0E5182404F8740126FAE40836FB0886048A828B838CF0122D3BFFBF0800A8
:201370005005758200803FE51824FBF8A91809E6F70809E6F70809E6F7E5182404F8868296
:201390000886830886F0122D3BFFA8180886820886830886F0EF122B908A828B838CF0E4A0
:0C13B000122B90758201851881D0182244
:2013BC00AD82AE83AFF0E4122B90A3122B9074022DFDE43EFE8D828E838FF0E4022B90C031
:2013DC0018858118C082C083C0F0E51824FDF8E6C4540F2409F582E434FBF583E0FCE4C3B1
:2013FC00CC13CC13A2E0CC13CC13CCFBE51824FDF8860253020F7F00EA2409F582EF34FBDF
:20141C00F583E07E004204EE4203A8180886820886830886F0122D3BFEA3122D3BEEC45467
:20143C00F0FFE44204EF4203A8180886820886830886F0EC122B90A3EB122B90A818087494
:20145C000226FDE40836FE0886078D828E838FF0122D3B240C8D828E838FF0122B90851844
:20147C0081D01822C018858118C082C083C0F0058105810581A81808740226FAE40836FB8D
:20149C000886048A828B838CF0122D3BFDBD0800E433FF600DE51824FAF8E67005F5820262
:2014BC00158AED7005F58202158AE51824FAF8E66057EF6054E51824FBF8E5182404F9E68C
:2014DC00F70809E6F70809E6F7A8180886820886830886F0122D3BFF8D067408C39EFE8E49
:2014FC00F005F0EF800225E0D5F0FBFEE5182404F886820886830886F0EE122B908A828BB1
:20151C00838CF0E4122B908062E51824FBF8E5182404F9E6F70809E6F70809E6F7A818086A
:20153C0086820886830886F0122D3BFEA3122D3BFFED24F8FD8DF005F08007C3EF13FFEEB3
:20155C0013FED5F0F6E5182404F886820886830886F0EE122B908A828B838CF0122D3B2400
:20157C00F8FF8A828B838CF0122B90758201851881D01822AD82AE83AFF0E4122B90A31270
:20159C002B9074022DFAE43EFB8F048A828B838CF0E4122B9074032DFAE43EFB8F048A8286
:2015BC008B838CF0E4122B90A3122B9074052DFDE43EFE8D828E838FF0E4022B90C0188504
:2015DC008118C082C083C0F005810581A8180886820886830886F0122D3BFBA3122D3B8B99
:2015FC00047B00E51824FDF886027F00EA4203EF4204A8180886820886830886F0EB122B48
:20161C0090A3EC122B90A81808740226FDE40836FE0886078D828E838FF0122D3B2408FC6B
:20163C008D828E838FF0122B908D828E838FF0122D3BFCBC06005003021743A818088682CC
:20165C000886830886F0122D3BFBA3122D3BFC8D828E838FF0122D3B24FAFA8AF005F08031
:20167C0007C3EC13FCEB13FBD5F0F6743F5BFC8D828E838FF0122D3B24FA8D828E838FF0F5
:20169C00122B907B00EB2409F582E434FBF583E0FAB5040280060BBB100040E9BB1006756C
:2016BC008201021746C005C006C007A81808740326FAE40836FC0886078A828C838FF0121C
:2016DC002D3BFDA3122D3BFEE5182404F8A605EEC454F0C6C4C666C654F0C66608F67E0048
:2016FC00E5182404F8E6420308E642068A828C838FF0EB122B90A3EE122B90A8180874055F
:20171C0026FDE40836FE0886078D828E838FF0122D3B2404FC8D828E838FF0122B90D00755
:20173C00D006D005021645758200851881D01822C018E581F5182404F581AD82AE83AFF07E
:20175C0074052DFAE43EFB8F048A828B838CF0E5182404F8122D3BF6E5182404F8B608001F
:20177C0050057582008068E51824FBF8A91809E6F70809E6F70809E6F774032DFDE43EFEC1
:20179C008D828E838FF0122D3BFDA3122D3BFEE5182404F8E624F8FF8FF005F08007C3EE32
:2017BC0013FEED13FDD5F0F6A8180886820886830886F0ED122B908A828B838CF0122D3B1B
:1517DC0024F8FF8A828B838CF0122B90758201851881D018225A
:102D6E0015313223342526161A192A0B2C0D0E1C5A
:0700F200784DE4F2784EF2B4
:2017F1001227A9121C04784DE2600C784DE2F582121C04784DE4F2221227A91203AEE58298
:2018110060087582DD12294380067582111229430229D61227A9AF82C007122799AE827D97
:201831000078AB7402F208E4F28E828D83122C8BAD82AE83D007784FEDF2BF01028005BF62
:20185100021280087CE47EF17F00800E7CF57EF17F0080067C007E007F00EC4E60158C82E4
:201871008E838FF0C007C006C00412201DD004D006D0077A007B00C004C006C007784FE2B7
:20189100FE7F00C3EA9EEB64808FF063F08095F0D007D006D0045053C007C006C004C00391
:2018B100C0021227A97850E582F21227A9AD82D002D003D004D006D007EC4E602778507919
:2018D10062E2F37863EDF28C828E838FF0C007C006C004C003C002122021D002D003D004C6
:2018F100D006D0070ABA008F0B808C7582DD1229430229D61227A9AF82C007122904AB8227
:20191100AC83ADF0FED007781BEBF208ECF208EDF208EEF2784E791FE2F38F821208BAE5F3
:2019310082FE60058E821229430229D67582DD122943902D5B75F080022B0F7582DD122988
:2019510043902D5E75F080022B0F1227A9AF82C0071227A97851E582F21228E4AC82AD839D
:20197100C005C0041228E4AA82AB83C003C002122799AE82D002D003D004D005D0077851E0
:20199100790AE2F3780BECF208EDF2780DEAF208EBF2780FEEF28F8212062C7582DD122985
:2019B100430229D61227A97852E582F21227A9AF82C0071228E47853E582F208E583F2123D
:2019D10027A97855E582F2122904AA82AC83ADF0FEC006C005C004C0021227A9AB82D002D9
:2019F100C003C0021228E47856E582F208E583F21227997858E582F2D002D003D004D00561
:201A1100D006D007780AEFF27853790BE2F308E209F37856790DE2F308E209F37858790F34
:201A3100E2F37852E2F582C006C005C004C003C00212062CD002D003D004D005D006781BCE
:201A5100EAF208ECF208EDF208EEF2784E791FE2F37855E2F582C006C005C004C003C002B7
:201A71001208BAAF82D002D003D004D005D006BFAA5DEB605A78567919E2F308E209F3782E
:201A910052E2F582C006C005C004C003C0021207BED002D003D004D005D006781BEAF20844
:201AB100ECF208EDF208EEF2784E791FE2F37855E2F582C006C005C004C003C0021208BA67
:201AD100AF82D002D003D004D005D0061B80A0EF60058F821229430229D61227A9121CB7BA
:201AF100AF827582DDC007122943D0078F821229430229D61227A9AF82C0071227A9AE8238
:201B1100D0077861EEF28F82C007121E45AE82D007BF0205784E7401F28E82122943022924
:201B3100D6C2AF75C909221227A9AF82C0071227A9AE82D007785FEEF28F82121C657582CF
:201B5100DD1229430229D61228E4120CE27582DD1229430229D61202AA7582001203AE909F
:201B71000000120CE27582DD1229430229D67582DD122943C2AF78597932E3F20809E3F207
:201B91000809E3F20809E3F2D2AF7859E2F58208E2F58308E2F5F008E2122978787BE2F525
:201BB1008208E2F583122952787DE2F58208E2F583122952787FE2F58208E2F58312295227
:201BD1007881E2F58208E2F5831229527883E2F58208E2F5831229527885E2F58208E2F53B
:201BF100831229529000001229529000001229520229D6E582FF602CBF0F005027EF75F0FE
:201C110002A42419F58274FB35F0F583E0FEA3E0FFC007C0068E828F83120089D006D007F6
:191C310075C6AC22122799E58260051227A980F47582221229430229D605
:132D5B004F4B00737562675F726673707920332E313200A3
:1E2D7E0000003D194C1905195B19B519051B321B381BEB1A24180918581B671B7F1B6B
:0700F900785DE4F2785EF28D
:201C4A0043FD03C280C281785FE4F2758200121C65785FE4F2758201021C65E582FF70136A
:201C6A00785FE2FE785DF2BE0103D28022EE7018C28022BF0112785FE2FF785EF2BF0103B7
:201C8A00D28122EF7002C28122E582FF700E785DE2B402187860E224FF928022BF010D7840
:201CAA005EE2B402077860E224FF9281221227A9E582FF24D15003021E40EF240A83F58204
:201CCA00EF243383F583E4733038404850586068707880889098A0A8B0B8C0C8D0D7DEE548
:201CEA00ECF3FA01080F161D40404040242B4040404040404032391D1D1D1D1D1D1D1D1D37
:201D0A001D1D1D1D1D1D1D1D1D1D1D1D1D1D1D1D1D1D1E1E1E1E1E1E1E1E1E1E1E1E1E1E0B
:201D2A001E1E1E1E1E1E90DF00E0FF021E4290DF01E0FF021E4290DF02E0FF021E4290DF63
:201D4A0003E0FF021E4290DF04E0FF021E4290DF05E0FF021E4290DF06E0FF021E4290DFA7
:201D6A0007E0FF021E4290DF08E0FF021E4290DF09E0FF021E4290DF0AE0FF021E4290DF77
:201D8A000BE0FF021E4290DF0CE0FF021E4290DF0DE0FF021E4290DF0EE0FF021E4290DF47
:201DAA000FE0FF021E4290DF10E0FF021E4290DF11E0FF021E4290DF12E0FF021E4290DF17
:201DCA0013E0FF021E4290DF14E0FF806B90DF15E0FF806490DF16E0FF805D90DF17E0FF6B
:201DEA00805690DF18E0FF804F90DF19E0FF804890DF1AE0FF804190DF1BE0FF803A90DFE4
:201E0A001CE0FF803390DF1DE0FF802C90DF1EE0FF802590DF1FE0FF801E90DF24E0FF80E5
:201E2A001790DF25E0FF801090DF2DE0FF800990DF2EE0FF80027F5A8F8222AF827EDDEFF5
:201E4A0024D15003022018EF240A83F582EF243383F583E473BDC7D1DBE5EFF9030D172102
:201E6A002B353F49535D67717B858F99A3ACB5BEC7D0D9E2EB18181818F4FD1818181818F8
:201E8A001818060F1E1E1E1E1E1E1E1F1F1F1F1F1F1F1F1F1F1F1F1F1F1F1F1F1F1F1F1F96
:201EAA001F1F1F1F202020201F1F202020202020202020786190DF00E2F002201A786190FF
:201ECA00DF01E2F002201A786190DF02E2F002201A786190DF03E2F002201A786190DF040D
:201EEA00E2F002201A786190DF05E2F002201A786190DF06E2F002201A786190DF07E2F0F2
:201F0A0002201A786190DF08E2F002201A786190DF09E2F002201A786190DF0AE2F0022078
:201F2A001A786190DF0BE2F002201A786190DF0CE2F002201A786190DF0DE2F002201A78DF
:201F4A006190DF0EE2F002201A786190DF0FE2F002201A786190DF10E2F002201A78619057
:201F6A00DF11E2F002201A786190DF12E2F002201A786190DF13E2F002201A786190DF142C
:201F8A00E2F002201A786190DF15E2F002201A786190DF16E2F002201A786190DF17E2F021
:201FAA00806E786190DF18E2F08065786190DF19E2F0805C786190DF1AE2F0805378619093
:201FCA00DF1BE2F0804A786190DF1CE2F08041786190DF1DE2F08038786190DF1EE2F080C3
:201FEA002F786190DF1FE2F08026786190DF24E2F0801D786190DF25E2F08014786190DFD3
:20200A002DE2F0800B786190DF2EE2F080027E118E8222E4022B90AFF0AE83E5827864F2FB
:20202A0008EEF208EFF27864E2F58208E2F58308E2F5F0122D3BFCBC0700506F7864E22485
:20204A0001FA08E23400FB08E2FFEC2C2AFCE43BFE8F058C828E838DF07862E2122B9078ED
:20206A0064E2F58208E2F58308E2F5F0122D3B25E0FE2AFAE43BFB0ABA00010B8A828B83C3
:20208A008FF07863E2122B907864E2F58208E2F58308E2F5F0122D3BFF0F7864E2F5820802
:2020AA00E2F58308E2F5F0EF022B9022AFF0AE83E5827867F208EEF208EFF27867E2240160
:2020CA00FA08E23400FB08E2FC786AE4F208F2C002C003C0047867E2F58208E2F58308E27E
:2020EA00F5F0122D3BFC7D00786AC3E29C08E264808DF063F08095F0D004D003D002505C13
:20210A00786AE225E0F51508E233F516E5152AFDE5163BFE8C078D828E838FF0122D3BF5C4
:20212A0017E5152AFDE5163BFE8C070DBD00010E8D828E838FF07861122D3BF2851782C0FB
:1D214A0004C003C002121E45D002D003D004786AE22401F208E23400F20220D922F9
:20216700AFF0AE83E582786EF208EEF208EFF290F9F8E0FBA3E0FC786CE22BFB08E23CFC8F
:20218700C3EB94D0EC940740047582002290F9FCE0FC7B000CBC00010BC3EC941EEB648062
:2021A700948040047582002290F9FAE024D6F582E434F9F583786CE2F090F9FAE0FC7B00BA
:2021C7008C828B83A378A7741EF208E4F2122BABAB82AC8390F9FAEBF090F9FCE004F07845
:2021E70071E4F208F27871796CC3E3F5F0E295F009E3F5F008E295F0506790F9F4E0FAA3E6
:20220700E0FFEA2406FAEF34F2FF786E7971E3C5F0E225F0FC09E3C5F008E235F0FD08E2C4
:20222700FE8C828D838EF0122D3B8A828F83F090F9F4E0FEA3E0FF8E828F83A378A974D06E
:20224700F2087407F2122C08AE82AF8390F9F4EEF0EFA3F07871E22401F208E23400F28019
:202267008490F9F8E0FEA3E0FF786C90F9F8E22EF008E23FA3F075820122AFF0AE83E58280
:202287007876F208EEF208EFF290F9FCE07003F582227873E2FA08E2FB08E2FC90F9FBE01F
:2022A70024D6F582E434F9F583E0FF7E008A828B838CF0EF122B90A3EE122B9090F9FBE0AC
:2022C700FF7E008F828E83A378A7741EF208E4F2C004C003C002122BABAE82AF83D002D0FF
:2022E70003D00490F9FBEEF090F9FCE014F07879E4F208F28A828B838CF0122D3BFEA312B1
:202307002D3BFF7879C3E29E08E29F4003022395C002C003C00478767979E3C5F0E225F0DD
:20232700FA09E3C5F008E235F0FB08E2FC90F9F6E0FEA3E0FFEE2406F582EF34F2F583E030
:202347008A828B838CF0122B9090F9F6E0FEA3E0FF8E828F83A378A974D0F2087407F2C0E3
:2023670004C003C002122C08AE82AF83D002D003D00490F9F6EEF0EFA3F07879E22401F2E3
:2023870008E23400F2D004D003D0020222FB8A828B838CF0122D3BFAA3122D3BFB90F9F8EB
:1423A700E0FEA3E0FF90F9F8EEC39AF0EF9BA3F075820122CF
:0D010000788DE4F27890F27891F27892F226
:2023BB00AFF0AE83E5827888F208EEF208EFF2788BE4F27888E2F5F008E245F070030224B0
:2023DB00FC7888E2FA08E2FB08E2FC7888E2F5F008E245F060717888E2F5F008E245F06042
:2023FB0040C002C003C0047888E2F58208E2F58308E2F5F0122D3BFC7888E22401FA08E24E
:20241B003400FB08E2FF8A828B838FF0122D3BFAECC39AFC8C19751A00D004D003D002800A
:20243B0005E4F519F51AAF1974052AFAE43BFB8A828B838CF0122D3BFA788CEFB5020474D0
:20245B00018001E4F28005788C7401F2788CE260030224FC7888E22402FD08E23400FE0885
:20247B00E2FF8D828E838FF0122D3BFDA3122D3BFEA3122D3BFF7888E2F58208E2F5830850
:20249B00E2F5F0122D3BF5197888E22405FA08E23400FB08E2FC8A828B838CF0122D3BFAC4
:2024BB008AF0E51984E5F0FA2DFDE43EFE8D828E838FF07887E2122B907888E2F58208E25C
:2024DB00F58308E2F5F0122D3BFF0F7888E2F58208E2F58308E2F5F0EF122B90788B740154
:2024FB00F2788BE2F5822274FE55F14402F5F143F4F053FE0F747F55F84420F5F875FA3BAB
:20251B00E5FC75FC0B5388F7D2AB53E8FB439A0875F94474FD44F9602F90F9FDE4F090F907
:20253B00FE75F000122B9090F9FF75F0007403122B90A374FA122B90A3E4122B9090FA0261
:20255B0075F0007480122B90748344FA602F90FA83E4F090FA8475F000122B9090FA8575D1
:20257B00F0007489122B90A374FA122B90A3E4122B9090FA8875F0007480022B9022C0E06A
:20259B00C0F0C082C083C007C006C005C004C003C002C001C000C0D075D000AFF9788FE269
:2025BB00FE24FC50030226D5EE2E2E9025CA730225E302260902265BBF990280030226D5BE
:2025DB00788F7401F20226D5BF990280197885E2FD08E2FE788574012DF2E43E08F2788F0A
:2025FB007403F20226D5788F7401F20226D5EF247F50197885E2FD08E2FE788574012DF29F
:20261B00E43E08F2788F7403F20226D57890EFF278907992E2F378917992C3E2F5F0E3952F
:20263B00F0500678917992E2F37892E2600B788F7402F275C6A90226D5788FE4F20226D5CF
:20265B007892E2606990F9FDE0FE90F9FEE0FDEEC39DFE7890C3E2F5F0EE95F0504990F96F
:20267B00FFE0FCA3E0FDA3E0FE90F9FDE0FB53037F7A00EB2CFCEA3DFD8C828D838EF0EFF1
:20269B00122B9090F9FDE0FF0F90F9FDEFF0E0FF90F9FEE0FEEFC39EFF7890E2B5070878C0
:2026BB0090E4F2788E04F27892E2789214F27892E270077891E4F2788FF2D0D0D000D00125
:2026DB00D002D003D004D005D006D007D083D082D0F0D0E032C0E0C0F0C082C083C007C041
:2026FB0006C005C004C003C000C0D075D00053E8FB788FE27021788DE2601790FA83E0FFDE
:20271B0090FA84E0FEEFC39E7891F27891E2F5F9805575F90080507891E2604890FA83E0FB
:20273B00FF90FA84E0FEEFB50602803390FA85E0FDA3E0FEA3E0FF90FA84E0FC53047F7B0A
:20275B0000EC2DFDEB3EFE8D828E838FF0122D3BF5F990FA84E0FF0F90FA84EFF080087534
:20277B00F900800375F900D0D0D000D003D004D005D006D007D083D082D0F0D0E03290F9EB
:20279B00FDE0FF90F9FEE0FEEFC39EF58222788EE27013788EE2700E90F0B0E0700875C95D
:2027BB00A875C95880ED789474FDF20874F9F208E4F27C0074FD44F9602C74FD44F96017C4
:2027DB0090F9FDE0FB90F9FE75F000122D3BFAEBC39AFA7B0080047A007B007897EAB40139
:2027FB0000E433F2800578977401F27897E2600302289F7894E22402FA08E23400FB08E28C
:20281B00FF8A828B838FF0122D3BF519A3122D3BF51AA3122D3BF51B7894E22401F51D08F7
:20283B00E23400F51E08E2F51F851D82851E83851FF0122D3BF51C7894E22405FA08E234BE
:20285B0000FB08E2FF8A828B838FF0122D3BFA8AF0E51C84E5F02519FAE4351AFFAE1B8ADB
:20287B00828F838EF0122D3BFC851D82851E83851FF0122D3BFF0F851D82851E83851FF071
:20289B00EF122B908C0774FD44F9602C74FD44F9601790F9FDE0FE90F9FE75F000122D3BA5
:2028BB00FDEEC39DFD7E0080047D007E007893EDB40100E433F2800578937401F27893E21E
:2028DB006004788EE4F28F82221227A9AE827F00C007C0061227A9AD82D006D0077C00ED25
:2028FB002FFFEC3E8F82F583221228E4AE82AF838F048E057E007F00C007C006C005C00401
:20291B001228E4AA82AB83D004D005D006D0078A008B01E4FAFBE82EFEE93FFFEA3DFDEB95
:20293B003C8E828F838DF022AF827887EFF290FA8375F0000223BBAE82AF837887EFF2904A
:20295B00FA8375F000C007C0061223BBD006D0077887EEF290FA8375F0000223BBAC82AD44
:20297B0083AEF0FF7887F290FA8375F000C007C006C005C0041223BBD004D005D006788735
:20299B00EEF290FA8375F000C006C005C0041223BBD004D0057887EDF290FA8375F000C0D2
:2029BB0005C0041223BBD004D005D006D0077887ECF290FA8375F0000223BB748344FA6029
:2029DB002C748344FA601790FA83E0FF90FA8475F000122D3BFEEFC39EFE7F0080047E005E
:2029FB007F007899EEB40100E433F2800578997401F27899E2600122C2AF789A7932E3F20A
:202A1B000809E3F20809E3F20809E3F2D2AF788D7401F2748344FA602C748344FA601790FF
:202A3B00FA83E0FF90FA8475F000122D3BFEEFC39EFE7F0080047E007F007898EEB4010033
:202A5B00E433F2800578987401F27898E2704F90F0B0E0704975C9A875C958C2AF783279CC
:202A7B009AE3F5F0C3E295F0FC09E3F5F008E295F0FD09E3F5F008E295F0FE09E3F5F0085F
:202A9B00E295F0FF789EC374889C74139DE49EE49FE433F2D2AF789EE27003022A2E7891C3
:202ABB00E2604C90F0B0E0704675C9A875C958C2AF7832799AE3F5F0C3E295F0FC09E3F52E
:202ADB00F008E295F0FD09E3F5F008E295F0FE09E3F5F008E295F0FF789FC374889C741309
:202AFB009DE49EE49FE433F2D2AF789FE260AF788DE4F222AD82AE83AFF08D828E838FF0EC
:202B1B00122D3BFC60188C82C007C006C005122943D005D006D0070DBD00DF0E80DC02290E
:012B3B00D6C3
:0600BA00E478FFF6D8FD1A
:202B3C00AFF0AE83E58278A3F208EEF208EFF278A3E2FA08E2FB08E2FC78A1E2F51908E2AF
:202B5C00F51AAE19AF1A151974FFB51902151AEE4F60138A828B838CF078A0E2122B90A36A
:142B7C00AA82AB8380DC78A3E2F58208E2F58308E2F5F022C8
:20009800792EE94400601B7A01902D6E78097593FBE493F2A308B800020593D9F4DAF2755B
:0200B80093FFB4
:1B2B900020F71130F6138883A88220F509F6A8837583002280FEF280F5F02244
:202BAB00AE82E583FF33E433FD6009C3E49EFBE49FFC80048E038F0478A8E230E71078A714
:202BCB00E2D3F43400FE08E2F43400FF800778A7E2FE08E2FF78A9EEF208EFF28B828C8389
:1D2BEB00C005122C08AE82AF83D005ED600AC3E49EF582E49FF583228E828F832217
:202C0800AE82AF837D007C0078AAE2235401FB703578A9E225E0F208E233F278A9C3E2F571
:202C2800F0EE95F008E2F5F0EF95F0501478A9E2F5F008E2C313C5F01318F2C5F008F280D9
:202C4800050C8C0580C278A9C3E2F5F0EE95F008E2F5F0EF95F0400E78A9D3E29EF4B3FEC0
:202C6800B308E29FF4FF78A9E2F5F008E2C313C5F01318F2C5F008F28D041DEC70C88E8212
:032C88008F832215
:202C8B00AE82E583FF33E433FD6009C3E49EFBE49FFC80048E038F0478ACE233E433FF60CC
:202CAB001078ABE2D3F43400FA08E2F43400FE800778ABE2FA08E2FE78ADEAF208EEF28B0D
:202CCB00828C83C007C005122CF0AC82AE83D005D007EF6D600AC3E49CF582E49EF58322F7
:052CEB008C828E8322A3
:2000C00078AFE84400600A79007593F0E4F309D8FC785AE8440A600C790B90F0AFE4F0A3A0
:0400E000D8FCD9FA75
:202CF000AE82AF837C007D007B10EF235401FAEE2EFEEF33FFEC2CFCED33FDEA600343047D
:202D10000178ADC3E2F5F0EC95F008E2F5F0ED95F0401178ADD3E29CF4B3FCB308E29DF4A9
:0B2D3000FD430601DBC48E828F83226E
:02008900E4731E
:0D008B00758120122D57E58260030200866A
:1C2D3B0020F71430F6148883A88220F507E6A88375830022E280F7E49322E022A7
:042D5700758200225F
:00000001FF
