:0600000002008B0203C1A7
:01000B0032C2
:0100130032BA
:03001B0002259229
:0100230032AA
:01002B0032A2
:01003300329A
:01003B003292
:01004300328A
:03004B00020D3271
:01005300327A
:01005B003272
:01006300326A
:01006B003262
:030073000226E979
:01007B003252
:030083000205E192
:03010D0002008667
:0300860002011064
:03011000020113D6
:2001130053BEFBE5BE30E6FB75C6A9E5C620E6FB43BE04121C43120CEED2AF1224FB120234
:20013300AAD280900064E4F5F0120D71C280D281900064E4F5F0120D71C28190F0AF74019A
:10015300F075C90890F0B0E070051217EA80F52237
:0400E4007809E4F2C1
:20016300AFF0AE83E5827801F208EEF208EFF27804E4F27801E2F5F008E245F070030202E1
:20018300A47801E2FA08E2FB08E2FC7801E2F5F008E245F060717801E2F5F008E245F060A9
:2001A30040C002C003C0047801E2F58208E2F58308E2F5F0122D34FC7801E22401FA08E2DD
:2001C3003400FB08E2FF8A828B838FF0122D34FAECC39AFC8C19751A00D004D003D002808C
:2001E30005E4F519F51AAF1974052AFAE43BFB8A828B838CF0122D34FA7805EFB5020474D9
:20020300018001E4F2800578057401F27805E260030202A47801E22402FD08E23400FE080E
:20022300E2FF8D828E838FF0122D34FDA3122D34FEA3122D34FF7801E2F58208E2F5830866
:20024300E2F5F0122D34F5197801E22405FA08E23400FB08E2FC8A828B838CF0122D34FAD3
:200263008AF0E51984E5F0FA2DFDE43EFE8D828E838FF07800E2122B897801E2F58208E2EB
:20028300F58308E2F5F0122D34FF0F7801E2F58208E2F58308E2F5F0EF122B8978047401EA
:2002A300F27804E2F5822290DF0074FFF090DF01E4F090DF0214F090DF03E4F090DF04F01E
:2002C30090DF05F090DF077406F090DF08E4F090DF0C7499F090DF0DF4F090DF0E03F090B4
:2002E300DF0F7461F090DF10747EF090DF117415F090DF127407F090DF137430F090DF1469
:2003030003F090DF1514F090DF16746CF090DF1A74B6F090DF1B7411F090DF1C74E9F09000
:20032300DF1D742AF090DF1EE4F090DF1F741FF090DF247431F090DF257409F090DF2EE414
:20034300F090DF177407F090DF18E4F090DF197491F090DF097426F090DF0A7430F090DF63
:200363000B7470F090DF067402F090DF2D74C0F0439A01D2A874D144F0602F90F0D1E4F07B
:2003830090F0D275F000122B8990F0D375F00074B1122B89A374F0122B89A3E4122B899090
:2003A300F0D675F0007420022B8922E582FF24FD40087809EFF27582012275820022C0E09F
:2003C300C0F0C082C083C007C006C005C004C003C002C000C0D075D00090DF3BE0FFBF0D60
:2003E30002800302052DAFD97806E260030204C590DF3AE0FE90F0D1E0FD7C0090F0D2E0C8
:20040300FB7A00EDC39BFDEC9AFCBD2016BC0013787DE2FC08E2FD787D74012CF2E43D086D
:20042300F28034C00790F0D3E0FBA3E0FCA3E0FD90F0D1E0FA53021F7F00EA2BFBEF3CFCCA
:200443008B828C838DF0EE122B8990F0D1E0FF0F90F0D1EFF0D007787FE2FE90F0D1E0FD01
:200463007C0090F0D2E0FB7A00EDC39BFDEC9AFCBD2016BC0013787DE2FC08E2FD787D74A7
:20048300012CF2E43D08F28034C00790F0D3E0FBA3E0FCA3E0FD90F0D1E0FA53021F7F0059
:2004A300EA2BFBEF3CFC8B828C838DF0EE122B8990F0D1E0FF0F90F0D1EFF0D0077806747D
:2004C30002F290F0D1E0FE7D0090F0D2E0FC7B00EEC39CFEED9BFDBE2016BD0013787DE265
:2004E300FD08E2FE787D74012DF2E43E08F2803090F0D3E0FCA3E0FDA3E0FE90F0D1E0FB63
:2005030053031F7A00EB2CFCEA3DFD8C828D838EF0EF122B8990F0D1E0FF0F90F0D1EFF0F2
:200523007806E2780604F20205C890DF3BE0FFBF130280030205C87808E2FF24F950030293
:2005430005C8EF2F90054B73800C801B8077804080318049806F90F1D8E0FEA3E0FF8FD9F2
:2005630078087401F2805E90F1D8E0FEA3E0FF8ED97807E2600778087404F280487808E4B5
:20058300F2804290DF00E0F5D978087403F2803590DF01E0F5D978087405F2802890F1D6E1
:2005A300E0FF04F0EF24D7F582E434F0F583E0F5D990F1D6E0FF90F1D7E0FEC3EF9E4005D5
:2005C30078087406F2D0D0D000D002D003D004D005D006D007D083D082D0F0D0E032C0E0DA
:2005E300C007C006C000C0D075D000539BFCE5E930E70875E10453E97F8023E5E930E6164D
:20060300787BE2FE08E2FF787B74012EF2E43F08F253E9BF8008E5E930E50353E9DFD0D052
:20062300D000D006D007D0E032E5827810F2780AE2FD7E000DBD00010E78417412F208E4A2
:20064300F2087460F278447416F208E4F2087460F27809E2F582C006C005120F7890F1E490
:2006630075F0001220AFD005D006781090DF06E2F090F1D7E4F0780FE2FCEC700302074777
:20068300C005C006C006C005C0041227A2AB82D004D005D0067811EBF21C7812E2FA08E224
:2006A300FEC006C005C004C002C0031206B3800BC002C00690F01675F060221581D002D0D2
:2006C30004D005D006ECB401009200D006D0057814E2FA08E2FBC006C005C004C003A20089
:2006E300E433C0E07411C0E074F0C0E07460C0E01206F8800BC002C00390F01675F0602206
:20070300AA82E58124FCF581D003D004D005D006EA700302067D90F1D7E0FB7A000BBB0007
:20072300010AC3EB94FFEA6480948050A290F1D7E0FB04F0EB24D7F582E434F0F583781109
:20074300E2F0808B7B007C00C3EB9DEC9E506BEB4C6038780BE2F5F008E245F0602DC005A8
:20076300C006780BE2FA08E2FD7E007F008A828D838EF0EFC006C005C004C003120D71D072
:2007830003D004D005D006D006D00575C9A875C958780D7919E2F308E209F37810E2F582FA
:2007A300C006C005C004C0031207BED003D004D005D0060BBB00910C808E22AF8290DF0EBA
:2007C300E0FE90DF02E0FD90DF04E0FC7881E22401F208E23400F290F1D8E0FAA3E0FB4A9E
:2007E300601E90DF0EE053E0FCF090DF04E054FC4402F090DF02E4F07807F27808F2801F5C
:200803007819E2F5F008E245F0600778087402F2800578087405F290F1D7E090DF02F07591
:20082300E10490DF3BE0FBBB01F890DF06EFF090F1D6E4F075E10390DF3BE0FFBF13F878F4
:2008430019E2F5F008E245F06038C0047819E2FA08E2FB7C007F008A828B838CF0EFC006A2
:20086300C005C004120D71D004D005D00690F1D8E0FCA3E0FF4CD004700878087405F24360
:20088300880290F1D8E0FBA3E0FF4B600578077401F290DF3BE0FFBF130280F690DF3BE022
:2008A300FFBF160375E10490DF02EDF090DF0EEEF090DF04ECF022AF827822E4F27823F2BC
:2008C300F50A781BE2F5F008E242F008E242F008E245F06016C2AF78247932E3F20809E36E
:2008E300F20809E3F20809E3F2D2AF90F1F575F000C0071220AF784774DAF20874F1F208CD
:20090300E4F2784A74DEF20874F1F208E4F27809E2F582121054D00775E10490DF3BE0FCB4
:20092300BC01F890DF06EFF07806E4F278A07411F278A17420F208E4F290F0B175F00012A3
:200943002B3575E10290DF3BE0FFBF0DF8781BE2F50B08E2F50C08E2F50D08E2F50E7821BD
:20096300E4F275C9A875C95874D144F0603274D144F0601A90F0D1E0FD90F0D275F000122D
:200983002D34FEEDC39EFD8D087509008005E4F508F509AE087828EEB40100E433F28005AC
:2009A30078287401F27828E26003020B3E782974D1F20874F0F208E4F27C0074D144F06094
:2009C3002C74D144F0601790F0D1E0FB90F0D275F000122D34FAEBC39AFA7B0080047A00ED
:2009E3007B00782CEAB40100E433F28005782C7401F2782CE26003020A8E7829E22402FA77
:200A030008E23400FB08E2FF8A828B838FF0122D34F50FA3122D34F510A3122D34F5117812
:200A230029E22401F51208E23400F51308E2F5148512828513838514F0122D34F508782995
:200A4300E22405FA08E23400FB08E2FF8A828B838FF0122D34FA8AF0E50884E5F0250FFA98
:200A6300E43510FFAE118A828F838EF0122D34FC8512828513838514F0122D34FF0F8512AC
:200A8300828513838514F0EF122B897822ECF27821E22401F27821E2B4011178607401F2EE
:200AA300758201121C8C7582DD12293C7821E2B40300500A7822E2F58212293C806790F1D8
:200AC300DAE0FEA3E0FFC007C0067822E2C0E0120AD7800BC006C00790F1DE75F0002285BA
:200AE300820A1581D006D00790F1DCE0FEA3E0FFC0077422C0E074F0C0E07460C0E0120BD5
:200B030006800BC006C00790F1DE75F00022AE82158115811581D007EE600A7822E2F582BA
:200B230012293C80C3E50A707A781FE2600D90DF02E0FF7821E2B507028068E50B450C4542
:200B43000D450E6049C2AF78327924E3F5F0C3E295F0FC09E3F5F008E295F0FD09E3F5F0D5
:200B630008E295F0FE09E3F5F008E295F0FF782DC3E50B9CE50C9DE50D9EE50E9FE433F219
:200B8300D2AF782DE26007782374AAF28015788EE270030209651227A2E582784DF2782344
:200BA30074BBF275E10490DF3BE0FFBF01F874D144F0602C74D144F0601790F0D1E0FF90C1
:200BC300F0D275F000122D34FEEFC39EFE7F0080047E007F007820EEB40100E433F2800563
:200BE30078207401F27820E26003020CC2782E74D1F20874F0F208E4F274D144F0602C74B4
:200C0300D144F0601790F0D1E0FC90F0D275F000122D34FBECC39BFB7C0080047B007C00C7
:200C23007831EBB40100E433F2800578317401F27831E26003020BB1782EE22402FA08E28C
:200C43003400FB08E2FC8A828B838CF0122D34F512A3122D34F513A3122D34F514782EE2A7
:200C63002401FD08E23400FE08E2FF8D828E838FF0122D34F50F782EE22405FA08E234006B
:200C8300FB08E2FC8A828B838CF0122D34FA8AF0E50F84E5F02512FAE43513FCAB148A8282
:200CA3008C838BF0122D348D828E838FF0122D34FC0C8D828E838FF0EC122B89020BB17893
:200CC30023E2700B787FE22401F208E23400F27860E4F2758201121C8C7823E2F58222AF6C
:0B0CE30083E58290F1D8F0EFA3F0222F
:0A00E8007832E4F208F208F208F2A0
:200CEE007832E4F208F208F208F2F5E4F5E275E4017836E5E2F27837E5E3F27836E2FE0808
:200D0E00E2FFC3E49E74A09F50E775E40075DB0075DA5D75E544A2DEE43342D8D2B9D2AF05
:200D2E0075E40622C0E0C007C006C005C004C000C0D075D0007832E2FC08E2FD08E2FE087A
:200D4E00E2FF783274012CF2E43D08F2E43E08F2E43F08F2D0D0D000D004D005D006D0074D
:200D6E00D0E032AF82AE83ADF0FC7838EFF208EEF208EDF208ECF2C2AF783C7932E3F20895
:200D8E0009E3F20809E3F20809E3F2D2AFC2AF7832793CE3F5F0C3E295F0FA09E3F5F00885
:200DAE00E295F0FB09E3F5F008E295F0FE09E3F5F008E295F0FF78407938C3E39A09E39B16
:190DCE0009E39E09E39FE433F2D2AF7840E2700875C9A875C95880B52288
:200DE700AD82AE83AFF00DBD00010E8D828E838FF0E4022B89C018858118AD82AE83AFF0E6
:200E070074012DFAE43EFB8F048A828B838CF07401122B898D828E838FF0E51824FDF8E613
:200E2700122B89D01822C018858118C082C083C0F0058105810581A81808740126FAE408D5
:200E470036FB0886048A828B838CF0122D34FFBF01005005758200804CE51824FBF8E518D7
:200E67002404F9E6F70809E6F70809E6F7A8180886820886830886F0122D34FFE51824049B
:200E8700F886820886830886F0EF122B898A828B838CF0122D34FF1F8A828B838CF0EF1249
:200EA7002B89758201851881D01822AD82AE83AFF00DBD00010E8D828E838FF0E4022B8946
:200EC700C018858118AD82AE83AFF0E51824FDF8E6122B890DBD00010E8D828E838FF07468
:200EE70001122B89E51824FDF8E670057582018003758200D01822C018858118C082C083BC
:200F0700C0F0058105810581A81808740126FAE40836FB0886048A828B838CF0122D34FF74
:200F2700BF010050057582008041E51824FBF8E5182404F9E6F70809E6F70809E6F7A81832
:200F47000886820886830886F0122D34FFE5182404F886820886830886F0EF122B898A8204
:200F67008B838CF0E4122B89758201851881D01822AF82BF0002800CBF0102804ABF020348
:200F8700021011227841E2FD08E2FE08E2FF8D828E838FF074FC122B89A3740D122B897469
:200FA700022DFDE43EFE8D828E838FF0742D122B89A3740E122B897844E2F58208E2F58376
:200FC70008E2F5F0020DE77841E2FD08E2FE08E2FF8D828E838FF07448122B89A374111281
:200FE7002B8974022DFDE43EFE8D828E838FF074E6122B89A37411122B897844E2F58208AC
:20100700E2F58308E2F5F00211307841E2FD08E2FE08E2FF8D828E838FF074D8122B89A3A0
:201027007413122B8974022DFDE43EFE8D828E838FF0747D122B89A37414122B897844E2B7
:20104700F58208E2F58308E2F5F00213B9AF82BF0002800CBF0102804ABF02030210ED2224
:201067007847E2FD08E2FE08E2FF8D828E838FF074C7122B89A3740E122B8974022DFDE4EB
:201087003EFE8D828E838FF074FE122B89A3740E122B89784AE2F58208E2F58308E2F5F0FF
:2010A700020EB27847E2FD08E2FE08E2FF8D828E838FF0748A122B89A37412122B89740230
:2010C7002DFDE43EFE8D828E838FF0743F122B89A37413122B89784AE2F58208E2F5830832
:2010E700E2F5F00212717847E2FD08E2FE08E2FF8D828E838FF074D6122B89A37415122B16
:201107008974022DFDE43EFE8D828E838FF07449122B89A37417122B89784AE2F58208E264
:09112700F58308E2F5F002158DD4
:20113000AD82AE83AFF074022DFDE43EFE8D828E838FF07402022B89C018858118C082C01D
:2011500083C0F07E007D007A087C00EE2EFBED33FFEB2BFBEF33FF74022BFBE43FFFE51830
:2011700024FDF8E6235401FE7D00EBC39EFBEF9DFF8B068F05E51824FDF88607E51824FDB5
:20119000F8EF2FF61ABAFF011CEA4C70BE8D04A8180886820886830886F0EC122B89A8187D
:2011B00008740126FAE40836FB0886048E078A828B838CF0EF122B89A81808740226FDE4AE
:2011D0000836FE0886078D828E838FF0E4122B89851881D01822C018E581F5182404F581D4
:2011F000AD82AE83AFF074022DFAE43EFB8F048A828B838CF0E5182404F8122D34F6E5187A
:201210002404F8E624FE5005758200804EE51824FBF8A91809E6F70809E6F70809E6F7E500
:20123000182404F8E62DFDE43EFE8D828E838FF0122D34FDA8180886820886830886F0EDDB
:20125000122B898A828B838CF0122D34FF0F8A828B838CF0EF122B89758201851881D01858
:2012700022AD82AE83AFF0E4122B890DBD00010E8D828E838FF0E4022B89C0188581180586
:20129000810581AD82AE83AFF07C007A067B00C005C006C0078C07EF2FFC8AF005F0E51856
:2012B00024FDF8E68002C313D5F0FBFFA8180874035FF6087600A81808B6000C08B60008A6
:2012D000D007D006D005801CD007D006D005A81808B6010608B60002800FA81808B6030AFF
:2012F00008B6000675820180400CEA24FEFAEB34FFFB30E79A8D828E838FF0122D34C4545C
:20131000F02CFB8D828E838FF0122B890DBD00010E8D828E838FF0122D342404FC8D828E95
:20133000838FF0122B89758200851881D01822C018858118C082C083C0F0058105810581F9
:20135000A81808740126FAE40836FB0886048A828B838CF0122D34FFBF0800500575820056
:201370008041E51824FBF8E5182404F9E6F70809E6F70809E6F7A818088682088683088642
:20139000F0122D34FFE5182404F886820886830886F0EF122B898A828B838CF0E4122B8932
:0913B000758201851881D0182214
:2013B900AD82AE83AFF0E4122B89A3122B8974022DFDE43EFE8D828E838FF0E4022B89C049
:2013D90018858118C082C083C0F0E51824FDF8E6C4540F2409F582E434FBF583E0FCE4C3B4
:2013F900CC13CC13A2E0CC13CC13CCFBE51824FDF8860253020F7F00EA2409F582EF34FBE2
:20141900F583E07E004204EE4203A8180886820886830886F0122D34FEA3122D34EEC45478
:20143900F0FFE44204EF4203A8180886820886830886F0EC122B89A3EB122B89A8180874A5
:201459000226FDE40836FE0886078D828E838FF0122D34240C8D828E838FF0122B89851855
:2014790081D01822C018858118C082C083C0F0058105810581A81808740226FAE40836FB90
:201499000886048A828B838CF0122D34FDBD0800E433FF600DE51824FAF8E67005F582026C
:2014B9001587ED7005F582021587E51824FAF8E66057EF6054E51824FBF8E5182404F9E695
:2014D900F70809E6F70809E6F7A8180886820886830886F0122D34FF8D067408C39EFE8E53
:2014F900F005F0EF800225E0D5F0FBFEE5182404F886820886830886F0EE122B898A828BBB
:20151900838CF0E4122B898062E51824FBF8E5182404F9E6F70809E6F70809E6F7A8180874
:2015390086820886830886F0122D34FEA3122D34FFED24F8FD8DF005F08007C3EF13FFEEC4
:2015590013FED5F0F6E5182404F886820886830886F0EE122B898A828B838CF0122D342411
:20157900F8FF8A828B838CF0122B89758201851881D01822AD82AE83AFF0E4122B89A31281
:201599002B8974022DFAE43EFB8F048A828B838CF0E4122B8974032DFAE43EFB8F048A8297
:2015B9008B838CF0E4122B89A3122B8974052DFDE43EFE8D828E838FF0E4022B89C018851C
:2015D9008118C082C083C0F005810581A8180886820886830886F0122D34FBA3122D348BAA
:2015F900047B00E51824FDF886027F00EA4203EF4204A8180886820886830886F0EB122B4B
:2016190089A3EC122B89A81808740226FDE40836FE0886078D828E838FF0122D342408FC83
:201639008D828E838FF0122B898D828E838FF0122D34FCBC06005003021740A818088682E0
:201659000886830886F0122D34FBA3122D34FC8D828E838FF0122D3424FAFA8AF005F08049
:2016790007C3EC13FCEB13FBD5F0F6743F5BFC8D828E838FF0122D3424FA8D828E838FF0FF
:20169900122B897B00EB2409F582E434FBF583E0FAB5040280060BBB100040E9BB10067576
:2016B9008201021743C005C006C007A81808740326FAE40836FC0886078A828C838FF01222
:2016D9002D34FDA3122D34FEE5182404F8A605EEC454F0C6C4C666C654F0C66608F67E0059
:2016F900E5182404F8E6420308E642068A828C838FF0EB122B89A3EE122B89A81808740570
:2017190026FDE40836FE0886078D828E838FF0122D342404FC8D828E838FF0122B89D00766
:20173900D006D005021642758200851881D01822C018E581F5182404F581AD82AE83AFF084
:2017590074052DFAE43EFB8F048A828B838CF0A81808122D34F6A81808B608005005758287
:20177900008068E51824FBF8A9180909E6F70809E6F70809E6F774032DFDE43EFE8D828E6A
:20179900838FF0122D34FDA3122D34FEA81808E624F8FF8FF005F08007C3EE13FEED13FD27
:2017B900D5F0F6A818080886820886830886F0ED122B898A828B838CF0122D3424F8FF8A8D
:1117D900828B838CF0122B89758201851881D018220D
:102D670015313223342526161A192A0B2C0D0E1C61
:0700F200784DE4F2784EF2B4
:2017EA001227A2121BFD784DE2600C784DE2F582121BFD784DE4F2221227A21203AEE582BD
:20180A0060087582DD12293C800675821112293C0229CF1227A2AF82C007122792AE827DC1
:20182A000078AB7402F208E4F28E828D83122C84AD82AE83D007784FEDF2BF01028005BF70
:20184A00021280087CE47EF17F00800E7CF57EF17F0080067C007E007F00EC4E60158C82EB
:20186A008E838FF0C007C006C004122016D004D006D0077A007B00C004C006C007784FE2C5
:20188A00FE7F00C3EA9EEB64808FF063F08095F0D007D006D0045053C007C006C004C00398
:2018AA00C0021227A27850E582F21227A2AD82D002D003D004D006D007EC4E60277850792E
:2018CA0062E2F37863EDF28C828E838FF0C007C006C004C003C00212201AD002D003D004D4
:2018EA00D006D0070ABA008F0B808C7582DD12293C0229CF1227A2AF82C0071228FDAB824B
:20190A00AC83ADF0FED007781BEBF208ECF208EDF208EEF2784E791FE2F38F821208BAE5FA
:20192A0082FE60058E8212293C0229CF7582DD12293C902D5475F080022B087582DD1229B2
:20194A003C902D5775F080022B081227A2AF82C0071227A27851E582F21228DDAC82AD83CE
:20196A00C005C0041228DDAA82AB83C003C002122792AE82D002D003D004D005D0077851F5
:20198A00790AE2F3780BECF208EDF2780DEAF208EBF2780FEEF28F8212062C7582DD12298C
:2019AA003C0229CF1227A27852E582F21227A2AF82C0071228DD7853E582F208E583F21267
:2019CA0027A27855E582F21228FDAA82AC83ADF0FEC006C005C004C0021227A2AB82D002F6
:2019EA00C003C0021228DD7856E582F208E583F21227927858E582F2D002D003D004D00576
:201A0A00D006D007780AEFF27853790BE2F308E209F37856790DE2F308E209F37858790F3B
:201A2A00E2F37852E2F582C006C005C004C003C00212062CD002D003D004D005D006781BD5
:201A4A00EAF208ECF208EDF208EEF2784E791FE2F37855E2F582C006C005C004C003C002BE
:201A6A001208BAAF82D002D003D004D005D006BFAA5DEB605A78567919E2F308E209F37835
:201A8A0052E2F582C006C005C004C003C0021207BED002D003D004D005D006781BEAF2084B
:201AAA00ECF208EDF208EEF2784E791FE2F37855E2F582C006C005C004C003C0021208BA6E
:201ACA00AF82D002D003D004D005D0061B80A0EF60058F8212293C0229CF1227A2121CB0DD
:201AEA00AF827582DDC00712293CD0078F8212293C0229CF1227A2AF82C0071227A2AE8262
:201B0A00D0077861EEF28F82C007121E3EAE82D007BF0205784E7401F28E8212293C022939
:201B2A00CFC2AF75C909221227A2AF82C0071227A2AE82D007785FEEF28F82121C5E7582F2
:201B4A00DD12293C0229CF1228DD120CE27582DD12293C0229CF1202AA7582001203AE90C9
:201B6A000000120CE27582DD12293C0229CF7582DD12293CC2AF78597932E3F20809E3F223
:201B8A000809E3F20809E3F2D2AF7859E2F58208E2F58308E2F5F008E2122971787BE2F533
:201BAA008208E2F58312294B787DE2F58208E2F58312294B787FE2F58208E2F58312294B43
:201BCA007881E2F58208E2F58312294B7883E2F58208E2F58312294B7885E2F58208E2F550
:201BEA008312294B90000012294B90000012294B0229CFE582FF602CBF0F005027EF75F021
:201C0A0002A42419F58274FB35F0F583E0FEA3E0FFC007C0068E828F83120089D006D007FD
:191C2A0075C6AC22122792E58260051227A280F475822212293C0229CF28
:132D54004F4B00737562675F726673707920322E313200AB
:1E2D7700000036194519FE185419AE19FE1A2B1B311BE41A1D180218511B601B781BD6
:0700F900785DE4F2785EF28D
:201C430043FD03C280C281785FE4F2758200121C5E785FE4F2758201021C5EE582FF70137F
:201C6300785FE2FE785DF2BE0103D28022EE7018C28022BF0112785FE2FF785EF2BF0103BE
:201C8300D28122EF7002C28122E582FF700E785DE2B402187860E224FF928022BF010D7847
:201CA3005EE2B402077860E224FF9281221227A2E582FF24D15003021E39EF240A83F58219
:201CC300EF243383F583E473293139414951596169717981899199A1A9B1B9C1C9D0D7DEF7
:201CE300E5ECF3FA01080F16393939391D24393939393939392B321D1D1D1D1D1D1D1D1DDF
:201D03001D1D1D1D1D1D1D1D1D1D1D1D1D1D1D1D1D1D1D1E1E1E1E1E1E1E1E1E1E1E1E1E13
:201D23001E1E1E1E1E1E90DF00E0FF021E3B90DF01E0FF021E3B90DF02E0FF021E3B90DF7F
:201D430003E0FF021E3B90DF04E0FF021E3B90DF05E0FF021E3B90DF06E0FF021E3B90DFCA
:201D630007E0FF021E3B90DF08E0FF021E3B90DF09E0FF021E3B90DF0AE0FF021E3B90DF9A
:201D83000BE0FF021E3B90DF0CE0FF021E3B90DF0DE0FF021E3B90DF0EE0FF021E3B90DF6A
:201DA3000FE0FF021E3B90DF10E0FF021E3B90DF11E0FF021E3B90DF12E0FF021E3B90DF3A
:201DC30013E0FF021E3B90DF14E0FF806B90DF15E0FF806490DF16E0FF805D90DF17E0FF79
:201DE300805690DF18E0FF804F90DF19E0FF804890DF1AE0FF804190DF1BE0FF803A90DFEB
:201E03001CE0FF803390DF1DE0FF802C90DF1EE0FF802590DF1FE0FF801E90DF24E0FF80EC
:201E23001790DF25E0FF801090DF2DE0FF800990DF2EE0FF80027F5A8F8222AF827EDDEFFC
:201E430024D15003022011EF240A83F582EF243383F583E473B6C0CAD4DEE8F2FC06101A5D
:201E6300242E38424C56606A747E88929CA5AEB7C0C9D2DBE411111111EDF61111111111DF
:201E83001111FF081E1E1E1E1E1E1E1E1F1F1F1F1F1F1F1F1F1F1F1F1F1F1F1F1F1F1F1FBA
:201EA3001F1F1F1F202020201F1F202020202020201F20786190DF00E2F00220137861900E
:201EC300DF01E2F0022013786190DF02E2F0022013786190DF03E2F0022013786190DF0429
:201EE300E2F0022013786190DF05E2F0022013786190DF06E2F0022013786190DF07E2F00E
:201F0300022013786190DF08E2F0022013786190DF09E2F0022013786190DF0AE2F0022094
:201F230013786190DF0BE2F0022013786190DF0CE2F0022013786190DF0DE2F00220137802
:201F43006190DF0EE2F0022013786190DF0FE2F0022013786190DF10E2F002201378619073
:201F6300DF11E2F0022013786190DF12E2F0022013786190DF13E2F0022013786190DF1448
:201F8300E2F0022013786190DF15E2F0022013786190DF16E2F0022013786190DF17E2F03D
:201FA300806E786190DF18E2F08065786190DF19E2F0805C786190DF1AE2F080537861909A
:201FC300DF1BE2F0804A786190DF1CE2F08041786190DF1DE2F08038786190DF1EE2F080CA
:201FE3002F786190DF1FE2F08026786190DF24E2F0801D786190DF25E2F08014786190DFDA
:202003002DE2F0800B786190DF2EE2F080027E118E8222E4022B89AFF0AE83E5827864F209
:2020230008EEF208EFF27864E2F58208E2F58308E2F5F0122D34FCBC0700506F7864E22493
:2020430001FA08E23400FB08E2FFEC2C2AFCE43BFE8F058C828E838DF07862E2122B8978FB
:2020630064E2F58208E2F58308E2F5F0122D3425E0FE2AFAE43BFB0ABA00010B8A828B83D1
:202083008FF07863E2122B897864E2F58208E2F58308E2F5F0122D34FF0F7864E2F5820817
:2020A300E2F58308E2F5F0EF022B8922AFF0AE83E5827867F208EEF208EFF27867E224016E
:2020C300FA08E23400FB08E2FC786AE4F208F2C002C003C0047867E2F58208E2F58308E285
:2020E300F5F0122D34FC7D00786AC3E29C08E264808DF063F08095F0D004D003D002505C21
:20210300786AE225E0F51508E233F516E5152AFDE5163BFE8C078D828E838FF0122D34F5D2
:2021230017E5152AFDE5163BFE8C070DBD00010E8D828E838FF07861122D34F2851782C009
:1D21430004C003C002121E3ED002D003D004786AE22401F208E23400F20220D2220E
:20216000AFF0AE83E582786EF208EEF208EFF290F9F8E0FBA3E0FC786CE22BFB08E23CFC96
:20218000C3EB94D0EC940740047582002290F9FCE0FC7B000CBC00010BC3EC941EEB648069
:2021A000948040047582002290F9FAE024D6F582E434F9F583786CE2F090F9FAE0FC7B00C1
:2021C0008C828B83A378A7741EF208E4F2122BA4AB82AC8390F9FAEBF090F9FCE004F07853
:2021E00071E4F208F27871796CC3E3F5F0E295F009E3F5F008E295F0506790F9F4E0FAA3ED
:20220000E0FFEA2406FAEF34F2FF786E7971E3C5F0E225F0FC09E3C5F008E235F0FD08E2CB
:20222000FE8C828D838EF0122D348A828F83F090F9F4E0FEA3E0FF8E828F83A378A974D07C
:20224000F2087407F2122C01AE82AF8390F9F4EEF0EFA3F07871E22401F208E23400F28027
:202260008490F9F8E0FEA3E0FF786C90F9F8E22EF008E23FA3F075820122AFF0AE83E58287
:202280007876F208EEF208EFF290F9FCE07003F582227873E2FA08E2FB08E2FC90F9FBE026
:2022A00024D6F582E434F9F583E0FF7E008A828B838CF0EF122B89A3EE122B8990F9FBE0C1
:2022C000FF7E008F828E83A378A7741EF208E4F2C004C003C002122BA4AE82AF83D002D00D
:2022E00003D00490F9FBEEF090F9FCE014F07879E4F208F28A828B838CF0122D34FEA312BF
:202300002D34FF7879C3E29E08E29F400302238EC002C003C00478767979E3C5F0E225F0F2
:20232000FA09E3C5F008E235F0FB08E2FC90F9F6E0FEA3E0FFEE2406F582EF34F2F583E037
:202340008A828B838CF0122B8990F9F6E0FEA3E0FF8E828F83A378A974D0F2087407F2C0F1
:2023600004C003C002122C01AE82AF83D002D003D00490F9F6EEF0EFA3F07879E22401F2F1
:2023800008E23400F2D004D003D0020222F48A828B838CF0122D34FAA3122D34FB90F9F807
:1423A000E0FEA3E0FF90F9F8EEC39AF0EF9BA3F075820122D6
:0D010000788DE4F27890F27891F27892F226
:2023B400AFF0AE83E5827888F208EEF208EFF2788BE4F27888E2F5F008E245F070030224B7
:2023D400F57888E2FA08E2FB08E2FC7888E2F5F008E245F060717888E2F5F008E245F06050
:2023F40040C002C003C0047888E2F58208E2F58308E2F5F0122D34FC7888E22401FA08E25C
:202414003400FB08E2FF8A828B838FF0122D34FAECC39AFC8C19751A00D004D003D0028018
:2024340005E4F519F51AAF1974052AFAE43BFB8A828B838CF0122D34FA788CEFB5020474DE
:20245400018001E4F28005788C7401F2788CE260030224F57888E22402FD08E23400FE0893
:20247400E2FF8D828E838FF0122D34FDA3122D34FEA3122D34FF7888E2F58208E2F583086C
:20249400E2F5F0122D34F5197888E22405FA08E23400FB08E2FC8A828B838CF0122D34FAD9
:2024B4008AF0E51984E5F0FA2DFDE43EFE8D828E838FF07887E2122B897888E2F58208E26A
:2024D400F58308E2F5F0122D34FF0F7888E2F58208E2F58308E2F5F0EF122B89788B740169
:2024F400F2788BE2F5822274FE55F14402F5F143F4F053FE0F747F55F84420F5F875FA3BB2
:20251400E5FC75FC0B5388F7D2AB53E8FB439A0875F94474FD44F9602F90F9FDE4F090F90E
:20253400FE75F000122B8990F9FF75F0007403122B89A374FA122B89A3E4122B8990FA0284
:2025540075F0007480122B89748344FA602F90FA83E4F090FA8475F000122B8990FA8575E6
:20257400F0007489122B89A374FA122B89A3E4122B8990FA8875F0007480022B8922C0E08D
:20259400C0F0C082C083C007C006C005C004C003C002C001C000C0D075D000AFF9788FE270
:2025B400FE24FC50030226CEEE2E2E9025C3730225DC022602022654BF990280030226CEEF
:2025D400788F7401F20226CEBF990280197885E2FD08E2FE788574012DF2E43E08F2788F18
:2025F4007403F20226CE788F7401F20226CEEF247F50197885E2FD08E2FE788574012DF2B4
:20261400E43E08F2788F7403F20226CE7890EFF278907992E2F378917992C3E2F5F0E3953D
:20263400F0500678917992E2F37892E2600B788F7402F275C6A90226CE788FE4F20226CEE4
:202654007892E2606990F9FDE0FE90F9FEE0FDEEC39DFE7890C3E2F5F0EE95F0504990F976
:20267400FFE0FCA3E0FDA3E0FE90F9FDE0FB53037F7A00EB2CFCEA3DFD8C828D838EF0EFF8
:20269400122B8990F9FDE0FF0F90F9FDEFF0E0FF90F9FEE0FEEFC39EFF7890E2B5070878CE
:2026B40090E4F2788E04F27892E2789214F27892E270077891E4F2788FF2D0D0D000D0012C
:2026D400D002D003D004D005D006D007D083D082D0F0D0E032C0E0C0F0C082C083C007C048
:2026F40006C005C004C003C000C0D075D00053E8FB788FE27021788DE2601790FA83E0FFE5
:2027140090FA84E0FEEFC39E7891F27891E2F5F9805575F90080507891E2604890FA83E002
:20273400FF90FA84E0FEEFB50602803390FA85E0FDA3E0FEA3E0FF90FA84E0FC53047F7B11
:2027540000EC2DFDEB3EFE8D828E838FF0122D34F5F990FA84E0FF0F90FA84EFF080087542
:20277400F900800375F900D0D0D000D003D004D005D006D007D083D082D0F0D0E03290F9F2
:20279400FDE0FF90F9FEE0FEEFC39EF58222788EE27013788EE2700E90F0B0E0700875C964
:2027B400A875C95880ED789474FDF20874F9F208E4F27C0074FD44F9602C74FD44F96017CB
:2027D40090F9FDE0FB90F9FE75F000122D34FAEBC39AFA7B0080047A007B007897EAB40147
:2027F40000E433F2800578977401F27897E260030228987894E22402FA08E23400FB08E29A
:20281400FF8A828B838FF0122D34F519A3122D34F51AA3122D34F51B7894E22401F51D0813
:20283400E23400F51E08E2F51F851D82851E83851FF0122D34F51C7894E22405FA08E234CC
:2028540000FB08E2FF8A828B838FF0122D34FA8AF0E51C84E5F02519FAE4351AFFAE1B8AE9
:20287400828F838EF0122D34FC851D82851E83851FF0122D34FF0F851D82851E83851FF086
:20289400EF122B898C0774FD44F9602C74FD44F9601790F9FDE0FE90F9FE75F000122D34BA
:2028B400FDEEC39DFD7E0080047D007E007893EDB40100E433F2800578937401F27893E225
:2028D4006004788EE4F28F82221227A2AE827F00C007C0061227A2AD82D006D0077C00ED3A
:2028F4002FFFEC3E8F82F583221228DDAE82AF838F048E057E007F00C007C006C005C0040F
:202914001228DDAA82AB83D004D005D006D0078A008B01E4FAFBE82EFEE93FFFEA3DFDEBA3
:202934003C8E828F838DF022AF827887EFF290FA8375F0000223B4AE82AF837887EFF29058
:20295400FA8375F000C007C0061223B4D006D0077887EEF290FA8375F0000223B4AC82AD59
:2029740083AEF0FF7887F290FA8375F000C007C006C005C0041223B4D004D005D006788743
:20299400EEF290FA8375F000C006C005C0041223B4D004D0057887EDF290FA8375F000C0E0
:2029B40005C0041223B4D004D005D006D0077887ECF290FA8375F0000223B4748344FA603E
:2029D4002C748344FA601790FA83E0FF90FA8475F000122D34FEEFC39EFE7F0080047E006C
:2029F4007F007899EEB40100E433F2800578997401F27899E2600122C2AF789A7932E3F211
:202A14000809E3F20809E3F20809E3F2D2AF788D7401F2748344FA602C748344FA60179006
:202A3400FA83E0FF90FA8475F000122D34FEEFC39EFE7F0080047E007F007898EEB4010041
:202A5400E433F2800578987401F27898E2704F90F0B0E0704975C9A875C958C2AF783279D3
:202A74009AE3F5F0C3E295F0FC09E3F5F008E295F0FD09E3F5F008E295F0FE09E3F5F00866
:202A9400E295F0FF789EC374889C74139DE49EE49FE433F2D2AF789EE27003022A277891D1
:202AB400E2604C90F0B0E0704675C9A875C958C2AF7832799AE3F5F0C3E295F0FC09E3F535
:202AD400F008E295F0FD09E3F5F008E295F0FE09E3F5F008E295F0FF789FC374889C741310
:202AF4009DE49EE49FE433F2D2AF789FE260AF788DE4F222AD82AE83AFF08D828E838FF0F3
:202B1400122D34FC60188C82C007C006C00512293CD005D006D0070DBD00DF0E80DC022923
:012B3400CFD1
:0600BA00E478FFF6D8FD1A
:202B3500AFF0AE83E58278A3F208EEF208EFF278A3E2FA08E2FB08E2FC78A1E2F51908E2B6
:202B5500F51AAE19AF1A151974FFB51902151AEE4F60138A828B838CF078A0E2122B89A378
:142B7500AA82AB8380DC78A3E2F58208E2F58308E2F5F022CF
:20009800792EE94400601B7A01902D6778097593FBE493F2A308B800020593D9F4DAF27562
:0200B80093FFB4
:1B2B890020F71130F6138883A88220F509F6A8837583002280FEF280F5F0224B
:202BA400AE82E583FF33E433FD6009C3E49EFBE49FFC80048E038F0478A8E230E71078A71B
:202BC400E2D3F43400FE08E2F43400FF800778A7E2FE08E2FF78A9EEF208EFF28B828C8390
:1D2BE400C005122C01AE82AF83D005ED600AC3E49EF582E49FF583228E828F832225
:202C0100AE82AF837D007C0078AAE2235401FB703578A9E225E0F208E233F278A9C3E2F578
:202C2100F0EE95F008E2F5F0EF95F0501478A9E2F5F008E2C313C5F01318F2C5F008F280E0
:202C4100050C8C0580C278A9C3E2F5F0EE95F008E2F5F0EF95F0400E78A9D3E29EF4B3FEC7
:202C6100B308E29FF4FF78A9E2F5F008E2C313C5F01318F2C5F008F28D041DEC70C88E8219
:032C81008F83221C
:202C8400AE82E583FF33E433FD6009C3E49EFBE49FFC80048E038F0478ACE233E433FF60D3
:202CA4001078ABE2D3F43400FA08E2F43400FE800778ABE2FA08E2FE78ADEAF208EEF28B14
:202CC400828C83C007C005122CE9AC82AE83D005D007EF6D600AC3E49CF582E49EF5832205
:052CE4008C828E8322AA
:2000C00078AFE84400600A79007593F0E4F309D8FC785AE8440A600C790B90F0AFE4F0A3A0
:0400E000D8FCD9FA75
:202CE900AE82AF837C007D007B10EF235401FAEE2EFEEF33FFEC2CFCED33FDEA6003430484
:202D09000178ADC3E2F5F0EC95F008E2F5F0ED95F0401178ADD3E29CF4B3FCB308E29DF4B0
:0B2D2900FD430601DBC48E828F832275
:02008900E4731E
:0D008B00758120122D50E582600302008671
:1C2D340020F71430F6148883A88220F507E6A88375830022E280F7E49322E022AE
:042D50007582002266
:00000001FF
