:0600000002008B02025811
:01000B0032C2
:0100130032BA
:03001B0002224975
:0100230032AA
:01002B0032A2
:01003300329A
:01003B003292
:01004300328A
:03004B00020DA102
:01005300327A
:01005B003272
:01006300326A
:01006B003262
:030073000223A3C2
:01007B003252
:0300830002068EE4
:030106000200866E
:030086000201096B
:0301090002010CE4
:20010C0053BEFBE5BE30E6FB75C6A8E5C620E6FB43BE0443FF02D2A1120D5AD2AF1221B2E9
:15012C0012014190F0BE7401F090F0BFE0700512187880F522FA
:0400E4007803E4F2C7
:2001410090DF0074FFF090DF01E4F090DF0214F090DF03E4F090DF04F090DF05F090DF0790
:200161007406F090DF08E4F090DF0C7499F090DF0DF4F090DF0E03F090DF0F7461F090DFCF
:2001810010747EF090DF117415F090DF127407F090DF137430F090DF1403F090DF1514F073
:2001A10090DF16746CF090DF1A74B6F090DF1B7411F090DF1C74E9F090DF1D742AF090DFE6
:2001C1001EE4F090DF1F741FF090DF247431F090DF257409F090DF2EE4F090DF177407F090
:2001E10090DF18E4F090DF197491F090DF097426F090DF0A7430F090DF0B7470F090DF0654
:200201007402F090DF2D74C0F0439A01D2A874E044F0602F90F0E0E4F090F0E175F000123C
:200221002EAE90F0E275F00074C0122EAEA374F0122EAEA3E4122EAE90F0E575F000742030
:20024100022EAE22E582FF24FD40087803EFF27582012275820022C0E0C0F0C082C083C0AA
:2002610007C006C005C004C003C002C001C000C0D075D00090DF3BE0FFBF0D02800302056B
:20028100D8780AE5D9F27800E260030204BB90DF3A780EE0F2780B74E0F20874F0F208E4C1
:2002A100F27A0074E044F0700302038F7DE07EF07F0074E044F0603E74E044F0601790F053
:2002C100E0E0FC90F0E175F000122F7CFBECC39BFB7C0080047B007C0074052DFDE43EFEE4
:2002E1008D828E838FF0122F7CFDEBB5050474018001E4FF80027F01EF600302038F780BB7
:20030100E22402FD08E23400FE08E2FF8D828E838FF0122F7CF509A3122F7CF50AA3122F35
:200321007CF50B780BE2F58208E2F58308E2F5F0122F7CF508780BE22405FB08E23400FCD6
:2003410008E2FF8B828C838FF0122F7CFB8BF0E50884E5F02509FBE4350AFFAE0B8B828FFF
:20036100838EF0780EE2122EAE780BE2F58208E2F58308E2F5F0122F7CFF0F780BE2F58271
:2003810008E2F58308E2F5F0EF122EAE7A01EA70117870E2FE08E2FF787074012EF2E43F17
:2003A10008F278727912E2F3780F74E0F20874F0F208E4F27B0074E044F070030204A27A57
:2003C100E07EF07F0074E044F0603E74E044F0601790F0E0E0FD90F0E175F000122F7CFC6E
:2003E100EDC39CFC7D0080047C007D0074052AFAE43EFE8A828E838FF0122F7CFAECB50207
:200401000474018001E4FF80027F01EF60030204A2780FE22402FD08E23400FE08E2FF8DE4
:20042100828E838FF0122F7CF50CA3122F7CF50DA3122F7CF50E780FE2F58208E2F58308DC
:20044100E2F5F0122F7CF509780FE22405FA08E23400FC08E2FF8A828C838FF0122F7CFA39
:200461008AF0E50984E5F0250CFAE4350DFFAE0E8A828F838EF07812E2122EAE780FE2F55A
:200481008208E2F58308E2F5F0122F7CFF0F780FE2F58208E2F58308E2F5F0EF122EAE7B74
:2004A10001EB70117870E2FE08E2FF787074012EF2E43F08F278007402F2780A7916E2F3BD
:2004C100781374E0F20874F0F208E4F27B0074E044F070030205BA7AE07EF07F0074E044F8
:2004E100F0603E74E044F0601790F0E0E0FD90F0E175F000122F7CFCEDC39CFC7D00800469
:200501007C007D0074052AFAE43EFE8A828E838FF0122F7CFAECB5020474018001E4FF80D1
:20052100027F01EF60030205BA7813E22402FD08E23400FE08E2FF8D828E838FF0122F7C34
:20054100F509A3122F7CF50AA3122F7CF50B7813E2F58208E2F58308E2F5F0122F7CF50C0A
:200561007813E22405FA08E23400FC08E2FF8A828C838FF0122F7CFA8AF0E50C84E5F025AD
:2005810009FAE4350AFFAE0B8A828F838EF07816E2122EAE7813E2F58208E2F58308E2F55D
:2005A100F0122F7CFF0F7813E2F58208E2F58308E2F5F0EF122EAE7B01EB70117870E2FEDD
:2005C10008E2FF787074012EF2E43F08F27800E2780004F202067390DF3BE0FFBF13028077
:2005E100030206737802E2FF24F95003020673EF2F9005F673800C801B807780408031800B
:2006010049806F90F1E7E0FEA3E0FF8FD978027401F2805E90F1E7E0FEA3E0FF8ED978010A
:20062100E2600778027404F280487802E4F2804290DF00E0F5D978027403F2803590DF018D
:20064100E0F5D978027405F2802890F1E5E0FF04F0EF24E6F582E434F0F583E0F5D990F106
:20066100E5E0FF90F1E6E0FEC3EF9E400578027406F2D0D0D000D001D002D003D004D00566
:20068100D006D007D083D082D0F0D0E032C0E0C007C006C000C0D075D000539BFCE5E930BB
:2006A100E70875E10453E97F8023E5E930E616786EE2FE08E2FF786E74012EF2E43F08F251
:2006C10053E9BF8008E5E930E50353E9DFD0D0D000D006D007D0E032AF827817E2FD7E0079
:2006E1000DBD00010E7847741EF208E4F2087460F2784A7422F208E4F2087460F27803E2DE
:20070100F582C007C006C005120FDB90F1F375F000122101D005D006D00790DF06EFF090A0
:20072100F1E6E4F0781CE2FCEC70030207FBC005C006C007C006C005C004122477AB82D0ED
:2007410004D005D006D007781DEBF21C781EE2FA08E2FEC007C006C005C004C002C003127D
:200761000765800BC002C00690F02275F060221581D002D004D005D006D007ECB40100E42D
:2007810033D006D0057820E2FA08E2FBC007C006C005C004C003C006741DC0E074F0C0E04D
:2007A1007460C0E01207AA800BC002C00390F02275F06022AA82E58124FCF581D003D00499
:2007C100D005D006D007EA700302072990F1E6E0FB7A000BBB00010AC3EB94FFEA648094D7
:2007E1008050A290F1E6E0FB04F0EB24E6F582E434F0F583781DE2F0808B7C007E00C3EC49
:200801009DEE9E5062EC4E60387818E2F5F008E245F0602DC005C0067818E2FA08E2FB7DCE
:20082100007E008A828B838DF0EEC007C006C005C004120DE0D004D005D006D007D006D0A3
:2008410005781A7925E2F308E209F38F82C007C006C005C004120869D004D005D006D007A7
:200861000CBC009A0E809722AF8290DF0EE0FE90DF02E0FD90DF04E0FC7874E22401F208B8
:20088100E23400F290F1E7E0FAA3E0FB4A601E90DF0EE053E0FCF090DF04E054FC4402F072
:2008A10090DF02E4F07801F27802F2801F7825E2F5F008E245F0600778027402F2800578B3
:2008C100027405F290F1E6E090DF02F075E10490DF3BE0FBBB01F890DF06EFF090F1E5E4D1
:2008E100F075E10390DF3BE0FFBF13F87825E2F5F008E245F06038C0047825E2FA08E2FB1E
:200901007C007F008A828B838CF0EFC006C005C004120DE0D004D005D00690F1E7E0FCA3A2
:20092100E0FF4CD004700878027405F243880290F1E7E0FBA3E0FF4B600578017401F290A8
:20094100DF3BE0FFBF130280F690DF3BE0FFBF160375E10490DF02EDF090DF0EEEF090DF80
:2009610004ECF022AF82782DE4F2782EF2F5117827E2F5F008E242F008E242F008E245F06D
:200981006016C2AF782F7939E3F20809E3F20809E3F20809E3F2D2AF90F20475F000C0075C
:2009A100122101784D74E9F20874F1F208E4F2785074EDF20874F1F208E4F27803E2F58285
:2009C1001210B7D00775E10490DF3BE0FCBC01F890DF06EFF07800E4F278B37411F278B461
:2009E1007420F208E4F290F0C075F000122E5A75E10290DF3BE0FFBF0DF87827E2F512081E
:200A0100E2F51308E2F51408E2F515782CE4F274E044F0602F74E044F0601A90F0E0E0FD34
:200A210090F0E175F000122F7CFEEDC39EFD8D0F7510008005E4F50FF510E50FB40100E4C9
:200A410033FE80027E01EE6003020BC9783374E0F20874F0F208E4F27C0074E044F0602A81
:200A610074E044F0601790F0E0E0FB90F0E175F000122F7CFAEBC39AFA7B0080047A007B88
:200A810000EAB40100E433FB80027B01EB6003020B247833E22402FA08E23400FB08E2FF78
:200AA1008A828B838FF0122F7CF516A3122F7CF517A3122F7CF5187833E22401F51908E251
:200AC1003400F51A08E2F51B851982851A83851BF0122F7CF50F7833E22405FA08E2340077
:200AE100FB08E2FF8A828B838FF0122F7CFA8AF0E50F84E5F02516FAE43517FFAE188A82C4
:200B01008F838EF0122F7CFC851982851A83851BF0122F7CFF0F851982851A83851BF0EF2D
:200B2100122EAE782DECF2782CE22401F2782CE2B401067582DD1225FA782CE2B4030050D3
:200B41000A782DE2F5821225FA806790F1E9E0FEA3E0FFC007C006782DE2C0E0120B6280F7
:200B61000BC006C00790F1ED75F000228582111581D006D00790F1EBE0FEA3E0FFC0077485
:200B81002DC0E074F0C0E07460C0E0120B91800BC006C00790F1ED75F00022AE8215811579
:200BA100811581D007EE600A782DE2F5821225FA80C3E5117076782BE2600D90DF02E0FF5E
:200BC100782CE2B507028064E5124513451445156045C2AF7839792FE3F5F0C3E295F0FC8D
:200BE10009E3F5F008E295F0FD09E3F5F008E295F0FE09E3F5F008E295F0FFC3E5129CE5FF
:200C0100139DE5149EE5159FE433FFD2AFEF6007782E74AAF28015787BE27003020A101245
:200C21002477E5827853F2782E74BBF275E10490DF3BE0FFBF01F874E044F0602A74E044E8
:200C4100F0601790F0E0E0FF90F0E175F000122F7CFEEFC39EFE7F0080047E007F00EEB47C
:200C61000100E433FF80027F01EF6003020D38783674E0F20874F0F208E4F274E044F060A9
:200C81002A74E044F0601790F0E0E0FC90F0E175F000122F7CFBECC39BFB7C0080047B00B0
:200CA1007C00EBB40100E433FC80027C01EC70877836E22402FA08E23400FB08E2FC8A8267
:200CC1008B838CF0122F7CF519A3122F7CF51AA3122F7CF51B7836E22401FD08E23400FE11
:200CE10008E2FF8D828E838FF0122F7CF5167836E22405FA08E23400FB08E2FC8A828B83D7
:200D01008CF0122F7CFA8AF0E51684E5F02519FAE4351AFCAB1B8A828C838BF0122F7C8DC4
:200D2100828E838FF0122F7CFC0C8D828E838FF0EC122EAE020C38782EE2700B7872E22429
:190D410001F208E23400F2782EE2F58222AF83E58290F1E7F0EFA3F022E0
:0A00E8007839E4F208F208F208F299
:200D5A007839E4F208F208F208F2F5E4F5E275E401783DE5E2F2783EE5E3F2783DE2FE087F
:200D7A00E2FFC3E49E74A09F50E775E40075DB0075DA5D75E544AFD8A2DEE4334FF5D8D24A
:200D9A00B9D2AF75E40622C0E0C007C006C005C004C000C0D075D0007839E2FC08E2FD08B5
:200DBA00E2FE08E2FF783974012CF2E43D08F2E43E08F2E43F08F2D0D0D000D004D005D0CF
:200DDA0006D007D0E032AF82AE83ADF0FC783FEFF208EEF208EDF208ECF2C2AF7843793914
:200DFA00E3F20809E3F20809E3F20809E3F2D2AFC2AF78397943E3F5F0C3E295F0FA09E31B
:200E1A00F5F008E295F0FB09E3F5F008E295F0FE09E3F5F008E295F0FF783FC3E29A08E20C
:100E3A009B08E29E08E29FE433FFD2AFEF60C12233
:200E4A00AD82AE83AFF00DBD00010E8D828E838FF0E4022EAEC01F85811FAD82AE83AFF04C
:200E6A0074012DFAE43EFB8F048A828B838CF07401122EAE8D828E838FF0E51F24FDF8E681
:200E8A00122EAED01F22C01F85811FC082C083C0F0058105810581A81F08740126FAE4082E
:200EAA0036FB0886048A828B838CF0122F7CFFBF01005005758200804CE51F24FBF8E51F1C
:200ECA002404F9E6F70809E6F70809E6F7A81F0886820886830886F0122F7CFFE51F2404E0
:200EEA00F886820886830886F0EF122EAE8A828B838CF0122F7CFF1F8A828B838CF0EF1274
:200F0A002EAE758201851F81D01F22AD82AE83AFF00DBD00010E8D828E838FF0E4022EAE84
:200F2A00C01F85811FAD82AE83AFF0E51F24FDF8E6122EAE0DBD00010E8D828E838FF074C7
:200F4A0001122EAEE51F24FDF8E670057582018003758200D01F22C01F85811FC082C08314
:200F6A00C0F0058105810581A81F08740126FAE40836FB0886048A828B838CF0122F7CFFC0
:200F8A00BF010050057582008041E51F24FBF8E51F2404F9E6F70809E6F70809E6F7A81FBA
:200FAA000886820886830886F0122F7CFFE51F2404F886820886830886F0EF122EAE8A8228
:200FCA008B838CF0E4122EAE758201851F81D01F22AF82BF0002800CBF0102804ABF0203AF
:200FEA00021074227847E2FD08E2FE08E2FF8D828E838FF0745F122EAEA3740E122EAE74E9
:20100A00022DFDE43EFE8D828E838FF07490122EAEA3740E122EAE784AE2F58208E2F58359
:20102A0008E2F5F0020E4A7847E2FD08E2FE08E2FF8D828E838FF074AB122EAEA374111228
:20104A002EAE74022DFDE43EFE8D828E838FF07470122EAEA37412122EAE784AE2F582083F
:20106A00E2F58308E2F5F00211937847E2FD08E2FE08E2FF8D828E838FF07462122EAEA322
:20108A007414122EAE74022DFDE43EFE8D828E838FF07407122EAEA37415122EAE784AE24A
:2010AA00F58208E2F58308E2F5F0021443AF82BF0002800CBF0102804ABF020302115022D2
:2010CA00784DE2FD08E2FE08E2FF8D828E838FF0742A122EAEA3740F122EAE74022DFDE4CE
:2010EA003EFE8D828E838FF07461122EAEA3740F122EAE7850E2F58208E2F58308E2F5F0E2
:20110A00020F15784DE2FD08E2FE08E2FF8D828E838FF07414122EAEA37413122EAE740287
:20112A002DFDE43EFE8D828E838FF074C9122EAEA37413122EAE7850E2F58208E2F58308EE
:20114A00E2F5F00212FB784DE2FD08E2FE08E2FF8D828E838FF07460122EAEA37416122E6C
:20116A00AE74022DFDE43EFE8D828E838FF074D3122EAEA37417122EAE7850E2F58208E2FC
:09118A00F58308E2F5F0021617E6
:20119300AD82AE83AFF074022DFDE43EFE8D828E838FF07402022EAEC01F85811FC082C084
:2011B30083C0F005810581E51F2404F8E4F608F67A087C00E51F2404F8E626FB08E633FF98
:2011D300EB2BFBEF33FF74022BFBE43FFFE51F24FDF8E6235401FE7D00EBC39EFBEF9DFF44
:2011F300E51F2404F8A60308A607E51F24FDF88607E51F24FDF8EF2FF6EA24FFFEEC34FF55
:20121300FF8E028F04EE4F70ABE51F2404F8088604A81F0886820886830886F0EC122EAE4B
:20123300A81F08740126FAE40836FB088604E51F2404F886078A828B838CF0EF122EAEA8BC
:201253001F08740226FDE40836FE0886078D828E838FF0E4122EAE851F81D01F22C01FE59B
:2012730081F51F2404F581AD82AE83AFF074022DFAE43EFB8F048A828B838CF0E51F24041A
:20129300F8122F7CF6E51F2404F8E624FE5005758200804EE51F24FBF8A91F09E6F7080970
:2012B300E6F70809E6F7E51F2404F8E62DFDE43EFE8D828E838FF0122F7CFDA81F088682CC
:2012D3000886830886F0ED122EAE8A828B838CF0122F7CFF0F8A828B838CF0EF122EAE7548
:2012F3008201851F81D01F22AD82AE83AFF0E4122EAE0DBD00010E8D828E838FF0E4022EC5
:20131300AEC01F85811F05810581AD82AE83AFF07C007A067B00C005C006C0078C07EF2F83
:20133300FC8AF005F0E51F24FDF8E68002C313D5F0FBFFA81F0874035FF6087600A81F082D
:20135300B6000C08B60008D007D006D005801CD007D006D005A81F08B6010608B600028086
:201373000FA81F08B6030A08B6000675820180400CEA24FEFAEB34FFFB30E79A8D828E8341
:201393008FF0122F7CC454F02CFB8D828E838FF0122EAE0DBD00010E8D828E838FF0122F89
:2013B3007C2404FC8D828E838FF0122EAE758200851F81D01F22C01F85811FC082C083C077
:2013D300F0058105810581A81F08740126FAE40836FB0886048A828B838CF0122F7CFFBF54
:2013F300080050057582008041E51F24FBF8E51F2404F9E6F70809E6F70809E6F7A81F08FD
:2014130086820886830886F0122F7CFFE51F2404F886820886830886F0EF122EAE8A828B37
:10143300838CF0E4122EAE758201851F81D01F22AA
:20144300AD82AE83AFF0E4122EAEA3122EAE74022DFDE43EFE8D828E838FF0E4022EAEC046
:201463001F85811FC082C083C0F0E51F24FDF8E6C4540F24A1F582E434F2F583E0FCE4C385
:20148300CC13CC13A2E0CC13CC13CCFBE51F24FDF8860253020F7F00EA24A1F582EF34F2C1
:2014A300F583E07E004204EE4203A81F0886820886830886F0122F7CFEA3122F7CEEC45453
:2014C300F0FFE44204EF4203A81F0886820886830886F0EC122EAEA3EB122EAEA81F0874BD
:2014E3000226FDE40836FE0886078D828E838FF0122F7C240C8D828E838FF0122EAE851F52
:2015030081D01F22C01F85811FC082C083C0F0058105810581A81F08740226FAE40836FBE9
:201523000886048A828B838CF0122F7CFDBD0800E433FF600DE51F24FAF8E67005F5820290
:201543001611ED7005F582021611E51F24FAF8E66057EF6054E51F24FBF8E51F2404F9E6DF
:20156300F70809E6F70809E6F7A81F0886820886830886F0122F7CFF8D067408C39EFE8E77
:20158300F005F0EF800225E0D5F0FBFEE51F2404F886820886830886F0EE122EAE8A828B01
:2015A300838CF0E4122EAE8062E51F24FBF8E51F2404F9E6F70809E6F70809E6F7A81F08AD
:2015C30086820886830886F0122F7CFEA3122F7CFFED24F8FD8DF005F08007C3EF13FFEEA6
:2015E30013FED5F0F6E51F2404F886820886830886F0EE122EAE8A828B838CF0122F7C240E
:20160300F8FF8A828B838CF0122EAE758201851F81D01F22AD82AE83AFF0E4122EAEA31298
:201623002EAE74022DFAE43EFB8F048A828B838CF0E4122EAE74032DFAE43EFB8F048A82BC
:201643008B838CF0E4122EAEA3122EAE74052DFDE43EFE8D828E838FF0E4022EAEC01F8512
:20166300811FC082C083C0F005810581A81F0886820886830886F0122F7CFBA3122F7C8B7D
:20168300047B00E51F24FDF886027F00EA4203EF4204A81F0886820886830886F0EB122EAF
:2016A300AEA3EC122EAEA81F08740226FDE40836FE0886078D828E838FF0122F7C2408FC5B
:2016C3008D828E838FF0122EAE8D828E838FF0122F7CFCBC060050030217CAA81F08868253
:2016E3000886830886F0122F7CFBA3122F7CFC8D828E838FF0122F7C24FAFA8AF005F080E1
:2017030007C3EC13FCEB13FBD5F0F6743F5BFC8D828E838FF0122F7C24FA8D828E838FF02A
:20172300122EAE7B00EB24A1F582E434F2F583E0FAB5040280060BBB100040E9BB10067534
:2017430082010217CDC005C006C007A81F08740326FAE40836FC0886078A828C838FF01206
:201763002F7CFDA3122F7CFEE51F2404F8A605EEC454F0C6C4C666C654F0C66608F67E0033
:20178300E51F2404F8E6420308E642068A828C838FF0EB122EAEA3EE122EAEA81F08740587
:2017A30026FDE40836FE0886078D828E838FF0122F7C2404FC8D828E838FF0122EAED0076A
:2017C300D006D0050216CC758200851F81D01F22C01FE581F51F2404F581AD82AE83AFF054
:2017E30074052DFAE43EFB8F048A828B838CF0E51F2404F8122F7CF6E51F2404F8B6080047
:2018030050057582008068E51F24FBF8A91F09E6F70809E6F70809E6F774032DFDE43EFE2B
:201823008D828E838FF0122F7CFDA3122F7CFEE51F2404F8E624F8FF8FF005F08007C3EE1D
:2018430013FEED13FDD5F0F6A81F0886820886830886F0ED122EAE8A828B838CF0122F7C28
:1518630024F8FF8A828B838CF0122EAE758201851F81D01F22A3
:102FAE0015313223342526161A192A0B2C0D0E1C18
:0700F2007853E4F27854F2A8
:20187800122477121C7A7853E2600C7853E2F582121C7A7853E4F222122477120245E582E6
:2018980060087582DD1225FA80067582111225FA022D19122477AF82C007122467AE827DCD
:2018B8000078BA7402F208E4F28E828D83122EC9AD82AE83D0077855EDF2BF01028005BF86
:2018D800021280087CF37EF17F00800E7C047EF27F0080067C007E007F00EC4E60158C823E
:2018F8008E838FF0C007C006C004122068D004D006D0077A007B00C004C006C0077855E2DF
:20191800FE7F00C3EA9EEB64808FF063F08095F0D007D006D0045053C007C006C004C00309
:20193800C0021224777856E582F2122477AD82D002D003D004D006D007EC4E6027785679EF
:2019580064E2F37865EDF28C828E838FF0C007C006C004C003C00212206CD002D003D004EF
:20197800D006D0070ABA008F0B808C7582DD1225FA022D19122477AF82C0071225BBAB8227
:20199800AC83ADF0FED0077827EBF208ECF208EDF208EEF27854792BE2F38F82120965E5A2
:2019B80082FE60058E821225FA022D197582DD1225FA902F9C75F080022E2D7582DD1225F4
:2019D800FA902F9F75F080022E2D122477AF82C0071224777857E582F212259CAC82AD83AA
:2019F800C005C00412259CAA82AB83C003C002122467AE82D002D003D004D005D0077857D3
:201A18007917E2F37818ECF208EDF2781AEAF208EBF2781CEEF28F821206D97582DD122520
:201A3800FA022D191224777858E582F2122477AF82C00712259C7859E582F208E583F21260
:201A58002477785BE582F21225BBAA82AC83ADF0FEC006C005C004C002122477AB82D00202
:201A7800C003C00212259C785CE582F208E583F2122467785EE582F2D002D003D004D0054D
:201A9800D006D0077817EFF278597918E2F308E209F3785C791AE2F308E209F3785E791C67
:201AB800E2F37858E2F582C006C005C004C003C0021206D9D002D003D004D005D006782788
:201AD800EAF208ECF208EDF208EEF27854792BE2F3785BE2F582C006C005C004C003C00218
:201AF800120965AF82D002D003D004D005D006BFAA5DEB605A785C7925E2F308E209F378E9
:201B180058E2F582C006C005C004C003C002120869D002D003D004D005D0067827EAF208FE
:201B3800ECF208EDF208EEF27854792BE2F3785BE2F582C006C005C004C003C0021209651B
:201B5800AF82D002D003D004D005D0061B80A0EF60058F821225FA022D19122477121D0221
:201B7800AF827582DDC0071225FAD0078F821225FA022D19122477AF82C007122477AE826D
:201B9800D0077863EEF28F82C007121E90AE82D007BF020578547401F28E821225FA022D93
:201BB80019C2AF75C909221224771224777582DD1225FA022D1912259C120D4E7582DD124D
:201BD80025FA022D19120141758200120245900000120D4E7582DD1225FA022D197582DDC4
:201BF8001225FAC2AF785F7939E3F20809E3F20809E3F20809E3F2D2AF785FE2F58208E280
:201C1800F58308E2F5F008E21228FD786EE2F58208E2F5831226F67870E2F58208E2F583D2
:201C38001226F67872E2F58208E2F5831226F67874E2F58208E2F5831226F67876E2F5826F
:201C580008E2F5831226F67878E2F58208E2F5831226F69000001226F69000001226F60285
:201C78002D19E582FF6029BF0F005024EF75F002A424B1F58274F235F0F583E0FEA3E0FF2C
:201C9800C007C0068E828F83120089D006D00722122467E582600512247780F4758222125E
:051CB80025FA022D19C0
:122F9C004F4B00737562675F726673707920332E35008F
:1E2FBE000000C419D3198C19E2193C1A8C1BB91BBF1B721BAB189018CE1BDD1BF51BF8
:201CBD00AF82D2A17E048E051EED70FAC2AFC2A17E018E051EED70FA7E01EE601BEE5FB495
:201CDD000100B3E43324FF92A18E05ED2DFE7D008D041DEC60E480F8D2A1D2AF7F028F063E
:201CFD001FEE70FA22122477E582FF24D15003021E8BEF240A83F582EF243383F583E47379
:201D1D007B838B939BA3ABB3BBC3CBD3DBE3EBF3FB030B131B222930373E454C535A616808
:201D3D008B8B8B8B6F768B8B8B8B8B8B8B7D841D1D1D1D1D1D1D1D1D1D1D1D1D1D1D1D1DBA
:201D5D001E1E1E1E1E1E1E1E1E1E1E1E1E1E1E1E1E1E1E1E1E1E1E1E1E1E1E1E1E1E90DF73
:201D7D0000E0FF021E8D90DF01E0FF021E8D90DF02E0FF021E8D90DF03E0FF021E8D90DF54
:201D9D0004E0FF021E8D90DF05E0FF021E8D90DF06E0FF021E8D90DF07E0FF021E8D90DF24
:201DBD0008E0FF021E8D90DF09E0FF021E8D90DF0AE0FF021E8D90DF0BE0FF021E8D90DFF4
:201DDD000CE0FF021E8D90DF0DE0FF021E8D90DF0EE0FF021E8D90DF0FE0FF021E8D90DFC4
:201DFD0010E0FF021E8D90DF11E0FF021E8D90DF12E0FF021E8D90DF13E0FF021E8D90DF94
:201E1D0014E0FF806B90DF15E0FF806490DF16E0FF805D90DF17E0FF805690DF18E0FF801E
:201E3D004F90DF19E0FF804890DF1AE0FF804190DF1BE0FF803A90DF1CE0FF803390DF1D12
:201E5D00E0FF802C90DF1EE0FF802590DF1FE0FF801E90DF24E0FF801790DF25E0FF8010B2
:201E7D0090DF2DE0FF800990DF2EE0FF80027F5A8F8222AF827EDDEF24D15003022063EF00
:201E9D00240A83F582EF243383F583E47308121C26303A444E58626C76808A949EA8B2BC1F
:201EBD00C6D0DAE4EEF70009121B242D36636363633F4863636363636363515A1F1F1F1F20
:201EDD001F1F1F1F1F1F1F1F1F1F1F1F1F1F1F1F1F1F1F1F1F2020202020202020202020FA
:201EFD002020202020202020202020786390DF00E2F0022065786390DF01E2F002206578A6
:201F1D006390DF02E2F0022065786390DF03E2F0022065786390DF04E2F0022065786390BF
:201F3D00DF05E2F0022065786390DF06E2F0022065786390DF07E2F0022065786390DF08A2
:201F5D00E2F0022065786390DF09E2F0022065786390DF0AE2F0022065786390DF0BE2F08B
:201F7D00022065786390DF0CE2F0022065786390DF0DE2F0022065786390DF0EE2F0022012
:201F9D0065786390DF0FE2F0022065786390DF10E2F0022065786390DF11E2F0022065782E
:201FBD006390DF12E2F0022065786390DF13E2F0022065786390DF14E2F0022065786390EF
:201FDD00DF15E2F0022065786390DF16E2F0022065786390DF17E2F0806E786390DF18E279
:201FFD00F08065786390DF19E2F0805C786390DF1AE2F08053786390DF1BE2F0804A7863F9
:20201D0090DF1CE2F08041786390DF1DE2F08038786390DF1EE2F0802F786390DF1FE2F070
:20203D008026786390DF24E2F0801D786390DF25E2F08014786390DF2DE2F0800B786390EC
:20205D00DF2EE2F080027E118E8222E4022EAEAFF0AE83E5827866F208EEF208EFF27866C9
:20207D00E2F58208E2F58308E2F5F0122F7CFCBC0700506F7866E22401FA08E23400FB087E
:20209D00E2FFEC2C2AFCE43BFE8F058C828E838DF07864E2122EAE7866E2F58208E2F58372
:2020BD0008E2F5F0122F7C25E0FE2AFAE43BFB0ABA00010B8A828B838FF07865E2122EAE20
:2020DD007866E2F58208E2F58308E2F5F0122F7CFF0F7866E2F58208E2F58308E2F5F0EF59
:2020FD00022EAE22AFF0AE83E5827869F208EEF208EFF27869E22401FA08E23400FB08E203
:20211D00FC786CE4F208F2C002C003C0047869E2F58208E2F58308E2F5F0122F7CFC7D0008
:20213D00786CC3E29C08E264808DF063F08095F0D004D003D002505C786CE225E0F51C08B1
:20215D00E233F51DE51C2AFDE51D3BFE8C078D828E838FF0122F7CF51EE51C2AFDE51D3B71
:20217D00FE8C070DBD00010E8D828E838FF07863122F7CF2851E82C004C003C002121E9081
:15219D00D002D003D004786CE22401F208E23400F2022124225E
:0D00F900787AE4F2787DF2787EF2787FF27A
:2021B20074FE55F14402F5F143F4F053FE0F747F55F84420F5F875FA3BE5FC75FC0B53882F
:2021D200F7D2AB53E8FB439A0875F944741544F2602F90F215E4F090F21675F000122EAE08
:2021F20090F21775F000741B122EAEA374F2122EAEA3E4122EAE90F21A75F0007440122EF1
:20221200AE745B44F2602F90F25BE4F090F25C75F000122EAE90F25D75F0007461122EAE81
:20223200A374F2122EAEA3E4122EAE90F26075F0007440022EAE22C0E0C0F0C082C083C090
:2022520007C006C005C004C003C002C001C000C0D075D000AFF9787CE2FE24FC5003022327
:2022720088EE2E2E90227A730222930222B9022308BF99028003022388787C7401F2022310
:2022920088BF990280197878E2FD08E2FE787874012DF2E43E08F2787C7403F202238878D8
:2022B2007C7401F2022388EF24BF50197878E2FD08E2FE787874012DF2E43E08F2787C7482
:2022D20003F2022388787DEFF2787D797FE2F3787E797FC3E2F5F0E395F05006787E797F8E
:2022F200E2F3787FE26008787C7402F2022388787CE4F2022388787FE2606F90F215E0FE19
:2023120090F216E0FDEEC39DFE787DC3E2F5F0EE95F0504F90F217E0FCA3E0FDA3E0FE9053
:20233200F215E0FB90F21AE0FA8AF0EB84E5F0FB2CFCE43DFD8C828D838EF0EF122EAE902B
:20235200F215E0FF0F90F215EFF0E0FF90F216E0FEEFC39EFF787DE2B50708787DE4F2787E
:202372007B04F2787FE2787F14F2787FE27007787EE4F2787CF2D0D0D000D001D002D0031C
:20239200D004D005D006D007D083D082D0F0D0E032C0E0C0F0C082C083C007C006C005C0A7
:2023B20004C003C000C0D075D00053E8FB787CE27036787AE2602C745B44F2601790F25B44
:2023D200E0FF90F25C75F000122F7CFEEFC39EFE7F0080047E007F00787EEEF2787EE2F51D
:2023F200F9805B75F9008056787EE2604E90F25BE0FF90F25CE0FEEFB50602803990F25D71
:20241200E0FDA3E0FEA3E0FF90F25CE0FC90F260E0FB8BF0EC84E5F0FC2DFDE43EFE8D823E
:202432008E838FF0122F7CF5F990F25CE0FF0F90F25CEFF0800875F900800375F900D0D03F
:20245200D000D003D004D005D006D007D083D082D0F0D0E03290F215E0FF90F216E0FEEF4F
:20247200C39EF58222787BE2700B787BE2700690F0BFE060F5788C7415F20874F2F208E476
:20249200F27C00741544F2602A741544F2601790F215E0FB90F21675F000122F7CFAEBC369
:2024B2009AFA7B0080047A007B00EAB40100E433FB80027B01EB600302255E788CE22402F4
:2024D200FA08E23400FB08E2FF8A828B838FF0122F7CF520A3122F7CF521A3122F7CF52296
:2024F200788CE22401F52408E23400F52508E2F5268524828525838526F0122F7CF5237829
:202512008CE22405FA08E23400FB08E2FF8A828B838FF0122F7CFA8AF0E52384E5F02520A6
:20253200FAE43521FFAE228A828F838EF0122F7CFC8524828525838526F0122F7CFF0F85EE
:2025520024828525838526F0EF122EAE8C07741544F2602A741544F2601790F215E0FE9007
:20257200F21675F000122F7CFDEEC39DFD7E0080047D007E00EDB40100E433FE80027E0122
:20259200EE6004787BE4F28F8222122477AE827F00C007C006122477AD82D006D0077C00ED
:2025B200ED2FF582EC3EF5832212259CAE82AF838F048E057E007F00C007C006C005C00444
:2025D20012259CAA82AB83D004D005D006D0078A008B01E4FAFBE82EFEE93FFFEA3DFDEB2D
:2025F2003C8E828F838DF022E5827892F2788F745BF20874F2F208E4F2745B44F2700122CB
:202612007E5B7DF27C00745B44F2604D745B44F2601C90F25BE0F52090F25C75F000122F5B
:202632007CFFE520C39FFF8F217522008005E4F521F5227893E521F274052EFAE43DFB8C7E
:20265200078A828B838FF0122F7CFA7893E2B5020474018001E4FF80027F01EF60012278A4
:202672008FE22402FA08E23400FB08E2FF8A828B838FF0122F7CFAA3122F7CFBA3122F7CAA
:20269200788FE2F58208E2F58308E2F5F0122F7CFF788FE22405FC08E23400FD08E2FE8C3E
:2026B200828D838EF0122F7CFC8CF0EF84E5F0FF2AFAE43BFB8A828B838FF07892E2122E79
:2026D200AE788FE2F58208E2F58308E2F5F0122F7CFF0F788FE2F58208E2F58308E2F5F04D
:2026F200EF022EAEAE82AF838F057894745BF20874F2F208E4F2745B44F2700302280C7CD0
:202712005B7BF27A00745B44F2605A745B44F26022C006C00790F25BE0FF90F25C75F00093
:20273200122F7CFEEFC39EFF8F20752100D007D0068005E4F520F521C006C0077897E52056
:20275200F274052CFCE43BFE8A078C828E838FF0122F7CFC7897E2B5040474018001E4D077
:2027720007D00680027F01EF600302280CC006C0077894E22402FB08E23400FC08E2FF8BB6
:20279200828C838FF0122F7CFBA3122F7CFCA3122F7C7894E2F58208E2F58308E2F5F012FB
:2027B2002F7CF5207894E22405FA08E23400FE08E2FF8A828E838FF0122F7CFA8AF0E5205F
:2027D20084E5F0FA2BFBE43CFC8B828C838FF0ED122EAE7894E2F58208E2F58308E2F5F046
:2027F200122F7CFF0F7894E2F58208E2F58308E2F5F0EF122EAED007D0068E057898745B6A
:20281200F20874F2F208E4F2745B44F27001227A5B7EF27F00745B44F2603E745B44F26012
:202832001790F25BE0FC90F25C75F000122F7CFBECC39BFB7C0080047B007C0074052AFAE2
:20285200E43EFE8A828E838FF0122F7CFAEBB5020474018001E4FF80027F01EF6001227888
:2028720098E22402FC08E23400FE08E2FF8C828E838FF0122F7CF522A3122F7CF523A31206
:202892002F7CF5247898E2F58208E2F58308E2F5F0122F7CF5207898E22405FA08E23400C3
:2028B200FB08E2FF8A828B838FF0122F7CFA8AF0E52084E5F02522FAE43523FFAE248A82A0
:2028D2008F838EF0ED122EAE7898E2F58208E2F58308E2F5F0122F7CFF0F7898E2F58208A5
:2028F200E2F58308E2F5F0EF022EAEAF82AE83ADF0FC789BEFF208EEF208EDF208ECF278B4
:202912009B79A2080808E2F3789F745BF20874F2F208E4F2745B44F27003022A097A5B7BEF
:20293200F27F00745B44F2603E745B44F2601790F25BE0FE90F25C75F000122F7CFDEEC38C
:202952009DFD7E0080047D007E0074052AFAE43BFB8A828B838FF0122F7CFAEDB5020474AB
:20297200018001E4FF80027F01EF6003022A09789FE22402FD08E23400FE08E2FF8D828E99
:20299200838FF0122F7CFDA3122F7CFEA3122F7CFF789FE2F58208E2F58308E2F5F0122FCA
:2029B2007CF520789FE22405FA08E23400FB08E2FC8A828B838CF0122F7CFA8AF0E5208409
:2029D200E5F0FA2DFDE43EFE8D828E838FF078A2E2122EAE789FE2F58208E2F58308E2F592
:2029F200F0122F7CFF0F789FE2F58208E2F58308E2F5F0EF122EAE789B79A60808E2F378FD
:202A1200A3745BF20874F2F208E4F2745B44F27003022B127A5B7BF27F00745B44F26050D5
:202A3200745B44F26026C002C003C00790F25BE0FF90F25C75F000122F7CFBEFC39BFF8F1B
:202A520021752200D007D003D0028005E4F521F522AE2174052AFAE43BFB8A828B838FF07B
:202A7200122F7CFAEEB5020474018001E4FF80027F01EF6003022B1278A3E22402FA08E271
:202A92003400FB08E2FF8A828B838FF0122F7CFAA3122F7CFBA3122F7CFF78A3E2F5820886
:202AB200E2F58308E2F5F0122F7CF52178A3E22405FC08E23400FD08E2FE8C828D838EF047
:202AD200122F7CFC8CF0E52184E5F0FC2AFAE43BFB8A828B838FF078A6E2122EAE78A3E292
:202AF200F58208E2F58308E2F5F0122F7CFF0F78A3E2F58208E2F58308E2F5F0EF122EAECF
:202B1200789B79AA08E2F378A7745BF20874F2F208E4F2745B44F27003022C1A7A5B7BF270
:202B32007F00745B44F26050745B44F26026C002C003C00790F25BE0FF90F25C75F0001267
:202B52002F7CFBEFC39BFF8F21752200D007D003D0028005E4F521F522AE2174052AFAE4C8
:202B72003BFB8A828B838FF0122F7CFAEEB5020474018001E4FF80027F01EF6003022C1A9F
:202B920078A7E22402FA08E23400FB08E2FF8A828B838FF0122F7CFAA3122F7CFBA3122F71
:202BB2007CFF78A7E2F58208E2F58308E2F5F0122F7CF52178A7E22405FC08E23400FD08C3
:202BD200E2FE8C828D838EF0122F7CFC8CF0E52184E5F0FC2AFAE43BFB8A828B838FF07888
:202BF200AAE2122EAE78A7E2F58208E2F58308E2F5F0122F7CFF0F78A7E2F58208E2F583FB
:202C120008E2F5F0EF122EAE789B79AEE2F378AB745BF20874F2F208E4F2745B44F270014F
:202C3200227A5B7BF27C00745B44F26050745B44F26026C002C003C00490F25BE0FC90F2DE
:202C52005C75F000122F7CFBECC39BFC8C21752200D004D003D0028005E4F521F522AF2180
:202C720074052AFAE43BFB8A828B838CF0122F7CFAEFB5020474018001E4FF80027F01EFCA
:202C920060012278ABE22402FB08E23400FC08E2FF8B828C838FF0122F7CFBA3122F7CFCC7
:202CB200A3122F7C78ABE2F58208E2F58308E2F5F0122F7CFA78ABE22405FD08E23400FEF7
:202CD20008E2FF8D828E838FF0122F7CFD8DF0EA84E5F02BFBE43CFC8B828C838FF078AEDD
:202CF200E2122EAE78ABE2F58208E2F58308E2F5F0122F7CFF0F78ABE2F58208E2F5830894
:202D1200E2F5F0EF022EAE745B44F2602A745B44F2601790F25BE0FF90F25C75F000122FC2
:202D32007CFEEFC39EFE7F0080047E007F00EEB40100E433FF80027F01EF600122C2AF78A3
:202D5200AF7939E3F20809E3F20809E3F20809E3F2D2AF787A7401F2745B44F2602A745B41
:202D720044F2601790F25BE0FF90F25C75F000122F7CFEEFC39EFE7F0080047E007F00EE9E
:202D9200B40100E433FF80027F01EF704290F0BFE0703CC2AF783979AFE3F5F0C3E295F0AC
:202DB200FC09E3F5F008E295F0FD09E3F5F008E295F0FE09E3F5F008E295F0FFC374889CF0
:202DD20074139DE49EE49FE433FFD2AFEF6089787EE2604290F0BFE0703CC2AF783979AFBA
:202DF200E3F5F0C3E295F0FC09E3F5F008E295F0FD09E3F5F008E295F0FE09E3F5F008E29D
:202E120095F0FFC374889C74139DE49EE49FE433FFD2AFEF60B9787AE4F222AD82AE83AF00
:202E3200F08D828E838FF0122F7CFC60188C82C007C006C0051225FAD005D006D0070DBDE3
:082E520000DF0E80DC022D19E7
:0600BA00E478FFF6D8FD1A
:202E5A00AFF0AE83E58278B6F208EEF208EFF278B6E2FA08E2FB08E2FC78B4E2F52008E24E
:202E7A00F521AE20AF21152074FFB520021521EE4F60138A828B838CF078B3E2122EAEA3EB
:142E9A00AA82AB8380DC78B6E2F58208E2F58308E2F5F02294
:20009800792EE94400601B7A01902FAE78A17593F2E493F2A308B800020593D9F4DAF2758A
:0200B80093FFB4
:1B2EAE0020F71130F6138883A88220F509F6A8837583002280FEF280F5F02223
:202EC900AE82E583FF33E433FD6009C3E49EFBE49FFC80048E038F0478BBE233E433FF607D
:202EE9001078BAE2D3F43400FA08E2F43400FE800778BAE2FA08E2FE78BCEAF208EEF28BA0
:202F0900828C83C007C005122F2EAC82AE83D005D007EF6D600AC3E49CF582E49EF5832275
:052F29008C828E832262
:2000C00078BEE84400600A79007593F0E4F309D8FC78E3E84401600C790290F0BEE4F0A30B
:0400E000D8FCD9FA75
:202F2E00AE82AF837C007D007B10EF235401FAEE2EFEEF33FFEC2CFCED33FDEA600343043C
:202F4E000178BCC3E2F5F0EC95F008E2F5F0ED95F0401178BCD3E29CF4B3FCB308E29DF44B
:0E2F6E00FD430601EB14FB70C18E828F83229F
:02008900E4731E
:0D008B00758126122F98E582600302008621
:1C2F7C0020F71430F6148883A88220F507E6A88375830022E280F7E49322E02264
:042F9800758200221C
:00000001FF
