:0600000002008B020270F9
:01000B0032C2
:0100130032BA
:03001B000220615F
:0100230032AA
:01002B0032A2
:01003300329A
:01003B003292
:01004300328A
:03004B00020BCCD9
:01005300327A
:01005B003272
:01006300326A
:01006B003262
:030073000221B8AF
:01007B003252
:03008300020490E4
:030106000200866E
:030086000201096B
:0301090002010CE4
:20010C0053BEFBE5BE30E6FB75C6A8E5C620E6FB43BE04120B88D2AF121FCA120159D280A0
:20012C00900064E4F5F0120C0BC280D281900064E4F5F0120C0BC28190F0B37401F075C939
:0D014C000890F0B4E0700512168B80F522CB
:0400E4007803E4F2C7
:2001590090DF0074FFF090DF01E4F090DF0214F090DF03E4F090DF04F090DF05F090DF0778
:200179007406F090DF08E4F090DF0C7499F090DF0DF4F090DF0E03F090DF0F7461F090DFB7
:2001990010747EF090DF117415F090DF127407F090DF137430F090DF1403F090DF1514F05B
:2001B90090DF16746CF090DF1A74B6F090DF1B7411F090DF1C74E9F090DF1D742AF090DFCE
:2001D9001EE4F090DF1F741FF090DF247431F090DF257409F090DF2EE4F090DF177407F078
:2001F90090DF18E4F090DF197491F090DF097426F090DF0A7430F090DF0B7470F090DF063C
:200219007402F090DF2D74C0F0439A01D2A874D544F0602F90F0D5E4F090F0D675F0001245
:200239002D2290F0D775F00074B5122D22A374F0122D22A3E4122D2290F0DA75F00074206D
:20025900022D2222E582FF24FD40087803EFF27582012275820022C0E0C0F0C082C083C01F
:2002790007C006C005C004C003C002C000C0D075D00090DF3BE0FFBF0D0280030203DCAF8B
:20029900D97800E2600302037490DF3AE0FE90F0D5E0FD7C0090F0D6E0FB7A00EDC39BFD0E
:2002B900EC9AFCBD2016BC00137864E2FC08E2FD786474012CF2E43D08F28034C00790F0BB
:2002D900D7E0FBA3E0FCA3E0FD90F0D5E0FA53021F7F00EA2BFBEF3CFC8B828C838DF0EE74
:2002F900122D2290F0D5E0FF0F90F0D5EFF0D0077866E2FE90F0D5E0FD7C0090F0D6E0FB99
:200319007A00EDC39BFDEC9AFCBD2016BC00137864E2FC08E2FD786474012CF2E43D08F293
:200339008034C00790F0D7E0FBA3E0FCA3E0FD90F0D5E0FA53021F7F00EA2BFBEF3CFC8B14
:20035900828C838DF0EE122D2290F0D5E0FF0F90F0D5EFF0D00778007402F290F0D5E0FEC6
:200379007D0090F0D6E0FC7B00EEC39CFEED9BFDBE2016BD00137864E2FD08E2FE786474B3
:20039900012DF2E43E08F2803090F0D7E0FCA3E0FDA3E0FE90F0D5E0FB53031F7A00EB2CEE
:2003B900FCEA3DFD8C828D838EF0EF122D2290F0D5E0FF0F90F0D5EFF07800E2780004F2D9
:2003D90002047790DF3BE0FFBF130280030204777802E2FF24F95003020477EF2F9003FA37
:2003F90073800C801B8077804080318049806F90F1DCE0FEA3E0FF8FD978027401F2805E46
:2004190090F1DCE0FEA3E0FF8ED97801E2600778027404F280487802E4F2804290DF00E0D0
:20043900F5D978027403F2803590DF01E0F5D978027405F2802890F1DAE0FF04F0EF24DB76
:20045900F582E434F0F583E0F5D990F1DAE0FF90F1DBE0FEC3EF9E400578027406F2D0D04F
:20047900D000D002D003D004D005D006D007D083D082D0F0D0E032C0E0C007C006C000C0A4
:20049900D075D000539BFCE5E930E70875E10453E97F8023E5E930E6167862E2FE08E2FF02
:2004B900786274012EF2E43F08F253E9BF8008E5E930E50353E9DFD0D0D000D006D007D026
:2004D900E032E582780AF27804E2FD7E000DBD00010E783B740CF208E4F2087460F2783EDD
:2004F9007410F208E4F2087460F27803E2F582C006C005120E1990F1E875F000121F19D041
:2005190005D006780A90DF06E2F090F1DBE4F07809E2FCEC70030205F6C005C006C006C022
:2005390005C004122271AB82D004D005D006780BEBF21C780CE2FA08E2FEC006C005C00475
:20055900C002C003120562800BC002C00690F01075F060221581D002D004D005D006ECB473
:2005790001009200D006D005780EE2FA08E2FBC006C005C004C003A200E433C0E0740BC033
:20059900E074F0C0E07460C0E01205A7800BC002C00390F01075F06022AA82E58124FCF5FE
:2005B90081D003D004D005D006EA700302052C90F1DBE0FB7A000BBB00010AC3EB94FFEA12
:2005D9006480948050A290F1DBE0FB04F0EB24DBF582E434F0F583780BE2F0808B7B007CB5
:2005F90000C3EB9DEC9E506BEB4C60387805E2F5F008E245F0602DC005C0067805E2FA08A7
:20061900E2FD7E007F008A828D838EF0EFC006C005C004C003120C0BD003D004D005D006CF
:20063900D006D00575C9A875C95878077913E2F308E209F3780AE2F582C006C005C004C0CA
:200659000312066DD003D004D005D0060BBB00910C808E22AF8290DF0EE0FE90DF02E0FD3A
:2006790090DF04E0FC7868E22401F208E23400F290F1DCE0FAA3E0FB4A601E90DF0EE053FC
:20069900E0FCF090DF04E054FC4402F090DF02E4F07801F27802F2801F7813E2F5F008E2A5
:2006B90045F0600778027402F2800578027405F290F1DBE090DF02F075E10490DF3BE0FBBD
:2006D900BB01F890DF06EFF090F1DAE4F075E10390DF3BE0FFBF13F87813E2F5F008E2459D
:2006F900F06038C0047813E2FA08E2FB7C007F008A828B838CF0EFC006C005C004120C0B51
:20071900D004D005D00690F1DCE0FCA3E0FF4CD004700878027405F243880290F1DCE0FB04
:20073900A3E0FF4B600578017401F290DF3BE0FFBF130280F690DF3BE0FFBF160375E10400
:2007590090DF02EDF090DF0EEEF090DF04ECF022AF82781CE4F2781DF2F50A7815E2F5F0F1
:2007790008E242F008E242F008E245F06016C2AF781E792CE3F20809E3F20809E3F2080935
:20079900E3F2D2AF90F1F975F000C007121F19784174DEF20874F1F208E4F2784474E2F2BC
:2007B9000874F1F208E4F27803E2F582120EF5D00775E10490DF3BE0FCBC01F890DF06EF2A
:2007D900F07800E4F278A87411F278A97420F208E4F290F0B575F000122CCE75E10290DF39
:2007F9003BE0FFBF0DF87815E2F50B08E2F50C08E2F50D08E2F50E781BE4F275C9A875C942
:200819005874D544F0603274D544F0601A90F0D5E0FD90F0D675F000122DEDFEEDC39EFDFF
:200839008D087509008005E4F508F509AE087822EEB40100E433F2800578227401F278220C
:20085900E260030209E2782374D5F20874F0F208E4F27C0074D544F0602C74D544F06017C2
:2008790090F0D5E0FB90F0D675F000122DEDFAEBC39AFA7B0080047A007B007826EAB401DB
:2008990000E433F2800578267401F27826E2600302093D7823E22402FA08E23400FB08E2E1
:2008B900FF8A828B838FF0122DEDF50FA3122DEDF510A3122DEDF5117823E22401F51208FD
:2008D900E23400F51308E2F5148512828513838514F0122DEDF5087823E22405FA08E2344A
:2008F90000FB08E2FF8A828B838FF0122DEDFA8AF0E50884E5F0250FFAE43510FFAE118ADD
:20091900828F838EF0122DEDFC8512828513838514F0122DEDFF0F8512828513838514F0D0
:20093900EF122D22781CECF2781BE22401F2781BE2B401067582DD12240B781BE2B40300DF
:20095900500A781CE2F58212240B806790F1DEE0FEA3E0FFC007C006781CE2C0E012097B17
:20097900800BC006C00790F1E275F0002285820A1581D006D00790F1E0E0FEA3E0FFC00780
:20099900741CC0E074F0C0E07460C0E01209AA800BC006C00790F1E275F00022AE82158109
:2009B90015811581D007EE600A781CE2F58212240B80C3E50A707A7819E2600D90DF02E048
:2009D900FF781BE2B507028068E50B450C450D450E6049C2AF782C791EE3F5F0C3E295F0B7
:2009F900FC09E3F5F008E295F0FD09E3F5F008E295F0FE09E3F5F008E295F0FF7827C3E5E1
:200A19000B9CE50C9DE50D9EE50E9FE433F2D2AF7827E26007781D74AAF28015786FE27081
:200A390003020814122271E5827847F2781D74BBF275E10490DF3BE0FFBF01F874D544F0F1
:200A5900602C74D544F0601790F0D5E0FF90F0D675F000122DEDFEEFC39EFE7F0080047E15
:200A7900007F00781AEEB40100E433F28005781A7401F2781AE26003020B66782874D5F2FD
:200A99000874F0F208E4F274D544F0602C74D544F0601790F0D5E0FC90F0D675F000122DD9
:200AB900EDFBECC39BFB7C0080047B007C00782BEBB40100E433F28005782B7401F2782B7B
:200AD900E26003020A557828E22402FA08E23400FB08E2FC8A828B838CF0122DEDF512A34A
:200AF900122DEDF513A3122DEDF5147828E22401FD08E23400FE08E2FF8D828E838FF01277
:200B19002DEDF50F7828E22405FA08E23400FB08E2FC8A828B838CF0122DEDFA8AF0E50FD0
:200B390084E5F02512FAE43513FCAB148A828C838BF0122DED8D828E838FF0122DEDFC0C96
:200B59008D828E838FF0EC122D22020A55781DE2700B7866E22401F208E23400F2781DE2DF
:0F0B7900F58222AF83E58290F1DCF0EFA3F0224A
:0A00E800782CE4F208F208F208F2A6
:200B8800782CE4F208F208F208F2F5E4F5E275E4017830E5E2F27831E5E3F27830E2FE0887
:200BA800E2FFC3E49E74A09F50E775E40075DB0075DA5D75E544A2DEE43342D8D2B9D2AF6D
:200BC80075E40622C0E0C007C006C005C004C000C0D075D000782CE2FC08E2FD08E2FE08E8
:200BE800E2FF782C74012CF2E43D08F2E43E08F2E43F08F2D0D0D000D004D005D006D007BB
:200C0800D0E032AF82AE83ADF0FC7832EFF208EEF208EDF208ECF2C2AF7836792CE3F2080E
:200C280009E3F20809E3F20809E3F2D2AFC2AF782C7936E3F5F0C3E295F0FA09E3F5F008F8
:200C4800E295F0FB09E3F5F008E295F0FE09E3F5F008E295F0FF783A7932C3E39A09E39B89
:190C680009E39E09E39FE433F2D2AF783AE2700875C9A875C95880B522F5
:200C8100AD82AE83AFF00DBD00010E8D828E838FF0E4022D22C018858118AD82AE83AFF0B2
:200CA10074012DFAE43EFB8F048A828B838CF07401122D228D828E838FF0E51824FDF8E6E0
:200CC100122D22D01822C018E581F5182406F581C8E5182404C8A68208A68308A6F0E51814
:200CE1002404F8740126FAE40836FB0886048A828B838CF0122DEDFFBF01005005758200C2
:200D0100804AE51824FBF8A91809E6F70809E6F70809E6F7E5182404F886820886830886AD
:200D2100F0122DEDFFA8180886820886830886F0EF122D228A828B838CF0122DEDFF1F8A7E
:200D4100828B838CF0EF122D22758201851881D01822AD82AE83AFF00DBD00010E8D828EA1
:200D6100838FF0E4022D22C018858118AD82AE83AFF0E51824FDF8E6122D220DBD00010E10
:200D81008D828E838FF07401122D22E51824FDF8E670057582018003758200D01822C01818
:200DA100858118C082C083C0F0058105810581A81808740126FAE40836FB0886048A828BAA
:200DC100838CF0122DEDFFBF010050057582008041E51824FBF8E5182404F9E6F70809E615
:200DE100F70809E6F7A8180886820886830886F0122DEDFFE5182404F886820886830886BF
:200E0100F0EF122D228A828B838CF0E4122D22758201851881D01822AF82BF0002800CBF59
:200E21000102804ABF0203020EB222783BE2FD08E2FE08E2FF8D828E838FF07496122D22CF
:200E4100A3740C122D2274022DFDE43EFE8D828E838FF074C7122D22A3740C122D22783ED8
:200E6100E2F58208E2F58308E2F5F0020C81783BE2FD08E2FE08E2FF8D828E838FF074E9F9
:200E8100122D22A3740F122D2274022DFDE43EFE8D828E838FF07487122D22A37410122D48
:200EA10022783EE2F58208E2F58308E2F5F0020FD1783BE2FD08E2FE08E2FF8D828E838FDB
:200EC100F07475122D22A37412122D2274022DFDE43EFE8D828E838FF0741A122D22A374E8
:200EE10013122D22783EE2F58208E2F58308E2F5F0021256AF82BF0002800CBF0102804AC9
:200F0100BF0203020F8E227841E2FD08E2FE08E2FF8D828E838FF07468122D22A3740D12D0
:200F21002D2274022DFDE43EFE8D828E838FF0749F122D22A3740D122D227844E2F58208EC
:200F4100E2F58308E2F5F0020D537841E2FD08E2FE08E2FF8D828E838FF07427122D22A35E
:200F61007411122D2274022DFDE43EFE8D828E838FF074DC122D22A37411122D227844E253
:200F8100F58208E2F58308E2F5F002110E7841E2FD08E2FE08E2FF8D828E838FF074731286
:200FA1002D22A37414122D2274022DFDE43EFE8D828E838FF074E6122D22A37415122D22AE
:100FC1007844E2F58208E2F58308E2F5F002142A9A
:200FD100AD82AE83AFF074022DFDE43EFE8D828E838FF07402022D22C018858118C082C0E3
:200FF10083C0F07E007D007A087C00EE2EFBED33FFEB2BFBEF33FF74022BFBE43FFFE51891
:2010110024FDF8E6235401FE7D00EBC39EFBEF9DFF8B068F05E51824FDF88607E51824FD15
:20103100F8EF2FF61ABAFF011CEA4C70BE8D04A8180886820886830886F0EC122D22A81842
:2010510008740126FAE40836FB0886048E078A828B838CF0EF122D22A81808740226FDE473
:201071000836FE0886078D828E838FF0E4122D22851881D01822C018E581F5182404F58199
:20109100AD82AE83AFF074022DFAE43EFB8F048A828B838CF0A81808122DEDF6A81808E6C5
:2010B10024FE5005758200804EE51824FBF8A9180909E6F70809E6F70809E6F7A81808E695
:2010D1002DFDE43EFE8D828E838FF0122DEDFDA818080886820886830886F0ED122D228AAE
:2010F100828B838CF0122DEDFF0F8A828B838CF0EF122D22758201851881D01822AD82AEB6
:2011110083AFF0E4122D220DBD00010E8D828E838FF0E4022D22C01885811805810581ADFB
:2011310082AE83AFF07C007A067B00C005C006C0078C07EF2FFC8AF005F0E51824FDF8E66B
:201151008002C313D5F0FBFFA8180874035FF6087600A81808B6000C08B60008D007D00658
:20117100D005801CD007D006D005A81808B6010608B60002800FA81808B6030A08B6000648
:2011910075820180400CEA24FEFAEB34FFFB30E79A8D828E838FF0122DEDC454F02CFB8D23
:2011B100828E838FF0122D220DBD00010E8D828E838FF0122DED2404FC8D828E838FF01232
:2011D1002D22758200851881D01822C018858118C082C083C0F0058105810581A818087497
:2011F1000126FAE40836FB0886048A828B838CF0122DEDFFBF080050057582008041E5187C
:2012110024FBF8E5182404F9E6F70809E6F70809E6F7A8180886820886830886F0122DED44
:20123100FFE5182404F886820886830886F0EF122D228A828B838CF0E4122D227582018542
:051251001881D01822F5
:20125600AD82AE83AFF0E4122D22A3122D2274022DFDE43EFE8D828E838FF0E4022D22C0DC
:2012760018858118C082C083C0F0E51824FDF8E6C4540F2416F582E434F3F583E0FCE4C313
:20129600CC13CC13A2E0CC13CC13CCFBE51824FDF8860253020F7F00EA2416F582EF34F341
:2012B600F583E07E004204EE4203A8180886820886830886F0122DEDFEA3122DEDEEC4546B
:2012D600F0FFE44204EF4203A8180886820886830886F0EC122D22A3EB122D22A8180874D4
:2012F6000226FDE40836FE0886078D828E838FF0122DED240C8D828E838FF0122D22851866
:2013160081D01822C018858118C082C083C0F0058105810581A81808740226FAE40836FBF4
:201336000886048A828B838CF0122DEDFDBD0800E433FF600DE51824FAF8E67005F5820217
:201356001424ED7005F582021424E51824FAF8E66057EF6054E51824FBF8E5182404F9E6C1
:20137600F70809E6F70809E6F7A8180886820886830886F0122DEDFF8D067408C39EFE8EFE
:20139600F005F0EF800225E0D5F0FBFEE5182404F886820886830886F0EE122D228A828B84
:2013B600838CF0E4122D228062E51824FBF8E5182404F9E6F70809E6F70809E6F7A818083E
:2013D60086820886830886F0122DEDFEA3122DEDFFED24F8FD8DF005F08007C3EF13FFEEB7
:2013F60013FED5F0F6E5182404F886820886830886F0EE122D228A828B838CF0122DED2422
:20141600F8FF8A828B838CF0122D22758201851881D01822AD82AE83AFF0E4122D22A312AF
:201436002D2274022DFAE43EFB8F048A828B838CF0E4122D2274032DFAE43EFB8F048A82C5
:201456008B838CF0E4122D22A3122D2274052DFDE43EFE8D828E838FF0E4022D22C01885AF
:201476008118C082C083C0F005810581A8180886820886830886F0122DEDFBA3122DED8B9C
:20149600047B00E51824FDF886027F00EA4203EF4204A8180886820886830886F0EB122DAD
:2014B60022A3EC122D22A81808740226FDE40836FE0886078D828E838FF0122DED2408FCFB
:2014D6008D828E838FF0122D228D828E838FF0122DEDFCBC060050030215DDA81808868256
:2014F6000886830886F0122DEDFBA3122DEDFC8D828E838FF0122DED24FAFA8AF005F08083
:2015160007C3EC13FCEB13FBD5F0F6743F5BFC8D828E838FF0122DED24FA8D828E838FF0AA
:20153600122D227B00EB2416F582E434F3F583E0FAB5040280060BBB100040E9BB1006753A
:2015560082010215E0C005C006C007A81808740326FAE40836FC0886078A828C838FF012EB
:201576002DEDFDA3122DEDFEE5182404F8A605EEC454F0C6C4C666C654F0C66608F67E004B
:20159600E5182404F8E6420308E642068A828C838FF0EB122D22A3EE122D22A8180874059E
:2015B60026FDE40836FE0886078D828E838FF0122DED2404FC8D828E838FF0122D22D00777
:2015D600D006D0050214DF758200851881D01822C018E581F5182404F581AD82AE83AFF04E
:2015F60074052DFAE43EFB8F048A828B838CF0E5182404F8122DEDF6E5182404F8B60800D5
:2016160050057582008068E51824FBF8A91809E6F70809E6F70809E6F774032DFDE43EFE28
:201636008D828E838FF0122DEDFDA3122DEDFEE5182404F8E624F8FF8FF005F08007C3EE35
:2016560013FEED13FDD5F0F6A8180886820886830886F0ED122D228A828B838CF0122DED3C
:1516760024F8FF8A828B838CF0122D22758201851881D018222D
:102E220015313223342526161A192A0B2C0D0E1CA5
:0700F2007847E4F27848F2C0
:20168B00122271121A8D7847E2600C7847E2F582121A8D7847E4F22212227112025DE582CF
:2016AB0060087582DD12240B800675821112240B022B68122271AF82C007122261AE827D5F
:2016CB000078AF7402F208E4F28E828D83122D3DAD82AE83D0077849EDF2BF01028005BF19
:2016EB00021280087CE87EF17F00800E7CF97EF17F0080067C007E007F00EC4E60158C8244
:20170B008E838FF0C007C006C004121E80D004D006D0077A007B00C004C006C0077849E2C3
:20172B00FE7F00C3EA9EEB64808FF063F08095F0D007D006D0045053C007C006C004C003F8
:20174B00C002122271784AE582F2122271AD82D002D003D004D006D007EC4E6027784A7906
:20176B0058E2F37859EDF28C828E838FF0C007C006C004C003C002121E84D002D003D004E0
:20178B00D006D0070ABA008F0B808C7582DD12240B022B68122271AF82C0071223CCAB82B2
:2017AB00AC83ADF0FED0077815EBF208ECF208EDF208EEF278487919E2F38F82120769E5BF
:2017CB0082FE60058E8212240B022B687582DD12240B902E0D75F080022CA17582DD122495
:2017EB000B902E1075F080022CA1122271AF82C007122271784BE582F21223ACAC82AD83B4
:20180B00C005C0041223ACAA82AB83C003C002122261AE82D002D003D004D005D007784BC7
:20182B007904E2F37805ECF208EDF27807EAF208EBF27809EEF28F821204DB7582DD12245C
:20184B000B022B68122271784CE582F2122271AF82C0071223AC784DE582F208E583F2120B
:20186B002271784FE582F21223CCAA82AC83ADF0FEC006C005C004C002122271AB82D002FE
:20188B00C003C0021223AC7850E582F208E583F21222617852E582F2D002D003D004D0054E
:2018AB00D006D0077804EFF2784D7905E2F308E209F378507907E2F308E209F378527909C6
:2018CB00E2F3784CE2F582C006C005C004C003C0021204DBD002D003D004D005D006781595
:2018EB00EAF208ECF208EDF208EEF278487919E2F3784FE2F582C006C005C004C003C00231
:20190B00120769AF82D002D003D004D005D006BFAA5DEB605A78507913E2F308E209F378F3
:20192B004CE2F582C006C005C004C003C00212066DD002D003D004D005D0067815EAF20809
:20194B00ECF208EDF208EEF278487919E2F3784FE2F582C006C005C004C003C00212076932
:20196B00AF82D002D003D004D005D0061B80A0EF60058F8212240B022B68122271121B1AA5
:20198B00AF827582DDC00712240BD0078F8212240B022B68122271AF82C007122271AE82FF
:2019AB00D0077857EEF28F82C007121CA8AE82D007BF020578487401F28E8212240B022B76
:2019CB0068C2AF75C909221222711222717582DD12240B022B681223AC120B7C7582DD1266
:2019EB00240B022B6812015975820012025D900000120B7C7582DD12240B022B687582DD9D
:201A0B0012240BC2AF7853792CE3F20809E3F20809E3F20809E3F2D2AF7853E2F58208E283
:201A2B00F58308E2F5F008E212272D7862E2F58208E2F5831225107864E2F58208E2F58391
:201A4B001225107866E2F58208E2F5831225107868E2F58208E2F583122510786AE2F58237
:201A6B0008E2F583122510786CE2F58208E2F583122510900000122510900000122510021C
:201A8B002B68E582FF602CBF0F005027EF75F002A42426F58274F335F0F583E0FEA3E0FF52
:201AAB00C007C0068E828F83120089D006D00775C6AC22122261E582600512227180F4752C
:081ACB00822212240B022B6899
:152E0D004F4B00737562675F726673707920322E322E3136008B
:1E2E32000000D717E6179F17F5174F189F19CC19D2198519BE16A316E119F019081A96
:201AD300AF82D2A17E048E051EED70FAC2AFC2A17E018E051EED70FA7E01EE601DEE5FB47F
:201AF3000100B39201E43324FF92A18E05ED2DFE7D008D041DEC60E280F8D2A1D2AF7F022E
:201B13008F061FEE70FA22122271E582FF24D15003021CA3EF240A83F582EF243383F58318
:201B3300E473939BA3ABB3BBC3CBD3DBE3EBF3FB030B131B232B333A41484F565D646B7296
:201B53007980A3A3A3A3878EA3A3A3A3A3A3A3959C1B1B1B1B1B1B1B1B1B1B1B1B1B1B1C9C
:201B73001C1C1C1C1C1C1C1C1C1C1C1C1C1C1C1C1C1C1C1C1C1C1C1C1C1C1C1C1C1C1C1CD2
:201B930090DF00E0FF021CA590DF01E0FF021CA590DF02E0FF021CA590DF03E0FF021CA5E8
:201BB30090DF04E0FF021CA590DF05E0FF021CA590DF06E0FF021CA590DF07E0FF021CA5B8
:201BD30090DF08E0FF021CA590DF09E0FF021CA590DF0AE0FF021CA590DF0BE0FF021CA588
:201BF30090DF0CE0FF021CA590DF0DE0FF021CA590DF0EE0FF021CA590DF0FE0FF021CA558
:201C130090DF10E0FF021CA590DF11E0FF021CA590DF12E0FF021CA590DF13E0FF021CA527
:201C330090DF14E0FF806B90DF15E0FF806490DF16E0FF805D90DF17E0FF805690DF18E01A
:201C5300FF804F90DF19E0FF804890DF1AE0FF804190DF1BE0FF803A90DF1CE0FF8033907B
:201C7300DF1DE0FF802C90DF1EE0FF802590DF1FE0FF801E90DF24E0FF801790DF25E0FF32
:201C9300801090DF2DE0FF800990DF2EE0FF80027F5A8F8222AF827EDDEF24D15003021EB0
:201CB3007BEF240A83F582EF243383F583E473202A343E48525C66707A848E98A2ACB6C077
:201CD300CAD4DEE8F2FC060F18212A333C454E7B7B7B7B57607B7B7B7B7B7B7B69721D1D10
:201CF3001D1D1D1D1D1D1D1D1D1D1D1D1D1D1D1D1D1D1D1D1D1E1E1E1E1E1E1E1E1E1E1E26
:201D13001E1E1E1E1E1E1E1E1E1E1E1E1E785790DF00E2F0021E7D785790DF01E2F0021E4C
:201D33007D785790DF02E2F0021E7D785790DF03E2F0021E7D785790DF04E2F0021E7D788B
:201D53005790DF05E2F0021E7D785790DF06E2F0021E7D785790DF07E2F0021E7D78579070
:201D7300DF08E2F0021E7D785790DF09E2F0021E7D785790DF0AE2F0021E7D785790DF0B44
:201D9300E2F0021E7D785790DF0CE2F0021E7D785790DF0DE2F0021E7D785790DF0EE2F030
:201DB300021E7D785790DF0FE2F0021E7D785790DF10E2F0021E7D785790DF11E2F0021EB9
:201DD3007D785790DF12E2F0021E7D785790DF13E2F0021E7D785790DF14E2F0021E7D78BB
:201DF3005790DF15E2F0021E7D785790DF16E2F0021E7D785790DF17E2F0806E785790DF70
:201E130018E2F08065785790DF19E2F0805C785790DF1AE2F08053785790DF1BE2F0804AE9
:201E3300785790DF1CE2F08041785790DF1DE2F08038785790DF1EE2F0802F785790DF1F83
:201E5300E2F08026785790DF24E2F0801D785790DF25E2F08014785790DF2DE2F0800B781D
:201E73005790DF2EE2F080027E118E8222E4022D22AFF0AE83E582785AF208EEF208EFF245
:201E9300785AE2F58208E2F58308E2F5F0122DEDFCBC0700506F785AE22401FA08E2340038
:201EB300FB08E2FFEC2C2AFCE43BFE8F058C828E838DF07858E2122D22785AE2F58208E278
:201ED300F58308E2F5F0122DED25E0FE2AFAE43BFB0ABA00010B8A828B838FF07859E2120D
:201EF3002D22785AE2F58208E2F58308E2F5F0122DEDFF0F785AE2F58208E2F58308E2F57E
:201F1300F0EF022D2222AFF0AE83E582785DF208EEF208EFF2785DE22401FA08E23400FB9E
:201F330008E2FC7860E4F208F2C002C003C004785DE2F58208E2F58308E2F5F0122DEDFC30
:201F53007D007860C3E29C08E264808DF063F08095F0D004D003D002505C7860E225E0F55C
:201F73001508E233F516E5152AFDE5163BFE8C078D828E838FF0122DEDF517E5152AFDE54C
:201F9300163BFE8C070DBD00010E8D828E838FF07857122DEDF2851782C004C003C002126E
:171FB3001CA8D002D003D0047860E22401F208E23400F2021F3C227A
:0D00F900786EE4F27871F27872F27873F2AA
:201FCA0074FE55F14402F5F143F4F053FE0F747F55F84420F5F875FA3BE5FC75FC0B538819
:201FEA00F7D2AB53E8FB439A0875F944740A44F2602F90F20AE4F090F20B75F000122D22A0
:20200A0090F20C75F0007410122D22A374F2122D22A3E4122D2290F20F75F0007480122D63
:20202A0022749044F2602F90F290E4F090F29175F000122D2290F29275F0007496122D2208
:20204A00A374F2122D22A3E4122D2290F29575F0007480022D2222C0E0C0F0C082C083C0AC
:20206A0007C006C005C004C003C002C001C000C0D075D000AFF97870E2FE24FC500302211F
:20208A009DEE2E2E902092730220AB0220D1022123BF9902800302219D78707401F2022185
:2020AA009DBF99028019786CE2FD08E2FE786C74012DF2E43E08F278707403F202219D78BE
:2020CA00707401F202219DEF247F5019786CE2FD08E2FE786C74012DF2E43E08F2787074C9
:2020EA0003F202219D7871EFF278717973E2F378727973C3E2F5F0E395F0500678727973B9
:20210A00E2F37873E2600B78707402F275C6A802219D7870E4F202219D7873E2606990F21F
:20212A000AE0FE90F20BE0FDEEC39DFE7871C3E2F5F0EE95F0504990F20CE0FCA3E0FDA3EB
:20214A00E0FE90F20AE0FB53037F7A00EB2CFCEA3DFD8C828D838EF0EF122D2290F20AE052
:20216A00FF0F90F20AEFF0E0FF90F20BE0FEEFC39EFF7871E2B507087871E4F2786F04F218
:20218A007873E2787314F27873E270077872E4F27870F2D0D0D000D001D002D003D004D00F
:2021AA0005D006D007D083D082D0F0D0E032C0E0C0F0C082C083C007C006C005C004C0036E
:2021CA00C000C0D075D00053E8FB7870E27021786EE2601790F290E0FF90F291E0FEEFC3FC
:2021EA009E7872F27872E2F5F9805575F90080507872E2604890F290E0FF90F291E0FEEF49
:20220A00B50602803390F292E0FDA3E0FEA3E0FF90F291E0FC53047F7B00EC2DFDEB3EFED3
:20222A008D828E838FF0122DEDF5F990F291E0FF0F90F291EFF0800875F900800375F90001
:20224A00D0D0D000D003D004D005D006D007D083D082D0F0D0E03290F20AE0FF90F20BE0BC
:20226A00FEEFC39EF58222786FE27013786FE2700E90F0B4E0700875C9A875C95880ED78ED
:20228A0075740AF20874F2F208E4F27C00740A44F2602C740A44F2601790F20AE0FB90F241
:2022AA000B75F000122DEDFAEBC39AFA7B0080047A007B007878EAB40100E433F2800578B3
:2022CA00787401F27878E260030223677875E22402FA08E23400FB08E2FF8A828B838FF0CA
:2022EA00122DEDF521A3122DEDF522A3122DEDF5237875E22401F52508E23400F52608E294
:20230A00F5278525828526838527F0122DEDF5247875E22405FA08E23400FB08E2FF8A825C
:20232A008B838FF0122DEDFA8AF0E52484E5F02521FAE43522FFAE238A828F838EF0122DDE
:20234A00EDFC8525828526838527F0122DEDFF0F8525828526838527F0EF122D228C07740D
:20236A000A44F2602C740A44F2601790F20AE0FE90F20B75F000122DEDFDEEC39DFD7E000E
:20238A0080047D007E007874EDB40100E433F2800578747401F27874E26004786FE4F28FC7
:2023AA008222122271AE827F00C007C006122271AD82D006D0077C00ED2FFFEC3E8F82F546
:2023CA0083221223ACAE82AF838F048E057E007F00C007C006C005C0041223ACAA82AB8397
:2023EA00D004D005D006D0078A008B01E4FAFBE82EFEE93FFFEA3DFDEB3C8E828F838DF069
:20240A0022E582787CF278797490F20874F2F208E4F2749044F27001227E907DF27C0074E4
:20242A009044F2604F749044F2601C90F290E0F52190F29175F000122DEDFFE521C39FFF55
:20244A008F227523008005E4F522F523787EE522F274052EFAE43DFB8C078A828B838FF0B9
:20246A00122DEDFA787E797DE2B5020474018001E4F38005787D7401F2787DE26001227823
:20248A0079E22402FA08E23400FB08E2FF8A828B838FF0122DEDFAA3122DEDFBA3122DED5D
:2024AA00FF7879E2F58208E2F58308E2F5F0122DEDF5227879E22405FC08E23400FD08E258
:2024CA00FE8C828D838EF0122DEDFC8CF0E52284E5F02AFAE43BFB8A828B838FF0787CE2A7
:2024EA00122D227879E2F58208E2F58308E2F5F0122DEDFF0F7879E2F58208E2F58308E226
:20250A00F5F0EF022D22AE82AF838F05787F7490F20874F2F208E4F2749044F27003022696
:20252A00357C907BF27A00749044F2605D749044F26022C006C00790F290E0FF90F29175B0
:20254A00F000122DEDFEEFC39EFF8F21752200D007D0068005E4F521F522C006C0077883F6
:20256A00E521F274052CFCE43BFE8A078C828E838FF0122DEDFC78837982E2B5040474013A
:20258A008001E4F3D007D006800578827401F27882E26003022635C006C007787FE224021E
:2025AA00FA08E23400FB08E2FC8A828B838CF0122DEDF523A3122DEDF524A3122DEDF5256D
:2025CA00787FE2F58208E2F58308E2F5F0122DEDF521787FE22405FC08E23400FE08E2FF2B
:2025EA008C828E838FF0122DEDFC8CF0E52184E5F02523FCE43524FFAE258C828F838EF03F
:20260A00ED122D22787FE2F58208E2F58308E2F5F0122DEDFF0F787FE2F58208E2F58308ED
:20262A00E2F5F0EF122D22D007D0068E0578847490F20874F2F208E4F2749044F27001223C
:20264A007A907EF27F00749044F26040749044F2601790F290E0FC90F29175F000122DED5A
:20266A00FBECC39BFB7C0080047B007C0074052AFAE43EFE8A828E838FF0122DEDFA78879B
:20268A00EBB5020474018001E4F2800578877401F27887E26001227884E22402FC08E23451
:2026AA0000FE08E2FF8C828E838FF0122DEDF526A3122DEDF527A3122DEDF5287884E2F59A
:2026CA008208E2F58308E2F5F0122DEDF5237884E22405FA08E23400FB08E2FF8A828B83DC
:2026EA008FF0122DEDFA8AF0E52384E5F02526FAE43527FFAE288A828F838EF0ED122D220C
:20270A007884E2F58208E2F58308E2F5F0122DEDFF0F7884E2F58208E2F58308E2F5F0EF7A
:20272A00022D22AF82AE83ADF0FC7888EFF208EEF208EDF208ECF27888798F080808E2F3B8
:20274A00788C7490F20874F2F208E4F2749044F270030228407A907BF27F00749044F26090
:20276A0040749044F2601790F290E0FE90F29175F000122DEDFDEEC39DFD7E0080047D0003
:20278A007E0074052AFAE43BFB8A828B838FF0122DEDFA7890EDB5020474018001E4F2803F
:2027AA000578907401F27890E26003022840788CE22402FD08E23400FE08E2FF8D828E83B6
:2027CA008FF0122DEDFDA3122DEDFEA3122DEDFF788CE2F58208E2F58308E2F5F0122DEDF2
:2027EA00F521788CE22405FA08E23400FB08E2FC8A828B838CF0122DEDFA8AF0E52184E50C
:20280A00F0FA2DFDE43EFE8D828E838FF0788FE2122D22788CE2F58208E2F58308E2F5F003
:20282A00122DEDFF0F788CE2F58208E2F58308E2F5F0EF122D22788879940808E2F378917B
:20284A007490F20874F2F208E4F2749044F270030229507A907BF27F00749044F2605274BC
:20286A009044F26026C002C003C00790F290E0FF90F29175F000122DEDFBEFC39BFF8F2229
:20288A00752300D007D003D0028005E4F522F523AE2274052AFAE43BFB8A828B838FF01250
:2028AA002DEDFA7895EEB5020474018001E4F2800578957401F27895E260030229507891A9
:2028CA00E22402FA08E23400FB08E2FF8A828B838FF0122DEDFAA3122DEDFBA3122DEDFF93
:2028EA007891E2F58208E2F58308E2F5F0122DEDF5227891E22405FC08E23400FD08E2FEE5
:20290A008C828D838EF0122DEDFC8CF0E52284E5F0FC2AFAE43BFB8A828B838FF07894E24C
:20292A00122D227891E2F58208E2F58308E2F5F0122DEDFF0F7891E2F58208E2F58308E2B1
:20294A00F5F0EF122D227888799908E2F378967490F20874F2F208E4F2749044F270030258
:20296A002A5F7A907BF27F00749044F26052749044F26026C002C003C00790F290E0FF9055
:20298A00F29175F000122DEDFBEFC39BFF8F22752300D007D003D0028005E4F522F523AEC7
:2029AA002274052AFAE43BFB8A828B838FF0122DEDFA789AEEB5020474018001E4F2800569
:2029CA00789A7401F2789AE26003022A5F7896E22402FA08E23400FB08E2FF8A828B838FD7
:2029EA00F0122DEDFAA3122DEDFBA3122DEDFF7896E2F58208E2F58308E2F5F0122DEDF566
:202A0A00227896E22405FC08E23400FD08E2FE8C828D838EF0122DEDFC8CF0E52284E5F0D2
:202A2A00FC2AFAE43BFB8A828B838FF07899E2122D227896E2F58208E2F58308E2F5F012BB
:202A4A002DEDFF0F7896E2F58208E2F58308E2F5F0EF122D227888799EE2F3789B7490F267
:202A6A000874F2F208E4F2749044F27001227A907BF27C00749044F26052749044F26026A2
:202A8A00C002C003C00490F290E0FC90F29175F000122DEDFBECC39BFC8C22752300D004F6
:202AAA00D003D0028005E4F522F523AF2274052AFAE43BFB8A828B838CF0122DEDFA789F74
:202ACA00EFB5020474018001E4F28005789F7401F2789FE2600122789BE22402FA08E234C4
:202AEA0000FB08E2FC8A828B838CF0122DEDFAA3122DEDFBA3122DEDFC789BE2F58208E244
:202B0A00F58308E2F5F0122DEDF522789BE22405FD08E23400FE08E2FF8D828E838FF01250
:202B2A002DEDFD8DF0E52284E5F02AFAE43BFB8A828B838CF0789EE2122D22789BE2F582FE
:202B4A0008E2F58308E2F5F0122DEDFF0F789BE2F58208E2F58308E2F5F0EF022D2274901F
:202B6A0044F2602C749044F2601790F290E0FF90F29175F000122DEDFEEFC39EFE7F0080F8
:202B8A00047E007F0078A1EEB40100E433F2800578A17401F278A1E2600122C2AF78A279DE
:202BAA002CE3F20809E3F20809E3F20809E3F2D2AF786E7401F2749044F2602C749044F28A
:202BCA00601790F290E0FF90F29175F000122DEDFEEFC39EFE7F0080047E007F0078A0EE8D
:202BEA00B40100E433F2800578A07401F278A0E2704F90F0B4E0704975C9A875C958C2AF96
:202C0A00782C79A2E3F5F0C3E295F0FC09E3F5F008E295F0FD09E3F5F008E295F0FE09E396
:202C2A00F5F008E295F0FF78A6C374889C74139DE49EE49FE433F2D2AF78A6E27003022B6B
:202C4A00C07872E2604C90F0B4E0704675C9A875C958C2AF782C79A2E3F5F0C3E295F0FCCE
:202C6A0009E3F5F008E295F0FD09E3F5F008E295F0FE09E3F5F008E295F0FF78A7C37488B2
:202C8A009C74139DE49EE49FE433F2D2AF78A7E260AF786EE4F222AD82AE83AFF08D828E51
:202CAA00838FF0122DEDFC60188C82C007C006C00512240BD005D006D0070DBD00DF0E800E
:042CCA00DC022B6895
:0600BA00E478FFF6D8FD1A
:202CCE00AFF0AE83E58278ABF208EEF208EFF278ABE2FA08E2FB08E2FC78A9E2F52108E2FC
:202CEE00F522AE21AF22152174FFB521021522EE4F60138A828B838CF078A8E2122D22A30B
:142D0E00AA82AB8380DC78ABE2F58208E2F58308E2F5F0222C
:20009800792EE94400601B7A01902E2278167593F3E493F2A308B800020593D9F4DAF275A1
:0200B80093FFB4
:1B2D220020F71130F6138883A88220F509F6A8837583002280FEF280F5F022B0
:202D3D00AE82E583FF33E433FD6009C3E49EFBE49FFC80048E038F0478B0E233E433FF6015
:202D5D001078AFE2D3F43400FA08E2F43400FE800778AFE2FA08E2FE78B1EAF208EEF28B4E
:202D7D00828C83C007C005122DA2AC82AE83D005D007EF6D600AC3E49CF582E49EF5832291
:052D9D008C828E8322F0
:2000C00078B3E84400600A79007593F0E4F309D8FC7863E84402600C790390F0B3E4F0A39F
:0400E000D8FCD9FA75
:202DA200AE82AF837C007D007B10EF235401FAEE2EFEEF33FFEC2CFCED33FDEA60034304CA
:202DC2000178B1C3E2F5F0EC95F008E2F5F0ED95F0401178B1D3E29CF4B3FCB308E29DF4EF
:0B2DE200FD430601DBC48E828F8322BC
:02008900E4731E
:0D008B00758128122E09E5826003020086AF
:1C2DED0020F71430F6148883A88220F507E6A88375830022E280F7E49322E022F5
:042E090075820022AC
:00000001FF
