:0600000002008B0202DE8B
:01000B0032C2
:0100130032BA
:03001B000220DDE3
:0100230032AA
:01002B0032A2
:01003300329A
:01003B003292
:01004300328A
:03004B00020C3470
:01005300327A
:01005B003272
:01006300326A
:01006B003262
:0300730002223432
:03007B0002010F70
:0300830002050172
:030109000200866B
:0300860002010C68
:03010C000201806D
:20010F00758A0053E8F753BEFC3278007432F208E4F2A2EBE433F4FF52E8758A00439A10B5
:20012F00438D04D29253FEFBE5BE54FC4401F5BE000000E5BE54036004438701007800E2BE
:20014F00FE08E2FF7800EE24FFF2EF34FF08F2EE4F70EAE5BE30E6FB43BE04A2EBE433F42A
:20016F0052E8758A00539AEF538DFBC29243FE042253BEFBE5BE30E6FB75C6A8E5C620E671
:20018F00FB43BE0443FF02D2A1C2A1D2A190DF30E043E080F0438C02120BF0D2AF122046DA
:1801AF001201C790F0B67401F090F0B7E070081201191216F280F2225A
:0400E4007805E4F2C5
:2001C70090DF0074FFF090DF01E4F090DF0214F090DF03E4F090DF04F090DF05F090DF070A
:2001E7007406F090DF08E4F090DF0C7499F090DF0DF4F090DF0E03F090DF0F7461F090DF49
:2002070010747EF090DF117415F090DF127407F090DF137430F090DF1403F090DF1514F0EC
:2002270090DF16746CF090DF1A74B6F090DF1B7411F090DF1C74E9F090DF1D742AF090DF5F
:200247001EE4F090DF1F741FF090DF247431F090DF257409F090DF2EE4F090DF177407F009
:2002670090DF18E4F090DF197491F090DF097426F090DF0A7430F090DF0B7470F090DF06CD
:200287007402F090DF2D74C0F0439A01D2A874D844F0602F90F0D8E4F090F0D975F00012CE
:2002A7002D8A90F0DA75F00074B8122D8AA374F0122D8AA3E4122D8A90F0DD75F000742056
:2002C700022D8A22E582FF24FD40087805EFF27582012275820022C0E0C0F0C082C083C047
:2002E70007C006C005C004C003C002C000C0D075D00075C6A890DF3BE0FFBF0D02800302C8
:20030700044DAFD97802E260030203E590DF3AE0FE90F0D8E0FD7C0090F0D9E0FB7A00ED81
:20032700C39BFDEC9AFCBD2016BC00137867E2FC08E2FD786774012CF2E43D08F28034C072
:200347000790F0DAE0FBA3E0FCA3E0FD90F0D8E0FA53021F7F00EA2BFBEF3CFC8B828C83E3
:200367008DF0EE122D8A90F0D8E0FF0F90F0D8EFF0D0077869E2FE90F0D8E0FD7C0090F0FC
:20038700D9E0FB7A00EDC39BFDEC9AFCBD2016BC00137867E2FC08E2FD786774012CF2E4A2
:2003A7003D08F28034C00790F0DAE0FBA3E0FCA3E0FD90F0D8E0FA53021F7F00EA2BFBEF2C
:2003C7003CFC8B828C838DF0EE122D8A90F0D8E0FF0F90F0D8EFF0D00778027402F290F0D8
:2003E700D8E0FE7D0090F0D9E0FC7B00EEC39CFEED9BFDBE2016BD00137867E2FD08E2FED9
:20040700786774012DF2E43E08F2803090F0DAE0FCA3E0FDA3E0FE90F0D8E0FB53031F7A3D
:2004270000EB2CFCEA3DFD8C828D838EF0EF122D8A90F0D8E0FF0F90F0D8EFF07802E278D9
:200447000204F20204E890DF3BE0FFBF130280030204E87804E2FF24F950030204E8EF2F08
:2004670090046B73800C801B8077804080318049806F90F1DFE0FEA3E0FF8FD978047401A3
:20048700F2805E90F1DFE0FEA3E0FF8ED97803E2600778047404F280487804E4F280429048
:2004A700DF00E0F5D978047403F2803590DF01E0F5D978047405F2802890F1DDE0FF04F030
:2004C700EF24DEF582E434F0F583E0F5D990F1DDE0FF90F1DEE0FEC3EF9E4005780474067A
:2004E700F2D0D0D000D002D003D004D005D006D007D083D082D0F0D0E032C0E0C007C00624
:20050700C000C0D075D000539BFCE5E930E70875E10453E97F8023E5E930E6167865E2FEF9
:2005270008E2FF786574012EF2E43F08F253E9BF8008E5E930E50353E9DFD0D0D000D00672
:20054700D007D0E032E582780CF27806E2FD7E000DBD00010E783D740EF208E4F208746067
:20056700F278407412F208E4F2087460F27805E2F582C006C005120E7990F1EB75F00012C9
:200587001F95D005D006780C90DF06E2F090F1DEE4F0780BE2FCEC7003020667C005C0063D
:2005A700C006C005C0041222EDAB82D004D005D006780DEBF21C780EE2FA08E2FEC006C0CA
:2005C70005C004C002C0031205D3800BC002C00690F01275F060221581D002D004D005D06F
:2005E70006ECB401009200D006D0057810E2FA08E2FBC006C005C004C003A200E433C0E05C
:20060700740DC0E074F0C0E07460C0E0120618800BC002C00390F01275F06022AA82E581EF
:2006270024FCF581D003D004D005D006EA700302059D90F1DEE0FB7A000BBB00010AC3EB97
:2006470094FFEA6480948050A290F1DEE0FB04F0EB24DEF582E434F0F583780DE2F0808BB8
:200667007B007C00C3EB9DEC9E5065EB4C60387807E2F5F008E245F0602DC005C006780727
:20068700E2FA08E2FD7E007F008A828D838EF0EFC006C005C004C003120C73D003D004D0F0
:2006A70005D006D006D00578097915E2F308E209F3780CE2F582C006C005C004C0031206DC
:2006C700D8D003D004D005D0060BBB00970C809422AF8290DF0EE0FE90DF02E0FD90DF04FD
:2006E700E0FC786BE22401F208E23400F290F1DFE0FAA3E0FB4A601E90DF0EE053E0FCF02F
:2007070090DF04E054FC4402F090DF02E4F07803F27804F2801F7815E2F5F008E245F06067
:200727000778047402F2800578047405F290F1DEE090DF02F075E10490DF3BE0FBBB01F828
:2007470090DF06EFF090F1DDE4F075E10390DF3BE0FFBF13F87815E2F5F008E245F0603855
:20076700C0047815E2FA08E2FB7C007F008A828B838CF0EFC006C005C004120C73D004D05C
:2007870005D00690F1DFE0FCA3E0FF4CD004700878047405F243880290F1DFE0FBA3E0FFB0
:2007A7004B600578037401F290DF3BE0FFBF130280F690DF3BE0FFBF160375E10490DF02A1
:2007C700EDF090DF0EEEF090DF04ECF022AF82781EE4F2781FF2F50A7817E2F5F008E242C2
:2007E700F008E242F008E245F06016C2AF7820792EE3F20809E3F20809E3F20809E3F2D248
:20080700AF90F1FC75F000C007121F95784374E1F20874F1F208E4F2784674E5F20874F1FE
:20082700F208E4F27805E2F582120F55D00775E10490DF3BE0FCBC01F890DF06EFF078025B
:20084700E4F278AB7411F278AC7420F208E4F290F0B875F000122D3675C6AB75E10290DFDA
:200867003BE0FFBF0DF87817E2F50B08E2F50C08E2F50D08E2F50E781DE4F274D844F06013
:200887003274D844F0601A90F0D8E0FD90F0D975F000122E55FEEDC39EFD8D0875090080C1
:2008A70005E4F508F509AE087824EEB40100E433F2800578247401F27824E26003020A4A90
:2008C700782574D8F20874F0F208E4F27C0074D844F0602C74D844F0601790F0D8E0FB90B8
:2008E700F0D975F000122E55FAEBC39AFA7B0080047A007B007828EAB40100E433F2800531
:2009070078287401F27828E260030209A57825E22402FA08E23400FB08E2FF8A828B838FEA
:20092700F0122E55F50FA3122E55F510A3122E55F5117825E22401F51208E23400F51308D3
:20094700E2F5148512828513838514F0122E55F5087825E22405FA08E23400FB08E2FF8A28
:20096700828B838FF0122E55FA8AF0E50884E5F0250FFAE43510FFAE118A828F838EF0124F
:200987002E55FC8512828513838514F0122E55FF0F8512828513838514F0EF122D8A781E66
:2009A700ECF2781DE22401F2781DE2B401067582DD12247F781DE2B40300500A781EE2F514
:2009C7008212247F806790F1E1E0FEA3E0FFC007C006781EE2C0E01209E3800BC006C00775
:2009E70090F1E575F0002285820A1581D006D00790F1E3E0FEA3E0FFC007741EC0E074F08E
:200A0700C0E07460C0E0120A12800BC006C00790F1E575F00022AE82158115811581D007BF
:200A2700EE600A781EE2F58212247F80C3E50A707A781BE2600D90DF02E0FF781DE2B50732
:200A4700028068E50B450C450D450E6049C2AF782E7920E3F5F0C3E295F0FC09E3F5F0089F
:200A6700E295F0FD09E3F5F008E295F0FE09E3F5F008E295F0FF7829C3E50B9CE50C9DE52B
:200A87000D9EE50E9FE433F2D2AF7829E26007781F74AAF280157872E27003020882122263
:200AA700EDE5827849F2781F74BBF275E10490DF3BE0FFBF01F874D844F0602C74D844F049
:200AC700601790F0D8E0FF90F0D975F000122E55FEEFC39EFE7F0080047E007F00781CEE40
:200AE700B40100E433F28005781C7401F2781CE26003020BCE782A74D8F20874F0F208E4D3
:200B0700F274D844F0602C74D844F0601790F0D8E0FC90F0D975F000122E55FBECC39BFB12
:200B27007C0080047B007C00782DEBB40100E433F28005782D7401F2782DE26003020ABD25
:200B4700782AE22402FA08E23400FB08E2FC8A828B838CF0122E55F512A3122E55F513A3D6
:200B6700122E55F514782AE22401FD08E23400FE08E2FF8D828E838FF0122E55F50F782A4B
:200B8700E22405FA08E23400FB08E2FC8A828B838CF0122E55FA8AF0E50F84E5F02512FA2D
:200BA700E43513FCAB148A828C838BF0122E558D828E838FF0122E55FC0C8D828E838FF041
:200BC700EC122D8A020ABD781FE2700B7869E22401F208E23400F2781FE2F58222AF83E589
:090BE7008290F1DFF0EFA3F0228F
:0A00E800782EE4F208F208F208F2A4
:200BF000782EE4F208F208F208F2F5E4F5E275E4017832E5E2F27833E5E3F27832E2FE0817
:200C1000E2FFC3E49E74A09F50E775E40075DB0075DA5D75E544A2DEE43342D8D2B9D2AF04
:200C300075E40622C0E0C007C006C005C004C000C0D075D000782EE2FC08E2FD08E2FE087D
:200C5000E2FF782E74012CF2E43D08F2E43E08F2E43F08F2D0D0D000D004D005D006D00750
:200C7000D0E032AF82AE83ADF0FC7834EFF208EEF208EDF208ECF2C2AF7838792EE3F208A0
:200C900009E3F20809E3F20809E3F2D2AFC2AF782E7938E3F5F0C3E295F0FA09E3F5F0088C
:200CB000E295F0FB09E3F5F008E295F0FE09E3F5F008E295F0FF783C7934C3E39A09E39B1D
:110CD00009E39E09E39FE433F2D2AF783CE260BD229F
:200CE100AD82AE83AFF00DBD00010E8D828E838FF0E4022D8AC018858118AD82AE83AFF0EA
:200D010074012DFAE43EFB8F048A828B838CF07401122D8A8D828E838FF0E51824FDF8E617
:200D2100122D8AD01822C018858118C082C083C0F0058105810581A81808740126FAE408D9
:200D410036FB0886048A828B838CF0122E55FFBF01005005758200804CE51824FBF8E518BC
:200D61002404F9E6F70809E6F70809E6F7A8180886820886830886F0122E55FFE518240480
:200D8100F886820886830886F0EF122D8A8A828B838CF0122E55FF1F8A828B838CF0EF122B
:200DA1002D8A758201851881D01822AD82AE83AFF00DBD00010E8D828E838FF0E4022D8A47
:200DC100C018858118AD82AE83AFF0E51824FDF8E6122D8A0DBD00010E8D828E838FF0746C
:200DE10001122D8AE51824FDF8E670057582018003758200D01822C018E581F5182406F5D1
:200E010081C8E5182404C8A68208A68308A6F0E5182404F8740126FAE40836FB0886048AB9
:200E2100828B838CF0122E55FFBF01005005758200803FE51824FBF8A91809E6F70809E694
:200E4100F70809E6F7E5182404F886820886830886F0122E55FFA8180886820886830886F5
:200E6100F0EF122D8A8A828B838CF0E4122D8A758201851881D01822AF82BF0002800CBF29
:200E81000102804ABF0203020F1222783DE2FD08E2FE08E2FF8D828E838FF074F6122D8A44
:200EA100A3740C122D8A74022DFDE43EFE8D828E838FF07427122D8AA3740D122D8A7840DD
:200EC100E2F58208E2F58308E2F5F0020CE1783DE2FD08E2FE08E2FF8D828E838FF07449D7
:200EE100122D8AA37410122D8A74022DFDE43EFE8D828E838FF074E7122D8AA37410122D4F
:200F01008A7840E2F58208E2F58308E2F5F0021031783DE2FD08E2FE08E2FF8D828E838FAD
:200F2100F074E0122D8AA37412122D8A74022DFDE43EFE8D828E838FF07485122D8AA37479
:200F410013122D8A7840E2F58208E2F58308E2F5F00212C1AF82BF0002800CBF0102804A93
:200F6100BF0203020FEE227843E2FD08E2FE08E2FF8D828E838FF074C1122D8AA3740D124D
:200F81002D8A74022DFDE43EFE8D828E838FF074F8122D8AA3740D122D8A7846E2F58208F9
:200FA100E2F58308E2F5F0020DAC7843E2FD08E2FE08E2FF8D828E838FF0748B122D8AA3D7
:200FC1007411122D8A74022DFDE43EFE8D828E838FF07440122D8AA37412122D8A7846E254
:200FE100F58208E2F58308E2F5F00211727843E2FD08E2FE08E2FF8D828E838FF074DE1255
:201001002D8AA37414122D8A74022DFDE43EFE8D828E838FF07451122D8AA37416122D8A41
:101021007846E2F58208E2F58308E2F5F0021495CC
:20103100AD82AE83AFF074022DFDE43EFE8D828E838FF07402022D8AC018858118C082C01A
:2010510083C0F07E007D007A087C00EE2EFBED33FFEB2BFBEF33FF74022BFBE43FFFE51830
:2010710024FDF8E6235401FE7D00EBC39EFBEF9DFF8B068F05E51824FDF88607E51824FDB5
:20109100F8EF2FF61ABAFF011CEA4C70BE8D04A8180886820886830886F0EC122D8AA8187A
:2010B10008740126FAE40836FB0886048E078A828B838CF0EF122D8AA81808740226FDE4AB
:2010D1000836FE0886078D828E838FF0E4122D8A851881D01822C018E581F5182404F581D1
:2010F100AD82AE83AFF074022DFAE43EFB8F048A828B838CF0E5182404F8122E55F6E51858
:201111002404F8E624FE5005758200804EE51824FBF8A91809E6F70809E6F70809E6F7E500
:20113100182404F8E62DFDE43EFE8D828E838FF0122E55FDA8180886820886830886F0EDB9
:20115100122D8A8A828B838CF0122E55FF0F8A828B838CF0EF122D8A758201851881D01830
:2011710022AD82AE83AFF0E4122D8A0DBD00010E8D828E838FF0E4022D8AC0188581180580
:20119100810581AD82AE83AFF07C007A067B00C005C006C0078C07EF2FFC8AF005F0E51856
:2011B10024FDF8E68002C313D5F0FBFFA8180874035FF6087600A81808B6000C08B60008A6
:2011D100D007D006D005801CD007D006D005A81808B6010608B60002800FA81808B6030AFF
:2011F10008B6000675820180400CEA24FEFAEB34FFFB30E79A8D828E838FF0122E55C4543A
:20121100F02CFB8D828E838FF0122D8A0DBD00010E8D828E838FF0122E552404FC8D828E70
:20123100838FF0122D8A758200851881D01822C018E581F5182406F581C8E5182404C8A66D
:201251008208A68308A6F0E5182404F8740126FAE40836FB0886048A828B838CF0122E55A0
:20127100FFBF08005005758200803FE51824FBF8A91809E6F70809E6F70809E6F7E51824D4
:2012910004F886820886830886F0122E55FFA8180886820886830886F0EF122D8A8A828B68
:1012B100838CF0E4122D8A758201851881D0182261
:2012C100AD82AE83AFF0E4122D8AA3122D8A74022DFDE43EFE8D828E838FF0E4022D8AC039
:2012E10018858118C082C083C0F0E51824FDF8E6C4540F2419F582E434F3F583E0FCE4C3A5
:20130100CC13CC13A2E0CC13CC13CCFBE51824FDF8860253020F7F00EA2419F582EF34F3D2
:20132100F583E07E004204EE4203A8180886820886830886F0122E55FEA3122E55EEC4542D
:20134100F0FFE44204EF4203A8180886820886830886F0EC122D8AA3EB122D8AA818087498
:201361000226FDE40836FE0886078D828E838FF0122E55240C8D828E838FF0122D8A851829
:2013810081D01822C018858118C082C083C0F0058105810581A81808740226FAE40836FB89
:2013A1000886048A828B838CF0122E55FDBD0800E433FF600DE51824FAF8E67005F5820243
:2013C100148FED7005F58202148FE51824FAF8E66057EF6054E51824FBF8E5182404F9E680
:2013E100F70809E6F70809E6F7A8180886820886830886F0122E55FF8D067408C39EFE8E2A
:20140100F005F0EF800225E0D5F0FBFEE5182404F886820886830886F0EE122D8A8A828BB0
:20142100838CF0E4122D8A8062E51824FBF8E5182404F9E6F70809E6F70809E6F7A818086A
:2014410086820886830886F0122E55FEA3122E55FFED24F8FD8DF005F08007C3EF13FFEE79
:2014610013FED5F0F6E5182404F886820886830886F0EE122D8A8A828B838CF0122E5524E5
:20148100F8FF8A828B838CF0122D8A758201851881D01822AD82AE83AFF0E4122D8AA31274
:2014A1002D8A74022DFAE43EFB8F048A828B838CF0E4122D8A74032DFAE43EFB8F048A828A
:2014C1008B838CF0E4122D8AA3122D8A74052DFDE43EFE8D828E838FF0E4022D8AC018850C
:2014E1008118C082C083C0F005810581A8180886820886830886F0122E55FBA3122E558B5F
:20150100047B00E51824FDF886027F00EA4203EF4204A8180886820886830886F0EB122D41
:201521008AA3EC122D8AA81808740226FDE40836FE0886078D828E838FF0122E552408FC56
:201541008D828E838FF0122D8A8D828E838FF0122E55FCBC06005003021648A818088682AD
:201561000886830886F0122E55FBA3122E55FC8D828E838FF0122E5524FAFA8AF005F080DC
:2015810007C3EC13FCEB13FBD5F0F6743F5BFC8D828E838FF0122E5524FA8D828E838FF0D6
:2015A100122D8A7B00EB2419F582E434F3F583E0FAB5040280060BBB100040E9BB10067564
:2015C100820102164BC005C006C007A81808740326FAE40836FC0886078A828C838FF01214
:2015E1002E55FDA3122E55FEE5182404F8A605EEC454F0C6C4C666C654F0C66608F67E000E
:20160100E5182404F8E6420308E642068A828C838FF0EB122D8AA3EE122D8AA81808740562
:2016210026FDE40836FE0886078D828E838FF0122E552404FC8D828E838FF0122D8AD0073A
:20164100D006D00502154A758200851881D01822C018E581F5182404F581AD82AE83AFF076
:2016610074052DFAE43EFB8F048A828B838CF0A81808122E55F6A81808B60800500575825E
:20168100008068E51824FBF8A9180909E6F70809E6F70809E6F774032DFDE43EFE8D828E63
:2016A100838FF0122E55FDA3122E55FEA81808E624F8FF8FF005F08007C3EE13FEED13FDDC
:2016C100D5F0F6A818080886820886830886F0ED122D8A8A828B838CF0122E5524F8FF8A61
:1116E100828B838CF0122D8A758201851881D0182203
:102E870015313223342526161A192A0B2C0D0E1C40
:0A00F2007849E4F2784AF2784BF204
:2016F2001222ED121B117849E2600C7849E2F582121B117849E4F222784A7401F21222ED0F
:201712001202CBE58260087582DD12247F800675821112247F022BDC1222EDAF82C0071209
:2017320022DDAE827D0078B27402F208E4F28E828D83122DA5AD82AE83D007784CEDF2BFDE
:2017520001028005BF021280087CEB7EF17F00800E7CFC7EF17F0080067C007E007F00EC60
:201772004E60158C828E838FF0C007C006C004121EFCD004D006D0077A007B00C004C00679
:20179200C007784CE2FE7F00C3EA9EEB64808FF063F08095F0D007D006D0045053C007C0B1
:2017B20006C004C003C0021222ED784DE582F21222EDAD82D002D003D004D006D007EC4ED9
:2017D2006027784D795BE2F3785CEDF28C828E838FF0C007C006C004C003C002121F00D0DA
:2017F20002D003D004D006D0070ABA008F0B808C7582DD12247F022BDC1222EDAF82C0076C
:20181200122440AB82AC83ADF0FED0077817EBF208ECF208EDF208EEF2784B791BE2F38F96
:20183200821207D4E582FE60058E8212247F022BDC7582DD12247F902E7575F080022D09B6
:201852007582DD12247F902E7875F080022D091222EDAF82C0071222ED784EE582F212240B
:2018720020AC82AD83C005C004122420AA82AB83C003C0021222DDAE82D002D003D004D090
:2018920005D007784E7906E2F37807ECF208EDF27809EAF208EBF2780BEEF28F8212054CE3
:2018B2007582DD12247F022BDC1222ED784FE582F21222EDAF82C0071224207850E582F2B3
:2018D20008E583F21222ED7852E582F2122440AA82AC83ADF0FEC006C005C004C00212229F
:2018F200EDAB82D002C003C0021224207853E582F208E583F21222DD7855E582F2D002D0B0
:2019120003D004D005D006D0077806EFF278507907E2F308E209F378537909E2F308E209E5
:20193200F37855790BE2F3784FE2F582C006C005C004C003C00212054CD002D003D004D0DC
:2019520005D0067817EAF208ECF208EDF208EEF2784B791BE2F37852E2F582C006C005C0E0
:2019720004C003C0021207D4AF82D002D003D004D005D006BFAA5DEB605A78537915E2F3F1
:2019920008E209F3784FE2F582C006C005C004C003C0021206D8D002D003D004D005D00647
:2019B2007817EAF208ECF208EDF208EEF2784B791BE2F37852E2F582C006C005C004C00394
:2019D200C0021207D4AF82D002D003D004D005D0061B80A0EF60058F8212247F022BDC1281
:2019F20022ED121B96AF827582DDC00712247FD0078F8212247F022BDC1222EDAF82C007C3
:201A12001222EDAE82D007785AEEF28F82C007121D24AE82D007BF0205784B7401F28E82A8
:201A320012247F022BDCC2AF75C90B80FE1222ED1222ED7582DD12247F022BDC1224201262
:201A52000BE47582DD12247F022BDC1201C77582001202CB900000120BE47582DD12247F29
:201A7200022BDC7582DD12247FC2AF7856792EE3F20809E3F20809E3F20809E3F2D2AF785C
:201A920056E2F58208E2F58308E2F5F008E21227A17865E2F58208E2F5831225847867E27C
:201AB200F58208E2F5831225847869E2F58208E2F583122584786BE2F58208E2F583122554
:201AD20084786DE2F58208E2F583122584786FE2F58208E2F58312258490000012258490DD
:201AF2000000122584022BDC784AE2B401087582DD12247F800675821112247F022BDCE5F5
:201B120082FF602CBF10005027EF75F002A42429F58274F335F0F583E0FEA3E0FFC007C0B7
:201B3200068E828F83120089D006D00775C6AC221222DDE58260051222ED80F4758222127D
:051B5200247F022BDCE2
:122E75004F4B00737562675F726673707920322E3200BB
:202E97000000431852180B186118BB180B1A381A3F1AF1192A170A174E1A5D1A751AFA1A29
:201B5700AF82D2A17E048E051EED70FAC2AFC2A17E01EE601DEE5FB40100B39201E43324FF
:201B7700FF92A18E05ED2DFE7D008D041DEC60E280F8D2A1D2AF7F028F061FEE70FA2212EB
:201B970022EDE582FF24D15003021D1FEF240A83F582EF243383F583E4730F171F272F37B2
:201BB7003F474F575F676F777F878F979FA7AFB6BDC4CBD2D9E0E7EEF5FC1F1F1F1F030A39
:201BD7001F1F1F1F1F1F1F11181C1C1C1C1C1C1C1C1C1C1C1C1C1C1C1C1C1C1C1C1C1C1C68
:201BF7001C1C1C1C1C1C1C1C1C1D1D1D1D1D1D1D1D1D1D1D1D1D1D1D90DF00E0FF021D2191
:201C170090DF01E0FF021D2190DF02E0FF021D2190DF03E0FF021D2190DF04E0FF021D216B
:201C370090DF05E0FF021D2190DF06E0FF021D2190DF07E0FF021D2190DF08E0FF021D213B
:201C570090DF09E0FF021D2190DF0AE0FF021D2190DF0BE0FF021D2190DF0CE0FF021D210B
:201C770090DF0DE0FF021D2190DF0EE0FF021D2190DF0FE0FF021D2190DF10E0FF021D21DB
:201C970090DF11E0FF021D2190DF12E0FF021D2190DF13E0FF021D2190DF14E0FF806B9070
:201CB700DF15E0FF806490DF16E0FF805D90DF17E0FF805690DF18E0FF804F90DF19E0FF3E
:201CD700804890DF1AE0FF804190DF1BE0FF803A90DF1CE0FF803390DF1DE0FF802C90DF36
:201CF7001EE0FF802590DF1FE0FF801E90DF24E0FF801790DF25E0FF801090DF2DE0FF8019
:201D17000990DF2EE0FF80027F5A8F8222AF827EDDEF24D15003021EF7EF240A83F582EFB9
:201D3700243383F583E4739CA6B0BAC4CED8E2ECF6000A141E28323C46505A646E78828BF0
:201D5700949DA6AFB8C1CAF7F7F7F7D3DCF7F7F7F7F7F7F7E5EE1D1D1D1D1D1D1D1D1D1D62
:201D77001E1E1E1E1E1E1E1E1E1E1E1E1E1E1E1E1E1E1E1E1E1E1E1E1E1E1E1E1E1E1E1E8C
:201D97001E1E1E1E1E785A90DF00E2F0021EF9785A90DF01E2F0021EF9785A90DF02E2F028
:201DB700021EF9785A90DF03E2F0021EF9785A90DF04E2F0021EF9785A90DF05E2F0021E5C
:201DD700F9785A90DF06E2F0021EF9785A90DF07E2F0021EF9785A90DF08E2F0021EF978E2
:201DF7005A90DF09E2F0021EF9785A90DF0AE2F0021EF9785A90DF0BE2F0021EF9785A9040
:201E1700DF0CE2F0021EF9785A90DF0DE2F0021EF9785A90DF0EE2F0021EF9785A90DF0F12
:201E3700E2F0021EF9785A90DF10E2F0021EF9785A90DF11E2F0021EF9785A90DF12E2F002
:201E5700021EF9785A90DF13E2F0021EF9785A90DF14E2F0021EF9785A90DF15E2F0021E8B
:201E7700F9785A90DF16E2F0021EF9785A90DF17E2F0806E785A90DF18E2F08065785A9086
:201E9700DF19E2F0805C785A90DF1AE2F08053785A90DF1BE2F0804A785A90DF1CE2F080DE
:201EB70041785A90DF1DE2F08038785A90DF1EE2F0802F785A90DF1FE2F08026785A90DFE9
:201ED70024E2F0801D785A90DF25E2F08014785A90DF2DE2F0800B785A90DF2EE2F08002FE
:201EF7007E118E8222E4022D8AAFF0AE83E582785DF208EEF208EFF2785DE2F58208E2F591
:201F17008308E2F5F0122E55FCBC0700506F785DE22401FA08E23400FB08E2FFEC2C2AFC2F
:201F3700E43BFE8F058C828E838DF0785BE2122D8A785DE2F58208E2F58308E2F5F0122E20
:201F57005525E0FE2AFAE43BFB0ABA00010B8A828B838FF0785CE2122D8A785DE2F58208B6
:201F7700E2F58308E2F5F0122E55FF0F785DE2F58208E2F58308E2F5F0EF022D8A22AFF0B6
:201F9700AE83E5827860F208EEF208EFF27860E22401FA08E23400FB08E2FC7863E4F20866
:201FB700F2C002C003C0047860E2F58208E2F58308E2F5F0122E55FC7D007863C3E29C083B
:201FD700E264808DF063F08095F0D004D003D002505C7863E225E0F51508E233F516E5153C
:201FF7002AFDE5163BFE8C078D828E838FF0122E55F517E5152AFDE5163BFE8C070DBD00EA
:20201700010E8D828E838FF0785A122E55F2851782C004C003C002121D24D002D003D0046F
:0F2037007863E22401F208E23400F2021FB822BB
:0D00FC007871E4F27874F27875F27876F29B
:2020460074FE55F14402F5F143F4F053FE0F747F55F84420F5F875FA3BE5FC75FC0B53889C
:20206600F7D2AB53E8FB439A0875F944740D44F2602F90F20DE4F090F20E75F000122D8AB2
:2020860090F20F75F0007413122D8AA374F2122D8AA3E4122D8A90F21275F0007480122DA6
:2020A6008A749344F2602F90F293E4F090F29475F000122D8A90F29575F0007499122D8A45
:2020C600A374F2122D8AA3E4122D8A90F29875F0007480022D8A22C0E0C0F0C082C083C0F5
:2020E60007C006C005C004C003C002C001C000C0D075D000AFF97873E2FE24FC500302229F
:2021060019EE2E2E90210E7302212702214D02219FBF9902800302221978737401F2022218
:2021260019BF99028019786FE2FD08E2FE786F74012DF2E43E08F278737403F2022219783F
:20214600737401F2022219EF247F5019786FE2FD08E2FE786F74012DF2E43E08F2787374C3
:2021660003F20222197874EFF278747976E2F378757976C3E2F5F0E395F0500678757976AA
:20218600E2F37876E2600B78737402F275C6A80222197873E4F20222197876E2606990F29D
:2021A6000DE0FE90F20EE0FDEEC39DFE7874C3E2F5F0EE95F0504990F20FE0FCA3E0FDA363
:2021C600E0FE90F20DE0FB53037F7A00EB2CFCEA3DFD8C828D838EF0EF122D8A90F20DE068
:2021E600FF0F90F20DEFF0E0FF90F20EE0FEEFC39EFF7874E2B507087874E4F2787204F28D
:202206007876E2787614F27876E270077875E4F27873F2D0D0D000D001D002D003D004D083
:2022260005D006D007D083D082D0F0D0E032C0E0C0F0C082C083C007C006C005C004C003F1
:20224600C000C0D075D00053E8FB7873E270217871E2601790F293E0FF90F294E0FEEFC373
:202266009E7875F27875E2F5F9805575F90080507875E2604890F293E0FF90F294E0FEEFBD
:20228600B50602803390F295E0FDA3E0FEA3E0FF90F294E0FC53047F7B00EC2DFDEB3EFE51
:2022A6008D828E838FF0122E55F5F990F294E0FF0F90F294EFF0800875F900800375F90016
:2022C600D0D0D000D003D004D005D006D007D083D082D0F0D0E03290F20DE0FF90F20EE03A
:2022E600FEEFC39EF582227872E2700B7872E2700690F0B7E060F57878740DF20874F2F239
:2023060008E4F27C00740D44F2602C740D44F2601790F20DE0FB90F20E75F000122E55FAFE
:20232600EBC39AFA7B0080047A007B00787BEAB40100E433F28005787B7401F2787BE260B2
:20234600030223DB7878E22402FA08E23400FB08E2FF8A828B838FF0122E55F521A3122E59
:2023660055F522A3122E55F5237878E22401F52508E23400F52608E2F527852582852683F1
:202386008527F0122E55F5247878E22405FA08E23400FB08E2FF8A828B838FF0122E55FACE
:2023A6008AF0E52484E5F02521FAE43522FFAE238A828F838EF0122E55FC85258285268369
:2023C6008527F0122E55FF0F8525828526838527F0EF122D8A8C07740D44F2602C740D446F
:2023E600F2601790F20DE0FE90F20E75F000122E55FDEEC39DFD7E0080047D007E00787743
:20240600EDB40100E433F2800578777401F27877E260047872E4F28F82221222EDAE827F38
:2024260000C007C0061222EDAD82D006D0077C00ED2FFFEC3E8F82F58322122420AE82AF6B
:20244600838F048E057E007F00C007C006C005C004122420AA82AB83D004D005D006D007B4
:202466008A008B01E4FAFBE82EFEE93FFFEA3DFDEB3C8E828F838DF022E582787FF2787CDC
:202486007493F20874F2F208E4F2749344F27001227E937DF27C00749344F2604F749344FC
:2024A600F2601C90F293E0F52190F29475F000122E55FFE521C39FFF8F227523008005E475
:2024C600F522F5237881E522F274052EFAE43DFB8C078A828B838FF0122E55FA788179806B
:2024E600E2B5020474018001E4F3800578807401F27880E2600122787CE22402FA08E23417
:2025060000FB08E2FF8A828B838FF0122E55FAA3122E55FBA3122E55FF787CE2F58208E208
:20252600F58308E2F5F0122E55F522787CE22405FC08E23400FD08E2FE8C828D838EF012F6
:202546002E55FC8CF0E52284E5F02AFAE43BFB8A828B838FF0787FE2122D8A787CE2F58254
:2025660008E2F58308E2F5F0122E55FF0F787CE2F58208E2F58308E2F5F0EF022D8AAE822B
:20258600AF838F0578827493F20874F2F208E4F2749344F270030226A97C937BF27A007453
:2025A6009344F2605D749344F26022C006C00790F293E0FF90F29475F000122E55FEEFC38F
:2025C6009EFF8F21752200D007D0068005E4F521F522C006C0077886E521F274052CFCE4C6
:2025E6003BFE8A078C828E838FF0122E55FC78867985E2B5040474018001E4F3D007D006C7
:20260600800578857401F27885E260030226A9C006C0077882E22402FA08E23400FB08E22C
:20262600FC8A828B838CF0122E55F523A3122E55F524A3122E55F5257882E2F58208E2F580
:202646008308E2F5F0122E55F5217882E22405FC08E23400FE08E2FF8C828E838FF0122E93
:2026660055FC8CF0E52184E5F02523FCE43524FFAE258C828F838EF0ED122D8A7882E2F5B0
:202686008208E2F58308E2F5F0122E55FF0F7882E2F58208E2F58308E2F5F0EF122D8AD0D2
:2026A60007D0068E0578877493F20874F2F208E4F2749344F27001227A937EF27F0074939B
:2026C60044F26040749344F2601790F293E0FC90F29475F000122E55FBECC39BFB7C00802D
:2026E600047B007C0074052AFAE43EFE8A828E838FF0122E55FA788AEBB502047401800153
:20270600E4F28005788A7401F2788AE26001227887E22402FC08E23400FE08E2FF8C828EE4
:20272600838FF0122E55F526A3122E55F527A3122E55F5287887E2F58208E2F58308E2F59F
:20274600F0122E55F5237887E22405FA08E23400FB08E2FF8A828B838FF0122E55FA8AF02E
:20276600E52384E5F02526FAE43527FFAE288A828F838EF0ED122D8A7887E2F58208E2F50F
:202786008308E2F5F0122E55FF0F7887E2F58208E2F58308E2F5F0EF022D8AAF82AE83ADFE
:2027A600F0FC788BEFF208EEF208EDF208ECF2788B7992080808E2F3788F7493F20874F225
:2027C600F208E4F2749344F270030228B47A937BF27F00749344F26040749344F26017907B
:2027E600F293E0FE90F29475F000122E55FDEEC39DFD7E0080047D007E0074052AFAE43B5F
:20280600FB8A828B838FF0122E55FA7893EDB5020474018001E4F2800578937401F278930E
:20282600E260030228B4788FE22402FD08E23400FE08E2FF8D828E838FF0122E55FDA31278
:202846002E55FEA3122E55FF788FE2F58208E2F58308E2F5F0122E55F521788FE22405FA72
:2028660008E23400FB08E2FC8A828B838CF0122E55FA8AF0E52184E5F0FA2DFDE43EFE8D84
:20288600828E838FF07892E2122D8A788FE2F58208E2F58308E2F5F0122E55FF0F788FE24E
:2028A600F58208E2F58308E2F5F0EF122D8A788B79970808E2F378947493F20874F2F2084D
:2028C600E4F2749344F270030229C47A937BF27F00749344F26052749344F26026C002C050
:2028E60003C00790F293E0FF90F29475F000122E55FBEFC39BFF8F22752300D007D003D0FA
:20290600028005E4F522F523AE2274052AFAE43BFB8A828B838FF0122E55FA7898EEB502B3
:202926000474018001E4F2800578987401F27898E260030229C47894E22402FA08E2340055
:20294600FB08E2FF8A828B838FF0122E55FAA3122E55FBA3122E55FF7894E2F58208E2F5B7
:202966008308E2F5F0122E55F5227894E22405FC08E23400FD08E2FE8C828D838EF0122E61
:2029860055FC8CF0E52284E5F0FC2AFAE43BFB8A828B838FF07897E2122D8A7894E2F58212
:2029A60008E2F58308E2F5F0122E55FF0F7894E2F58208E2F58308E2F5F0EF122D8A788BEC
:2029C600799C08E2F378997493F20874F2F208E4F2749344F27003022AD37A937BF27F000F
:2029E600749344F26052749344F26026C002C003C00790F293E0FF90F29475F000122E55CF
:202A0600FBEFC39BFF8F22752300D007D003D0028005E4F522F523AE2274052AFAE43BFB85
:202A26008A828B838FF0122E55FA789DEEB5020474018001E4F28005789D7401F2789DE2E6
:202A46006003022AD37899E22402FA08E23400FB08E2FF8A828B838FF0122E55FAA3122EEE
:202A660055FBA3122E55FF7899E2F58208E2F58308E2F5F0122E55F5227899E22405FC0862
:202A8600E23400FD08E2FE8C828D838EF0122E55FC8CF0E52284E5F0FC2AFAE43BFB8A82E6
:202AA6008B838FF0789CE2122D8A7899E2F58208E2F58308E2F5F0122E55FF0F7899E2F59E
:202AC6008208E2F58308E2F5F0EF122D8A788B79A1E2F3789E7493F20874F2F208E4F274D2
:202AE6009344F27001227A937BF27C00749344F26052749344F26026C002C003C00490F201
:202B060093E0FC90F29475F000122E55FBECC39BFC8C22752300D004D003D0028005E4F5D2
:202B260022F523AF2274052AFAE43BFB8A828B838CF0122E55FA78A2EFB5020474018001EE
:202B4600E4F2800578A27401F278A2E2600122789EE22402FA08E23400FB08E2FC8A828B66
:202B6600838CF0122E55FAA3122E55FBA3122E55FC789EE2F58208E2F58308E2F5F0122E7A
:202B860055F522789EE22405FD08E23400FE08E2FF8D828E838FF0122E55FD8DF0E5228467
:202BA600E5F02AFAE43BFB8A828B838CF078A1E2122D8A789EE2F58208E2F58308E2F5F002
:202BC600122E55FF0F789EE2F58208E2F58308E2F5F0EF022D8A749344F2602C749344F2FE
:202BE600601790F293E0FF90F29475F000122E55FEEFC39EFE7F0080047E007F0078A4EEFE
:202C0600B40100E433F2800578A47401F278A4E2600122C2AF78A5792EE3F20809E3F2086F
:202C260009E3F20809E3F2D2AF78717401F2749344F2602C749344F2601790F293E0FF90F8
:202C4600F29475F000122E55FEEFC39EFE7F0080047E007F0078A3EEB40100E433F2800556
:202C660078A37401F278A3E2704990F0B7E07043C2AF782E79A5E3F5F0C3E295F0FC09E33D
:202C8600F5F008E295F0FD09E3F5F008E295F0FE09E3F5F008E295F0FF78A9C374889C7470
:202CA600139DE49EE49FE433F2D2AF78A9E27003022C347875E2604690F0B7E07040C2AF4A
:202CC600782E79A5E3F5F0C3E295F0FC09E3F5F008E295F0FD09E3F5F008E295F0FE09E3D5
:202CE600F5F008E295F0FF78AAC374889C74139DE49EE49FE433F2D2AF78AAE260B5787149
:202D0600E4F222AD82AE83AFF08D828E838FF0122E55FC60188C82C007C006C00512247FF9
:102D2600D005D006D0070DBD00DF0E80DC022BDCFF
:0600BA00E478FFF6D8FD1A
:202D3600AFF0AE83E58278AEF208EEF208EFF278AEE2FA08E2FB08E2FC78ACE2F52108E28A
:202D5600F522AE21AF22152174FFB521021522EE4F60138A828B838CF078ABE2122D8AA337
:142D7600AA82AB8380DC78AEE2F58208E2F58308E2F5F022C1
:200098007930E94400601B7A01902E8778197593F3E493F2A308B800020593D9F4DAF27537
:0200B80093FFB4
:1B2D8A0020F71130F6138883A88220F509F6A8837583002280FEF280F5F02248
:202DA500AE82E583FF33E433FD6009C3E49EFBE49FFC80048E038F0478B3E233E433FF60AA
:202DC5001078B2E2D3F43400FA08E2F43400FE800778B2E2FA08E2FE78B4EAF208EEF28BDD
:202DE500828C83C007C005122E0AAC82AE83D005D007EF6D600AC3E49CF582E49EF58322C0
:052E05008C828E832287
:2000C00078B6E84400600A79007593F0E4F309D8FC7863E84402600C790390F0B6E4F0A399
:0400E000D8FCD9FA75
:202E0A00AE82AF837C007D007B10EF235401FAEE2EFEEF33FFEC2CFCED33FDEA6003430461
:202E2A000178B4C3E2F5F0EC95F008E2F5F0ED95F0401178B4D3E29CF4B3FCB308E29DF480
:0B2E4A00FD430601DBC48E828F832253
:02008900E4731E
:0D008B00758128122E71E582600302008647
:1C2E550020F71430F6148883A88220F507E6A88375830022E280F7E49322E0228C
:042E71007582002244
:00000001FF
