:0600000002008B0202DB8E
:01000B0032C2
:0100130032BA
:03001B0002209C24
:0100230032AA
:01002B0032A2
:01003300329A
:01003B003292
:01004300328A
:03004B00020C1A8A
:01005300327A
:01005B003272
:01006300326A
:01006B003262
:030073000221F374
:03007B0002010C73
:030083000204FE76
:030106000200866E
:030086000201096B
:0301090002017D73
:20010C00758A0053E8F753BEFC3278007432F208E4F2A2EBE433F4FF52E8758A00439A10B8
:20012C00438D04D29253FEFBE5BE54FC4401F5BE000000E5BE54036004438701007800E2C1
:20014C00FE08E2FF7800EE24FFF2EF34FF08F2EE4F70EAE5BE30E6FB43BE04A2EBE433F42D
:20016C0052E8758A00539AEF538DFBC29243FE042253BEFBE5BE30E6FB75C6A8E5C620E674
:20018C00FB43BE0443FF02D2A1C2A1D2A190DF30E043E080F0438C02120BD6D2AF12200538
:1801AC001201C490F0A67401F090F0A7E070081201161216CE80F222A7
:0400E4007805E4F2C5
:2001C40090DF0074FFF090DF01E4F090DF0214F090DF03E4F090DF04F090DF05F090DF070D
:2001E4007406F090DF08E4F090DF0C7499F090DF0DF4F090DF0E03F090DF0F7461F090DF4C
:2002040010747EF090DF117415F090DF127407F090DF137430F090DF1403F090DF1514F0EF
:2002240090DF16746CF090DF1A74B6F090DF1B7411F090DF1C74E9F090DF1D742AF090DF62
:200244001EE4F090DF1F741FF090DF247431F090DF257409F090DF2EE4F090DF177407F00C
:2002640090DF18E4F090DF197491F090DF097426F090DF0A7430F090DF0B7470F090DF06D0
:200284007402F090DF2D74C0F0439A01D2A874C844F0602F90F0C8E4F090F0C975F0001201
:2002A4002D2290F0CA75F00074A8122D22A374F0122D22A3E4122D2290F0CD75F000742029
:2002C400022D2222E582FF24FD40087805EFF27582012275820022C0E0C0F0C082C083C0B2
:2002E40007C006C005C004C003C002C000C0D075D00075C6A890DF3BE0FFBF0D02800302CB
:20030400044AAFD97802E260030203E290DF3AE0FE90F0C8E0FD7C0090F0C9E0FB7A00EDAA
:20032400C39BFDEC9AFCBD2016BC00137862E2FC08E2FD786274012CF2E43D08F28034C07F
:200344000790F0CAE0FBA3E0FCA3E0FD90F0C8E0FA53021F7F00EA2BFBEF3CFC8B828C8306
:200364008DF0EE122D2290F0C8E0FF0F90F0C8EFF0D0077864E2FE90F0C8E0FD7C0090F09C
:20038400C9E0FB7A00EDC39BFDEC9AFCBD2016BC00137862E2FC08E2FD786274012CF2E4BF
:2003A4003D08F28034C00790F0CAE0FBA3E0FCA3E0FD90F0C8E0FA53021F7F00EA2BFBEF4F
:2003C4003CFC8B828C838DF0EE122D2290F0C8E0FF0F90F0C8EFF0D00778027402F290F063
:2003E400C8E0FE7D0090F0C9E0FC7B00EEC39CFEED9BFDBE2016BD00137862E2FD08E2FE01
:20040400786274012DF2E43E08F2803090F0CAE0FCA3E0FDA3E0FE90F0C8E0FB53031F7A65
:2004240000EB2CFCEA3DFD8C828D838EF0EF122D2290F0C8E0FF0F90F0C8EFF07802E27864
:200444000204F20204E590DF3BE0FFBF130280030204E57804E2FF24F950030204E5EF2F14
:2004640090046873800C801B8077804080318049806F90F1CFE0FEA3E0FF8FD978047401B9
:20048400F2805E90F1CFE0FEA3E0FF8ED97803E2600778047404F280487804E4F28042905B
:2004A400DF00E0F5D978047403F2803590DF01E0F5D978047405F2802890F1CDE0FF04F043
:2004C400EF24CEF582E434F0F583E0F5D990F1CDE0FF90F1CEE0FEC3EF9E400578047406AD
:2004E400F2D0D0D000D002D003D004D005D006D007D083D082D0F0D0E032C0E0C007C00627
:20050400C000C0D075D000539BFCE5E930E70875E10453E97F8023E5E930E6167860E2FE01
:2005240008E2FF786074012EF2E43F08F253E9BF8008E5E930E50353E9DFD0D0D000D0067A
:20054400D007D0E032E582780CF27806E2FD7E000DBD00010E7839740EF208E4F20874606E
:20056400F2783C7412F208E4F2087460F27805E2F582C006C005120E6090F1DB75F00012F9
:200584001F54D005D006780C90DF06E2F090F1CEE4F0780BE2FCEC7003020664C005C00694
:2005A400C006C005C0041222ACAB82D004D005D006780DEBF21C780EE2FA08E2FEC006C00E
:2005C40005C004C002C0031205D0800BC002C00690F01275F060221581D002D004D005D075
:2005E40006ECB401009200D006D0057810E2FA08E2FBC006C005C004C003A200E433C0E05F
:20060400740DC0E074F0C0E07460C0E0120615800BC002C00390F01275F06022AA82E581F5
:2006240024FCF581D003D004D005D006EA700302059A90F1CEE0FB7A000BBB00010AC3EBAD
:2006440094FFEA6480948050A290F1CEE0FB04F0EB24CEF582E434F0F583780DE2F0808BDB
:200664007B007C00C3EB9DEC9E506BEB4C60387807E2F5F008E245F0602DC005C006780724
:20068400E2FA08E2FD7E007F008A828D838EF0EFC006C005C004C003120C59D003D004D00D
:2006A40005D006D006D00575C9A875C95878097915E2F308E209F3780CE2F582C006C00502
:2006C400C004C0031206DBD003D004D005D0060BBB00910C808E22AF8290DF0EE0FE90DFBC
:2006E40002E0FD90DF04E0FC7866E22401F208E23400F290F1CFE0FAA3E0FB4A601E90DF02
:200704000EE053E0FCF090DF04E054FC4402F090DF02E4F07803F27804F2801F7815E2F5CC
:20072400F008E245F0600778047402F2800578047405F290F1CEE090DF02F075E10490DF96
:200744003BE0FBBB01F890DF06EFF090F1CDE4F075E10390DF3BE0FFBF13F87815E2F5F055
:2007640008E245F06038C0047815E2FA08E2FB7C007F008A828B838CF0EFC006C005C004DD
:20078400120C59D004D005D00690F1CFE0FCA3E0FF4CD004700878047405F243880290F1E4
:2007A400CFE0FBA3E0FF4B600578037401F290DF3BE0FFBF130280F690DF3BE0FFBF160343
:2007C40075E10490DF02EDF090DF0EEEF090DF04ECF022AF82781DE4F2781EF2F50A7817EF
:2007E400E2F5F008E242F008E242F008E245F06016C2AF781F792AE3F20809E3F20809E307
:20080400F20809E3F2D2AF90F1EC75F000C007121F54783F74D1F20874F1F208E4F2784278
:2008240074D5F20874F1F208E4F27805E2F582120F3CD00775E10490DF3BE0FCBC01F8900D
:20084400DF06EFF07802E4F2789B7411F2789C7420F208E4F290F0A875F000122CC775C6B1
:20086400AB75E10290DF3BE0FFBF0DF87817E2F50B08E2F50C08E2F50D08E2F50E781CE477
:20088400F275C9A875C95874C844F0602F74C844F0601A90F0C8E0FD90F0C975F000122DEB
:2008A400EDFEEDC39EFD8D087509008005E4F508F509AE08E4BE000104FE80027E01EE60DD
:2008C40003020A43782374C8F20874F0F208E4F27C0074C844F0602974C844F0601790F0E1
:2008E400C8E0FB90F0C975F000122DEDFAEBC39AFA7B0080047A007B00E4BA000104FB8029
:20090400027B01EB600302099E7823E22402FA08E23400FB08E2FF8A828B838FF0122DEDFA
:20092400F50FA3122DEDF510A3122DEDF5117823E22401F51208E23400F51308E2F51485BF
:2009440012828513838514F0122DEDF5087823E22405FA08E23400FB08E2FF8A828B838FE7
:20096400F0122DEDFA8AF0E50884E5F0250FFAE43510FFAE118A828F838EF0122DEDFC853F
:2009840012828513838514F0122DEDFF0F8512828513838514F0EF122D22781DECF2781CCD
:2009A400E22401F2781CE2B401067582DD122436781CE2B40300500A781DE2F582122436E8
:2009C400806790F1D1E0FEA3E0FFC007C006781DE2C0E01209DC800BC006C00790F1D575FC
:2009E400F0002285820A1581D006D00790F1D3E0FEA3E0FFC007741DC0E074F0C0E0746009
:200A0400C0E0120A0B800BC006C00790F1D575F00022AE82158115811581D007EE600A787D
:200A24001DE2F58212243680C3E50A707A781BE2600D90DF02E0FF781CE2B507028068E581
:200A44000B450C450D450E6049C2AF782A791FE3F5F0C3E295F0FC09E3F5F008E295F0FD12
:200A640009E3F5F008E295F0FE09E3F5F008E295F0FF7826C3E50B9CE50C9DE50D9EE50EF7
:200A84009FE433F2D2AF7826E26007781E74AAF28015786DE270030208851222ACE582787F
:200AA40045F2781E74BBF275E10490DF3BE0FFBF01F874C844F0602974C844F0601790F049
:200AC400C8E0FF90F0C975F000122DEDFEEFC39EFE7F0080047E007F00E4BE000104FF801F
:200AE400027F01EF6003020BB4782774C8F20874F0F208E4F274C844F0602974C844F0608B
:200B04001790F0C8E0FC90F0C975F000122DEDFBECC39BFB7C0080047B007C00E4BB0001E5
:200B240004FC80027C01EC70897827E22402FA08E23400FB08E2FC8A828B838CF0122DED6B
:200B4400F512A3122DEDF513A3122DEDF5147827E22401FD08E23400FE08E2FF8D828E8313
:200B64008FF0122DEDF50F7827E22405FA08E23400FB08E2FC8A828B838CF0122DEDFA8AD9
:200B8400F0E50F84E5F02512FAE43513FCAB148A828C838BF0122DED8D828E838FF0122D5C
:200BA400EDFC0C8D828E838FF0EC122D22020AB6781EE2700B7864E22401F208E23400F2B6
:120BC400781EE2F58222AF83E58290F1CFF0EFA3F02291
:0A00E800782AE4F208F208F208F2A8
:200BD600782AE4F208F208F208F2F5E4F5E275E401782EE5E2F2782FE5E3F2782EE2FE0841
:200BF600E2FFC3E49E74A09F50E775E40075DB0075DA5D75E544A2DEE43342D8D2B9D2AF1F
:200C160075E40622C0E0C007C006C005C004C000C0D075D000782AE2FC08E2FD08E2FE089B
:200C3600E2FF782A74012CF2E43D08F2E43E08F2E43F08F2D0D0D000D004D005D006D0076E
:200C5600D0E032AF82AE83ADF0FC7830EFF208EEF208EDF208ECF2C2AF7834792AE3F208C6
:200C760009E3F20809E3F20809E3F2D2AFC2AF782A7934E3F5F0C3E295F0FA09E3F5F008AE
:200C9600E295F0FB09E3F5F008E295F0FE09E3F5F008E295F0FF78387930C3E39A09E39B3F
:190CB60009E39E09E39FE433F2D2AF7838E2700875C9A875C95880B522A9
:200CCF00AD82AE83AFF00DBD00010E8D828E838FF0E4022D22C018858118AD82AE83AFF064
:200CEF0074012DFAE43EFB8F048A828B838CF07401122D228D828E838FF0E51824FDF8E692
:200D0F00122D22D01822C018858118C082C083C0F0058105810581A81808740126FAE40853
:200D2F0036FB0886048A828B838CF0122DEDFFBF01005005758200804CE51824FBF8E51837
:200D4F002404F9E6F70809E6F70809E6F7A8180886820886830886F0122DEDFFE5182404FB
:200D6F00F886820886830886F0EF122D228A828B838CF0122DEDFF1F8A828B838CF0EF120E
:200D8F002D22758201851881D01822AD82AE83AFF00DBD00010E8D828E838FF0E4022D2229
:200DAF00C018858118AD82AE83AFF0E51824FDF8E6122D220DBD00010E8D828E838FF074E6
:200DCF0001122D22E51824FDF8E670057582018003758200D01822C018858118C082C0833A
:200DEF00C0F0058105810581A81808740126FAE40836FB0886048A828B838CF0122DEDFFD5
:200E0F00BF010050057582008041E51824FBF8E5182404F9E6F70809E6F70809E6F7A8184B
:200E2F000886820886830886F0122DEDFFE5182404F886820886830886F0EF122D228A82C9
:200E4F008B838CF0E4122D22758201851881D01822AF82BF0002800CBF0102804ABF0203C6
:200E6F00020EF9227839E2FD08E2FE08E2FF8D828E838FF074E4122D22A3740C122D227487
:200E8F00022DFDE43EFE8D828E838FF07415122D22A3740D122D22783CE2F58208E2F5837A
:200EAF0008E2F5F0020CCF7839E2FD08E2FE08E2FF8D828E838FF07430122D22A374101239
:200ECF002D2274022DFDE43EFE8D828E838FF074CE122D22A37410122D22783CE2F5820815
:200EEF00E2F58308E2F5F00210187839E2FD08E2FE08E2FF8D828E838FF074BC122D22A35C
:200F0F007412122D2274022DFDE43EFE8D828E838FF07461122D22A37413122D22783CE225
:200F2F00F58208E2F58308E2F5F002129DAF82BF0002800CBF0102804ABF0203020FD52273
:200F4F00783FE2FD08E2FE08E2FF8D828E838FF074AF122D22A3740D122D2274022DFDE4EF
:200F6F003EFE8D828E838FF074E6122D22A3740D122D227842E2F58208E2F58308E2F5F003
:200F8F00020D9A783FE2FD08E2FE08E2FF8D828E838FF0746E122D22A37411122D22740251
:200FAF002DFDE43EFE8D828E838FF07423122D22A37412122D227842E2F58208E2F583083A
:200FCF00E2F5F0021155783FE2FD08E2FE08E2FF8D828E838FF074BA122D22A37414122DD4
:200FEF002274022DFDE43EFE8D828E838FF0742D122D22A37416122D227842E2F58208E2D4
:09100F00F58308E2F5F00214710A
:20101800AD82AE83AFF074022DFDE43EFE8D828E838FF07402022D22C018858118C082C09B
:2010380083C0F07E007D007A087C00EE2EFBED33FFEB2BFBEF33FF74022BFBE43FFFE51849
:2010580024FDF8E6235401FE7D00EBC39EFBEF9DFF8B068F05E51824FDF88607E51824FDCE
:20107800F8EF2FF61ABAFF011CEA4C70BE8D04A8180886820886830886F0EC122D22A818FB
:2010980008740126FAE40836FB0886048E078A828B838CF0EF122D22A81808740226FDE42C
:2010B8000836FE0886078D828E838FF0E4122D22851881D01822C018E581F5182404F58152
:2010D800AD82AE83AFF074022DFAE43EFB8F048A828B838CF0A81808122DEDF6A81808E67E
:2010F80024FE5005758200804EE51824FBF8A9180909E6F70809E6F70809E6F7A81808E64E
:201118002DFDE43EFE8D828E838FF0122DEDFDA818080886820886830886F0ED122D228A66
:20113800828B838CF0122DEDFF0F8A828B838CF0EF122D22758201851881D01822AD82AE6E
:2011580083AFF0E4122D220DBD00010E8D828E838FF0E4022D22C01885811805810581ADB4
:2011780082AE83AFF07C007A067B00C005C006C0078C07EF2FFC8AF005F0E51824FDF8E624
:201198008002C313D5F0FBFFA8180874035FF6087600A81808B6000C08B60008D007D00611
:2011B800D005801CD007D006D005A81808B6010608B60002800FA81808B6030A08B6000601
:2011D80075820180400CEA24FEFAEB34FFFB30E79A8D828E838FF0122DEDC454F02CFB8DDC
:2011F800828E838FF0122D220DBD00010E8D828E838FF0122DED2404FC8D828E838FF012EB
:201218002D22758200851881D01822C018858118C082C083C0F0058105810581A81808744F
:201238000126FAE40836FB0886048A828B838CF0122DEDFFBF080050057582008041E51834
:2012580024FBF8E5182404F9E6F70809E6F70809E6F7A8180886820886830886F0122DEDFD
:20127800FFE5182404F886820886830886F0EF122D228A828B838CF0E4122D2275820185FB
:051298001881D01822AE
:20129D00AD82AE83AFF0E4122D22A3122D2274022DFDE43EFE8D828E838FF0E4022D22C095
:2012BD0018858118C082C083C0F0E51824FDF8E6C4540F2409F582E434F3F583E0FCE4C3D9
:2012DD00CC13CC13A2E0CC13CC13CCFBE51824FDF8860253020F7F00EA2409F582EF34F307
:2012FD00F583E07E004204EE4203A8180886820886830886F0122DEDFEA3122DEDEEC45424
:20131D00F0FFE44204EF4203A8180886820886830886F0EC122D22A3EB122D22A81808748C
:20133D000226FDE40836FE0886078D828E838FF0122DED240C8D828E838FF0122D2285181E
:20135D0081D01822C018858118C082C083C0F0058105810581A81808740226FAE40836FBAD
:20137D000886048A828B838CF0122DEDFDBD0800E433FF600DE51824FAF8E67005F58202D0
:20139D00146BED7005F58202146BE51824FAF8E66057EF6054E51824FBF8E5182404F9E6EC
:2013BD00F70809E6F70809E6F7A8180886820886830886F0122DEDFF8D067408C39EFE8EB7
:2013DD00F005F0EF800225E0D5F0FBFEE5182404F886820886830886F0EE122D228A828B3D
:2013FD00838CF0E4122D228062E51824FBF8E5182404F9E6F70809E6F70809E6F7A81808F7
:20141D0086820886830886F0122DEDFEA3122DEDFFED24F8FD8DF005F08007C3EF13FFEE6F
:20143D0013FED5F0F6E5182404F886820886830886F0EE122D228A828B838CF0122DED24DA
:20145D00F8FF8A828B838CF0122D22758201851881D01822AD82AE83AFF0E4122D22A31268
:20147D002D2274022DFAE43EFB8F048A828B838CF0E4122D2274032DFAE43EFB8F048A827E
:20149D008B838CF0E4122D22A3122D2274052DFDE43EFE8D828E838FF0E4022D22C0188568
:2014BD008118C082C083C0F005810581A8180886820886830886F0122DEDFBA3122DED8B55
:2014DD00047B00E51824FDF886027F00EA4203EF4204A8180886820886830886F0EB122D66
:2014FD0022A3EC122D22A81808740226FDE40836FE0886078D828E838FF0122DED2408FCB4
:20151D008D828E838FF0122D228D828E838FF0122DEDFCBC06005003021624A818088682C6
:20153D000886830886F0122DEDFBA3122DEDFC8D828E838FF0122DED24FAFA8AF005F0803B
:20155D0007C3EC13FCEB13FBD5F0F6743F5BFC8D828E838FF0122DED24FA8D828E838FF063
:20157D00122D227B00EB2409F582E434F3F583E0FAB5040280060BBB100040E9BB10067500
:20159D008201021627C005C006C007A81808740326FAE40836FC0886078A828C838FF0125C
:2015BD002DEDFDA3122DEDFEE5182404F8A605EEC454F0C6C4C666C654F0C66608F67E0004
:2015DD00E5182404F8E6420308E642068A828C838FF0EB122D22A3EE122D22A81808740557
:2015FD0026FDE40836FE0886078D828E838FF0122DED2404FC8D828E838FF0122D22D00730
:20161D00D006D005021526758200851881D01822C018E581F5182404F581AD82AE83AFF0BE
:20163D0074052DFAE43EFB8F048A828B838CF0A81808122DEDF6A81808B6080050057582EB
:20165D00008068E51824FBF8A9180909E6F70809E6F70809E6F774032DFDE43EFE8D828E87
:20167D00838FF0122DEDFDA3122DEDFEA81808E624F8FF8FF005F08007C3EE13FEED13FDD2
:20169D00D5F0F6A818080886820886830886F0ED122D228A828B838CF0122DED24F8FF8A56
:1116BD00828B838CF0122D22758201851881D018228F
:102E220015313223342526161A192A0B2C0D0E1CA5
:0700F2007845E4F27846F2C4
:2016CE001222AC121AD07845E2600C7845E2F582121AD07845E4F2221222AC1202C8E5822B
:2016EE0060087582DD1224368006758211122436022B711222ACAF82C00712229CAE827D47
:20170E000078A27402F208E4F28E828D83122D3DAD82AE83D0077847EDF2BF01028005BFE4
:20172E00021280087CDB7EF17F00800E7CEC7EF17F0080067C007E007F00EC4E60158C821A
:20174E008E838FF0C007C006C004121EBBD004D006D0077A007B00C004C006C0077847E247
:20176E00FE7F00C3EA9EEB64808FF063F08095F0D007D006D0045053C007C006C004C003B5
:20178E00C0021222AC7848E582F21222ACAD82D002D003D004D006D007EC4E602778487951
:2017AE0056E2F37857EDF28C828E838FF0C007C006C004C003C002121EBFD002D003D00466
:2017CE00D006D0070ABA008F0B808C7582DD122436022B711222ACAF82C0071223F7AB82D5
:2017EE00AC83ADF0FED0077817EBF208ECF208EDF208EEF27846791BE2F38F821207D7E50C
:20180E0082FE60058E82122436022B717582DD122436902E0D75F080022C9A7582DD1224F9
:20182E0036902E1075F080022C9A1222ACAF82C0071222AC7849E582F21223D7AC82AD83AD
:20184E00C005C0041223D7AA82AB83C003C00212229CAE82D002D003D004D005D007784920
:20186E007906E2F37807ECF208EDF27809EAF208EBF2780BEEF28F821205497582DD1224A2
:20188E0036022B711222AC784AE582F21222ACAF82C0071223D7784BE582F208E583F212F7
:2018AE0022AC784DE582F21223F7AA82AC83ADF0FEC006C005C004C0021222ACAB82D0021C
:2018CE00C003C0021223D7784EE582F208E583F212229C7850E582F2D002D003D004D005A9
:2018EE00D006D0077806EFF2784B7907E2F308E209F3784E7909E2F308E209F37850790B81
:20190E00E2F3784AE2F582C006C005C004C003C002120549D002D003D004D005D0067817E2
:20192E00EAF208ECF208EDF208EEF27846791BE2F3784DE2F582C006C005C004C003C002EF
:20194E001207D7AF82D002D003D004D005D006BFAA5DEB605A784E7915E2F308E209F37842
:20196E004AE2F582C006C005C004C003C0021206DBD002D003D004D005D0067817EAF20858
:20198E00ECF208EDF208EEF27846791BE2F3784DE2F582C006C005C004C003C0021207D783
:2019AE00AF82D002D003D004D005D0061B80A0EF60058F82122436022B711222AC121B55B8
:2019CE00AF827582DDC007122436D0078F82122436022B711222ACAF82C0071222ACAE82E7
:2019EE00D0077855EEF28F82C007121CE3AE82D007BF020578467401F28E82122436022BD1
:201A0E0071C2AF75C909221222AC1222AC7582DD122436022B711223D7120BCA7582DD12F6
:201A2E002436022B711201C47582001202C8900000120BCA7582DD122436022B717582DDCD
:201A4E00122436C2AF7851792AE3F20809E3F20809E3F20809E3F2D2AF7851E2F58208E21B
:201A6E00F58308E2F5F008E21227497860E2F58208E2F5831225377862E2F58208E2F5830F
:201A8E001225377864E2F58208E2F5831225377866E2F58208E2F5831225377868E2F58285
:201AAE0008E2F583122537786AE2F58208E2F583122537900000122537900000122537023F
:201ACE002B71E582FF602CBF0F005027EF75F002A42419F58274F335F0F583E0FEA3E0FF13
:201AEE00C007C0068E828F83120089D006D00775C6AC2212229CE58260051222AC80F47573
:081B0E008222122436022B7121
:152E0D004F4B00737562675F726673707920322E322E3231008F
:1E2E320000001A182918E21738189218E2190F1A151AC8190117E616241A331A4B1AE4
:201B1600AF82D2A17E048E051EED70FAC2AFC2A17E01EE601DEE5FB40100B39201E4332440
:201B3600FF92A18E05ED2DFE7D008D041DEC60E280F8D2A1D2AF7F028F061FEE70FA22122C
:201B560022ACE582FF24D15003021CDEEF240A83F582EF243383F583E473CED6DEE6EEF6FC
:201B7600FE060E161E262E363E464E565E666E757C838A91989FA6ADB4BBDEDEDEDEC2C99A
:201B9600DEDEDEDEDEDEDED0D71B1B1B1B1B1B1B1C1C1C1C1C1C1C1C1C1C1C1C1C1C1C1CF9
:201BB6001C1C1C1C1C1C1C1C1C1C1C1C1C1C1C1C1C1C1C1C1C1C1C1C90DF00E0FF021CE023
:201BD60090DF01E0FF021CE090DF02E0FF021CE090DF03E0FF021CE090DF04E0FF021CE0B5
:201BF60090DF05E0FF021CE090DF06E0FF021CE090DF07E0FF021CE090DF08E0FF021CE085
:201C160090DF09E0FF021CE090DF0AE0FF021CE090DF0BE0FF021CE090DF0CE0FF021CE054
:201C360090DF0DE0FF021CE090DF0EE0FF021CE090DF0FE0FF021CE090DF10E0FF021CE024
:201C560090DF11E0FF021CE090DF12E0FF021CE090DF13E0FF021CE090DF14E0FF806B9077
:201C7600DF15E0FF806490DF16E0FF805D90DF17E0FF805690DF18E0FF804F90DF19E0FF7F
:201C9600804890DF1AE0FF804190DF1BE0FF803A90DF1CE0FF803390DF1DE0FF802C90DF77
:201CB6001EE0FF802590DF1FE0FF801E90DF24E0FF801790DF25E0FF801090DF2DE0FF805A
:201CD6000990DF2EE0FF80027F5A8F8222AF827EDDEF24D15003021EB6EF240A83F582EF3C
:201CF600243383F583E4735B656F79838D97A1ABB5BFC9D3DDE7F1FB050F19232D37414A8B
:201D1600535C656E778089B6B6B6B6929BB6B6B6B6B6B6B6A4AD1D1D1D1D1D1D1D1D1D1D39
:201D36001D1D1D1D1D1D1D1E1E1E1E1E1E1E1E1E1E1E1E1E1E1E1E1E1E1E1E1E1E1E1E1ED4
:201D56001E1E1E1E1E785590DF00E2F0021EB8785590DF01E2F0021EB8785590DF02E2F0FA
:201D7600021EB8785590DF03E2F0021EB8785590DF04E2F0021EB8785590DF05E2F0021E6F
:201D9600B8785590DF06E2F0021EB8785590DF07E2F0021EB8785590DF08E2F0021EB87836
:201DB6005590DF09E2F0021EB8785590DF0AE2F0021EB8785590DF0BE2F0021EB878559058
:201DD600DF0CE2F0021EB8785590DF0DE2F0021EB8785590DF0EE2F0021EB8785590DF0F26
:201DF600E2F0021EB8785590DF10E2F0021EB8785590DF11E2F0021EB8785590DF12E2F016
:201E1600021EB8785590DF13E2F0021EB8785590DF14E2F0021EB8785590DF15E2F0021E9E
:201E3600B8785590DF16E2F0021EB8785590DF17E2F0806E785590DF18E2F080657855905D
:201E5600DF19E2F0805C785590DF1AE2F08053785590DF1BE2F0804A785590DF1CE2F0802E
:201E760041785590DF1DE2F08038785590DF1EE2F0802F785590DF1FE2F08026785590DF3E
:201E960024E2F0801D785590DF25E2F08014785590DF2DE2F0800B785590DF2EE2F080024E
:201EB6007E118E8222E4022D22AFF0AE83E5827858F208EEF208EFF27858E2F58208E2F544
:201ED6008308E2F5F0122DEDFCBC0700506F7858E22401FA08E23400FB08E2FFEC2C2AFCDF
:201EF600E43BFE8F058C828E838DF07856E2122D227858E2F58208E2F58308E2F5F0122DD5
:201F1600ED25E0FE2AFAE43BFB0ABA00010B8A828B838FF07857E2122D227858E2F58208D1
:201F3600E2F58308E2F5F0122DEDFF0F7858E2F58208E2F58308E2F5F0EF022D2222AFF0CD
:201F5600AE83E582785BF208EEF208EFF2785BE22401FA08E23400FB08E2FC785EE4F208B6
:201F7600F2C002C003C004785BE2F58208E2F58308E2F5F0122DEDFC7D00785EC3E29C08EF
:201F9600E264808DF063F08095F0D004D003D002505C785EE225E0F51508E233F516E51582
:201FB6002AFDE5163BFE8C078D828E838FF0122DEDF517E5152AFDE5163BFE8C070DBD0094
:201FD600010E8D828E838FF07855122DEDF2851782C004C003C002121CE3D002D003D00461
:0F1FF600785EE22401F208E23400F2021F772243
:0D00F900786CE4F2786FF27870F27871F2B2
:2020050074FE55F14402F5F143F4F053FE0F747F55F84420F5F875FA3BE5FC75FC0B5388DD
:20202500F7D2AB53E8FB439A0875F94474FD44F1602F90F1FDE4F090F1FE75F000122D228E
:2020450090F1FF75F0007403122D22A374F2122D22A3E4122D2290F20275F0007480122D50
:2020650022748344F2602F90F283E4F090F28475F000122D2290F28575F0007489122D220E
:20208500A374F2122D22A3E4122D2290F28875F0007480022D2222C0E0C0F0C082C083C07E
:2020A50007C006C005C004C003C002C001C000C0D075D000AFF9786EE2FE24FC50030221E6
:2020C500D8EE2E2E9020CD730220E602210C02215EBF990280030221D8786E7401F20221E9
:2020E500D8BF99028019786AE2FD08E2FE786A74012DF2E43E08F2786E7403F20221D87813
:202105006E7401F20221D8EF247F5019786AE2FD08E2FE786A74012DF2E43E08F2786E745A
:2021250003F20221D8786FEFF2786F7971E2F378707971C3E2F5F0E395F050067870797150
:20214500E2F37871E2600B786E7402F275C6A80221D8786EE4F20221D87871E2606990F177
:20216500FDE0FE90F1FEE0FDEEC39DFE786FC3E2F5F0EE95F0504990F1FFE0FCA3E0FDA3DB
:20218500E0FE90F1FDE0FB53037F7A00EB2CFCEA3DFD8C828D838EF0EF122D2290F1FDE033
:2021A500FF0F90F1FDEFF0E0FF90F1FEE0FEEFC39EFF786FE2B50708786FE4F2786D04F2FF
:2021C5007871E2787114F27871E270077870E4F2786EF2D0D0D000D001D002D003D004D0DE
:2021E50005D006D007D083D082D0F0D0E032C0E0C0F0C082C083C007C006C005C004C00333
:20220500C000C0D075D00053E8FB786EE27021786CE2601790F283E0FF90F284E0FEEFC3DE
:202225009E7870F27870E2F5F9805575F90080507870E2604890F283E0FF90F284E0FEEF2D
:20224500B50602803390F285E0FDA3E0FEA3E0FF90F284E0FC53047F7B00EC2DFDEB3EFEB2
:202265008D828E838FF0122DEDF5F990F284E0FF0F90F284EFF0800875F900800375F900E0
:20228500D0D0D000D003D004D005D006D007D083D082D0F0D0E03290F1FDE0FF90F1FEE09D
:2022A500FEEFC39EF58222786DE27013786DE2700E90F0A7E0700875C9A875C95880ED78C3
:2022C5007274FDF20874F1F208E4F27C0074FD44F1602974FD44F1601790F1FDE0FB90F145
:2022E500FE75F000122DEDFAEBC39AFA7B0080047A007B00E4BA000104FB80027B01EB6033
:202305000302239A7872E22402FA08E23400FB08E2FF8A828B838FF0122DEDF521A3122D4B
:20232500EDF522A3122DEDF5237872E22401F52508E23400F52608E2F52785258285268309
:202345008527F0122DEDF5247872E22405FA08E23400FB08E2FF8A828B838FF0122DEDFAE7
:202365008AF0E52484E5F02521FAE43522FFAE238A828F838EF0122DEDFC85258285268313
:202385008527F0122DEDFF0F8525828526838527F0EF122D228C0774FD44F1602974FD44A5
:2023A500F1601790F1FDE0FE90F1FE75F000122DEDFDEEC39DFD7E0080047D007E00E4BD5E
:2023C500000104FE80027E01EE6004786DE4F28F82221222ACAE827F00C007C0061222ACB8
:2023E500AD82D006D0077C00ED2FFFEC3E8F82F583221223D7AE82AF838F048E057E007FFF
:2024050000C007C006C005C0041223D7AA82AB83D004D005D006D0078A008B01E4FAFBE80E
:202425002EFEE93FFFEA3DFDEB3C8E828F838DF022E5827878F278757483F20874F2F208B1
:20244500E4F2748344F27001227E837DF27C00748344F2604E748344F2601C90F283E0F597
:202465002190F28475F000122DEDFFE521C39FFF8F227523008005E4F522F5237879E52260
:20248500F274052EFAE43DFB8C078A828B838FF0122DEDFA7879E2B5020474018001E4F5D9
:2024A500228003752201E5226001227875E22402FA08E23400FB08E2FF8A828B838FF012B4
:2024C5002DEDFAA3122DEDFBA3122DEDFF7875E2F58208E2F58308E2F5F0122DEDF5227819
:2024E50075E22405FC08E23400FD08E2FE8C828D838EF0122DEDFC8CF0E52284E5F02AFA94
:20250500E43BFB8A828B838FF07878E2122D227875E2F58208E2F58308E2F5F0122DEDFF2E
:202525000F7875E2F58208E2F58308E2F5F0EF022D22AE82AF838F05787A7483F20874F291
:20254500F208E4F2748344F270030226587C837BF27A00748344F2605C748344F26022C048
:2025650006C00790F283E0FF90F28475F000122DEDFEEFC39EFF8F21752200D007D006804D
:2025850005E4F521F522C006C007787DE521F274052CFCE43BFE8A078C828E838FF0122D7A
:2025A500EDFC787DE2B5040474018001E4F521D007D0068003752101E5216003022658C039
:2025C50006C007787AE22402FA08E23400FB08E2FC8A828B838CF0122DEDF523A3122DED8D
:2025E500F524A3122DEDF525787AE2F58208E2F58308E2F5F0122DEDF521787AE22405FC1D
:2026050008E23400FE08E2FF8C828E838FF0122DEDFC8CF0E52184E5F02523FCE43524FF8F
:20262500AE258C828F838EF0ED122D22787AE2F58208E2F58308E2F5F0122DEDFF0F787A2E
:20264500E2F58208E2F58308E2F5F0EF122D22D007D0068E05787E7483F20874F2F208E430
:20266500F2748344F27001227A837EF27F00748344F2603E748344F2601790F283E0FC90D7
:20268500F28475F000122DEDFBECC39BFB7C0080047B007C0074052AFAE43EFE8A828E831D
:2026A5008FF0122DEDFAEBB5020474018001E4FF80027F01EF600122787EE22402FC08E299
:2026C5003400FE08E2FF8C828E838FF0122DEDF526A3122DEDF527A3122DEDF528787EE246
:2026E500F58208E2F58308E2F5F0122DEDF523787EE22405FA08E23400FB08E2FF8A828B55
:20270500838FF0122DEDFA8AF0E52384E5F02526FAE43527FFAE288A828F838EF0ED122D8F
:2027250022787EE2F58208E2F58308E2F5F0122DEDFF0F787EE2F58208E2F58308E2F5F038
:20274500EF022D22AF82AE83ADF0FC7881EFF208EEF208EDF208ECF278817988080808E2B6
:20276500F378857483F20874F2F208E4F2748344F270030228557A837BF27F00748344F208
:20278500603E748344F2601790F283E0FE90F28475F000122DEDFDEEC39DFD7E0080047DB1
:2027A500007E0074052AFAE43BFB8A828B838FF0122DEDFAEDB5020474018001E4FF80021D
:2027C5007F01EF60030228557885E22402FD08E23400FE08E2FF8D828E838FF0122DEDFDD4
:2027E500A3122DEDFEA3122DEDFF7885E2F58208E2F58308E2F5F0122DEDF5217885E2246D
:2028050005FA08E23400FB08E2FC8A828B838CF0122DEDFA8AF0E52184E5F0FA2DFDE43EDA
:20282500FE8D828E838FF07888E2122D227885E2F58208E2F58308E2F5F0122DEDFF0F787A
:2028450085E2F58208E2F58308E2F5F0EF122D227881798C0808E2F378897483F20874F2D9
:20286500F208E4F2748344F270030229617A837BF27F00748344F26051748344F26026C01D
:2028850002C003C00790F283E0FF90F28475F000122DEDFBEFC39BFF8F22752300D007D0F5
:2028A50003D0028005E4F522F523AE2274052AFAE43BFB8A828B838FF0122DEDFAEEB502BB
:2028C5000474018001E4F5228003752201E52260030229617889E22402FA08E23400FB08C9
:2028E500E2FF8A828B838FF0122DEDFAA3122DEDFBA3122DEDFF7889E2F58208E2F58308D7
:20290500E2F5F0122DEDF5227889E22405FC08E23400FD08E2FE8C828D838EF0122DEDFCD9
:202925008CF0E52284E5F0FC2AFAE43BFB8A828B838FF0788CE2122D227889E2F58208E258
:20294500F58308E2F5F0122DEDFF0F7889E2F58208E2F58308E2F5F0EF122D227881799014
:2029650008E2F3788D7483F20874F2F208E4F2748344F27003022A6C7A837BF27F00748331
:2029850044F26051748344F26026C002C003C00790F283E0FF90F28475F000122DEDFBEFE7
:2029A500C39BFF8F22752300D007D003D0028005E4F522F523AE2274052AFAE43BFB8A82C5
:2029C5008B838FF0122DEDFAEEB5020474018001E4F5228003752201E5226003022A6C7810
:2029E5008DE22402FA08E23400FB08E2FF8A828B838FF0122DEDFAA3122DEDFBA3122DEDE9
:202A0500FF788DE2F58208E2F58308E2F5F0122DEDF522788DE22405FC08E23400FD08E2CF
:202A2500FE8C828D838EF0122DEDFC8CF0E52284E5F0FC2AFAE43BFB8A828B838FF0789018
:202A4500E2122D22788DE2F58208E2F58308E2F5F0122DEDFF0F788DE2F58208E2F583089D
:202A6500E2F5F0EF122D2278817994E2F378917483F20874F2F208E4F2748344F27001226F
:202A85007A837BF27C00748344F26051748344F26026C002C003C00490F283E0FC90F2848A
:202AA50075F000122DEDFBECC39BFC8C22752300D004D003D0028005E4F522F523AF2274A3
:202AC500052AFAE43BFB8A828B838CF0122DEDFAEFB5020474018001E4F52280037522013C
:202AE500E5226001227891E22402FA08E23400FB08E2FC8A828B838CF0122DEDFAA3122D9F
:202B0500EDFBA3122DEDFC7891E2F58208E2F58308E2F5F0122DEDF5227891E22405FD080E
:202B2500E23400FE08E2FF8D828E838FF0122DEDFD8DF0E52284E5F02AFAE43BFB8A828B19
:202B4500838CF07894E2122D227891E2F58208E2F58308E2F5F0122DEDFF0F7891E2F582F3
:202B650008E2F58308E2F5F0EF022D22748344F26029748344F2601790F283E0FF90F2849B
:202B850075F000122DEDFEEFC39EFE7F0080047E007F00E4BE000104FF80027F01EF60015B
:202BA50022C2AF7895792AE3F20809E3F20809E3F20809E3F2D2AF786C7401F2748344F24D
:202BC5006029748344F2601790F283E0FF90F28475F000122DEDFEEFC39EFE7F0080047E7B
:202BE500007F00E4BE000104FF80027F01EF704F90F0A7E0704975C9A875C958C2AF782AAC
:202C05007995E3F5F0C3E295F0FC09E3F5F008E295F0FD09E3F5F008E295F0FE09E3F5F067
:202C250008E295F0FF7899C374889C74139DE49EE49FE433F2D2AF7899E27003022BC17836
:202C450070E2604C90F0A7E0704675C9A875C958C2AF782A7995E3F5F0C3E295F0FC09E33D
:202C6500F5F008E295F0FD09E3F5F008E295F0FE09E3F5F008E295F0FF789AC374889C74A0
:202C8500139DE49EE49FE433F2D2AF789AE260AF786CE4F222AD82AE83AFF08D828E838F63
:202CA500F0122DEDFC60188C82C007C006C005122436D005D006D0070DBD00DF0E80DC021C
:022CC5002B7171
:0600BA00E478FFF6D8FD1A
:202CC700AFF0AE83E582789EF208EEF208EFF2789CE2F52108E2F522789CE2F5F008E245C6
:202CE700F0602A789EE2FA08E2FB08E2FC789BE2FFAD21AE228A828B838CF0EF122D22A37B
:1B2D0700AA82AB831DBDFF011EED4E70E8789EE2F58208E2F58308E2F5F0220A
:20009800792EE94400601B7A01902E2278097593F3E493F2A308B800020593D9F4DAF275AE
:0200B80093FFB4
:1B2D220020F71130F6138883A88220F509F6A8837583002280FEF280F5F022B0
:202D3D00AE82E583FF33E433FD6009C3E49EFBE49FFC80048E038F0478A3E233E433FF6022
:202D5D001078A2E2D3F43400FA08E2F43400FE800778A2E2FA08E2FE78A4EAF208EEF28B75
:202D7D00828C83C007C005122DA2AC82AE83D005D007EF6D600AC3E49CF582E49EF5832291
:052D9D008C828E8322F0
:2000C00078A6E84400600A79007593F0E4F309D8FC7863E84402600C790390F0A6E4F0A3B9
:0400E000D8FCD9FA75
:202DA200AE82AF837C007D007B10EF235401FAEE2EFEEF33FFEC2CFCED33FDEA60034304CA
:202DC2000178A4C3E2F5F0EC95F008E2F5F0ED95F0401178A4D3E29CF4B3FCB308E29DF409
:0B2DE200FD430601DBC48E828F8322BC
:02008900E4731E
:0D008B00758128122E09E5826003020086AF
:1C2DED0020F71430F6148883A88220F507E6A88375830022E280F7E49322E022F5
:042E090075820022AC
:00000001FF
