:0600000002008B020270F9
:01000B0032C2
:0100130032BA
:03001B000220635D
:0100230032AA
:01002B0032A2
:01003300329A
:01003B003292
:01004300328A
:03004B00020BD2D3
:01005300327A
:01005B003272
:01006300326A
:01006B003262
:030073000221BAAD
:01007B003252
:03008300020493E1
:030106000200866E
:030086000201096B
:0301090002010CE4
:20010C0053BEFBE5BE30E6FB75C6A8E5C620E6FB43BE04120B8ED2AF121FCC120159D28098
:20012C00900064E4F5F0120C11C280D281900064E4F5F0120C11C28190F0B37401F075C92D
:0D014C000890F0B4E0700512168D80F522C9
:0400E4007803E4F2C7
:2001590090DF0074FFF090DF01E4F090DF0214F090DF03E4F090DF04F090DF05F090DF0778
:200179007406F090DF08E4F090DF0C7499F090DF0DF4F090DF0E03F090DF0F7461F090DFB7
:2001990010747EF090DF117415F090DF127407F090DF137430F090DF1403F090DF1514F05B
:2001B90090DF16746CF090DF1A74B6F090DF1B7411F090DF1C74E9F090DF1D742AF090DFCE
:2001D9001EE4F090DF1F741FF090DF247431F090DF257409F090DF2EE4F090DF177407F078
:2001F90090DF18E4F090DF197491F090DF097426F090DF0A7430F090DF0B7470F090DF063C
:200219007402F090DF2D74C0F0439A01D2A874D544F0602F90F0D5E4F090F0D675F0001245
:200239002D2490F0D775F00074B5122D24A374F0122D24A3E4122D2490F0DA75F000742065
:20025900022D2422E582FF24FD40087803EFF27582012275820022C0E0C0F0C082C083C01D
:2002790007C006C005C004C003C002C000C0D075D00075C6A890DF3BE0FFBF0D0280030236
:2002990003DFAFD97800E2600302037790DF3AE0FE90F0D5E0FD7C0090F0D6E0FB7A00EDD5
:2002B900C39BFDEC9AFCBD2016BC00137864E2FC08E2FD786474012CF2E43D08F28034C0E7
:2002D9000790F0D7E0FBA3E0FCA3E0FD90F0D5E0FA53021F7F00EA2BFBEF3CFC8B828C8358
:2002F9008DF0EE122D2490F0D5E0FF0F90F0D5EFF0D0077866E2FE90F0D5E0FD7C0090F0DD
:20031900D6E0FB7A00EDC39BFDEC9AFCBD2016BC00137864E2FC08E2FD786474012CF2E419
:200339003D08F28034C00790F0D7E0FBA3E0FCA3E0FD90F0D5E0FA53021F7F00EA2BFBEFA0
:200359003CFC8B828C838DF0EE122D2490F0D5E0FF0F90F0D5EFF0D00778007402F290F0B4
:20037900D5E0FE7D0090F0D6E0FC7B00EEC39CFEED9BFDBE2016BD00137864E2FD08E2FE50
:20039900786474012DF2E43E08F2803090F0D7E0FCA3E0FDA3E0FE90F0D5E0FB53031F7AB5
:2003B90000EB2CFCEA3DFD8C828D838EF0EF122D2490F0D5E0FF0F90F0D5EFF07800E278B6
:2003D9000004F202047A90DF3BE0FFBF1302800302047A7802E2FF24F9500302047AEF2FC5
:2003F9009003FD73800C801B8077804080318049806F90F1DCE0FEA3E0FF8FD97802740186
:20041900F2805E90F1DCE0FEA3E0FF8ED97801E2600778027404F280487802E4F2804290BF
:20043900DF00E0F5D978027403F2803590DF01E0F5D978027405F2802890F1DAE0FF04F0A5
:20045900EF24DBF582E434F0F583E0F5D990F1DAE0FF90F1DBE0FEC3EF9E400578027406F3
:20047900F2D0D0D000D002D003D004D005D006D007D083D082D0F0D0E032C0E0C007C00692
:20049900C000C0D075D000539BFCE5E930E70875E10453E97F8023E5E930E6167862E2FE6B
:2004B90008E2FF786274012EF2E43F08F253E9BF8008E5E930E50353E9DFD0D0D000D006E4
:2004D900D007D0E032E582780AF27804E2FD7E000DBD00010E783B740CF208E4F2087460DE
:2004F900F2783E7410F208E4F2087460F27803E2F582C006C005120E1F90F1E875F000129B
:200519001F1BD005D006780A90DF06E2F090F1DBE4F07809E2FCEC70030205F9C005C0069B
:20053900C006C005C004122273AB82D004D005D006780BEBF21C780CE2FA08E2FEC006C0B6
:2005590005C004C002C003120565800BC002C00690F01075F060221581D002D004D005D04D
:2005790006ECB401009200D006D005780EE2FA08E2FBC006C005C004C003A200E433C0E0CC
:20059900740BC0E074F0C0E07460C0E01205AA800BC002C00390F01075F06022AA82E581D1
:2005B90024FCF581D003D004D005D006EA700302052F90F1DBE0FB7A000BBB00010AC3EB77
:2005D90094FFEA6480948050A290F1DBE0FB04F0EB24DBF582E434F0F583780BE2F0808B2F
:2005F9007B007C00C3EB9DEC9E506BEB4C60387805E2F5F008E245F0602DC005C006780594
:20061900E2FA08E2FD7E007F008A828D838EF0EFC006C005C004C003120C11D003D004D0C0
:2006390005D006D006D00575C9A875C95878077913E2F308E209F3780AE2F582C006C00573
:20065900C004C003120670D003D004D005D0060BBB00910C808E22AF8290DF0EE0FE90DF92
:2006790002E0FD90DF04E0FC7868E22401F208E23400F290F1DCE0FAA3E0FB4A601E90DF5E
:200699000EE053E0FCF090DF04E054FC4402F090DF02E4F07801F27802F2801F7813E2F53E
:2006B900F008E245F0600778027402F2800578027405F290F1DBE090DF02F075E10490DFF9
:2006D9003BE0FBBB01F890DF06EFF090F1DAE4F075E10390DF3BE0FFBF13F87813E2F5F0B6
:2006F90008E245F06038C0047813E2FA08E2FB7C007F008A828B838CF0EFC006C005C0044B
:20071900120C11D004D005D00690F1DCE0FCA3E0FF4CD004700878027405F243880290F18C
:20073900DCE0FBA3E0FF4B600578017401F290DF3BE0FFBF130280F690DF3BE0FFBF1603A3
:2007590075E10490DF02EDF090DF0EEEF090DF04ECF022AF82781CE4F2781DF2F50A78155E
:20077900E2F5F008E242F008E242F008E245F06016C2AF781E792CE3F20809E3F20809E371
:20079900F20809E3F2D2AF90F1F975F000C007121F1B784174DEF20874F1F208E4F27844FF
:2007B90074E2F20874F1F208E4F27803E2F582120EFBD00775E10490DF3BE0FCBC01F890B0
:2007D900DF06EFF07800E4F278A87411F278A97420F208E4F290F0B575F000122CD075C6EF
:2007F900AB75E10290DF3BE0FFBF0DF87815E2F50B08E2F50C08E2F50D08E2F50E781BE4E6
:20081900F275C9A875C95874D544F0603274D544F0601A90F0D5E0FD90F0D675F000122D1F
:20083900EFFEEDC39EFD8D087509008005E4F508F509AE087822EEB40100E433F2800578F7
:20085900227401F27822E260030209E8782374D5F20874F0F208E4F27C0074D544F0602C8D
:2008790074D544F0601790F0D5E0FB90F0D675F000122DEFFAEBC39AFA7B0080047A007B22
:20089900007826EAB40100E433F2800578267401F27826E260030209437823E22402FA0899
:2008B900E23400FB08E2FF8A828B838FF0122DEFF50FA3122DEFF510A3122DEFF511782312
:2008D900E22401F51208E23400F51308E2F5148512828513838514F0122DEFF5087823E273
:2008F9002405FA08E23400FB08E2FF8A828B838FF0122DEFFA8AF0E50884E5F0250FFAE427
:200919003510FFAE118A828F838EF0122DEFFC8512828513838514F0122DEFFF0F851282E3
:200939008513838514F0EF122D24781CECF2781BE22401F2781BE2B401067582DD12240D63
:20095900781BE2B40300500A781CE2F58212240D806790F1DEE0FEA3E0FFC007C006781C01
:20097900E2C0E0120981800BC006C00790F1E275F0002285820A1581D006D00790F1E0E0A9
:20099900FEA3E0FFC007741CC0E074F0C0E07460C0E01209B0800BC006C00790F1E275F0A4
:2009B9000022AE82158115811581D007EE600A781CE2F58212240D80C3E50A707A7819E21C
:2009D900600D90DF02E0FF781BE2B507028068E50B450C450D450E6049C2AF782C791EE308
:2009F900F5F0C3E295F0FC09E3F5F008E295F0FD09E3F5F008E295F0FE09E3F5F008E29508
:200A1900F0FF7827C3E50B9CE50C9DE50D9EE50E9FE433F2D2AF7827E26007781D74AAF219
:200A39008015786FE2700302081A122273E5827847F2781D74BBF275E10490DF3BE0FFBF91
:200A590001F874D544F0602C74D544F0601790F0D5E0FF90F0D675F000122DEFFEEFC39E1C
:200A7900FE7F0080047E007F00781AEEB40100E433F28005781A7401F2781AE26003020BBF
:200A99006C782874D5F20874F0F208E4F274D544F0602C74D544F0601790F0D5E0FC90F00C
:200AB900D675F000122DEFFBECC39BFB7C0080047B007C00782BEBB40100E433F280057834
:200AD9002B7401F2782BE26003020A5B7828E22402FA08E23400FB08E2FC8A828B838CF0E5
:200AF900122DEFF512A3122DEFF513A3122DEFF5147828E22401FD08E23400FE08E2FF8DBF
:200B1900828E838FF0122DEFF50F7828E22405FA08E23400FB08E2FC8A828B838CF0122DFF
:200B3900EFFA8AF0E50F84E5F02512FAE43513FCAB148A828C838BF0122DEF8D828E838F61
:200B5900F0122DEFFC0C8D828E838FF0EC122D24020A5B781DE2700B7866E22401F208E24E
:150B79003400F2781DE2F58222AF83E58290F1DCF0EFA3F022A7
:0A00E800782CE4F208F208F208F2A6
:200B8E00782CE4F208F208F208F2F5E4F5E275E4017830E5E2F27831E5E3F27830E2FE0881
:200BAE00E2FFC3E49E74A09F50E775E40075DB0075DA5D75E544A2DEE43342D8D2B9D2AF67
:200BCE0075E40622C0E0C007C006C005C004C000C0D075D000782CE2FC08E2FD08E2FE08E2
:200BEE00E2FF782C74012CF2E43D08F2E43E08F2E43F08F2D0D0D000D004D005D006D007B5
:200C0E00D0E032AF82AE83ADF0FC7832EFF208EEF208EDF208ECF2C2AF7836792CE3F20808
:200C2E0009E3F20809E3F20809E3F2D2AFC2AF782C7936E3F5F0C3E295F0FA09E3F5F008F2
:200C4E00E295F0FB09E3F5F008E295F0FE09E3F5F008E295F0FF783A7932C3E39A09E39B83
:190C6E0009E39E09E39FE433F2D2AF783AE2700875C9A875C95880B522EF
:200C8700AD82AE83AFF00DBD00010E8D828E838FF0E4022D24C018858118AD82AE83AFF0AA
:200CA70074012DFAE43EFB8F048A828B838CF07401122D248D828E838FF0E51824FDF8E6D8
:200CC700122D24D01822C018E581F5182406F581C8E5182404C8A68208A68308A6F0E5180C
:200CE7002404F8740126FAE40836FB0886048A828B838CF0122DEFFFBF01005005758200BA
:200D0700804AE51824FBF8A91809E6F70809E6F70809E6F7E5182404F886820886830886A7
:200D2700F0122DEFFFA8180886820886830886F0EF122D248A828B838CF0122DEFFF1F8A72
:200D4700828B838CF0EF122D24758201851881D01822AD82AE83AFF00DBD00010E8D828E99
:200D6700838FF0E4022D24C018858118AD82AE83AFF0E51824FDF8E6122D240DBD00010E06
:200D87008D828E838FF07401122D24E51824FDF8E670057582018003758200D01822C01810
:200DA700858118C082C083C0F0058105810581A81808740126FAE40836FB0886048A828BA4
:200DC700838CF0122DEFFFBF010050057582008041E51824FBF8E5182404F9E6F70809E60D
:200DE700F70809E6F7A8180886820886830886F0122DEFFFE5182404F886820886830886B7
:200E0700F0EF122D248A828B838CF0E4122D24758201851881D01822AF82BF0002800CBF4F
:200E27000102804ABF0203020EB822783BE2FD08E2FE08E2FF8D828E838FF0749C122D24BB
:200E4700A3740C122D2474022DFDE43EFE8D828E838FF074CD122D24A3740C122D24783EC6
:200E6700E2F58208E2F58308E2F5F0020C87783BE2FD08E2FE08E2FF8D828E838FF074EFE7
:200E8700122D24A3740F122D2474022DFDE43EFE8D828E838FF0748D122D24A37410122D36
:200EA70024783EE2F58208E2F58308E2F5F0020FD7783BE2FD08E2FE08E2FF8D828E838FCD
:200EC700F0747B122D24A37412122D2474022DFDE43EFE8D828E838FF07420122D24A374D0
:200EE70013122D24783EE2F58208E2F58308E2F5F002125CAF82BF0002800CBF0102804ABB
:200F0700BF0203020F94227841E2FD08E2FE08E2FF8D828E838FF0746E122D24A3740D12BC
:200F27002D2474022DFDE43EFE8D828E838FF074A5122D24A3740D122D247844E2F58208DA
:200F4700E2F58308E2F5F0020D597841E2FD08E2FE08E2FF8D828E838FF0742D122D24A34A
:200F67007411122D2474022DFDE43EFE8D828E838FF074E2122D24A37411122D247844E241
:200F8700F58208E2F58308E2F5F00211147841E2FD08E2FE08E2FF8D828E838FF074791274
:200FA7002D24A37414122D2474022DFDE43EFE8D828E838FF074EC122D24A37415122D249A
:100FC7007844E2F58208E2F58308E2F5F00214308E
:200FD700AD82AE83AFF074022DFDE43EFE8D828E838FF07402022D24C018858118C082C0DB
:200FF70083C0F07E007D007A087C00EE2EFBED33FFEB2BFBEF33FF74022BFBE43FFFE5188B
:2010170024FDF8E6235401FE7D00EBC39EFBEF9DFF8B068F05E51824FDF88607E51824FD0F
:20103700F8EF2FF61ABAFF011CEA4C70BE8D04A8180886820886830886F0EC122D24A8183A
:2010570008740126FAE40836FB0886048E078A828B838CF0EF122D24A81808740226FDE46B
:201077000836FE0886078D828E838FF0E4122D24851881D01822C018E581F5182404F58191
:20109700AD82AE83AFF074022DFAE43EFB8F048A828B838CF0A81808122DEFF6A81808E6BD
:2010B70024FE5005758200804EE51824FBF8A9180909E6F70809E6F70809E6F7A81808E68F
:2010D7002DFDE43EFE8D828E838FF0122DEFFDA818080886820886830886F0ED122D248AA4
:2010F700828B838CF0122DEFFF0F8A828B838CF0EF122D24758201851881D01822AD82AEAC
:2011170083AFF0E4122D240DBD00010E8D828E838FF0E4022D24C01885811805810581ADF1
:2011370082AE83AFF07C007A067B00C005C006C0078C07EF2FFC8AF005F0E51824FDF8E665
:201157008002C313D5F0FBFFA8180874035FF6087600A81808B6000C08B60008D007D00652
:20117700D005801CD007D006D005A81808B6010608B60002800FA81808B6030A08B6000642
:2011970075820180400CEA24FEFAEB34FFFB30E79A8D828E838FF0122DEFC454F02CFB8D1B
:2011B700828E838FF0122D240DBD00010E8D828E838FF0122DEF2404FC8D828E838FF01228
:2011D7002D24758200851881D01822C018858118C082C083C0F0058105810581A81808748F
:2011F7000126FAE40836FB0886048A828B838CF0122DEFFFBF080050057582008041E51874
:2012170024FBF8E5182404F9E6F70809E6F70809E6F7A8180886820886830886F0122DEF3C
:20123700FFE5182404F886820886830886F0EF122D248A828B838CF0E4122D247582018538
:051257001881D01822EF
:20125C00AD82AE83AFF0E4122D24A3122D2474022DFDE43EFE8D828E838FF0E4022D24C0D0
:20127C0018858118C082C083C0F0E51824FDF8E6C4540F2416F582E434F3F583E0FCE4C30D
:20129C00CC13CC13A2E0CC13CC13CCFBE51824FDF8860253020F7F00EA2416F582EF34F33B
:2012BC00F583E07E004204EE4203A8180886820886830886F0122DEFFEA3122DEFEEC45461
:2012DC00F0FFE44204EF4203A8180886820886830886F0EC122D24A3EB122D24A8180874CA
:2012FC000226FDE40836FE0886078D828E838FF0122DEF240C8D828E838FF0122D2485185C
:20131C0081D01822C018858118C082C083C0F0058105810581A81808740226FAE40836FBEE
:20133C000886048A828B838CF0122DEFFDBD0800E433FF600DE51824FAF8E67005F582020F
:20135C00142AED7005F58202142AE51824FAF8E66057EF6054E51824FBF8E5182404F9E6AF
:20137C00F70809E6F70809E6F7A8180886820886830886F0122DEFFF8D067408C39EFE8EF6
:20139C00F005F0EF800225E0D5F0FBFEE5182404F886820886830886F0EE122D248A828B7C
:2013BC00838CF0E4122D248062E51824FBF8E5182404F9E6F70809E6F70809E6F7A8180836
:2013DC0086820886830886F0122DEFFEA3122DEFFFED24F8FD8DF005F08007C3EF13FFEEAD
:2013FC0013FED5F0F6E5182404F886820886830886F0EE122D248A828B838CF0122DEF2418
:20141C00F8FF8A828B838CF0122D24758201851881D01822AD82AE83AFF0E4122D24A312A5
:20143C002D2474022DFAE43EFB8F048A828B838CF0E4122D2474032DFAE43EFB8F048A82BB
:20145C008B838CF0E4122D24A3122D2474052DFDE43EFE8D828E838FF0E4022D24C01885A3
:20147C008118C082C083C0F005810581A8180886820886830886F0122DEFFBA3122DEF8B92
:20149C00047B00E51824FDF886027F00EA4203EF4204A8180886820886830886F0EB122DA7
:2014BC0024A3EC122D24A81808740226FDE40836FE0886078D828E838FF0122DEF2408FCEF
:2014DC008D828E838FF0122D248D828E838FF0122DEFFCBC060050030215E3A81808868246
:2014FC000886830886F0122DEFFBA3122DEFFC8D828E838FF0122DEF24FAFA8AF005F08077
:20151C0007C3EC13FCEB13FBD5F0F6743F5BFC8D828E838FF0122DEF24FA8D828E838FF0A2
:20153C00122D247B00EB2416F582E434F3F583E0FAB5040280060BBB100040E9BB10067532
:20155C0082010215E6C005C006C007A81808740326FAE40836FC0886078A828C838FF012DF
:20157C002DEFFDA3122DEFFEE5182404F8A605EEC454F0C6C4C666C654F0C66608F67E0041
:20159C00E5182404F8E6420308E642068A828C838FF0EB122D24A3EE122D24A81808740594
:2015BC0026FDE40836FE0886078D828E838FF0122DEF2404FC8D828E838FF0122D24D0076D
:2015DC00D006D0050214E5758200851881D01822C018E581F5182404F581AD82AE83AFF042
:2015FC0074052DFAE43EFB8F048A828B838CF0A81808122DEFF6A81808B60800500575822B
:20161C00008068E51824FBF8A9180909E6F70809E6F70809E6F774032DFDE43EFE8D828EC8
:20163C00838FF0122DEFFDA3122DEFFEA81808E624F8FF8FF005F08007C3EE13FEED13FD0F
:20165C00D5F0F6A818080886820886830886F0ED122D248A828B838CF0122DEF24F8FF8A93
:11167C00828B838CF0122D24758201851881D01822CE
:102E240015313223342526161A192A0B2C0D0E1CA3
:0700F2007847E4F27848F2C0
:20168D00122273121A8F7847E2600C7847E2F582121A8F7847E4F22212227312025DE582C5
:2016AD0060087582DD12240D800675821112240D022B6A122273AF82C007122263AE827D53
:2016CD000078AF7402F208E4F28E828D83122D3FAD82AE83D0077849EDF2BF01028005BF15
:2016ED00021280087CE87EF17F00800E7CF97EF17F0080067C007E007F00EC4E60158C8242
:20170D008E838FF0C007C006C004121E82D004D006D0077A007B00C004C006C0077849E2BF
:20172D00FE7F00C3EA9EEB64808FF063F08095F0D007D006D0045053C007C006C004C003F6
:20174D00C002122273784AE582F2122273AD82D002D003D004D006D007EC4E6027784A7900
:20176D0058E2F37859EDF28C828E838FF0C007C006C004C003C002121E86D002D003D004DC
:20178D00D006D0070ABA008F0B808C7582DD12240D022B6A122273AF82C0071223CEAB82A8
:2017AD00AC83ADF0FED0077815EBF208ECF208EDF208EEF278487919E2F38F8212076CE5BA
:2017CD0082FE60058E8212240D022B6A7582DD12240D902E0F75F080022CA37582DD122489
:2017ED000D902E1275F080022CA3122273AF82C007122273784BE582F21223AEAC82AD83A6
:20180D00C005C0041223AEAA82AB83C003C002122263AE82D002D003D004D005D007784BC1
:20182D007904E2F37805ECF208EDF27807EAF208EBF27809EEF28F821204DE7582DD122457
:20184D000D022B6A122273784CE582F2122273AF82C0071223AE784DE582F208E583F212FF
:20186D002273784FE582F21223CEAA82AC83ADF0FEC006C005C004C002122273AB82D002F6
:20188D00C003C0021223AE7850E582F208E583F21222637852E582F2D002D003D004D00548
:2018AD00D006D0077804EFF2784D7905E2F308E209F378507907E2F308E209F378527909C4
:2018CD00E2F3784CE2F582C006C005C004C003C0021204DED002D003D004D005D006781590
:2018ED00EAF208ECF208EDF208EEF278487919E2F3784FE2F582C006C005C004C003C0022F
:20190D0012076CAF82D002D003D004D005D006BFAA5DEB605A78507913E2F308E209F378EE
:20192D004CE2F582C006C005C004C003C002120670D002D003D004D005D0067815EAF20804
:20194D00ECF208EDF208EEF278487919E2F3784FE2F582C006C005C004C003C00212076C2D
:20196D00AF82D002D003D004D005D0061B80A0EF60058F8212240D022B6A122273121B1C9B
:20198D00AF827582DDC00712240DD0078F8212240D022B6A122273AF82C007122273AE82F3
:2019AD00D0077857EEF28F82C007121CAAAE82D007BF020578487401F28E8212240D022B70
:2019CD006AC2AF75C909221222731222737582DD12240D022B6A1223AE120B827582DD1252
:2019ED00240D022B6A12015975820012025D900000120B827582DD12240D022B6A7582DD8D
:201A0D0012240DC2AF7853792CE3F20809E3F20809E3F20809E3F2D2AF7853E2F58208E27F
:201A2D00F58308E2F5F008E212272F7862E2F58208E2F5831225127864E2F58208E2F5838B
:201A4D001225127866E2F58208E2F5831225127868E2F58208E2F583122512786AE2F5822F
:201A6D0008E2F583122512786CE2F58208E2F5831225129000001225129000001225120212
:201A8D002B6AE582FF602CBF0F005027EF75F002A42426F58274F335F0F583E0FEA3E0FF4E
:201AAD00C007C0068E828F83120089D006D00775C6AC22122263E582600512227380F47526
:081ACD00822212240D022B6A93
:152E0F004F4B00737562675F726673707920322E322E31390086
:1E2E34000000D917E817A117F7175118A119CE19D4198719C016A516E319F2190A1A78
:201AD500AF82D2A17E048E051EED70FAC2AFC2A17E018E051EED70FA7E01EE601DEE5FB47D
:201AF5000100B39201E43324FF92A18E05ED2DFE7D008D041DEC60E280F8D2A1D2AF7F022C
:201B15008F061FEE70FA22122273E582FF24D15003021CA5EF240A83F582EF243383F58312
:201B3500E473959DA5ADB5BDC5CDD5DDE5EDF5FD050D151D252D353C434A51585F666D7458
:201B55007B82A5A5A5A58990A5A5A5A5A5A5A5979E1B1B1B1B1B1B1B1B1B1B1B1B1B1B1C78
:201B75001C1C1C1C1C1C1C1C1C1C1C1C1C1C1C1C1C1C1C1C1C1C1C1C1C1C1C1C1C1C1C1CD0
:201B950090DF00E0FF021CA790DF01E0FF021CA790DF02E0FF021CA790DF03E0FF021CA7DE
:201BB50090DF04E0FF021CA790DF05E0FF021CA790DF06E0FF021CA790DF07E0FF021CA7AE
:201BD50090DF08E0FF021CA790DF09E0FF021CA790DF0AE0FF021CA790DF0BE0FF021CA77E
:201BF50090DF0CE0FF021CA790DF0DE0FF021CA790DF0EE0FF021CA790DF0FE0FF021CA74E
:201C150090DF10E0FF021CA790DF11E0FF021CA790DF12E0FF021CA790DF13E0FF021CA71D
:201C350090DF14E0FF806B90DF15E0FF806490DF16E0FF805D90DF17E0FF805690DF18E018
:201C5500FF804F90DF19E0FF804890DF1AE0FF804190DF1BE0FF803A90DF1CE0FF80339079
:201C7500DF1DE0FF802C90DF1EE0FF802590DF1FE0FF801E90DF24E0FF801790DF25E0FF30
:201C9500801090DF2DE0FF800990DF2EE0FF80027F5A8F8222AF827EDDEF24D15003021EAE
:201CB5007DEF240A83F582EF243383F583E473222C36404A545E68727C86909AA4AEB8C251
:201CD500CCD6E0EAF4FE08111A232C353E47507D7D7D7D59627D7D7D7D7D7D7D6B741D1DD2
:201CF5001D1D1D1D1D1D1D1D1D1D1D1D1D1D1D1D1D1D1D1D1D1E1E1E1E1E1E1E1E1E1E1E24
:201D15001E1E1E1E1E1E1E1E1E1E1E1E1E785790DF00E2F0021E7F785790DF01E2F0021E48
:201D35007F785790DF02E2F0021E7F785790DF03E2F0021E7F785790DF04E2F0021E7F7881
:201D55005790DF05E2F0021E7F785790DF06E2F0021E7F785790DF07E2F0021E7F78579068
:201D7500DF08E2F0021E7F785790DF09E2F0021E7F785790DF0AE2F0021E7F785790DF0B3C
:201D9500E2F0021E7F785790DF0CE2F0021E7F785790DF0DE2F0021E7F785790DF0EE2F028
:201DB500021E7F785790DF0FE2F0021E7F785790DF10E2F0021E7F785790DF11E2F0021EB1
:201DD5007F785790DF12E2F0021E7F785790DF13E2F0021E7F785790DF14E2F0021E7F78B1
:201DF5005790DF15E2F0021E7F785790DF16E2F0021E7F785790DF17E2F0806E785790DF6A
:201E150018E2F08065785790DF19E2F0805C785790DF1AE2F08053785790DF1BE2F0804AE7
:201E3500785790DF1CE2F08041785790DF1DE2F08038785790DF1EE2F0802F785790DF1F81
:201E5500E2F08026785790DF24E2F0801D785790DF25E2F08014785790DF2DE2F0800B781B
:201E75005790DF2EE2F080027E118E8222E4022D24AFF0AE83E582785AF208EEF208EFF241
:201E9500785AE2F58208E2F58308E2F5F0122DEFFCBC0700506F785AE22401FA08E2340034
:201EB500FB08E2FFEC2C2AFCE43BFE8F058C828E838DF07858E2122D24785AE2F58208E274
:201ED500F58308E2F5F0122DEF25E0FE2AFAE43BFB0ABA00010B8A828B838FF07859E21209
:201EF5002D24785AE2F58208E2F58308E2F5F0122DEFFF0F785AE2F58208E2F58308E2F578
:201F1500F0EF022D2422AFF0AE83E582785DF208EEF208EFF2785DE22401FA08E23400FB9A
:201F350008E2FC7860E4F208F2C002C003C004785DE2F58208E2F58308E2F5F0122DEFFC2C
:201F55007D007860C3E29C08E264808DF063F08095F0D004D003D002505C7860E225E0F55A
:201F75001508E233F516E5152AFDE5163BFE8C078D828E838FF0122DEFF517E5152AFDE548
:201F9500163BFE8C070DBD00010E8D828E838FF07857122DEFF2851782C004C003C002126A
:171FB5001CAAD002D003D0047860E22401F208E23400F2021F3E2274
:0D00F900786EE4F27871F27872F27873F2AA
:201FCC0074FE55F14402F5F143F4F053FE0F747F55F84420F5F875FA3BE5FC75FC0B538817
:201FEC00F7D2AB53E8FB439A0875F944740A44F2602F90F20AE4F090F20B75F000122D249C
:20200C0090F20C75F0007410122D24A374F2122D24A3E4122D2490F20F75F0007480122D5B
:20202C0024749044F2602F90F290E4F090F29175F000122D2490F29275F0007496122D2400
:20204C00A374F2122D24A3E4122D2490F29575F0007480022D2422C0E0C0F0C082C083C0A4
:20206C0007C006C005C004C003C002C001C000C0D075D000AFF97870E2FE24FC500302211D
:20208C009FEE2E2E902094730220AD0220D3022125BF9902800302219F78707401F2022177
:2020AC009FBF99028019786CE2FD08E2FE786C74012DF2E43E08F278707403F202219F78B8
:2020CC00707401F202219FEF247F5019786CE2FD08E2FE786C74012DF2E43E08F2787074C5
:2020EC0003F202219F7871EFF278717973E2F378727973C3E2F5F0E395F0500678727973B5
:20210C00E2F37873E2600B78707402F275C6A802219F7870E4F202219F7873E2606990F219
:20212C000AE0FE90F20BE0FDEEC39DFE7871C3E2F5F0EE95F0504990F20CE0FCA3E0FDA3E9
:20214C00E0FE90F20AE0FB53037F7A00EB2CFCEA3DFD8C828D838EF0EF122D2490F20AE04E
:20216C00FF0F90F20AEFF0E0FF90F20BE0FEEFC39EFF7871E2B507087871E4F2786F04F216
:20218C007873E2787314F27873E270077872E4F27870F2D0D0D000D001D002D003D004D00D
:2021AC0005D006D007D083D082D0F0D0E032C0E0C0F0C082C083C007C006C005C004C0036C
:2021CC00C000C0D075D00053E8FB7870E27021786EE2601790F290E0FF90F291E0FEEFC3FA
:2021EC009E7872F27872E2F5F9805575F90080507872E2604890F290E0FF90F291E0FEEF47
:20220C00B50602803390F292E0FDA3E0FEA3E0FF90F291E0FC53047F7B00EC2DFDEB3EFED1
:20222C008D828E838FF0122DEFF5F990F291E0FF0F90F291EFF0800875F900800375F900FD
:20224C00D0D0D000D003D004D005D006D007D083D082D0F0D0E03290F20AE0FF90F20BE0BA
:20226C00FEEFC39EF58222786FE27013786FE2700E90F0B4E0700875C9A875C95880ED78EB
:20228C0075740AF20874F2F208E4F27C00740A44F2602C740A44F2601790F20AE0FB90F23F
:2022AC000B75F000122DEFFAEBC39AFA7B0080047A007B007878EAB40100E433F2800578AF
:2022CC00787401F27878E260030223697875E22402FA08E23400FB08E2FF8A828B838FF0C6
:2022EC00122DEFF521A3122DEFF522A3122DEFF5237875E22401F52508E23400F52608E28C
:20230C00F5278525828526838527F0122DEFF5247875E22405FA08E23400FB08E2FF8A8258
:20232C008B838FF0122DEFFA8AF0E52484E5F02521FAE43522FFAE238A828F838EF0122DDA
:20234C00EFFC8525828526838527F0122DEFFF0F8525828526838527F0EF122D248C077405
:20236C000A44F2602C740A44F2601790F20AE0FE90F20B75F000122DEFFDEEC39DFD7E000A
:20238C0080047D007E007874EDB40100E433F2800578747401F27874E26004786FE4F28FC5
:2023AC008222122273AE827F00C007C006122273AD82D006D0077C00ED2FFFEC3E8F82F540
:2023CC0083221223AEAE82AF838F048E057E007F00C007C006C005C0041223AEAA82AB8391
:2023EC00D004D005D006D0078A008B01E4FAFBE82EFEE93FFFEA3DFDEB3C8E828F838DF067
:20240C0022E582787CF278797490F20874F2F208E4F2749044F27001227E907DF27C0074E2
:20242C009044F2604F749044F2601C90F290E0F52190F29175F000122DEFFFE521C39FFF51
:20244C008F227523008005E4F522F523787EE522F274052EFAE43DFB8C078A828B838FF0B7
:20246C00122DEFFA787E797DE2B5020474018001E4F38005787D7401F2787DE2600122781F
:20248C0079E22402FA08E23400FB08E2FF8A828B838FF0122DEFFAA3122DEFFBA3122DEF55
:2024AC00FF7879E2F58208E2F58308E2F5F0122DEFF5227879E22405FC08E23400FD08E254
:2024CC00FE8C828D838EF0122DEFFC8CF0E52284E5F02AFAE43BFB8A828B838FF0787CE2A3
:2024EC00122D247879E2F58208E2F58308E2F5F0122DEFFF0F7879E2F58208E2F58308E220
:20250C00F5F0EF022D24AE82AF838F05787F7490F20874F2F208E4F2749044F27003022692
:20252C00377C907BF27A00749044F2605D749044F26022C006C00790F290E0FF90F29175AC
:20254C00F000122DEFFEEFC39EFF8F21752200D007D0068005E4F521F522C006C0077883F2
:20256C00E521F274052CFCE43BFE8A078C828E838FF0122DEFFC78837982E2B50404740136
:20258C008001E4F3D007D006800578827401F27882E26003022637C006C007787FE224021A
:2025AC00FA08E23400FB08E2FC8A828B838CF0122DEFF523A3122DEFF524A3122DEFF52565
:2025CC00787FE2F58208E2F58308E2F5F0122DEFF521787FE22405FC08E23400FE08E2FF27
:2025EC008C828E838FF0122DEFFC8CF0E52184E5F02523FCE43524FFAE258C828F838EF03B
:20260C00ED122D24787FE2F58208E2F58308E2F5F0122DEFFF0F787FE2F58208E2F58308E7
:20262C00E2F5F0EF122D24D007D0068E0578847490F20874F2F208E4F2749044F270012238
:20264C007A907EF27F00749044F26040749044F2601790F290E0FC90F29175F000122DEF56
:20266C00FBECC39BFB7C0080047B007C0074052AFAE43EFE8A828E838FF0122DEFFA788797
:20268C00EBB5020474018001E4F2800578877401F27887E26001227884E22402FC08E2344F
:2026AC0000FE08E2FF8C828E838FF0122DEFF526A3122DEFF527A3122DEFF5287884E2F592
:2026CC008208E2F58308E2F5F0122DEFF5237884E22405FA08E23400FB08E2FF8A828B83D8
:2026EC008FF0122DEFFA8AF0E52384E5F02526FAE43527FFAE288A828F838EF0ED122D2406
:20270C007884E2F58208E2F58308E2F5F0122DEFFF0F7884E2F58208E2F58308E2F5F0EF76
:20272C00022D24AF82AE83ADF0FC7888EFF208EEF208EDF208ECF27888798F080808E2F3B4
:20274C00788C7490F20874F2F208E4F2749044F270030228427A907BF27F00749044F2608C
:20276C0040749044F2601790F290E0FE90F29175F000122DEFFDEEC39DFD7E0080047D00FF
:20278C007E0074052AFAE43BFB8A828B838FF0122DEFFA7890EDB5020474018001E4F2803B
:2027AC000578907401F27890E26003022842788CE22402FD08E23400FE08E2FF8D828E83B2
:2027CC008FF0122DEFFDA3122DEFFEA3122DEFFF788CE2F58208E2F58308E2F5F0122DEFE8
:2027EC00F521788CE22405FA08E23400FB08E2FC8A828B838CF0122DEFFA8AF0E52184E508
:20280C00F0FA2DFDE43EFE8D828E838FF0788FE2122D24788CE2F58208E2F58308E2F5F0FF
:20282C00122DEFFF0F788CE2F58208E2F58308E2F5F0EF122D24788879940808E2F3789175
:20284C007490F20874F2F208E4F2749044F270030229527A907BF27F00749044F2605274B8
:20286C009044F26026C002C003C00790F290E0FF90F29175F000122DEFFBEFC39BFF8F2225
:20288C00752300D007D003D0028005E4F522F523AE2274052AFAE43BFB8A828B838FF0124E
:2028AC002DEFFA7895EEB5020474018001E4F2800578957401F27895E260030229527891A3
:2028CC00E22402FA08E23400FB08E2FF8A828B838FF0122DEFFAA3122DEFFBA3122DEFFF8B
:2028EC007891E2F58208E2F58308E2F5F0122DEFF5227891E22405FC08E23400FD08E2FEE1
:20290C008C828D838EF0122DEFFC8CF0E52284E5F0FC2AFAE43BFB8A828B838FF07894E248
:20292C00122D247891E2F58208E2F58308E2F5F0122DEFFF0F7891E2F58208E2F58308E2AB
:20294C00F5F0EF122D247888799908E2F378967490F20874F2F208E4F2749044F270030254
:20296C002A617A907BF27F00749044F26052749044F26026C002C003C00790F290E0FF9051
:20298C00F29175F000122DEFFBEFC39BFF8F22752300D007D003D0028005E4F522F523AEC3
:2029AC002274052AFAE43BFB8A828B838FF0122DEFFA789AEEB5020474018001E4F2800565
:2029CC00789A7401F2789AE26003022A617896E22402FA08E23400FB08E2FF8A828B838FD3
:2029EC00F0122DEFFAA3122DEFFBA3122DEFFF7896E2F58208E2F58308E2F5F0122DEFF55C
:202A0C00227896E22405FC08E23400FD08E2FE8C828D838EF0122DEFFC8CF0E52284E5F0CE
:202A2C00FC2AFAE43BFB8A828B838FF07899E2122D247896E2F58208E2F58308E2F5F012B7
:202A4C002DEFFF0F7896E2F58208E2F58308E2F5F0EF122D247888799EE2F3789B7490F261
:202A6C000874F2F208E4F2749044F27001227A907BF27C00749044F26052749044F26026A0
:202A8C00C002C003C00490F290E0FC90F29175F000122DEFFBECC39BFC8C22752300D004F2
:202AAC00D003D0028005E4F522F523AF2274052AFAE43BFB8A828B838CF0122DEFFA789F70
:202ACC00EFB5020474018001E4F28005789F7401F2789FE2600122789BE22402FA08E234C2
:202AEC0000FB08E2FC8A828B838CF0122DEFFAA3122DEFFBA3122DEFFC789BE2F58208E23C
:202B0C00F58308E2F5F0122DEFF522789BE22405FD08E23400FE08E2FF8D828E838FF0124C
:202B2C002DEFFD8DF0E52284E5F02AFAE43BFB8A828B838CF0789EE2122D24789BE2F582F8
:202B4C0008E2F58308E2F5F0122DEFFF0F789BE2F58208E2F58308E2F5F0EF022D24749019
:202B6C0044F2602C749044F2601790F290E0FF90F29175F000122DEFFEEFC39EFE7F0080F4
:202B8C00047E007F0078A1EEB40100E433F2800578A17401F278A1E2600122C2AF78A279DC
:202BAC002CE3F20809E3F20809E3F20809E3F2D2AF786E7401F2749044F2602C749044F288
:202BCC00601790F290E0FF90F29175F000122DEFFEEFC39EFE7F0080047E007F0078A0EE89
:202BEC00B40100E433F2800578A07401F278A0E2704F90F0B4E0704975C9A875C958C2AF94
:202C0C00782C79A2E3F5F0C3E295F0FC09E3F5F008E295F0FD09E3F5F008E295F0FE09E394
:202C2C00F5F008E295F0FF78A6C374889C74139DE49EE49FE433F2D2AF78A6E27003022B69
:202C4C00C27872E2604C90F0B4E0704675C9A875C958C2AF782C79A2E3F5F0C3E295F0FCCA
:202C6C0009E3F5F008E295F0FD09E3F5F008E295F0FE09E3F5F008E295F0FF78A7C37488B0
:202C8C009C74139DE49EE49FE433F2D2AF78A7E260AF786EE4F222AD82AE83AFF08D828E4F
:202CAC00838FF0122DEFFC60188C82C007C006C00512240DD005D006D0070DBD00DF0E8008
:042CCC00DC022B6A91
:0600BA00E478FFF6D8FD1A
:202CD000AFF0AE83E58278ABF208EEF208EFF278ABE2FA08E2FB08E2FC78A9E2F52108E2FA
:202CF000F522AE21AF22152174FFB521021522EE4F60138A828B838CF078A8E2122D24A307
:142D1000AA82AB8380DC78ABE2F58208E2F58308E2F5F0222A
:20009800792EE94400601B7A01902E2478167593F3E493F2A308B800020593D9F4DAF2759F
:0200B80093FFB4
:1B2D240020F71130F6138883A88220F509F6A8837583002280FEF280F5F022AE
:202D3F00AE82E583FF33E433FD6009C3E49EFBE49FFC80048E038F0478B0E233E433FF6013
:202D5F001078AFE2D3F43400FA08E2F43400FE800778AFE2FA08E2FE78B1EAF208EEF28B4C
:202D7F00828C83C007C005122DA4AC82AE83D005D007EF6D600AC3E49CF582E49EF583228D
:052D9F008C828E8322EE
:2000C00078B3E84400600A79007593F0E4F309D8FC7863E84402600C790390F0B3E4F0A39F
:0400E000D8FCD9FA75
:202DA400AE82AF837C007D007B10EF235401FAEE2EFEEF33FFEC2CFCED33FDEA60034304C8
:202DC4000178B1C3E2F5F0EC95F008E2F5F0ED95F0401178B1D3E29CF4B3FCB308E29DF4ED
:0B2DE400FD430601DBC48E828F8322BA
:02008900E4731E
:0D008B00758128122E0BE5826003020086AD
:1C2DEF0020F71430F6148883A88220F507E6A88375830022E280F7E49322E022F3
:042E0B0075820022AA
:00000001FF
