:0600000002008B0202DE8B
:01000B0032C2
:0100130032BA
:03001B000220D3ED
:0100230032AA
:01002B0032A2
:01003300329A
:01003B003292
:01004300328A
:03004B00020C3470
:01005300327A
:01005B003272
:01006300326A
:01006B003262
:0300730002222A3C
:03007B0002010F70
:0300830002050172
:030109000200866B
:0300860002010C68
:03010C000201806D
:20010F00758A0053E8F753BEFC3278007432F208E4F2A2EBE433F4FF52E8758A00439A10B5
:20012F00438D04D29253FEFBE5BE54FC4401F5BE000000E5BE54036004438701007800E2BE
:20014F00FE08E2FF7800EE24FFF2EF34FF08F2EE4F70EAE5BE30E6FB43BE04A2EBE433F42A
:20016F0052E8758A00539AEF538DFBC29243FE042253BEFBE5BE30E6FB75C6A8E5C620E671
:20018F00FB43BE0443FF02D2A1C2A1D2A190DF30E043E080F0438C02120BF0D2AF12203CE4
:1801AF001201C790F0B67401F090F0B7E070081201191216E880F22264
:0400E4007805E4F2C5
:2001C70090DF0074FFF090DF01E4F090DF0214F090DF03E4F090DF04F090DF05F090DF070A
:2001E7007406F090DF08E4F090DF0C7499F090DF0DF4F090DF0E03F090DF0F7461F090DF49
:2002070010747EF090DF117415F090DF127407F090DF137430F090DF1403F090DF1514F0EC
:2002270090DF16746CF090DF1A74B6F090DF1B7411F090DF1C74E9F090DF1D742AF090DF5F
:200247001EE4F090DF1F741FF090DF247431F090DF257409F090DF2EE4F090DF177407F009
:2002670090DF18E4F090DF197491F090DF097426F090DF0A7430F090DF0B7470F090DF06CD
:200287007402F090DF2D74C0F0439A01D2A874D844F0602F90F0D8E4F090F0D975F00012CE
:2002A7002D8090F0DA75F00074B8122D80A374F0122D80A3E4122D8090F0DD75F00074207E
:2002C700022D8022E582FF24FD40087805EFF27582012275820022C0E0C0F0C082C083C051
:2002E70007C006C005C004C003C002C000C0D075D00075C6A890DF3BE0FFBF0D02800302C8
:20030700044DAFD97802E260030203E590DF3AE0FE90F0D8E0FD7C0090F0D9E0FB7A00ED81
:20032700C39BFDEC9AFCBD2016BC00137867E2FC08E2FD786774012CF2E43D08F28034C072
:200347000790F0DAE0FBA3E0FCA3E0FD90F0D8E0FA53021F7F00EA2BFBEF3CFC8B828C83E3
:200367008DF0EE122D8090F0D8E0FF0F90F0D8EFF0D0077869E2FE90F0D8E0FD7C0090F006
:20038700D9E0FB7A00EDC39BFDEC9AFCBD2016BC00137867E2FC08E2FD786774012CF2E4A2
:2003A7003D08F28034C00790F0DAE0FBA3E0FCA3E0FD90F0D8E0FA53021F7F00EA2BFBEF2C
:2003C7003CFC8B828C838DF0EE122D8090F0D8E0FF0F90F0D8EFF0D00778027402F290F0E2
:2003E700D8E0FE7D0090F0D9E0FC7B00EEC39CFEED9BFDBE2016BD00137867E2FD08E2FED9
:20040700786774012DF2E43E08F2803090F0DAE0FCA3E0FDA3E0FE90F0D8E0FB53031F7A3D
:2004270000EB2CFCEA3DFD8C828D838EF0EF122D8090F0D8E0FF0F90F0D8EFF07802E278E3
:200447000204F20204E890DF3BE0FFBF130280030204E87804E2FF24F950030204E8EF2F08
:2004670090046B73800C801B8077804080318049806F90F1DFE0FEA3E0FF8FD978047401A3
:20048700F2805E90F1DFE0FEA3E0FF8ED97803E2600778047404F280487804E4F280429048
:2004A700DF00E0F5D978047403F2803590DF01E0F5D978047405F2802890F1DDE0FF04F030
:2004C700EF24DEF582E434F0F583E0F5D990F1DDE0FF90F1DEE0FEC3EF9E4005780474067A
:2004E700F2D0D0D000D002D003D004D005D006D007D083D082D0F0D0E032C0E0C007C00624
:20050700C000C0D075D000539BFCE5E930E70875E10453E97F8023E5E930E6167865E2FEF9
:2005270008E2FF786574012EF2E43F08F253E9BF8008E5E930E50353E9DFD0D0D000D00672
:20054700D007D0E032E582780CF27806E2FD7E000DBD00010E783D740EF208E4F208746067
:20056700F278407412F208E4F2087460F27805E2F582C006C005120E7290F1EB75F00012D0
:200587001F8BD005D006780C90DF06E2F090F1DEE4F0780BE2FCEC7003020667C005C00647
:2005A700C006C005C0041222E3AB82D004D005D006780DEBF21C780EE2FA08E2FEC006C0D4
:2005C70005C004C002C0031205D3800BC002C00690F01275F060221581D002D004D005D06F
:2005E70006ECB401009200D006D0057810E2FA08E2FBC006C005C004C003A200E433C0E05C
:20060700740DC0E074F0C0E07460C0E0120618800BC002C00390F01275F06022AA82E581EF
:2006270024FCF581D003D004D005D006EA700302059D90F1DEE0FB7A000BBB00010AC3EB97
:2006470094FFEA6480948050A290F1DEE0FB04F0EB24DEF582E434F0F583780DE2F0808BB8
:200667007B007C00C3EB9DEC9E5065EB4C60387807E2F5F008E245F0602DC005C006780727
:20068700E2FA08E2FD7E007F008A828D838EF0EFC006C005C004C003120C73D003D004D0F0
:2006A70005D006D006D00578097915E2F308E209F3780CE2F582C006C005C004C0031206DC
:2006C700D8D003D004D005D0060BBB00970C809422AF8290DF0EE0FE90DF02E0FD90DF04FD
:2006E700E0FC786BE22401F208E23400F290F1DFE0FAA3E0FB4A601E90DF0EE053E0FCF02F
:2007070090DF04E054FC4402F090DF02E4F07803F27804F2801F7815E2F5F008E245F06067
:200727000778047402F2800578047405F290F1DEE090DF02F075E10490DF3BE0FBBB01F828
:2007470090DF06EFF090F1DDE4F075E10390DF3BE0FFBF13F87815E2F5F008E245F0603855
:20076700C0047815E2FA08E2FB7C007F008A828B838CF0EFC006C005C004120C73D004D05C
:2007870005D00690F1DFE0FCA3E0FF4CD004700878047405F243880290F1DFE0FBA3E0FFB0
:2007A7004B600578037401F290DF3BE0FFBF130280F690DF3BE0FFBF160375E10490DF02A1
:2007C700EDF090DF0EEEF090DF04ECF022AF82781EE4F2781FF2F50A7817E2F5F008E242C2
:2007E700F008E242F008E245F06016C2AF7820792EE3F20809E3F20809E3F20809E3F2D248
:20080700AF90F1FC75F000C007121F8B784374E1F20874F1F208E4F2784674E5F20874F108
:20082700F208E4F27805E2F582120F4ED00775E10490DF3BE0FCBC01F890DF06EFF0780262
:20084700E4F278AB7411F278AC7420F208E4F290F0B875F000122D2C75C6AB75E10290DFE4
:200867003BE0FFBF0DF87817E2F50B08E2F50C08E2F50D08E2F50E781DE4F274D844F06013
:200887003274D844F0601A90F0D8E0FD90F0D975F000122E4BFEEDC39EFD8D0875090080CB
:2008A70005E4F508F509AE087824EEB40100E433F2800578247401F27824E26003020A4A90
:2008C700782574D8F20874F0F208E4F27C0074D844F0602C74D844F0601790F0D8E0FB90B8
:2008E700F0D975F000122E4BFAEBC39AFA7B0080047A007B007828EAB40100E433F280053B
:2009070078287401F27828E260030209A57825E22402FA08E23400FB08E2FF8A828B838FEA
:20092700F0122E4BF50FA3122E4BF510A3122E4BF5117825E22401F51208E23400F51308F1
:20094700E2F5148512828513838514F0122E4BF5087825E22405FA08E23400FB08E2FF8A32
:20096700828B838FF0122E4BFA8AF0E50884E5F0250FFAE43510FFAE118A828F838EF01259
:200987002E4BFC8512828513838514F0122E4BFF0F8512828513838514F0EF122D80781E84
:2009A700ECF2781DE22401F2781DE2B401067582DD122475781DE2B40300500A781EE2F51E
:2009C70082122475806790F1E1E0FEA3E0FFC007C006781EE2C0E01209E3800BC006C0077F
:2009E70090F1E575F0002285820A1581D006D00790F1E3E0FEA3E0FFC007741EC0E074F08E
:200A0700C0E07460C0E0120A12800BC006C00790F1E575F00022AE82158115811581D007BF
:200A2700EE600A781EE2F58212247580C3E50A707A781BE2600D90DF02E0FF781DE2B5073C
:200A4700028068E50B450C450D450E6049C2AF782E7920E3F5F0C3E295F0FC09E3F5F0089F
:200A6700E295F0FD09E3F5F008E295F0FE09E3F5F008E295F0FF7829C3E50B9CE50C9DE52B
:200A87000D9EE50E9FE433F2D2AF7829E26007781F74AAF280157872E27003020882122263
:200AA700E3E5827849F2781F74BBF275E10490DF3BE0FFBF01F874D844F0602C74D844F053
:200AC700601790F0D8E0FF90F0D975F000122E4BFEEFC39EFE7F0080047E007F00781CEE4A
:200AE700B40100E433F28005781C7401F2781CE26003020BCE782A74D8F20874F0F208E4D3
:200B0700F274D844F0602C74D844F0601790F0D8E0FC90F0D975F000122E4BFBECC39BFB1C
:200B27007C0080047B007C00782DEBB40100E433F28005782D7401F2782DE26003020ABD25
:200B4700782AE22402FA08E23400FB08E2FC8A828B838CF0122E4BF512A3122E4BF513A3EA
:200B6700122E4BF514782AE22401FD08E23400FE08E2FF8D828E838FF0122E4BF50F782A5F
:200B8700E22405FA08E23400FB08E2FC8A828B838CF0122E4BFA8AF0E50F84E5F02512FA37
:200BA700E43513FCAB148A828C838BF0122E4B8D828E838FF0122E4BFC0C8D828E838FF055
:200BC700EC122D80020ABD781FE2700B7869E22401F208E23400F2781FE2F58222AF83E593
:090BE7008290F1DFF0EFA3F0228F
:0A00E800782EE4F208F208F208F2A4
:200BF000782EE4F208F208F208F2F5E4F5E275E4017832E5E2F27833E5E3F27832E2FE0817
:200C1000E2FFC3E49E74A09F50E775E40075DB0075DA5D75E544A2DEE43342D8D2B9D2AF04
:200C300075E40622C0E0C007C006C005C004C000C0D075D000782EE2FC08E2FD08E2FE087D
:200C5000E2FF782E74012CF2E43D08F2E43E08F2E43F08F2D0D0D000D004D005D006D00750
:200C7000D0E032AF82AE83ADF0FC7834EFF208EEF208EDF208ECF2C2AF7838792EE3F208A0
:200C900009E3F20809E3F20809E3F2D2AFC2AF782E7938E3F5F0C3E295F0FA09E3F5F0088C
:200CB000E295F0FB09E3F5F008E295F0FE09E3F5F008E295F0FF783C7934C3E39A09E39B1D
:110CD00009E39E09E39FE433F2D2AF783CE260BD229F
:200CE100AD82AE83AFF00DBD00010E8D828E838FF0E4022D80C018858118AD82AE83AFF0F4
:200D010074012DFAE43EFB8F048A828B838CF07401122D808D828E838FF0E51824FDF8E621
:200D2100122D80D01822C018858118C082C083C0F0058105810581A81808740126FAE408E3
:200D410036FB0886048A828B838CF0122E4BFFBF01005005758200804CE51824FBF8E518C6
:200D61002404F9E6F70809E6F70809E6F7A8180886820886830886F0122E4BFFE51824048A
:200D8100F886820886830886F0EF122D808A828B838CF0122E4BFF1F8A828B838CF0EF123F
:200DA1002D80758201851881D01822AD82AE83AFF00DBD00010E8D828E838FF0E4022D805B
:200DC100C018858118AD82AE83AFF0E51824FDF8E6122D800DBD00010E8D828E838FF07476
:200DE10001122D80E51824FDF8E670057582018003758200D01822C018858118C082C083CA
:200E0100C0F0058105810581A81808740126FAE40836FB0886048A828B838CF0122E4BFF63
:200E2100BF010050057582008041E51824FBF8E5182404F9E6F70809E6F70809E6F7A81839
:200E41000886820886830886F0122E4BFFE5182404F886820886830886F0EF122D808A82FA
:200E61008B838CF0E4122D80758201851881D01822AF82BF0002800CBF0102804ABF020356
:200E8100020F0B22783DE2FD08E2FE08E2FF8D828E838FF074F6122D80A3740C122D807490
:200EA100022DFDE43EFE8D828E838FF07427122D80A3740D122D807840E2F58208E2F58396
:200EC10008E2F5F0020CE1783DE2FD08E2FE08E2FF8D828E838FF07442122D80A3741012A1
:200EE1002D8074022DFDE43EFE8D828E838FF074E0122D80A37410122D807840E2F58208D3
:200F0100E2F58308E2F5F002102A783DE2FD08E2FE08E2FF8D828E838FF074D2122D80A3BF
:200F21007412122D8074022DFDE43EFE8D828E838FF07477122D80A37413122D807840E2DF
:200F4100F58208E2F58308E2F5F00212B3AF82BF0002800CBF0102804ABF0203020FE72239
:200F61007843E2FD08E2FE08E2FF8D828E838FF074C1122D80A3740D122D8074022DFDE40B
:200F81003EFE8D828E838FF074F8122D80A3740D122D807846E2F58208E2F58308E2F5F01F
:200FA100020DAC7843E2FD08E2FE08E2FF8D828E838FF07484122D80A37411122D80740257
:200FC1002DFDE43EFE8D828E838FF07439122D80A37412122D807846E2F58208E2F5830852
:200FE100E2F5F002116B7843E2FD08E2FE08E2FF8D828E838FF074D0122D80A37414122D34
:201001008074022DFDE43EFE8D828E838FF07443122D80A37416122D807846E2F58208E28D
:09102100F58308E2F5F0021487E2
:20102A00AD82AE83AFF074022DFDE43EFE8D828E838FF07402022D80C018858118C082C02B
:20104A0083C0F07E007D007A087C00EE2EFBED33FFEB2BFBEF33FF74022BFBE43FFFE51837
:20106A0024FDF8E6235401FE7D00EBC39EFBEF9DFF8B068F05E51824FDF88607E51824FDBC
:20108A00F8EF2FF61ABAFF011CEA4C70BE8D04A8180886820886830886F0EC122D80A8188B
:2010AA0008740126FAE40836FB0886048E078A828B838CF0EF122D80A81808740226FDE4BC
:2010CA000836FE0886078D828E838FF0E4122D80851881D01822C018E581F5182404F581E2
:2010EA00AD82AE83AFF074022DFAE43EFB8F048A828B838CF0E5182404F8122E4BF6E51869
:20110A002404F8E624FE5005758200804EE51824FBF8A91809E6F70809E6F70809E6F7E507
:20112A00182404F8E62DFDE43EFE8D828E838FF0122E4BFDA8180886820886830886F0EDCA
:20114A00122D808A828B838CF0122E4BFF0F8A828B838CF0EF122D80758201851881D01855
:20116A0022AD82AE83AFF0E4122D800DBD00010E8D828E838FF0E4022D80C018858118059B
:20118A00810581AD82AE83AFF07C007A067B00C005C006C0078C07EF2FFC8AF005F0E5185D
:2011AA0024FDF8E68002C313D5F0FBFFA8180874035FF6087600A81808B6000C08B60008AD
:2011CA00D007D006D005801CD007D006D005A81808B6010608B60002800FA81808B6030A06
:2011EA0008B6000675820180400CEA24FEFAEB34FFFB30E79A8D828E838FF0122E4BC4544B
:20120A00F02CFB8D828E838FF0122D800DBD00010E8D828E838FF0122E4B2404FC8D828E8B
:20122A00838FF0122D80758200851881D01822C018858118C082C083C0F005810581058107
:20124A00A81808740126FAE40836FB0886048A828B838CF0122E4BFFBF0800500575820045
:20126A008041E51824FBF8E5182404F9E6F70809E6F70809E6F7A818088682088683088649
:20128A00F0122E4BFFE5182404F886820886830886F0EF122D808A828B838CF0E4122D802F
:0912AA00758201851881D018221B
:2012B300AD82AE83AFF0E4122D80A3122D8074022DFDE43EFE8D828E838FF0E4022D80C065
:2012D30018858118C082C083C0F0E51824FDF8E6C4540F2419F582E434F3F583E0FCE4C3B3
:2012F300CC13CC13A2E0CC13CC13CCFBE51824FDF8860253020F7F00EA2419F582EF34F3E1
:20131300F583E07E004204EE4203A8180886820886830886F0122E4BFEA3122E4BEEC4544F
:20133300F0FFE44204EF4203A8180886820886830886F0EC122D80A3EB122D80A8180874BA
:201353000226FDE40836FE0886078D828E838FF0122E4B240C8D828E838FF0122D8085184B
:2013730081D01822C018858118C082C083C0F0058105810581A81808740226FAE40836FB97
:201393000886048A828B838CF0122E4BFDBD0800E433FF600DE51824FAF8E67005F582025B
:2013B3001481ED7005F582021481E51824FAF8E66057EF6054E51824FBF8E5182404F9E6AA
:2013D300F70809E6F70809E6F7A8180886820886830886F0122E4BFF8D067408C39EFE8E42
:2013F300F005F0EF800225E0D5F0FBFEE5182404F886820886830886F0EE122D808A828BC9
:20141300838CF0E4122D808062E51824FBF8E5182404F9E6F70809E6F70809E6F7A8180882
:2014330086820886830886F0122E4BFEA3122E4BFFED24F8FD8DF005F08007C3EF13FFEE9B
:2014530013FED5F0F6E5182404F886820886830886F0EE122D808A828B838CF0122E4B2407
:20147300F8FF8A828B838CF0122D80758201851881D01822AD82AE83AFF0E4122D80A31296
:201493002D8074022DFAE43EFB8F048A828B838CF0E4122D8074032DFAE43EFB8F048A82AC
:2014B3008B838CF0E4122D80A3122D8074052DFDE43EFE8D828E838FF0E4022D80C0188538
:2014D3008118C082C083C0F005810581A8180886820886830886F0122E4BFBA3122E4B8B81
:2014F300047B00E51824FDF886027F00EA4203EF4204A8180886820886830886F0EB122D50
:2015130080A3EC122D80A81808740226FDE40836FE0886078D828E838FF0122E4B2408FC82
:201533008D828E838FF0122D808D828E838FF0122E4BFCBC0600500302163AA818088682DD
:201553000886830886F0122E4BFBA3122E4BFC8D828E838FF0122E4B24FAFA8AF005F08008
:2015730007C3EC13FCEB13FBD5F0F6743F5BFC8D828E838FF0122E4B24FA8D828E838FF0EE
:20159300122D807B00EB2419F582E434F3F583E0FAB5040280060BBB100040E9BB1006757C
:2015B300820102163DC005C006C007A81808740326FAE40836FC0886078A828C838FF01230
:2015D3002E4BFDA3122E4BFEE5182404F8A605EEC454F0C6C4C666C654F0C66608F67E0030
:2015F300E5182404F8E6420308E642068A828C838FF0EB122D80A3EE122D80A81808740585
:2016130026FDE40836FE0886078D828E838FF0122E4B2404FC8D828E838FF0122D80D0075C
:20163300D006D00502153C758200851881D01822C018E581F5182404F581AD82AE83AFF092
:2016530074052DFAE43EFB8F048A828B838CF0E5182404F8122E4BF6E5182404F8B6080018
:2016730050057582008068E51824FBF8A91809E6F70809E6F70809E6F774032DFDE43EFECB
:201693008D828E838FF0122E4BFDA3122E4BFEE5182404F8E624F8FF8FF005F08007C3EE1A
:2016B30013FEED13FDD5F0F6A8180886820886830886F0ED122D808A828B838CF0122E4B22
:1516D30024F8FF8A828B838CF0122D80758201851881D0182272
:102E800015313223342526161A192A0B2C0D0E1C47
:0A00F2007849E4F2784AF2784BF204
:2016E8001222E3121B077849E2600C7849E2F582121B077849E4F222784A7401F21222E341
:201708001202CBE58260087582DD1224758006758211122475022BD21222E3AF82C007123B
:2017280022D3AE827D0078B27402F208E4F28E828D83122D9BAD82AE83D007784CEDF2BFFC
:2017480001028005BF021280087CEB7EF17F00800E7CFC7EF17F0080067C007E007F00EC6A
:201768004E60158C828E838FF0C007C006C004121EF2D004D006D0077A007B00C004C0068D
:20178800C007784CE2FE7F00C3EA9EEB64808FF063F08095F0D007D006D0045053C007C0BB
:2017A80006C004C003C0021222E3784DE582F21222E3AD82D002D003D004D006D007EC4EF7
:2017C8006027784D795BE2F3785CEDF28C828E838FF0C007C006C004C003C002121EF6D0EF
:2017E80002D003D004D006D0070ABA008F0B808C7582DD122475022BD21222E3AF82C00794
:20180800122436AB82AC83ADF0FED0077817EBF208ECF208EDF208EEF2784B791BE2F38FAA
:20182800821207D4E582FE60058E82122475022BD27582DD122475902E6B75F080022CFFF3
:201848007582DD122475902E6E75F080022CFF1222E3AF82C0071222E3784EE582F2122448
:2018680016AC82AD83C005C004122416AA82AB83C003C0021222D3AE82D002D003D004D0B8
:2018880005D007784E7906E2F37807ECF208EDF27809EAF208EBF2780BEEF28F8212054CED
:2018A8007582DD122475022BD21222E3784FE582F21222E3AF82C0071224167850E582F2EF
:2018C80008E583F21222E37852E582F2122436AA82AC83ADF0FEC006C005C004C0021222BD
:2018E800E3AB82D002C003C0021224167853E582F208E583F21222D37855E582F2D002D0D8
:2019080003D004D005D006D0077806EFF278507907E2F308E209F378537909E2F308E209EF
:20192800F37855790BE2F3784FE2F582C006C005C004C003C00212054CD002D003D004D0E6
:2019480005D0067817EAF208ECF208EDF208EEF2784B791BE2F37852E2F582C006C005C0EA
:2019680004C003C0021207D4AF82D002D003D004D005D006BFAA5DEB605A78537915E2F3FB
:2019880008E209F3784FE2F582C006C005C004C003C0021206D8D002D003D004D005D00651
:2019A8007817EAF208ECF208EDF208EEF2784B791BE2F37852E2F582C006C005C004C0039E
:2019C800C0021207D4AF82D002D003D004D005D0061B80A0EF60058F82122475022BD2129F
:2019E80022E3121B8CAF827582DDC007122475D0078F82122475022BD21222E3AF82C00709
:201A08001222E3AE82D007785AEEF28F82C007121D1AAE82D007BF0205784B7401F28E82C6
:201A2800122475022BD2C2AF75C90B80FE1222E31222E37582DD122475022BD212241612B2
:201A48000BE47582DD122475022BD21201C77582001202CB900000120BE47582DD12247551
:201A6800022BD27582DD122475C2AF7856792EE3F20809E3F20809E3F20809E3F2D2AF787A
:201A880056E2F58208E2F58308E2F5F008E21227977865E2F58208E2F58312257A7867E29A
:201AA800F58208E2F58312257A7869E2F58208E2F58312257A786BE2F58208E2F583122572
:201AC8007A786DE2F58208E2F58312257A786FE2F58208E2F58312257A90000012257A900F
:201AE800000012257A022BD2784AE2B401087582DD1224758006758211122475022BD2E531
:201B080082FF602CBF10005027EF75F002A42429F58274F335F0F583E0FEA3E0FFC007C0C1
:201B2800068E828F83120089D006D00775C6AC221222D3E58260051222E380F4758222129B
:051B48002475022BD200
:152E6B004F4B00737562675F726673707920322E322E32320030
:202E900000003918481801185718B118011A2E1A351AE71920170017441A531A6B1AF01AC6
:201B4D00AF82D2A17E048E051EED70FAC2AFC2A17E01EE601DEE5FB40100B39201E4332409
:201B6D00FF92A18E05ED2DFE7D008D041DEC60E280F8D2A1D2AF7F028F061FEE70FA2212F5
:201B8D0022E3E582FF24D15003021D15EF240A83F582EF243383F583E473050D151D252D0C
:201BAD00353D454D555D656D757D858D959DA5ACB3BAC1C8CFD6DDE4EBF215151515F90083
:201BCD0015151515151515070E1C1C1C1C1C1C1C1C1C1C1C1C1C1C1C1C1C1C1C1C1C1C1CCC
:201BED001C1C1C1C1C1C1C1C1C1D1D1D1D1C1D1D1D1D1D1D1D1D1D1D90DF00E0FF021D17A6
:201C0D0090DF01E0FF021D1790DF02E0FF021D1790DF03E0FF021D1790DF04E0FF021D179D
:201C2D0090DF05E0FF021D1790DF06E0FF021D1790DF07E0FF021D1790DF08E0FF021D176D
:201C4D0090DF09E0FF021D1790DF0AE0FF021D1790DF0BE0FF021D1790DF0CE0FF021D173D
:201C6D0090DF0DE0FF021D1790DF0EE0FF021D1790DF0FE0FF021D1790DF10E0FF021D170D
:201C8D0090DF11E0FF021D1790DF12E0FF021D1790DF13E0FF021D1790DF14E0FF806B9098
:201CAD00DF15E0FF806490DF16E0FF805D90DF17E0FF805690DF18E0FF804F90DF19E0FF48
:201CCD00804890DF1AE0FF804190DF1BE0FF803A90DF1CE0FF803390DF1DE0FF802C90DF40
:201CED001EE0FF802590DF1FE0FF801E90DF24E0FF801790DF25E0FF801090DF2DE0FF8023
:201D0D000990DF2EE0FF80027F5A8F8222AF827EDDEF24D15003021EEDEF240A83F582EFCD
:201D2D00243383F583E473929CA6B0BAC4CED8E2ECF6000A141E28323C46505A646E7881F4
:201D4D008A939CA5AEB7C0EDEDEDEDC9D2EDEDEDEDEDEDEDDBE41D1D1D1D1D1D1D1D1D1D48
:201D6D001D1E1E1E1E1E1E1E1E1E1E1E1E1E1E1E1E1E1E1E1E1E1E1E1E1E1E1E1E1E1E1E97
:201D8D001E1E1E1E1E785A90DF00E2F0021EEF785A90DF01E2F0021EEF785A90DF02E2F046
:201DAD00021EEF785A90DF03E2F0021EEF785A90DF04E2F0021EEF785A90DF05E2F0021E84
:201DCD00EF785A90DF06E2F0021EEF785A90DF07E2F0021EEF785A90DF08E2F0021EEF7814
:201DED005A90DF09E2F0021EEF785A90DF0AE2F0021EEF785A90DF0BE2F0021EEF785A9068
:201E0D00DF0CE2F0021EEF785A90DF0DE2F0021EEF785A90DF0EE2F0021EEF785A90DF0F3A
:201E2D00E2F0021EEF785A90DF10E2F0021EEF785A90DF11E2F0021EEF785A90DF12E2F02A
:201E4D00021EEF785A90DF13E2F0021EEF785A90DF14E2F0021EEF785A90DF15E2F0021EB3
:201E6D00EF785A90DF16E2F0021EEF785A90DF17E2F0806E785A90DF18E2F08065785A90A4
:201E8D00DF19E2F0805C785A90DF1AE2F08053785A90DF1BE2F0804A785A90DF1CE2F080E8
:201EAD0041785A90DF1DE2F08038785A90DF1EE2F0802F785A90DF1FE2F08026785A90DFF3
:201ECD0024E2F0801D785A90DF25E2F08014785A90DF2DE2F0800B785A90DF2EE2F0800208
:201EED007E118E8222E4022D80AFF0AE83E582785DF208EEF208EFF2785DE2F58208E2F5A5
:201F0D008308E2F5F0122E4BFCBC0700506F785DE22401FA08E23400FB08E2FFEC2C2AFC43
:201F2D00E43BFE8F058C828E838DF0785BE2122D80785DE2F58208E2F58308E2F5F0122E34
:201F4D004B25E0FE2AFAE43BFB0ABA00010B8A828B838FF0785CE2122D80785DE2F58208D4
:201F6D00E2F58308E2F5F0122E4BFF0F785DE2F58208E2F58308E2F5F0EF022D8022AFF0D4
:201F8D00AE83E5827860F208EEF208EFF27860E22401FA08E23400FB08E2FC7863E4F20870
:201FAD00F2C002C003C0047860E2F58208E2F58308E2F5F0122E4BFC7D007863C3E29C084F
:201FCD00E264808DF063F08095F0D004D003D002505C7863E225E0F51508E233F516E51546
:201FED002AFDE5163BFE8C078D828E838FF0122E4BF517E5152AFDE5163BFE8C070DBD00FE
:20200D00010E8D828E838FF0785A122E4BF2851782C004C003C002121D1AD002D003D0048D
:0F202D007863E22401F208E23400F2021FAE22CF
:0D00FC007871E4F27874F27875F27876F29B
:20203C0074FE55F14402F5F143F4F053FE0F747F55F84420F5F875FA3BE5FC75FC0B5388A6
:20205C00F7D2AB53E8FB439A0875F944740D44F2602F90F20DE4F090F20E75F000122D80C6
:20207C0090F20F75F0007413122D80A374F2122D80A3E4122D8090F21275F0007480122DCE
:20209C0080749344F2602F90F293E4F090F29475F000122D8090F29575F0007499122D806D
:2020BC00A374F2122D80A3E4122D8090F29875F0007480022D8022C0E0C0F0C082C083C01D
:2020DC0007C006C005C004C003C002C001C000C0D075D000AFF97873E2FE24FC50030222A9
:2020FC000FEE2E2E9021047302211D022143022195BF9902800302220F78737401F202225F
:20211C000FBF99028019786FE2FD08E2FE786F74012DF2E43E08F278737403F202220F785D
:20213C00737401F202220FEF247F5019786FE2FD08E2FE786F74012DF2E43E08F2787374D7
:20215C0003F202220F7874EFF278747976E2F378757976C3E2F5F0E395F0500678757976BE
:20217C00E2F37876E2600B78737402F275C6A802220F7873E4F202220F7876E2606990F2BB
:20219C000DE0FE90F20EE0FDEEC39DFE7874C3E2F5F0EE95F0504990F20FE0FCA3E0FDA36D
:2021BC00E0FE90F20DE0FB53037F7A00EB2CFCEA3DFD8C828D838EF0EF122D8090F20DE07C
:2021DC00FF0F90F20DEFF0E0FF90F20EE0FEEFC39EFF7874E2B507087874E4F2787204F297
:2021FC007876E2787614F27876E270077875E4F27873F2D0D0D000D001D002D003D004D08E
:20221C0005D006D007D083D082D0F0D0E032C0E0C0F0C082C083C007C006C005C004C003FB
:20223C00C000C0D075D00053E8FB7873E270217871E2601790F293E0FF90F294E0FEEFC37D
:20225C009E7875F27875E2F5F9805575F90080507875E2604890F293E0FF90F294E0FEEFC7
:20227C00B50602803390F295E0FDA3E0FEA3E0FF90F294E0FC53047F7B00EC2DFDEB3EFE5B
:20229C008D828E838FF0122E4BF5F990F294E0FF0F90F294EFF0800875F900800375F9002A
:2022BC00D0D0D000D003D004D005D006D007D083D082D0F0D0E03290F20DE0FF90F20EE044
:2022DC00FEEFC39EF582227872E2700B7872E2700690F0B7E060F57878740DF20874F2F243
:2022FC0008E4F27C00740D44F2602C740D44F2601790F20DE0FB90F20E75F000122E4BFA13
:20231C00EBC39AFA7B0080047A007B00787BEAB40100E433F28005787B7401F2787BE260BC
:20233C00030223D17878E22402FA08E23400FB08E2FF8A828B838FF0122E4BF521A3122E77
:20235C004BF522A3122E4BF5237878E22401F52508E23400F52608E2F5278525828526830F
:20237C008527F0122E4BF5247878E22405FA08E23400FB08E2FF8A828B838FF0122E4BFAEC
:20239C008AF0E52484E5F02521FAE43522FFAE238A828F838EF0122E4BFC8525828526837D
:2023BC008527F0122E4BFF0F8525828526838527F0EF122D808C07740D44F2602C740D448D
:2023DC00F2601790F20DE0FE90F20E75F000122E4BFDEEC39DFD7E0080047D007E00787757
:2023FC00EDB40100E433F2800578777401F27877E260047872E4F28F82221222E3AE827F4D
:20241C0000C007C0061222E3AD82D006D0077C00ED2FFFEC3E8F82F58322122416AE82AF89
:20243C00838F048E057E007F00C007C006C005C004122416AA82AB83D004D005D006D007C8
:20245C008A008B01E4FAFBE82EFEE93FFFEA3DFDEB3C8E828F838DF022E582787FF2787CE6
:20247C007493F20874F2F208E4F2749344F27001227E937DF27C00749344F2604F74934406
:20249C00F2601C90F293E0F52190F29475F000122E4BFFE521C39FFF8F227523008005E489
:2024BC00F522F5237881E522F274052EFAE43DFB8C078A828B838FF0122E4BFA788179807F
:2024DC00E2B5020474018001E4F3800578807401F27880E2600122787CE22402FA08E23421
:2024FC0000FB08E2FF8A828B838FF0122E4BFAA3122E4BFBA3122E4BFF787CE2F58208E231
:20251C00F58308E2F5F0122E4BF522787CE22405FC08E23400FD08E2FE8C828D838EF0120A
:20253C002E4BFC8CF0E52284E5F02AFAE43BFB8A828B838FF0787FE2122D80787CE2F58272
:20255C0008E2F58308E2F5F0122E4BFF0F787CE2F58208E2F58308E2F5F0EF022D80AE8249
:20257C00AF838F0578827493F20874F2F208E4F2749344F2700302269F7C937BF27A007467
:20259C009344F2605D749344F26022C006C00790F293E0FF90F29475F000122E4BFEEFC3A3
:2025BC009EFF8F21752200D007D0068005E4F521F522C006C0077886E521F274052CFCE4D0
:2025DC003BFE8A078C828E838FF0122E4BFC78867985E2B5040474018001E4F3D007D006DB
:2025FC00800578857401F27885E2600302269FC006C0077882E22402FA08E23400FB08E241
:20261C00FC8A828B838CF0122E4BF523A3122E4BF524A3122E4BF5257882E2F58208E2F5A8
:20263C008308E2F5F0122E4BF5217882E22405FC08E23400FE08E2FF8C828E838FF0122EA7
:20265C004BFC8CF0E52184E5F02523FCE43524FFAE258C828F838EF0ED122D807882E2F5CE
:20267C008208E2F58308E2F5F0122E4BFF0F7882E2F58208E2F58308E2F5F0EF122D80D0F0
:20269C0007D0068E0578877493F20874F2F208E4F2749344F27001227A937EF27F007493A5
:2026BC0044F26040749344F2601790F293E0FC90F29475F000122E4BFBECC39BFB7C008041
:2026DC00047B007C0074052AFAE43EFE8A828E838FF0122E4BFA788AEBB502047401800167
:2026FC00E4F28005788A7401F2788AE26001227887E22402FC08E23400FE08E2FF8C828EEF
:20271C00838FF0122E4BF526A3122E4BF527A3122E4BF5287887E2F58208E2F58308E2F5C7
:20273C00F0122E4BF5237887E22405FA08E23400FB08E2FF8A828B838FF0122E4BFA8AF04C
:20275C00E52384E5F02526FAE43527FFAE288A828F838EF0ED122D807887E2F58208E2F523
:20277C008308E2F5F0122E4BFF0F7887E2F58208E2F58308E2F5F0EF022D80AF82AE83AD1C
:20279C00F0FC788BEFF208EEF208EDF208ECF2788B7992080808E2F3788F7493F20874F22F
:2027BC00F208E4F2749344F270030228AA7A937BF27F00749344F26040749344F26017908F
:2027DC00F293E0FE90F29475F000122E4BFDEEC39DFD7E0080047D007E0074052AFAE43B73
:2027FC00FB8A828B838FF0122E4BFA7893EDB5020474018001E4F2800578937401F2789323
:20281C00E260030228AA788FE22402FD08E23400FE08E2FF8D828E838FF0122E4BFDA31296
:20283C002E4BFEA3122E4BFF788FE2F58208E2F58308E2F5F0122E4BF521788FE22405FA9A
:20285C0008E23400FB08E2FC8A828B838CF0122E4BFA8AF0E52184E5F0FA2DFDE43EFE8D98
:20287C00828E838FF07892E2122D80788FE2F58208E2F58308E2F5F0122E4BFF0F788FE26C
:20289C00F58208E2F58308E2F5F0EF122D80788B79970808E2F378947493F20874F2F20861
:2028BC00E4F2749344F270030229BA7A937BF27F00749344F26052749344F26026C002C064
:2028DC0003C00790F293E0FF90F29475F000122E4BFBEFC39BFF8F22752300D007D003D00E
:2028FC00028005E4F522F523AE2274052AFAE43BFB8A828B838FF0122E4BFA7898EEB502C8
:20291C000474018001E4F2800578987401F27898E260030229BA7894E22402FA08E2340069
:20293C00FB08E2FF8A828B838FF0122E4BFAA3122E4BFBA3122E4BFF7894E2F58208E2F5DF
:20295C008308E2F5F0122E4BF5227894E22405FC08E23400FD08E2FE8C828D838EF0122E75
:20297C004BFC8CF0E52284E5F0FC2AFAE43BFB8A828B838FF07897E2122D807894E2F58230
:20299C0008E2F58308E2F5F0122E4BFF0F7894E2F58208E2F58308E2F5F0EF122D80788B0A
:2029BC00799C08E2F378997493F20874F2F208E4F2749344F27003022AC97A937BF27F0023
:2029DC00749344F26052749344F26026C002C003C00790F293E0FF90F29475F000122E4BE3
:2029FC00FBEFC39BFF8F22752300D007D003D0028005E4F522F523AE2274052AFAE43BFB90
:202A1C008A828B838FF0122E4BFA789DEEB5020474018001E4F28005789D7401F2789DE2FA
:202A3C006003022AC97899E22402FA08E23400FB08E2FF8A828B838FF0122E4BFAA3122E0C
:202A5C004BFBA3122E4BFF7899E2F58208E2F58308E2F5F0122E4BF5227899E22405FC088A
:202A7C00E23400FD08E2FE8C828D838EF0122E4BFC8CF0E52284E5F0FC2AFAE43BFB8A82FA
:202A9C008B838FF0789CE2122D807899E2F58208E2F58308E2F5F0122E4BFF0F7899E2F5BC
:202ABC008208E2F58308E2F5F0EF122D80788B79A1E2F3789E7493F20874F2F208E4F274E6
:202ADC009344F27001227A937BF27C00749344F26052749344F26026C002C003C00490F20B
:202AFC0093E0FC90F29475F000122E4BFBECC39BFC8C22752300D004D003D0028005E4F5E7
:202B1C0022F523AF2274052AFAE43BFB8A828B838CF0122E4BFA78A2EFB502047401800102
:202B3C00E4F2800578A27401F278A2E2600122789EE22402FA08E23400FB08E2FC8A828B70
:202B5C00838CF0122E4BFAA3122E4BFBA3122E4BFC789EE2F58208E2F58308E2F5F0122EA2
:202B7C004BF522789EE22405FD08E23400FE08E2FF8D828E838FF0122E4BFD8DF0E5228485
:202B9C00E5F02AFAE43BFB8A828B838CF078A1E2122D80789EE2F58208E2F58308E2F5F016
:202BBC00122E4BFF0F789EE2F58208E2F58308E2F5F0EF022D80749344F2602C749344F21C
:202BDC00601790F293E0FF90F29475F000122E4BFEEFC39EFE7F0080047E007F0078A4EE12
:202BFC00B40100E433F2800578A47401F278A4E2600122C2AF78A5792EE3F20809E3F2087A
:202C1C0009E3F20809E3F2D2AF78717401F2749344F2602C749344F2601790F293E0FF9002
:202C3C00F29475F000122E4BFEEFC39EFE7F0080047E007F0078A3EEB40100E433F280056A
:202C5C0078A37401F278A3E2704990F0B7E07043C2AF782E79A5E3F5F0C3E295F0FC09E347
:202C7C00F5F008E295F0FD09E3F5F008E295F0FE09E3F5F008E295F0FF78A9C374889C747A
:202C9C00139DE49EE49FE433F2D2AF78A9E27003022C2A7875E2604690F0B7E07040C2AF5E
:202CBC00782E79A5E3F5F0C3E295F0FC09E3F5F008E295F0FD09E3F5F008E295F0FE09E3DF
:202CDC00F5F008E295F0FF78AAC374889C74139DE49EE49FE433F2D2AF78AAE260B5787153
:202CFC00E4F222AD82AE83AFF08D828E838FF0122E4BFC60188C82C007C006C00512247518
:102D1C00D005D006D0070DBD00DF0E80DC022BD213
:0600BA00E478FFF6D8FD1A
:202D2C00AFF0AE83E58278AEF208EEF208EFF278AEE2FA08E2FB08E2FC78ACE2F52108E294
:202D4C00F522AE21AF22152174FFB521021522EE4F60138A828B838CF078ABE2122D80A34B
:142D6C00AA82AB8380DC78AEE2F58208E2F58308E2F5F022CB
:200098007930E94400601B7A01902E8078197593F3E493F2A308B800020593D9F4DAF2753E
:0200B80093FFB4
:1B2D800020F71130F6138883A88220F509F6A8837583002280FEF280F5F02252
:202D9B00AE82E583FF33E433FD6009C3E49EFBE49FFC80048E038F0478B3E233E433FF60B4
:202DBB001078B2E2D3F43400FA08E2F43400FE800778B2E2FA08E2FE78B4EAF208EEF28BE7
:202DDB00828C83C007C005122E00AC82AE83D005D007EF6D600AC3E49CF582E49EF58322D4
:052DFB008C828E832292
:2000C00078B6E84400600A79007593F0E4F309D8FC7863E84402600C790390F0B6E4F0A399
:0400E000D8FCD9FA75
:202E0000AE82AF837C007D007B10EF235401FAEE2EFEEF33FFEC2CFCED33FDEA600343046B
:202E20000178B4C3E2F5F0EC95F008E2F5F0ED95F0401178B4D3E29CF4B3FCB308E29DF48A
:0B2E4000FD430601DBC48E828F83225D
:02008900E4731E
:0D008B00758128122E67E582600302008651
:1C2E4B0020F71430F6148883A88220F507E6A88375830022E280F7E49322E02296
:042E6700758200224E
:00000001FF
