:0600000002008B02026207
:01000B0032C2
:0100130032BA
:03001B000225A01B
:0100230032AA
:01002B0032A2
:01003300329A
:01003B003292
:01004300328A
:03004B00020DCCD7
:01005300327A
:01005B003272
:01006300326A
:01006B003262
:030073000226FD65
:01007B003252
:03008300020698DA
:03010D0002008667
:0300860002011064
:03011000020113D6
:2001130053BEFBE5BE30E6FB75C6A8E5C620E6FB43BE0443FF02D2A1120D85D2AF1225095C
:1801330012014B90F0D77401F075C90890F0D8E070051218AA80F5223C
:0400E4007803E4F2C7
:20014B0090DF0074FFF090DF01E4F090DF0214F090DF03E4F090DF04F090DF05F090DF0786
:20016B007406F090DF08E4F090DF0C7499F090DF0DF4F090DF0E03F090DF0F7461F090DFC5
:20018B0010747EF090DF117415F090DF127407F090DF137430F090DF1403F090DF1514F069
:2001AB0090DF16746CF090DF1A74B6F090DF1B7411F090DF1C74E9F090DF1D742AF090DFDC
:2001CB001EE4F090DF1F741FF090DF247431F090DF257409F090DF2EE4F090DF177407F086
:2001EB0090DF18E4F090DF197491F090DF097426F090DF0A7430F090DF0B7470F090DF064A
:20020B007402F090DF2D74C0F0439A01D2A874F944F0602F90F0F9E4F090F0FA75F00012E7
:20022B00326D90F0FB75F00074D912326DA374F012326DA3E412326D90F0FE75F0007420CF
:20024B0002326D22E582FF24FD40087803EFF27582012275820022C0E0C0F0C082C083C0DD
:20026B0007C006C005C004C003C002C001C000C0D075D00090DF3BE0FFBF0D028003020561
:20028B00E2780AE5D9F27800E260030204C590DF3A780EE0F2780B74F9F20874F0F208E48A
:2002AB00F27A0074F944F070030203997DF97EF07F0074F944F0603E74F944F0601790F0DB
:2002CB00F9E0FC90F0FA75F00012341BFBECC39BFB7C0080047B007C0074052DFDE43EFE04
:2002EB008D828E838FF012341BFDEBB5050474018001E4FF80027F01EF6003020399780BFF
:20030B00E22402FD08E23400FE08E2FF8D828E838FF012341BF509A312341BF50AA31234DE
:20032B001BF50B780BE2F58208E2F58308E2F5F012341BF508780BE22405FB08E23400FC89
:20034B0008E2FF8B828C838FF012341BFB8BF0E50884E5F02509FBE4350AFFAE0B8B828F51
:20036B00838EF0780EE212326D780BE2F58208E2F58308E2F5F012341BFF0F780BE2F58200
:20038B0008E2F58308E2F5F0EF12326D7A01EA70117885E2FE08E2FF788574012EF2E43F20
:2003AB0008F278877912E2F3780F74F9F20874F0F208E4F27B0074F944F070030204AC7AFC
:2003CB00F97EF07F0074F944F0603E74F944F0601790F0F9E0FD90F0FA75F00012341BFC43
:2003EB00EDC39CFC7D0080047C007D0074052AFAE43EFE8A828E838FF012341BFAECB50259
:20040B000474018001E4FF80027F01EF60030204AC780FE22402FD08E23400FE08E2FF8DD0
:20042B00828E838FF012341BF50CA312341BF50DA312341BF50E780FE2F58208E2F58308E6
:20044B00E2F5F012341BF509780FE22405FA08E23400FC08E2FF8A828C838FF012341BFAE7
:20046B008AF0E50984E5F0250CFAE4350DFFAE0E8A828F838EF07812E212326D780FE2F58D
:20048B008208E2F58308E2F5F012341BFF0F780FE2F58208E2F58308E2F5F0EF12326D7B03
:2004AB0001EB70117885E2FE08E2FF788574012EF2E43F08F278007402F2780A7916E2F389
:2004CB00781374F9F20874F0F208E4F27B0074F944F070030205C47AF97EF07F0074F94480
:2004EB00F0603E74F944F0601790F0F9E0FD90F0FA75F00012341BFCEDC39CFC7D00800470
:20050B007C007D0074052AFAE43EFE8A828E838FF012341BFAECB5020474018001E4FF8023
:20052B00027F01EF60030205C47813E22402FD08E23400FE08E2FF8D828E838FF012341B7C
:20054B00F509A312341BF50AA312341BF50B7813E2F58208E2F58308E2F5F012341BF50C14
:20056B007813E22405FA08E23400FC08E2FF8A828C838FF012341BFA8AF0E50C84E5F025FF
:20058B0009FAE4350AFFAE0B8A828F838EF07816E212326D7813E2F58208E2F58308E2F590
:2005AB00F012341BFF0F7813E2F58208E2F58308E2F5F0EF12326D7B01EB70117885E2FE57
:2005CB0008E2FF788574012EF2E43F08F27800E2780004F202067D90DF3BE0FFBF1302804E
:2005EB000302067D7802E2FF24F9500302067DEF2F90060073800C801B80778040803180E2
:20060B0049806F90F200E0FEA3E0FF8FD978027401F2805E90F200E0FEA3E0FF8ED97801CC
:20062B00E2600778027404F280487802E4F2804290DF00E0F5D978027403F2803590DF0183
:20064B00E0F5D978027405F2802890F1FEE0FF04F0EF24FFF582E434F0F583E0F5D990F1CA
:20066B00FEE0FF90F1FFE0FEC3EF9E400578027406F2D0D0D000D001D002D003D004D0052A
:20068B00D006D007D083D082D0F0D0E032C0E0C007C006C000C0D075D000539BFCE5E930B1
:2006AB00E70875E10453E97F8023E5E930E6167883E2FE08E2FF788374012EF2E43F08F21D
:2006CB0053E9BF8008E5E930E50353E9DFD0D0D000D006D007D0E032AF827817E2FD7E006F
:2006EB000DBD00010E7847741EF208E4F2087460F2784A7422F208E4F2087460F27803E2D4
:20070B00F582C007C006C00512100E90F20C75F000122201D005D006D00790DF06EFF09047
:20072B00F1FFE4F0781CE2FCEC7003020805C005C006C007C006C005C004122803AB82D02F
:20074B0004D005D006D007781DEBF21C781EE2FA08E2FEC007C006C005C004C002C0031273
:20076B00076F800BC002C00690F02275F060221581D002D004D005D006D007ECB40100E419
:20078B0033D006D0057820E2FA08E2FBC007C006C005C004C003C006741DC0E074F0C0E043
:2007AB007460C0E01207B4800BC002C00390F02275F06022AA82E58124FCF581D003D00485
:2007CB00D005D006D007EA700302073390F1FFE0FB7A000BBB00010AC3EB94FFEA648094AA
:2007EB008050A290F1FFE0FB04F0EB24FFF582E434F0F583781DE2F0808B7C007E00C3EC0D
:20080B009DEE9E5068EC4E60387818E2F5F008E245F0602DC005C0067818E2FA08E2FB7DBE
:20082B00007E008A828B838DF0EEC007C006C005C004120E0BD004D005D006D007D006D06D
:20084B000575C9A875C958781A7925E2F308E209F38F82C007C006C005C004120879D00493
:20086B00D005D006D0070CBC00940E809122AF8290DF0EE0FE90DF02E0FD90DF04E0FC78AD
:20088B0089E22401F208E23400F290F200E0FAA3E0FB4A601E90DF0EE053E0FCF090DF042A
:2008AB00E054FC4402F090DF02E4F07801F27802F2801F7825E2F5F008E245F060077802A8
:2008CB007402F2800578027405F290F1FFE090DF02F075E10490DF3BE0FBBB01F890DF0672
:2008EB00EFF090F1FEE4F075E10390DF3BE0FFBF13F87825E2F5F008E245F06038C00478B8
:20090B0025E2FA08E2FB7C007F008A828B838CF0EFC006C005C004120E0BD004D005D0066D
:20092B0090F200E0FCA3E0FF4CD004700878027405F243880290F200E0FBA3E0FF4B6005F3
:20094B0078017401F290DF3BE0FFBF130280F690DF3BE0FFBF160375E10490DF02EDF09040
:20096B00DF0EEEF090DF04ECF022AF82782DE4F2782EF2F5117827E2F5F008E242F008E27A
:20098B0042F008E245F06016C2AF782F7939E3F20809E3F20809E3F20809E3F2D2AF90F231
:2009AB001D75F000C007122201784D7402F20874F2F208E4F278507406F20874F2F208E4C3
:2009CB00F27803E2F5821210EAD00775E10490DF3BE0FCBC01F890DF06EFF07800E4F278B4
:2009EB00C87411F278C97420F208E4F290F0D975F00012321975E10290DF3BE0FFBF0DF848
:200A0B007827E2F51208E2F51308E2F51408E2F515782CE4F275C9A875C95874F944F06073
:200A2B002F74F944F0601A90F0F9E0FD90F0FA75F00012341BFEEDC39EFD8D0F75100080E1
:200A4B0005E4F50FF510E50FB40100E433FE80027E01EE6003020BEA783374F9F20874F01C
:200A6B00F208E4F27CF574F944F0602A74F944F0601790F0F9E0FB90F0FA75F00012341B53
:200A8B00FAEBC39AFA7B0080047A007B00EAB40100E433FB80027B01EB6003020B3A78332C
:200AAB00E22402FA08E23400FB08E2FF8A828B838FF012341BF516A312341BF517A3123429
:200ACB001BF5187833E22401F51908E23400F51A08E2F51B851982851A83851BF012341BC9
:200AEB00F50F7833E22405FA08E23400FB08E2FF8A828B838FF012341BFA8AF0E50F84E56A
:200B0B00F02516FAE43517FFAE188A828F838EF012341BFC851982851A83851BF012341B84
:200B2B00FF0F851982851A83851BF0EF12326D782DECF2782CE22401F2782CE2B401117846
:200B4B00687401F2758201121DDE7582DD12298E782CE2B40300500A782DE2F58212298EBB
:200B6B00806790F202E0FEA3E0FFC007C006782DE2C0E0120B83800BC006C00790F2067536
:200B8B00F000228582111581D006D00790F204E0FEA3E0FFC007742DC0E074F0C0E0746017
:200BAB00C0E0120BB2800BC006C00790F20675F00022AE82158115811581D007EE600A78FB
:200BCB002DE2F58212298E80C3E5117076782BE2600D90DF02E0FF782CE2B507028064E54D
:200BEB00124513451445156045C2AF7839792FE3F5F0C3E295F0FC09E3F5F008E295F0FD33
:200C0B0009E3F5F008E295F0FE09E3F5F008E295F0FFC3E5129CE5139DE5149EE5159FE44D
:200C2B0033FFD2AFEF6007782E74AAF280157890E27003020A20122803E5827853F2782EC5
:200C4B0074BBF275E10490DF3BE0FFBF01F874F944F0602A74F944F0601790F0F9E0FF90A2
:200C6B00F0FA75F00012341BFEEFC39EFE7F0080047E007F00EEB40100E433FF80027F01B2
:200C8B00EF6003020D59783674F9F20874F0F208E4F274F944F0602A74F944F0601790F083
:200CAB00F9E0FC90F0FA75F00012341BFBECC39BFB7C0080047B007C00EBB40100E433FC2A
:200CCB0080027C01EC70877836E22402FA08E23400FB08E2FC8A828B838CF012341BF51973
:200CEB00A312341BF51AA312341BF51B7836E22401FD08E23400FE08E2FF8D828E838FF06C
:200D0B0012341BF5167836E22405FA08E23400FB08E2FC8A828B838CF012341BFA8AF0E55A
:200D2B001684E5F02519FAE4351AFCAB1B8A828C838BF012341B8D828E838FF012341BFC19
:200D4B000C8D828E838FF0EC12326D020C59782EE2700B7887E22401F208E23400F27868EE
:1A0D6B00E4F2758201121DDE782EE2F58222AF83E58290F200F0EFA3F022C3
:0A00E8007839E4F208F208F208F299
:200D85007839E4F208F208F208F2F5E4F5E275E401783DE5E2F2783EE5E3F2783DE2FE0854
:200DA500E2FFC3E49E74A09F50E775E40075DB0075DA5D75E544AFD8A2DEE4334FF5D8D21F
:200DC500B9D2AF75E40622C0E0C007C006C005C004C000C0D075D0007839E2FC08E2FD088A
:200DE500E2FE08E2FF783974012CF2E43D08F2E43E08F2E43F08F2D0D0D000D004D005D0A4
:200E050006D007D0E032AF82AE83ADF0FC783FEFF208EEF208EDF208ECF2C2AF78437939E8
:200E2500E3F20809E3F20809E3F20809E3F2D2AFC2AF78397943E3F5F0C3E295F0FA09E3EF
:200E4500F5F008E295F0FB09E3F5F008E295F0FE09E3F5F008E295F0FF783FC3E29A08E2E1
:180E65009B08E29E08E29FE433FFD2AFEF700875C9A875C95880B922F4
:200E7D00AD82AE83AFF00DBD00010E8D828E838FF0E402326DC01F85811FAD82AE83AFF056
:200E9D0074012DFAE43EFB8F048A828B838CF0740112326D8D828E838FF0E51F24FDF8E68B
:200EBD0012326DD01F22C01F85811FC082C083C0F0058105810581A81F08740126FAE40838
:200EDD0036FB0886048A828B838CF012341BFFBF01005005758200804CE51F24FBF8E51F45
:200EFD002404F9E6F70809E6F70809E6F7A81F0886820886830886F012341BFFE51F240409
:200F1D00F886820886830886F0EF12326D8A828B838CF012341BFF1F8A828B838CF0EF12D9
:200F3D00326D758201851F81D01F22AD82AE83AFF00DBD00010E8D828E838FF0E402326DCB
:200F5D00C01F85811FAD82AE83AFF0E51F24FDF8E612326D0DBD00010E8D828E838FF074D1
:200F7D000112326DE51F24FDF8E670057582018003758200D01F22C01F85811FC082C0831E
:200F9D00C0F0058105810581A81F08740126FAE40836FB0886048A828B838CF012341BFFE9
:200FBD00BF010050057582008041E51F24FBF8E51F2404F9E6F70809E6F70809E6F7A81F87
:200FDD000886820886830886F012341BFFE51F2404F886820886830886F0EF12326D8A828E
:200FFD008B838CF0E412326D758201851F81D01F22AF82BF0002800CBF0102804ABF0203B9
:20101D000210A7227847E2FD08E2FE08E2FF8D828E838FF0749212326DA3740E12326D74C9
:20103D00022DFDE43EFE8D828E838FF074C312326DA3740E12326D784AE2F58208E2F5836D
:20105D0008E2F5F0020E7D7847E2FD08E2FE08E2FF8D828E838FF074DE12326DA3741112CC
:20107D00326D74022DFDE43EFE8D828E838FF074A312326DA3741212326D784AE2F5820890
:20109D00E2F58308E2F5F00211C67847E2FD08E2FE08E2FF8D828E838FF0749812326DA3C3
:2010BD00741412326D74022DFDE43EFE8D828E838FF0743D12326DA3741512326D784AE298
:2010DD00F58208E2F58308E2F5F0021479AF82BF0002800CBF0102804ABF02030211832236
:2010FD00784DE2FD08E2FE08E2FF8D828E838FF0745D12326DA3740F12326D74022DFDE4E2
:20111D003EFE8D828E838FF0749412326DA3740F12326D7850E2F58208E2F58308E2F5F0F5
:20113D00020F48784DE2FD08E2FE08E2FF8D828E838FF0744312326DA3741312326D74026C
:20115D002DFDE43EFE8D828E838FF074F812326DA3741312326D7850E2F58208E2F5830806
:20117D00E2F5F002132A784DE2FD08E2FE08E2FF8D828E838FF0749612326DA3741612320C
:20119D006D74022DFDE43EFE8D828E838FF0740912326DA3741812326D7850E2F58208E24D
:0911BD00F58308E2F5F002164D7D
:2011C600AD82AE83AFF074022DFDE43EFE8D828E838FF0740202326DC01F85811FC082C08E
:2011E60083C0F005810581E51F2404F8E4F608F67A087C00E51F2404F8E626FB08E633FF65
:20120600EB2BFBEF33FF74022BFBE43FFFE51F24FDF8E6235401FE7D00EBC39EFBEF9DFF10
:20122600E51F2404F8A60308A607E51F24FDF88607E51F24FDF8EF2FF6EA24FFFEEC34FF21
:20124600FF8E028F04EE4F70ABE51F2404F8088604A81F0886820886830886F0EC12326D55
:20126600A81F08740126FAE40836FB088604E51F2404F886078A828B838CF0EF12326DA8C6
:201286001F08740226FDE40836FE0886078D828E838FF0E412326D851F81D01F22C01FE5A5
:2012A60081F51F2404F581AD82AE83AFF074022DFAE43EFB8F048A828B838CF0A81F081232
:2012C600341BF6A81F08E624FE5005758200804EE51F24FBF8A91F0909E6F70809E6F7080A
:2012E60009E6F7A81F08E62DFDE43EFE8D828E838FF012341BFDA81F08088682088683080E
:2013060086F0ED12326D8A828B838CF012341BFF0F8A828B838CF0EF12326D758201851FDC
:2013260081D01F22AD82AE83AFF0E412326D0DBD00010E8D828E838FF0E402326DC01F8520
:20134600811F05810581AD82AE83AFF07C007A067B00C005C006C0078C07EF2FFC8AF005E7
:20136600F0E51F24FDF8E68002C313D5F0FBFFA81F0874035FF6087600A81F08B6000C08AB
:20138600B60008D007D006D005801CD007D006D005A81F08B6010608B60002800FA81F083F
:2013A600B6030A08B6000675820180400CEA24FEFAEB34FFFB30E79A8D828E838FF0123427
:2013C6001BC454F02CFB8D828E838FF012326D0DBD00010E8D828E838FF012341B2404FC70
:2013E6008D828E838FF012326D758200851F81D01F22C01FE581F51F2406F581C8E51F2481
:2014060004C8A68208A68308A6F0E51F2404F8740126FAE40836FB0886048A828B838CF005
:2014260012341BFFBF08005005758200803FE51F24FBF8A91F09E6F70809E6F70809E6F7CF
:20144600E51F2404F886820886830886F012341BFFA81F0886820886830886F0EF12326D65
:131466008A828B838CF0E412326D758201851F81D01F221A
:20147900AD82AE83AFF0E412326DA312326D74022DFDE43EFE8D828E838FF0E402326DC0C7
:201499001F85811FC082C083C0F0E51F24FDF8E6C4540F24B1F582E434FAF583E0FCE4C337
:2014B900CC13CC13A2E0CC13CC13CCFBE51F24FDF8860253020F7F00EA24B1F582EF34FA73
:2014D900F583E07E004204EE4203A81F0886820886830886F012341BFEA312341BEEC454D5
:2014F900F0FFE44204EF4203A81F0886820886830886F0EC12326DA3EB12326DA81F087401
:201519000226FDE40836FE0886078D828E838FF012341B240C8D828E838FF012326D851FB4
:2015390081D01F22C01F85811FC082C083C0F0058105810581A81F08740226FAE40836FBB3
:201559000886048A828B838CF012341BFDBD0800E433FF600DE51F24FAF8E67005F58202B6
:201579001647ED7005F582021647E51F24FAF8E66057EF6054E51F24FBF8E51F2404F9E63D
:20159900F70809E6F70809E6F7A81F0886820886830886F012341BFF8D067408C39EFE8E9D
:2015B900F005F0EF800225E0D5F0FBFEE51F2404F886820886830886F0EE12326D8A828B08
:2015D900838CF0E412326D8062E51F24FBF8E51F2404F9E6F70809E6F70809E6F7A81F08B4
:2015F90086820886830886F012341BFEA312341BFFED24F8FD8DF005F08007C3EF13FFEE28
:2016190013FED5F0F6E51F2404F886820886830886F0EE12326D8A828B838CF012341B2470
:20163900F8FF8A828B838CF012326D758201851F81D01F22AD82AE83AFF0E412326DA312DC
:20165900326D74022DFAE43EFB8F048A828B838CF0E412326D74032DFAE43EFB8F048A8200
:201679008B838CF0E412326DA312326D74052DFDE43EFE8D828E838FF0E402326DC01F8593
:20169900811FC082C083C0F005810581A81F0886820886830886F012341BFBA312341B8BFF
:2016B900047B00E51F24FDF886027F00EA4203EF4204A81F0886820886830886F0EB123275
:2016D9006DA3EC12326DA81F08740226FDE40836FE0886078D828E838FF012341B2408FCFF
:2016F9008D828E838FF012326D8D828E838FF012341BFCBC06005003021800A81F0886827F
:201719000886830886F012341BFBA312341BFC8D828E838FF012341B24FAFA8AF005F080BE
:2017390007C3EC13FCEB13FBD5F0F6743F5BFC8D828E838FF012341B24FA8D828E838FF050
:2017590012326D7B00EB24B1F582E434FAF583E0FAB5040280060BBB100040E9BB10067523
:201779008201021803C005C006C007A81F08740326FAE40836FC0886078A828C838FF01299
:20179900341BFDA312341BFEE51F2404F8A605EEC454F0C6C4C666C654F0C66608F67E00B5
:2017B900E51F2404F8E6420308E642068A828C838FF0EB12326DA3EE12326DA81F087405CB
:2017D90026FDE40836FE0886078D828E838FF012341B2404FC8D828E838FF012326DD007CD
:2017F900D006D005021702758200851F81D01F22C01FE581F51F2404F581AD82AE83AFF0E7
:2018190074052DFAE43EFB8F048A828B838CF0A81F0812341BF6A81F08B6080050057582CA
:20183900008068E51F24FBF8A91F0909E6F70809E6F70809E6F774032DFDE43EFE8D828E9B
:20185900838FF012341BFDA312341BFEA81F08E624F8FF8FF005F08007C3EE13FEED13FD83
:20187900D5F0F6A81F080886820886830886F0ED12326D8A828B838CF012341B24F8FF8AEC
:11189900828B838CF012326D758201851F81D01F2253
:10344D0015313223342526161A192A0B2C0D0E1C74
:0700F2007853E4F27854F2A8
:2018AA00122803121CBD7853E2600C7853E2F582121CBD7853E4F22212280312024FE58204
:2018CA0060087582DD12298E800675821112298E0230C9122803AF82C0071227DFAE827DAD
:2018EA000078D37402F208E4F28E828D83123368AD82AE83D0077855EDF2BF01028005BF97
:20190A00021280087C0C7EF27F00800E7C1D7EF27F0080067C007E007F00EC4E60158C82D8
:20192A008E838FF0C007C006C004122168D004D006D0077A007B00C004C006C0077855E2AB
:20194A00FE7F00C3EA9EEB64808FF063F08095F0D007D006D0045053C007C006C004C003D7
:20196A00C0021228037856E582F2122803AD82D002D003D004D006D007EC4E60277856799D
:20198A006AE2F3786BEDF28C828E838FF0C007C006C004C003C00212216CD002D003D004B0
:2019AA00D006D0070ABA008F0B808C7582DD12298E0230C9122803AF82C00712294FAB8282
:2019CA00AC83ADF0FED0077827EBF208ECF208EDF208EEF27854792BE2F38F82120975E560
:2019EA0082FE60058E8212298E0230C97582DD12298E90343B75F0800231EC7582DD122975
:201A0A008E90343E75F0800231EC122803AF82C0071228037857E582F2122930AC82AD83C5
:201A2A00C005C004122930AA82AB83C003C0021227DFAE82D002D003D004D005D00778578D
:201A4A007917E2F37818ECF208EDF2781AEAF208EBF2781CEEF28F821206E37582DD1229E0
:201A6A008E0230C91228037858E582F2122803AF82C0071229307859E582F208E583F2122F
:201A8A002803785BE582F212294FAA82AC83ADF0FEC006C005C004C002122803AB82D00218
:201AAA00C003C002122930785CE582F208E583F21227DF785EE582F2D002D003D004D00508
:201ACA00D006D0077817EFF278597918E2F308E209F3785C791AE2F308E209F3785E791C35
:201AEA00E2F37858E2F582C006C005C004C003C0021206E3D002D003D004D005D00678274C
:201B0A00EAF208ECF208EDF208EEF27854792BE2F3785BE2F582C006C005C004C003C002E5
:201B2A00120975AF82D002D003D004D005D006BFAA5DEB605A785C7925E2F308E209F378A6
:201B4A0058E2F582C006C005C004C003C002120879D002D003D004D005D0067827EAF208BC
:201B6A00ECF208EDF208EEF27854792BE2F3785BE2F582C006C005C004C003C002120975D9
:201B8A00AF82D002D003D004D005D0061B80A0EF60058F8212298E0230C9122803121E0213
:201BAA00AF827582DDC00712298ED0078F8212298E0230C9122803AF82C007122803AE8238
:201BCA00D0077869EEF28F82C007121F90AE82D007BF020578547401F28E8212298E0230BF
:201BEA00C9C2AF75C90922122803AF82C007122803AE82D0077867EEF28F82121DB0758219
:201C0A00DD12298E0230C9122930120D797582DD12298E0230C912014B75820012024F9036
:201C2A000000120D797582DD12298E0230C97582DD12298EC2AF785F7939E3F20809E3F218
:201C4A000809E3F20809E3F2D2AF785FE2F58208E2F58308E2F5F008E2122CAD7883E2F525
:201C6A008208E2F583122AA67885E2F58208E2F583122AA67887E2F58208E2F583122AA65E
:201C8A007889E2F58208E2F583122AA6788BE2F58208E2F583122AA6788DE2F58208E2F5BF
:201CAA0083122AA6900000122AA6900000122AA60230C9E582FF602CBF0F005027EF75F04B
:201CCA0002A424C1F58274FA35F0F583E0FEA3E0FFC007C0068E828F83120089D006D00796
:191CEA0075C6AB221227DFE582600512280380F475822212298E0230C967
:12343B004F4B00737562675F726673707920322E3200EF
:1E345D000000F619051ABE19141A6E1ABE1BEB1BF11BA41BDD18C218111C201C381C60
:0700F9007863E4F27864F281
:201D0300AF827E007865740A2FF2E43E08F2C2AFD2A17865E2FE08E2FF7865EE24FFF2EF20
:201D230034FF08F2EE4F70EAC2A1D2AF22AF82D2A17E048E051EED70FAC2AFC2A17E018EC7
:201D4300051EED70FA7E01EE601BEE5FB40100B3E43324FF92A18E05ED2DFE7D008D041D26
:201D6300EC60E480F8D2A1D2AF7F028F061FEE70FA22C2AFC2A17F018F061FEE70FAD2A142
:201D8300D2AF75C6AC22C2AFC2A1D2A1D2AF75C6A82243FD03C280C2817867E4F275820075
:201DA300121DB07867E4F2758201021DB0E582FF70137867E2FE7863F2BE0103D28022EE2C
:201DC3007018C28022BF01127867E2FF7864F2BF0103D28122EF7002C28122E582FF700ED2
:201DE3007863E2B402187868E224FF928022BF010D7864E2B402077868E224FF92812212C8
:201E03002803E582FF24D15003021F8BEF240A83F582EF243383F583E4737B838B939BA331
:201E2300ABB3BBC3CBD3DBE3EBF3FB030B131B222930373E454C535A61688B8B8B8B6F764A
:201E43008B8B8B8B8B8B8B7D841E1E1E1E1E1E1E1E1E1E1E1E1E1E1E1E1E1F1F1F1F1F1FF9
:201E63001F1F1F1F1F1F1F1F1F1F1F1F1F1F1F1F1F1F1F1F1F1F1F1F90DF00E0FF021F8D7B
:201E830090DF01E0FF021F8D90DF02E0FF021F8D90DF03E0FF021F8D90DF04E0FF021F8D45
:201EA30090DF05E0FF021F8D90DF06E0FF021F8D90DF07E0FF021F8D90DF08E0FF021F8D15
:201EC30090DF09E0FF021F8D90DF0AE0FF021F8D90DF0BE0FF021F8D90DF0CE0FF021F8DE5
:201EE30090DF0DE0FF021F8D90DF0EE0FF021F8D90DF0FE0FF021F8D90DF10E0FF021F8DB5
:201F030090DF11E0FF021F8D90DF12E0FF021F8D90DF13E0FF021F8D90DF14E0FF806B90B7
:201F2300DF15E0FF806490DF16E0FF805D90DF17E0FF805690DF18E0FF804F90DF19E0FFCF
:201F4300804890DF1AE0FF804190DF1BE0FF803A90DF1CE0FF803390DF1DE0FF802C90DFC7
:201F63001EE0FF802590DF1FE0FF801E90DF24E0FF801790DF25E0FF801090DF2DE0FF80AA
:201F83000990DF2EE0FF80027F5A8F8222AF827EDDEF24D15003022163EF240A83F582EFDC
:201FA300243383F583E47308121C26303A444E58626C76808A949EA8B2BCC6D0DAE4EEF7F6
:201FC3000009121B242D36636363633F4863636363636363515A202020202020202020208E
:201FE3002020202020202020202020202020202121212121212121212121212121212121CD
:202003002121212121786990DF00E2F0022165786990DF01E2F0022165786990DF02E2F09F
:20202300022165786990DF03E2F0022165786990DF04E2F0022165786990DF05E2F0022170
:2020430065786990DF06E2F0022165786990DF07E2F0022165786990DF08E2F0022165788D
:202063006990DF09E2F0022165786990DF0AE2F0022165786990DF0BE2F002216578699048
:20208300DF0CE2F0022165786990DF0DE2F0022165786990DF0EE2F0022165786990DF0F2A
:2020A300E2F0022165786990DF10E2F0022165786990DF11E2F0022165786990DF12E2F01A
:2020C300022165786990DF13E2F0022165786990DF14E2F0022165786990DF15E2F00221A0
:2020E30065786990DF16E2F0022165786990DF17E2F0806E786990DF18E2F0806578699001
:20210300DF19E2F0805C786990DF1AE2F08053786990DF1BE2F0804A786990DF1CE2F08042
:2021230041786990DF1DE2F08038786990DF1EE2F0802F786990DF1FE2F08026786990DF3E
:2021430024E2F0801D786990DF25E2F08014786990DF2DE2F0800B786990DF2EE2F0800262
:202163007E118E8222E402326DAFF0AE83E582786CF208EEF208EFF2786CE2F58208E2F51C
:202183008308E2F5F012341BFCBC0700506F786CE22401FA08E23400FB08E2FFEC2C2AFCE6
:2021A300E43BFE8F058C828E838DF0786AE212326D786CE2F58208E2F58308E2F5F01234A6
:2021C3001B25E0FE2AFAE43BFB0ABA00010B8A828B838FF0786BE212326D786CE2F582087C
:2021E300E2F58308E2F5F012341BFF0F786CE2F58208E2F58308E2F5F0EF02326D22AFF085
:20220300AE83E582786FF208EEF208EFF2786FE22401FA08E23400FB08E2FC7872E4F208CA
:20222300F2C002C003C004786FE2F58208E2F58308E2F5F012341BFC7D007872C3E29C08E2
:20224300E264808DF063F08095F0D004D003D002505C7872E225E0F51C08E233F51DE51CA9
:202263002AFDE51D3BFE8C078D828E838FF012341BF51EE51C2AFDE51D3BFE8C070DBD0093
:20228300010E8D828E838FF0786912341BF2851E82C004C003C002121F90D002D003D004B1
:0F22A3007872E22401F208E23400F202222422CF
:2022B200AFF0AE83E5827876F208EEF208EFF290FA20E0FBA3E0FC7874E22BFB08E23CFC0A
:2022D200C3EB94D0EC940740047582002290FA24E0FC7B000CBC00010BC3EC941EEB6480ED
:2022F200948040047582002290FA22E024FEF582E434F9F5837874E2F090FA22E0FC7B00EC
:202312008C828B83A378CF741EF208E4F2123288AB82AC8390FA22EBF090FA24E004F0789A
:2023320079E4F208F278797974C3E3F5F0E295F009E3F5F008E295F0506990FA1CE0FAA356
:20235200E0FFEA242EFAEF34F2FF78767979E3C5F0E225F0FC09E3C5F008E235F0FD08E240
:20237200FE8C828D838EF012341B8A828F83F090FA1CE0FEA3E0FF8E828F83A378D174D0EA
:20239200F2087407F21232E5E5828583F090FA1CF0E5F0A3F07879E22401F208E23400F244
:2023B20002233790FA20E0FEA3E0FF787490FA20E22EF008E23FA3F075820122AFF0AE8369
:2023D200E582787EF208EEF208EFF290FA24E07003F58222787BE2FA08E2FB08E2FC90FA0D
:2023F20023E024FEF582E434F9F583E0FF7E008A828B838CF0EF12326DA3EE12326D90FA47
:2024120023E0FF7E008F828E83A378CF741EF208E4F2C004C003C002123288AE82AF83D075
:2024320002D003D00490FA23EEF090FA24E014F07881E4F208F28A828B838CF012341BFE06
:20245200A312341BFF7881C3E29E08E29F40030224E3C002C003C004787E7981E3C5F0E2A3
:2024720025F0FA09E3C5F008E235F0FB08E2FC90FA1EE0FEA3E0FFEE242EF582EF34F2F5E1
:2024920083E08A828B838CF012326D90FA1EE0FEA3E0FF8E828F83A378D174D0F2087407B1
:2024B200F2C004C003C0021232E5E5828583F0D002D003D00490FA1EF0E5F0A3F07881E2F3
:2024D2002401F208E23400F2D004D003D0020224488A828B838CF012341BFAA312341BFBEC
:1724F20090FA20E0FEA3E0FF90FA20EEC39AF0EF9BA3F075820122AD
:0D010000788FE4F27892F27893F27894F21E
:2025090074FE55F14402F5F143F4F053FE0F747F55F84420F5F875FA3BE5FC75FC0B5388D4
:20252900F7D2AB53E8FB439A0875F944742544FA602F90FA25E4F090FA2675F00012326DA2
:2025490090FA2775F000742B12326DA374FA12326DA3E412326D90FA2A75F0007440123201
:202569006D746B44FA602F90FA6BE4F090FA6C75F00012326D90FA6D75F000747112326D72
:20258900A374FA12326DA3E412326D90FA7075F000744002326D22C0E0C0F0C082C083C0CD
:2025A90007C006C005C004C003C002C001C000C0D075D000AFF97891E2FE24FC50030226B5
:2025C900E2EE2E2E9025D1730225EA022610022662BF990280030226E278917401F202267B
:2025E900E2BF99028019788DE2FD08E2FE788D74012DF2E43E08F278917403F20226E27888
:20260900917401F20226E2EF24BF5019788DE2FD08E2FE788D74012DF2E43E08F278917476
:2026290003F20226E27892EFF278927994E2F378937994C3E2F5F0E395F050067893799443
:20264900E2F37894E2600B78917402F275C6A80226E27891E4F20226E27894E2606F90FAB5
:2026690025E0FE90FA26E0FDEEC39DFE7892C3E2F5F0EE95F0504F90FA27E0FCA3E0FDA31F
:20268900E0FE90FA25E0FB90FA2AE0FA8AF0EB84E5F0FB2CFCE43DFD8C828D838EF0EF129F
:2026A900326D90FA25E0FF0F90FA25EFF0E0FF90FA26E0FEEFC39EFF7892E2B507087892D1
:2026C900E4F2789004F27894E2789414F27894E270077893E4F27891F2D0D0D000D001D0CB
:2026E90002D003D004D005D006D007D083D082D0F0D0E032C020C0E0C0F0C082C083C007E3
:20270900C006C005C004C003C002C001C000C0D075D00053E8FB7891E27036788FE2602C4A
:20272900746B44FA601790FA6BE0FF90FA6C75F00012341BFEEFC39EFE7F0080047E007F20
:20274900007893EEF27893E2F5F9806D75F90080687893E2606090FA6BE0FF90FA6CE0FE12
:20276900EFB50602805390FA6DE0FDA3E0FEA3E0FF90FA6CE0FC90FA70E0FB8BF0EC84E583
:20278900F02DFDE43EFE8D828E838FF012341BF5F990FA6CE0FF0F90FA6CEFF075825512F1
:2027A9001D3090FA6CE0F582121D3090FA6BE0F582121D30800375F900D0D0D000D001D06A
:2027C90002D003D004D005D006D007D083D082D0F0D0E0D02032742544FA601790FA25E0B1
:2027E900FF90FA2675F00012341BFEEFC39EFE7F0080047E007F008E82227890E2701378F8
:2028090090E2700E90F0D8E0700875C9A875C95880ED78A17425F20874FAF208E4F27CF5CB
:20282900742544FA602A742544FA601790FA25E0FB90FA2675F00012341BFAEBC39AFA7B29
:202849000080047A007B00EAB40100E433FB80027B01EB60030228F278A1E22402FA08E2D8
:202869003400FB08E2FF8A828B838FF012341BF524A312341BF525A312341BF52678A1E2EC
:202889002401F52808E23400F52908E2F52A852882852983852AF012341BF52778A1E2240D
:2028A90005FA08E23400FB08E2FF8A828B838FF012341BFA8AF0E52784E5F02524FAE435DF
:2028C90025FFAE268A828F838EF012341BFC852882852983852AF012341BFF0F85288285DC
:2028E9002983852AF0EF12326D8C07742544FA602A742544FA601790FA25E0FE90FA2675F0
:20290900F00012341BFDEEC39DFD7E0080047D007E00EDB40100E433FE80027E01EE60040E
:202929007890E4F28F8222122803AE827F00C007C006122803AD82D006D0077C00ED2FF55E
:2029490082EC3EF58322122930AE82AF838F048E057E007F00C007C006C005C004122930B7
:20296900AA82AB83D004D005D006D0078A008B01E4FAFBE82EFEE93FFFEA3DFDEB3C8E8219
:202989008F838DF022E58278A7F278A4746BF20874FAF208E4F2746B44FA7003022A8E7E0A
:2029A9006B7DFA7C00746B44FA604D746B44FA601C90FA6BE0F52190FA6C75F00012341BA6
:2029C900FFE521C39FFF8F227523008005E4F522F52378A8E522F274052EFAE43DFB8C073E
:2029E9008A828B838FF012341BFA78A8E2B5020474018001E4FF80027F01EF6003022A8E36
:202A090078A4E22402FA08E23400FB08E2FF8A828B838FF012341BFAA312341BFBA31234B1
:202A29001B78A4E2F58208E2F58308E2F5F012341BFF78A4E22405FC08E23400FD08E2FE46
:202A49008C828D838EF012341BFC8CF0EF84E5F0FF2AFAE43BFB8A828B838FF078A7E212C7
:202A6900326D78A4E2F58208E2F58308E2F5F012341BFF0F78A4E2F58208E2F58308E2F5E3
:202A8900F0EF12326D7582AA121D3090FA6CE0F582121D3090FA6BE0F582021D30AE82AF77
:202AA900838F0578A9746BF20874FAF208E4F2746B44FA7003022BBC7C6B7BFA7A00746B90
:202AC90044FA605A746B44FA6022C006C00790FA6BE0FF90FA6C75F00012341BFEEFC39EEB
:202AE900FF8F24752500D007D0068005E4F524F525C006C00778ACE524F274052CFCE43BCC
:202B0900FE8A078C828E838FF012341BFC78ACE2B5040474018001E4D007D00680027F01D6
:202B2900EF6003022BBCC006C00778A9E22402FB08E23400FC08E2FF8B828C838FF01234BC
:202B49001BFBA312341BFCA312341B78A9E2F58208E2F58308E2F5F012341BF52478A9E22A
:202B69002405FA08E23400FE08E2FF8A828E838FF012341BFA8AF0E52484E5F0FA2BFBE44D
:202B89003CFC8B828C838FF0ED12326D78A9E2F58208E2F58308E2F5F012341BFF0F78A980
:202BA900E2F58208E2F58308E2F5F0EF12326DD007D0068E0578AD746BF20874FAF208E458
:202BC900F2746B44FA7001227A6B7EFA7F00746B44FA603E746B44FA601790FA6BE0FC90BE
:202BE900FA6C75F00012341BFBECC39BFB7C0080047B007C0074052AFAE43EFE8A828E838F
:202C09008FF012341BFAEBB5020474018001E4FF80027F01EF60012278ADE22402FC08E2CB
:202C29003400FE08E2FF8C828E838FF012341BF526A312341BF527A312341BF52878ADE20E
:202C4900F58208E2F58308E2F5F012341BF52478ADE22405FA08E23400FB08E2FF8A828B86
:202C6900838FF012341BFA8AF0E52484E5F02526FAE43527FFAE288A828F838EF0ED1232EB
:202C89006D78ADE2F58208E2F58308E2F5F012341BFF0F78ADE2F58208E2F58308E2F5F0F1
:202CA900EF02326DAF82AE83ADF0FC78B0EFF208EEF208EDF208ECF278B079B7080808E270
:202CC900F378B4746BF20874FAF208E4F2746B44FA7003022DB97A6B7BFA7F00746B44FA47
:202CE900603E746B44FA601790FA6BE0FE90FA6C75F00012341BFDEEC39DFD7E0080047D43
:202D0900007E0074052AFAE43BFB8A828B838FF012341BFAEDB5020474018001E4FF80027E
:202D29007F01EF6003022DB978B4E22402FD08E23400FE08E2FF8D828E838FF012341BFD9D
:202D4900A312341BFEA312341BFF78B4E2F58208E2F58308E2F5F012341BF52478B4E22403
:202D690005FA08E23400FB08E2FC8A828B838CF012341BFA8AF0E52484E5F0FA2DFDE43E39
:202D8900FE8D828E838FF078B7E212326D78B4E2F58208E2F58308E2F5F012341BFF0F782E
:202DA900B4E2F58208E2F58308E2F5F0EF12326D78B079BB0808E2F378B8746BF20874FA74
:202DC900F208E4F2746B44FA7003022EC27A6B7BFA7F00746B44FA6050746B44FA6026C08F
:202DE90002C003C00790FA6BE0FF90FA6C75F00012341BFBEFC39BFF8F25752600D007D071
:202E090003D0028005E4F525F526AE2574052AFAE43BFB8A828B838FF012341BFAEEB50213
:202E29000474018001E4FF80027F01EF6003022EC278B8E22402FA08E23400FB08E2FF8AA8
:202E4900828B838FF012341BFAA312341BFBA312341BFF78B8E2F58208E2F58308E2F5F043
:202E690012341BF52578B8E22405FC08E23400FD08E2FE8C828D838EF012341BFC8CF0E53A
:202E89002584E5F0FC2AFAE43BFB8A828B838FF078BBE212326D78B8E2F58208E2F583081F
:202EA900E2F5F012341BFF0F78B8E2F58208E2F58308E2F5F0EF12326D78B079BF08E2F33C
:202EC90078BC746BF20874FAF208E4F2746B44FA7003022FCA7A6B7BFA7F00746B44FA60BD
:202EE90050746B44FA6026C002C003C00790FA6BE0FF90FA6C75F00012341BFBEFC39BFFB3
:202F09008F25752600D007D003D0028005E4F525F526AE2574052AFAE43BFB8A828B838F0C
:202F2900F012341BFAEEB5020474018001E4FF80027F01EF6003022FCA78BCE22402FA082E
:202F4900E23400FB08E2FF8A828B838FF012341BFAA312341BFBA312341BFF78BCE2F582EB
:202F690008E2F58308E2F5F012341BF52578BCE22405FC08E23400FD08E2FE8C828D838EB2
:202F8900F012341BFC8CF0E52584E5F0FC2AFAE43BFB8A828B838FF078BFE212326D78BC2B
:202FA900E2F58208E2F58308E2F5F012341BFF0F78BCE2F58208E2F58308E2F5F0EF12321E
:202FC9006D78B079C3E2F378C0746BF20874FAF208E4F2746B44FA7001227A6B7BFA7C006D
:202FE900746B44FA6050746B44FA6026C002C003C00490FA6BE0FC90FA6C75F00012341B82
:20300900FBECC39BFC8C25752600D004D003D0028005E4F525F526AF2574052AFAE43BFB78
:203029008A828B838CF012341BFAEFB5020474018001E4FF80027F01EF60012278C0E22461
:2030490002FB08E23400FC08E2FF8B828C838FF012341BFBA312341BFCA312341B78C0E252
:20306900F58208E2F58308E2F5F012341BFA78C0E22405FD08E23400FE08E2FF8D828E83DF
:203089008FF012341BFD8DF0EA84E5F02BFBE43CFC8B828C838FF078C3E212326D78C0E2C5
:2030A900F58208E2F58308E2F5F012341BFF0F78C0E2F58208E2F58308E2F5F0EF02326D9E
:2030C900746B44FA602A746B44FA601790FA6BE0FF90FA6C75F00012341BFEEFC39EFE7F51
:2030E9000080047E007F00EEB40100E433FF80027F01EF600122C2AF78C47939E3F20809D4
:20310900E3F20809E3F20809E3F2D2AF788F7401F2746B44FA602A746B44FA601790FA6BE6
:20312900E0FF90FA6C75F00012341BFEEFC39EFE7F0080047E007F00EEB40100E433FF8066
:20314900027F01EF704B90F0D8E0704575C9A875C958C2AF783979C4E3F5F0C3E295F0FC84
:2031690009E3F5F008E295F0FD09E3F5F008E295F0FE09E3F5F008E295F0FFC374889C74BD
:20318900139DE49EE49FE433FFD2AFEF700302311A7893E2604890F0D8E0704275C9A87551
:2031A900C958C2AF783979C4E3F5F0C3E295F0FC09E3F5F008E295F0FD09E3F5F008E2950B
:2031C900F0FE09E3F5F008E295F0FFC374889C74139DE49EE49FE433FFD2AFEF60B3788F95
:2031E900E4F222AD82AE83AFF08D828E838FF012341BFC60188C82C007C006C00512298E32
:10320900D005D006D0070DBD00DF0E80DC0230C925
:0600BA00E478FFF6D8FD1A
:20321900AFF0AE83E58278CBF208EEF208EFF278CBE2FA08E2FB08E2FC78C9E2F52408E248
:20323900F525AE24AF25152474FFB524021525EE4F60138A828B838CF078C8E212326DA338
:14325900AA82AB8380DC78CBE2F58208E2F58308E2F5F022BC
:20009800792EE94400601B7A0190344D78B17593FAE493F2A308B800020593D9F4DAF275CE
:0200B80093FFB4
:1B326D0020F71130F6138883A88220F509F6A8837583002280FEF280F5F02260
:20328800AE82E583FF33E433FD6009C3E49EFBE49FFC80048E038F0478D0E230E71078CFE0
:2032A800E2D3F43400FE08E2F43400FF800778CFE2FE08E2FF78D1EEF208EFF28B828C8355
:1D32C800C0051232E5AE82AF83D005ED600AC3E49EF582E49FF583228E828F832250
:2032E500AE82AF837D007C0078D2E2235401FB703578D1E225E0F208E233F278D1C3E2F516
:20330500F0EE95F008E2F5F0EF95F0501478D1E2F5F008E2C313C5F01318F2C5F008F280CD
:20332500050C8C0580C278D1C3E2F5F0EE95F008E2F5F0EF95F0400E78D1D3E29EF4B3FE8C
:20334500B308E29FF4FF78D1E2F5F008E2C313C5F01318F2C5F008F28D041DEC70C88E8206
:033365008F832231
:20336800AE82E583FF33E433FD6009C3E49EFBE49FFC80048E038F0478D4E233E433FF60C0
:203388001078D3E2D3F43400FA08E2F43400FE800778D3E2FA08E2FE78D5EAF208EEF28BB1
:2033A800828C83C007C0051233CDAC82AE83D005D007EF6D600AC3E49CF582E49EF583222F
:0533C8008C828E8322BF
:2000C00078D7E84400600A79007593F0E4F309D8FC78DAE84409600C790A90F0D7E4F0A3D2
:0400E000D8FCD9FA75
:2033CD00AE82AF837C007D007B10EF235401FAEE2EFEEF33FFEC2CFCED33FDEA6003430499
:2033ED000178D5C3E2F5F0EC95F008E2F5F0ED95F0401178D5D3E29CF4B3FCB308E29DF476
:0E340D00FD430601EB14FB70C18E828F8322FB
:02008900E4731E
:0D008B0075812A123437E582600302008679
:1C341B0020F71430F6148883A88220F507E6A88375830022E280F7E49322E022C0
:043437007582002278
:00000001FF
