:0600000002008B02026009
:01000B0032C2
:0100130032BA
:03001B0002205B65
:0100230032AA
:01002B0032A2
:01003300329A
:01003B003292
:01004300328A
:03004B00020BC2E3
:01005300327A
:01005B003272
:01006300326A
:01006B003262
:030073000221B2B5
:01007B003252
:03008300020483F1
:030106000200866E
:030086000201096B
:0301090002010CE4
:20010C0053BEFBE5BE30E6FB75C6A8E5C620E6FB43BE04120B7ED2AF121FC412014943FDD2
:1D012C000143FD02C280C28190F0B37401F075C90890F0B4E0700512168580F52243
:0400E4007803E4F2C7
:2001490090DF0074FFF090DF01E4F090DF0214F090DF03E4F090DF04F090DF05F090DF0788
:200169007406F090DF08E4F090DF0C7499F090DF0DF4F090DF0E03F090DF0F7461F090DFC7
:2001890010747EF090DF117415F090DF127407F090DF137430F090DF1403F090DF1514F06B
:2001A90090DF16746CF090DF1A74B6F090DF1B7411F090DF1C74E9F090DF1D742AF090DFDE
:2001C9001EE4F090DF1F741FF090DF247431F090DF257409F090DF2EE4F090DF177407F088
:2001E90090DF18E4F090DF197491F090DF097426F090DF0A7430F090DF0B7470F090DF064C
:200209007402F090DF2D74C0F0439A01D2A874D544F0602F90F0D5E4F090F0D675F0001255
:200229002D1C90F0D775F00074B5122D1CA374F0122D1CA3E4122D1C90F0DA75F000742095
:20024900022D1C22E582FF24FD40087803EFF27582012275820022C0E0C0F0C082C083C035
:2002690007C006C005C004C003C002C000C0D075D00075C6A890DF3BE0FFBF0D0280030246
:2002890003CFAFD97800E2600302036790DF3AE0FE90F0D5E0FD7C0090F0D6E0FB7A00ED05
:2002A900C39BFDEC9AFCBD2016BC00137864E2FC08E2FD786474012CF2E43D08F28034C0F7
:2002C9000790F0D7E0FBA3E0FCA3E0FD90F0D5E0FA53021F7F00EA2BFBEF3CFC8B828C8368
:2002E9008DF0EE122D1C90F0D5E0FF0F90F0D5EFF0D0077866E2FE90F0D5E0FD7C0090F0F5
:20030900D6E0FB7A00EDC39BFDEC9AFCBD2016BC00137864E2FC08E2FD786474012CF2E429
:200329003D08F28034C00790F0D7E0FBA3E0FCA3E0FD90F0D5E0FA53021F7F00EA2BFBEFB0
:200349003CFC8B828C838DF0EE122D1C90F0D5E0FF0F90F0D5EFF0D00778007402F290F0CC
:20036900D5E0FE7D0090F0D6E0FC7B00EEC39CFEED9BFDBE2016BD00137864E2FD08E2FE60
:20038900786474012DF2E43E08F2803090F0D7E0FCA3E0FDA3E0FE90F0D5E0FB53031F7AC5
:2003A90000EB2CFCEA3DFD8C828D838EF0EF122D1C90F0D5E0FF0F90F0D5EFF07800E278CE
:2003C9000004F202046A90DF3BE0FFBF1302800302046A7802E2FF24F9500302046AEF2F05
:2003E9009003ED73800C801B8077804080318049806F90F1DCE0FEA3E0FF8FD978027401A6
:20040900F2805E90F1DCE0FEA3E0FF8ED97801E2600778027404F280487802E4F2804290CF
:20042900DF00E0F5D978027403F2803590DF01E0F5D978027405F2802890F1DAE0FF04F0B5
:20044900EF24DBF582E434F0F583E0F5D990F1DAE0FF90F1DBE0FEC3EF9E40057802740603
:20046900F2D0D0D000D002D003D004D005D006D007D083D082D0F0D0E032C0E0C007C006A2
:20048900C000C0D075D000539BFCE5E930E70875E10453E97F8023E5E930E6167862E2FE7B
:2004A90008E2FF786274012EF2E43F08F253E9BF8008E5E930E50353E9DFD0D0D000D006F4
:2004C900D007D0E032E582780AF27804E2FD7E000DBD00010E783B740CF208E4F2087460EE
:2004E900F2783E7410F208E4F2087460F27803E2F582C006C005120E0F90F1E875F00012BB
:200509001F13D005D006780A90DF06E2F090F1DBE4F07809E2FCEC70030205E9C005C006C3
:20052900C006C005C00412226BAB82D004D005D006780BEBF21C780CE2FA08E2FEC006C0CE
:2005490005C004C002C003120555800BC002C00690F01075F060221581D002D004D005D06D
:2005690006ECB401009200D006D005780EE2FA08E2FBC006C005C004C003A200E433C0E0DC
:20058900740BC0E074F0C0E07460C0E012059A800BC002C00390F01075F06022AA82E581F1
:2005A90024FCF581D003D004D005D006EA700302051F90F1DBE0FB7A000BBB00010AC3EB97
:2005C90094FFEA6480948050A290F1DBE0FB04F0EB24DBF582E434F0F583780BE2F0808B3F
:2005E9007B007C00C3EB9DEC9E506BEB4C60387805E2F5F008E245F0602DC005C0067805A4
:20060900E2FA08E2FD7E007F008A828D838EF0EFC006C005C004C003120C01D003D004D0E0
:2006290005D006D006D00575C9A875C95878077913E2F308E209F3780AE2F582C006C00583
:20064900C004C003120660D003D004D005D0060BBB00910C808E22AF8290DF0EE0FE90DFB2
:2006690002E0FD90DF04E0FC7868E22401F208E23400F290F1DCE0FAA3E0FB4A601E90DF6E
:200689000EE053E0FCF090DF04E054FC4402F090DF02E4F07801F27802F2801F7813E2F54E
:2006A900F008E245F0600778027402F2800578027405F290F1DBE090DF02F075E10490DF09
:2006C9003BE0FBBB01F890DF06EFF090F1DAE4F075E10390DF3BE0FFBF13F87813E2F5F0C6
:2006E90008E245F06038C0047813E2FA08E2FB7C007F008A828B838CF0EFC006C005C0045B
:20070900120C01D004D005D00690F1DCE0FCA3E0FF4CD004700878027405F243880290F1AC
:20072900DCE0FBA3E0FF4B600578017401F290DF3BE0FFBF130280F690DF3BE0FFBF1603B3
:2007490075E10490DF02EDF090DF0EEEF090DF04ECF022AF82781CE4F2781DF2F50A78156E
:20076900E2F5F008E242F008E242F008E245F06016C2AF781E792CE3F20809E3F20809E381
:20078900F20809E3F2D2AF90F1F975F000C007121F13784174DEF20874F1F208E4F2784417
:2007A90074E2F20874F1F208E4F27803E2F582120EEBD00775E10490DF3BE0FCBC01F890D0
:2007C900DF06EFF07800E4F278A87411F278A97420F208E4F290F0B575F000122CC875C607
:2007E900AB75E10290DF3BE0FFBF0DF87815E2F50B08E2F50C08E2F50D08E2F50E781BE4F6
:20080900F275C9A875C95874D544F0603274D544F0601A90F0D5E0FD90F0D675F000122D2F
:20082900E7FEEDC39EFD8D087509008005E4F508F509AE087822EEB40100E433F28005780F
:20084900227401F27822E260030209D8782374D5F20874F0F208E4F27C0074D544F0602CAD
:2008690074D544F0601790F0D5E0FB90F0D675F000122DE7FAEBC39AFA7B0080047A007B3A
:20088900007826EAB40100E433F2800578267401F27826E260030209337823E22402FA08B9
:2008A900E23400FB08E2FF8A828B838FF0122DE7F50FA3122DE7F510A3122DE7F51178233A
:2008C900E22401F51208E23400F51308E2F5148512828513838514F0122DE7F5087823E28B
:2008E9002405FA08E23400FB08E2FF8A828B838FF0122DE7FA8AF0E50884E5F0250FFAE43F
:200909003510FFAE118A828F838EF0122DE7FC8512828513838514F0122DE7FF0F85128203
:200929008513838514F0EF122D1C781CECF2781BE22401F2781BE2B401067582DD12240583
:20094900781BE2B40300500A781CE2F582122405806790F1DEE0FEA3E0FFC007C006781C19
:20096900E2C0E0120971800BC006C00790F1E275F0002285820A1581D006D00790F1E0E0C9
:20098900FEA3E0FFC007741CC0E074F0C0E07460C0E01209A0800BC006C00790F1E275F0C4
:2009A9000022AE82158115811581D007EE600A781CE2F58212240580C3E50A707A7819E234
:2009C900600D90DF02E0FF781BE2B507028068E50B450C450D450E6049C2AF782C791EE318
:2009E900F5F0C3E295F0FC09E3F5F008E295F0FD09E3F5F008E295F0FE09E3F5F008E29518
:200A0900F0FF7827C3E50B9CE50C9DE50D9EE50E9FE433F2D2AF7827E26007781D74AAF229
:200A29008015786FE2700302080A12226BE5827847F2781D74BBF275E10490DF3BE0FFBFB9
:200A490001F874D544F0602C74D544F0601790F0D5E0FF90F0D675F000122DE7FEEFC39E34
:200A6900FE7F0080047E007F00781AEEB40100E433F28005781A7401F2781AE26003020BCF
:200A89005C782874D5F20874F0F208E4F274D544F0602C74D544F0601790F0D5E0FC90F02C
:200AA900D675F000122DE7FBECC39BFB7C0080047B007C00782BEBB40100E433F28005784C
:200AC9002B7401F2782BE26003020A4B7828E22402FA08E23400FB08E2FC8A828B838CF005
:200AE900122DE7F512A3122DE7F513A3122DE7F5147828E22401FD08E23400FE08E2FF8DE7
:200B0900828E838FF0122DE7F50F7828E22405FA08E23400FB08E2FC8A828B838CF0122D17
:200B2900E7FA8AF0E50F84E5F02512FAE43513FCAB148A828C838BF0122DE78D828E838F81
:200B4900F0122DE7FC0C8D828E838FF0EC122D1C020A4B781DE2700B7866E22401F208E27E
:150B69003400F2781DE2F58222AF83E58290F1DCF0EFA3F022B7
:0A00E800782CE4F208F208F208F2A6
:200B7E00782CE4F208F208F208F2F5E4F5E275E4017830E5E2F27831E5E3F27830E2FE0891
:200B9E00E2FFC3E49E74A09F50E775E40075DB0075DA5D75E544A2DEE43342D8D2B9D2AF77
:200BBE0075E40622C0E0C007C006C005C004C000C0D075D000782CE2FC08E2FD08E2FE08F2
:200BDE00E2FF782C74012CF2E43D08F2E43E08F2E43F08F2D0D0D000D004D005D006D007C5
:200BFE00D0E032AF82AE83ADF0FC7832EFF208EEF208EDF208ECF2C2AF7836792CE3F20819
:200C1E0009E3F20809E3F20809E3F2D2AFC2AF782C7936E3F5F0C3E295F0FA09E3F5F00802
:200C3E00E295F0FB09E3F5F008E295F0FE09E3F5F008E295F0FF783A7932C3E39A09E39B93
:190C5E0009E39E09E39FE433F2D2AF783AE2700875C9A875C95880B522FF
:200C7700AD82AE83AFF00DBD00010E8D828E838FF0E4022D1CC018858118AD82AE83AFF0C2
:200C970074012DFAE43EFB8F048A828B838CF07401122D1C8D828E838FF0E51824FDF8E6F0
:200CB700122D1CD01822C018E581F5182406F581C8E5182404C8A68208A68308A6F0E51824
:200CD7002404F8740126FAE40836FB0886048A828B838CF0122DE7FFBF01005005758200D2
:200CF700804AE51824FBF8A91809E6F70809E6F70809E6F7E5182404F886820886830886B8
:200D1700F0122DE7FFA8180886820886830886F0EF122D1C8A828B838CF0122DE7FF1F8A9A
:200D3700828B838CF0EF122D1C758201851881D01822AD82AE83AFF00DBD00010E8D828EB1
:200D5700838FF0E4022D1CC018858118AD82AE83AFF0E51824FDF8E6122D1C0DBD00010E26
:200D77008D828E838FF07401122D1CE51824FDF8E670057582018003758200D01822C01828
:200D9700858118C082C083C0F0058105810581A81808740126FAE40836FB0886048A828BB4
:200DB700838CF0122DE7FFBF010050057582008041E51824FBF8E5182404F9E6F70809E625
:200DD700F70809E6F7A8180886820886830886F0122DE7FFE5182404F886820886830886CF
:200DF700F0EF122D1C8A828B838CF0E4122D1C758201851881D01822AF82BF0002800CBF70
:200E17000102804ABF0203020EA822783BE2FD08E2FE08E2FF8D828E838FF0748C122D1CF3
:200E3700A3740C122D1C74022DFDE43EFE8D828E838FF074BD122D1CA3740C122D1C783EFE
:200E5700E2F58208E2F58308E2F5F0020C77783BE2FD08E2FE08E2FF8D828E838FF074DF17
:200E7700122D1CA3740F122D1C74022DFDE43EFE8D828E838FF0747D122D1CA37410122D6E
:200E97001C783EE2F58208E2F58308E2F5F0020FC7783BE2FD08E2FE08E2FF8D828E838FF5
:200EB700F0746F122D1CA37412122D1C74022DFDE43EFE8D828E838FF07414122D1CA37410
:200ED70013122D1C783EE2F58208E2F58308E2F5F0021250AF82BF0002800CBF0102804ADF
:200EF700BF0203020F84227841E2FD08E2FE08E2FF8D828E838FF0745E122D1CA3740D12F5
:200F17002D1C74022DFDE43EFE8D828E838FF07495122D1CA3740D122D1C7844E2F5820812
:200F3700E2F58308E2F5F0020D497841E2FD08E2FE08E2FF8D828E838FF07421122D1CA37E
:200F57007411122D1C74022DFDE43EFE8D828E838FF074D6122D1CA37411122D1C7844E275
:200F7700F58208E2F58308E2F5F00211087841E2FD08E2FE08E2FF8D828E838FF0746D129C
:200F97002D1CA37414122D1C74022DFDE43EFE8D828E838FF074E0122D1CA37415122D1CD6
:100FB7007844E2F58208E2F58308E2F5F0021424AA
:200FC700AD82AE83AFF074022DFDE43EFE8D828E838FF07402022D1CC018858118C082C0F3
:200FE70083C0F07E007D007A087C00EE2EFBED33FFEB2BFBEF33FF74022BFBE43FFFE5189B
:2010070024FDF8E6235401FE7D00EBC39EFBEF9DFF8B068F05E51824FDF88607E51824FD1F
:20102700F8EF2FF61ABAFF011CEA4C70BE8D04A8180886820886830886F0EC122D1CA81852
:2010470008740126FAE40836FB0886048E078A828B838CF0EF122D1CA81808740226FDE483
:201067000836FE0886078D828E838FF0E4122D1C851881D01822C018E581F5182404F581A9
:20108700AD82AE83AFF074022DFAE43EFB8F048A828B838CF0E5182404F8122DE7F6E51831
:2010A7002404F8E624FE5005758200804EE51824FBF8A91809E6F70809E6F70809E6F7E56B
:2010C700182404F8E62DFDE43EFE8D828E838FF0122DE7FDA8180886820886830886F0ED93
:2010E700122D1C8A828B838CF0122DE7FF0F8A828B838CF0EF122D1C758201851881D018E6
:2011070022AD82AE83AFF0E4122D1C0DBD00010E8D828E838FF0E4022D1CC01885811805C6
:20112700810581AD82AE83AFF07C007A067B00C005C006C0078C07EF2FFC8AF005F0E518C0
:2011470024FDF8E68002C313D5F0FBFFA8180874035FF6087600A81808B6000C08B6000810
:20116700D007D006D005801CD007D006D005A81808B6010608B60002800FA81808B6030A69
:2011870008B6000675820180400CEA24FEFAEB34FFFB30E79A8D828E838FF0122DE7C45413
:2011A700F02CFB8D828E838FF0122D1C0DBD00010E8D828E838FF0122DE72404FC8D828EB8
:2011C700838FF0122D1C758200851881D01822C018858118C082C083C0F0058105810581CF
:2011E700A81808740126FAE40836FB0886048A828B838CF0122DE7FFBF080050057582000E
:201207008041E51824FBF8E5182404F9E6F70809E6F70809E6F7A8180886820886830886AC
:20122700F0122DE7FFE5182404F886820886830886F0EF122D1C8A828B838CF0E4122D1CBF
:09124700758201851881D018227E
:20125000AD82AE83AFF0E4122D1CA3122D1C74022DFDE43EFE8D828E838FF0E4022D1CC0F4
:2012700018858118C082C083C0F0E51824FDF8E6C4540F2416F582E434F3F583E0FCE4C319
:20129000CC13CC13A2E0CC13CC13CCFBE51824FDF8860253020F7F00EA2416F582EF34F347
:2012B000F583E07E004204EE4203A8180886820886830886F0122DE7FEA3122DE7EEC4547D
:2012D000F0FFE44204EF4203A8180886820886830886F0EC122D1CA3EB122D1CA8180874E6
:2012F0000226FDE40836FE0886078D828E838FF0122DE7240C8D828E838FF0122D1C851878
:2013100081D01822C018858118C082C083C0F0058105810581A81808740226FAE40836FBFA
:201330000886048A828B838CF0122DE7FDBD0800E433FF600DE51824FAF8E67005F5820223
:20135000141EED7005F58202141EE51824FAF8E66057EF6054E51824FBF8E5182404F9E6D3
:20137000F70809E6F70809E6F7A8180886820886830886F0122DE7FF8D067408C39EFE8E0A
:20139000F005F0EF800225E0D5F0FBFEE5182404F886820886830886F0EE122D1C8A828B90
:2013B000838CF0E4122D1C8062E51824FBF8E5182404F9E6F70809E6F70809E6F7A818084A
:2013D00086820886830886F0122DE7FEA3122DE7FFED24F8FD8DF005F08007C3EF13FFEEC9
:2013F00013FED5F0F6E5182404F886820886830886F0EE122D1C8A828B838CF0122DE72434
:20141000F8FF8A828B838CF0122D1C758201851881D01822AD82AE83AFF0E4122D1CA312C1
:201430002D1C74022DFAE43EFB8F048A828B838CF0E4122D1C74032DFAE43EFB8F048A82D7
:201450008B838CF0E4122D1CA3122D1C74052DFDE43EFE8D828E838FF0E4022D1CC01885C7
:201470008118C082C083C0F005810581A8180886820886830886F0122DE7FBA3122DE78BAE
:20149000047B00E51824FDF886027F00EA4203EF4204A8180886820886830886F0EB122DB3
:2014B0001CA3EC122D1CA81808740226FDE40836FE0886078D828E838FF0122DE72408FC13
:2014D0008D828E838FF0122D1C8D828E838FF0122DE7FCBC060050030215D7A8180886826E
:2014F0000886830886F0122DE7FBA3122DE7FC8D828E838FF0122DE724FAFA8AF005F0809B
:2015100007C3EC13FCEB13FBD5F0F6743F5BFC8D828E838FF0122DE724FA8D828E838FF0B6
:20153000122D1C7B00EB2416F582E434F3F583E0FAB5040280060BBB100040E9BB10067546
:2015500082010215DAC005C006C007A81808740326FAE40836FC0886078A828C838FF012F7
:201570002DE7FDA3122DE7FEE5182404F8A605EEC454F0C6C4C666C654F0C66608F67E005D
:20159000E5182404F8E6420308E642068A828C838FF0EB122D1CA3EE122D1CA818087405B0
:2015B00026FDE40836FE0886078D828E838FF0122DE72404FC8D828E838FF0122D1CD00789
:2015D000D006D0050214D9758200851881D01822C018E581F5182404F581AD82AE83AFF05A
:2015F00074052DFAE43EFB8F048A828B838CF0E5182404F8122DE7F6E5182404F8B60800E1
:2016100050057582008068E51824FBF8A91809E6F70809E6F70809E6F774032DFDE43EFE2E
:201630008D828E838FF0122DE7FDA3122DE7FEE5182404F8E624F8FF8FF005F08007C3EE47
:2016500013FEED13FDD5F0F6A8180886820886830886F0ED122D1C8A828B838CF0122DE74E
:1516700024F8FF8A828B838CF0122D1C758201851881D0182239
:102E1C0015313223342526161A192A0B2C0D0E1CAB
:0700F2007847E4F27848F2C0
:2016850012226B121A877847E2600C7847E2F582121A877847E4F22212226B12024DE582FD
:2016A50060087582DD1224058006758211122405022B6212226BAF82C00712225BAE827D83
:2016C5000078AF7402F208E4F28E828D83122D37AD82AE83D0077849EDF2BF01028005BF25
:2016E500021280087CE87EF17F00800E7CF97EF17F0080067C007E007F00EC4E60158C824A
:201705008E838FF0C007C006C004121E7AD004D006D0077A007B00C004C006C0077849E2CF
:20172500FE7F00C3EA9EEB64808FF063F08095F0D007D006D0045053C007C006C004C003FE
:20174500C00212226B784AE582F212226BAD82D002D003D004D006D007EC4E6027784A7918
:2017650058E2F37859EDF28C828E838FF0C007C006C004C003C002121E7ED002D003D004EC
:20178500D006D0070ABA008F0B808C7582DD122405022B6212226BAF82C0071223C6AB82D0
:2017A500AC83ADF0FED0077815EBF208ECF208EDF208EEF278487919E2F38F8212075CE5D2
:2017C50082FE60058E82122405022B627582DD122405902E0775F080022C9B7582DD1224B9
:2017E50005902E0A75F080022C9B12226BAF82C00712226B784BE582F21223A6AC82AD83DE
:20180500C005C0041223A6AA82AB83C003C00212225BAE82D002D003D004D005D007784BD9
:201825007904E2F37805ECF208EDF27807EAF208EBF27809EEF28F821204CE7582DD12246F
:2018450005022B6212226B784CE582F212226BAF82C0071223A6784DE582F208E583F2122F
:20186500226B784FE582F21223C6AA82AC83ADF0FEC006C005C004C00212226BAB82D00216
:20188500C003C0021223A67850E582F208E583F212225B7852E582F2D002D003D004D00560
:2018A500D006D0077804EFF2784D7905E2F308E209F378507907E2F308E209F378527909CC
:2018C500E2F3784CE2F582C006C005C004C003C0021204CED002D003D004D005D0067815A8
:2018E500EAF208ECF208EDF208EEF278487919E2F3784FE2F582C006C005C004C003C00237
:2019050012075CAF82D002D003D004D005D006BFAA5DEB605A78507913E2F308E209F37806
:201925004CE2F582C006C005C004C003C002120660D002D003D004D005D0067815EAF2081C
:20194500ECF208EDF208EEF278487919E2F3784FE2F582C006C005C004C003C00212075C45
:20196500AF82D002D003D004D005D0061B80A0EF60058F82122405022B6212226B121B14C3
:20198500AF827582DDC007122405D0078F82122405022B6212226BAF82C00712226BAE8223
:2019A500D0077857EEF28F82C007121CA2AE82D007BF020578487401F28E82122405022B88
:2019C50062C2AF75C9092212226B12226B7582DD122405022B621223A6120B727582DD129A
:2019E5002405022B6212014975820012024D900000120B727582DD122405022B627582DDE5
:201A0500122405C2AF7853792CE3F20809E3F20809E3F20809E3F2D2AF7853E2F58208E28F
:201A2500F58308E2F5F008E21227277862E2F58208E2F58312250A7864E2F58208E2F583A3
:201A450012250A7866E2F58208E2F58312250A7868E2F58208E2F58312250A786AE2F5824F
:201A650008E2F58312250A786CE2F58208E2F58312250A90000012250A90000012250A023A
:201A85002B62E582FF602CBF0F005027EF75F002A42426F58274F335F0F583E0FEA3E0FF5E
:201AA500C007C0068E828F83120089D006D00775C6AC2212225BE582600512226B80F4753E
:081AC5008222122405022B62AB
:152E07004F4B00737562675F726673707920322E322E3139008E
:1E2E2C000000D117E0179917EF1749189919C619CC197F19B8169D16DB19EA19021AF0
:201ACD00AF82D2A17E048E051EED70FAC2AFC2A17E018E051EED70FA7E01EE601DEE5FB485
:201AED000100B39201E43324FF92A18E05ED2DFE7D008D041DEC60E280F8D2A1D2AF7F0234
:201B0D008F061FEE70FA2212226BE582FF24D15003021C9DEF240A83F582EF243383F5832A
:201B2D00E4738D959DA5ADB5BDC5CDD5DDE5EDF5FD050D151D252D343B424950575E656C50
:201B4D00737A9D9D9D9D81889D9D9D9D9D9D9D8F961B1B1B1B1B1B1B1B1B1B1B1B1B1B1B09
:201B6D001C1C1C1C1C1C1C1C1C1C1C1C1C1C1C1C1C1C1C1C1C1C1C1C1C1C1C1C1C1C1C1CD8
:201B8D0090DF00E0FF021C9F90DF01E0FF021C9F90DF02E0FF021C9F90DF03E0FF021C9F06
:201BAD0090DF04E0FF021C9F90DF05E0FF021C9F90DF06E0FF021C9F90DF07E0FF021C9FD6
:201BCD0090DF08E0FF021C9F90DF09E0FF021C9F90DF0AE0FF021C9F90DF0BE0FF021C9FA6
:201BED0090DF0CE0FF021C9F90DF0DE0FF021C9F90DF0EE0FF021C9F90DF0FE0FF021C9F76
:201C0D0090DF10E0FF021C9F90DF11E0FF021C9F90DF12E0FF021C9F90DF13E0FF021C9F45
:201C2D0090DF14E0FF806B90DF15E0FF806490DF16E0FF805D90DF17E0FF805690DF18E020
:201C4D00FF804F90DF19E0FF804890DF1AE0FF804190DF1BE0FF803A90DF1CE0FF80339081
:201C6D00DF1DE0FF802C90DF1EE0FF802590DF1FE0FF801E90DF24E0FF801790DF25E0FF38
:201C8D00801090DF2DE0FF800990DF2EE0FF80027F5A8F8222AF827EDDEF24D15003021EB6
:201CAD0075EF240A83F582EF243383F583E4731A242E38424C56606A747E88929CA6B0BAE9
:201CCD00C4CED8E2ECF60009121B242D363F4875757575515A75757575757575636C1D1DCA
:201CED001D1D1D1D1D1D1D1D1D1D1D1D1D1D1D1D1D1D1D1D1D1E1E1E1E1E1E1E1E1E1E1E2C
:201D0D001E1E1E1E1E1E1E1E1E1E1E1E1E785790DF00E2F0021E77785790DF01E2F0021E58
:201D2D0077785790DF02E2F0021E77785790DF03E2F0021E77785790DF04E2F0021E7778A9
:201D4D005790DF05E2F0021E77785790DF06E2F0021E77785790DF07E2F0021E7778579088
:201D6D00DF08E2F0021E77785790DF09E2F0021E77785790DF0AE2F0021E77785790DF0B5C
:201D8D00E2F0021E77785790DF0CE2F0021E77785790DF0DE2F0021E77785790DF0EE2F048
:201DAD00021E77785790DF0FE2F0021E77785790DF10E2F0021E77785790DF11E2F0021ED1
:201DCD0077785790DF12E2F0021E77785790DF13E2F0021E77785790DF14E2F0021E7778D9
:201DED005790DF15E2F0021E77785790DF16E2F0021E77785790DF17E2F0806E785790DF82
:201E0D0018E2F08065785790DF19E2F0805C785790DF1AE2F08053785790DF1BE2F0804AEF
:201E2D00785790DF1CE2F08041785790DF1DE2F08038785790DF1EE2F0802F785790DF1F89
:201E4D00E2F08026785790DF24E2F0801D785790DF25E2F08014785790DF2DE2F0800B7823
:201E6D005790DF2EE2F080027E118E8222E4022D1CAFF0AE83E582785AF208EEF208EFF251
:201E8D00785AE2F58208E2F58308E2F5F0122DE7FCBC0700506F785AE22401FA08E2340044
:201EAD00FB08E2FFEC2C2AFCE43BFE8F058C828E838DF07858E2122D1C785AE2F58208E284
:201ECD00F58308E2F5F0122DE725E0FE2AFAE43BFB0ABA00010B8A828B838FF07859E21219
:201EED002D1C785AE2F58208E2F58308E2F5F0122DE7FF0F785AE2F58208E2F58308E2F590
:201F0D00F0EF022D1C22AFF0AE83E582785DF208EEF208EFF2785DE22401FA08E23400FBAA
:201F2D0008E2FC7860E4F208F2C002C003C004785DE2F58208E2F58308E2F5F0122DE7FC3C
:201F4D007D007860C3E29C08E264808DF063F08095F0D004D003D002505C7860E225E0F562
:201F6D001508E233F516E5152AFDE5163BFE8C078D828E838FF0122DE7F517E5152AFDE558
:201F8D00163BFE8C070DBD00010E8D828E838FF07857122DE7F2851782C004C003C002127A
:171FAD001CA2D002D003D0047860E22401F208E23400F2021F36228C
:0D00F900786EE4F27871F27872F27873F2AA
:201FC40074FE55F14402F5F143F4F053FE0F747F55F84420F5F875FA3BE5FC75FC0B53881F
:201FE400F7D2AB53E8FB439A0875F944740A44F2602F90F20AE4F090F20B75F000122D1CAC
:2020040090F20C75F0007410122D1CA374F2122D1CA3E4122D1C90F20F75F0007480122D7B
:202024001C749044F2602F90F290E4F090F29175F000122D1C90F29275F0007496122D1C20
:20204400A374F2122D1CA3E4122D1C90F29575F0007480022D1C22C0E0C0F0C082C083C0C4
:2020640007C006C005C004C003C002C001C000C0D075D000AFF97870E2FE24FC5003022125
:2020840097EE2E2E90208C730220A50220CB02211DBF9902800302219778707401F20221AF
:2020A40097BF99028019786CE2FD08E2FE786C74012DF2E43E08F278707403F202219778D0
:2020C400707401F2022197EF247F5019786CE2FD08E2FE786C74012DF2E43E08F2787074D5
:2020E40003F20221977871EFF278717973E2F378727973C3E2F5F0E395F0500678727973C5
:20210400E2F37873E2600B78707402F275C6A80221977870E4F20221977873E2606990F231
:202124000AE0FE90F20BE0FDEEC39DFE7871C3E2F5F0EE95F0504990F20CE0FCA3E0FDA3F1
:20214400E0FE90F20AE0FB53037F7A00EB2CFCEA3DFD8C828D838EF0EF122D1C90F20AE05E
:20216400FF0F90F20AEFF0E0FF90F20BE0FEEFC39EFF7871E2B507087871E4F2786F04F21E
:202184007873E2787314F27873E270077872E4F27870F2D0D0D000D001D002D003D004D015
:2021A40005D006D007D083D082D0F0D0E032C0E0C0F0C082C083C007C006C005C004C00374
:2021C400C000C0D075D00053E8FB7870E27021786EE2601790F290E0FF90F291E0FEEFC302
:2021E4009E7872F27872E2F5F9805575F90080507872E2604890F290E0FF90F291E0FEEF4F
:20220400B50602803390F292E0FDA3E0FEA3E0FF90F291E0FC53047F7B00EC2DFDEB3EFED9
:202224008D828E838FF0122DE7F5F990F291E0FF0F90F291EFF0800875F900800375F9000D
:20224400D0D0D000D003D004D005D006D007D083D082D0F0D0E03290F20AE0FF90F20BE0C2
:20226400FEEFC39EF58222786FE27013786FE2700E90F0B4E0700875C9A875C95880ED78F3
:2022840075740AF20874F2F208E4F27C00740A44F2602C740A44F2601790F20AE0FB90F247
:2022A4000B75F000122DE7FAEBC39AFA7B0080047A007B007878EAB40100E433F2800578BF
:2022C400787401F27878E260030223617875E22402FA08E23400FB08E2FF8A828B838FF0D6
:2022E400122DE7F521A3122DE7F522A3122DE7F5237875E22401F52508E23400F52608E2AC
:20230400F5278525828526838527F0122DE7F5247875E22405FA08E23400FB08E2FF8A8268
:202324008B838FF0122DE7FA8AF0E52484E5F02521FAE43522FFAE238A828F838EF0122DEA
:20234400E7FC8525828526838527F0122DE7FF0F8525828526838527F0EF122D1C8C077425
:202364000A44F2602C740A44F2601790F20AE0FE90F20B75F000122DE7FDEEC39DFD7E001A
:2023840080047D007E007874EDB40100E433F2800578747401F27874E26004786FE4F28FCD
:2023A400822212226BAE827F00C007C00612226BAD82D006D0077C00ED2FFFEC3E8F82F558
:2023C40083221223A6AE82AF838F048E057E007F00C007C006C005C0041223A6AA82AB83A9
:2023E400D004D005D006D0078A008B01E4FAFBE82EFEE93FFFEA3DFDEB3C8E828F838DF06F
:2024040022E582787CF278797490F20874F2F208E4F2749044F27001227E907DF27C0074EA
:202424009044F2604F749044F2601C90F290E0F52190F29175F000122DE7FFE521C39FFF61
:202444008F227523008005E4F522F523787EE522F274052EFAE43DFB8C078A828B838FF0BF
:20246400122DE7FA787E797DE2B5020474018001E4F38005787D7401F2787DE2600122782F
:2024840079E22402FA08E23400FB08E2FF8A828B838FF0122DE7FAA3122DE7FBA3122DE775
:2024A400FF7879E2F58208E2F58308E2F5F0122DE7F5227879E22405FC08E23400FD08E264
:2024C400FE8C828D838EF0122DE7FC8CF0E52284E5F02AFAE43BFB8A828B838FF0787CE2B3
:2024E400122D1C7879E2F58208E2F58308E2F5F0122DE7FF0F7879E2F58208E2F58308E238
:20250400F5F0EF022D1CAE82AF838F05787F7490F20874F2F208E4F2749044F270030226A2
:202524002F7C907BF27A00749044F2605D749044F26022C006C00790F290E0FF90F29175BC
:20254400F000122DE7FEEFC39EFF8F21752200D007D0068005E4F521F522C006C007788302
:20256400E521F274052CFCE43BFE8A078C828E838FF0122DE7FC78837982E2B50404740146
:202584008001E4F3D007D006800578827401F27882E2600302262FC006C007787FE224022A
:2025A400FA08E23400FB08E2FC8A828B838CF0122DE7F523A3122DE7F524A3122DE7F52585
:2025C400787FE2F58208E2F58308E2F5F0122DE7F521787FE22405FC08E23400FE08E2FF37
:2025E4008C828E838FF0122DE7FC8CF0E52184E5F02523FCE43524FFAE258C828F838EF04B
:20260400ED122D1C787FE2F58208E2F58308E2F5F0122DE7FF0F787FE2F58208E2F58308FF
:20262400E2F5F0EF122D1CD007D0068E0578847490F20874F2F208E4F2749044F270012248
:202644007A907EF27F00749044F26040749044F2601790F290E0FC90F29175F000122DE766
:20266400FBECC39BFB7C0080047B007C0074052AFAE43EFE8A828E838FF0122DE7FA7887A7
:20268400EBB5020474018001E4F2800578877401F27887E26001227884E22402FC08E23457
:2026A40000FE08E2FF8C828E838FF0122DE7F526A3122DE7F527A3122DE7F5287884E2F5B2
:2026C4008208E2F58308E2F5F0122DE7F5237884E22405FA08E23400FB08E2FF8A828B83E8
:2026E4008FF0122DE7FA8AF0E52384E5F02526FAE43527FFAE288A828F838EF0ED122D1C1E
:202704007884E2F58208E2F58308E2F5F0122DE7FF0F7884E2F58208E2F58308E2F5F0EF86
:20272400022D1CAF82AE83ADF0FC7888EFF208EEF208EDF208ECF27888798F080808E2F3C4
:20274400788C7490F20874F2F208E4F2749044F2700302283A7A907BF27F00749044F2609C
:2027640040749044F2601790F290E0FE90F29175F000122DE7FDEEC39DFD7E0080047D000F
:202784007E0074052AFAE43BFB8A828B838FF0122DE7FA7890EDB5020474018001E4F2804B
:2027A4000578907401F27890E2600302283A788CE22402FD08E23400FE08E2FF8D828E83C2
:2027C4008FF0122DE7FDA3122DE7FEA3122DE7FF788CE2F58208E2F58308E2F5F0122DE710
:2027E400F521788CE22405FA08E23400FB08E2FC8A828B838CF0122DE7FA8AF0E52184E518
:20280400F0FA2DFDE43EFE8D828E838FF0788FE2122D1C788CE2F58208E2F58308E2F5F00F
:20282400122DE7FF0F788CE2F58208E2F58308E2F5F0EF122D1C788879940808E2F378918D
:202844007490F20874F2F208E4F2749044F2700302294A7A907BF27F00749044F2605274C8
:202864009044F26026C002C003C00790F290E0FF90F29175F000122DE7FBEFC39BFF8F2235
:20288400752300D007D003D0028005E4F522F523AE2274052AFAE43BFB8A828B838FF01256
:2028A4002DE7FA7895EEB5020474018001E4F2800578957401F27895E2600302294A7891BB
:2028C400E22402FA08E23400FB08E2FF8A828B838FF0122DE7FAA3122DE7FBA3122DE7FFAB
:2028E4007891E2F58208E2F58308E2F5F0122DE7F5227891E22405FC08E23400FD08E2FEF1
:202904008C828D838EF0122DE7FC8CF0E52284E5F0FC2AFAE43BFB8A828B838FF07894E258
:20292400122D1C7891E2F58208E2F58308E2F5F0122DE7FF0F7891E2F58208E2F58308E2C3
:20294400F5F0EF122D1C7888799908E2F378967490F20874F2F208E4F2749044F270030264
:202964002A597A907BF27F00749044F26052749044F26026C002C003C00790F290E0FF9061
:20298400F29175F000122DE7FBEFC39BFF8F22752300D007D003D0028005E4F522F523AED3
:2029A4002274052AFAE43BFB8A828B838FF0122DE7FA789AEEB5020474018001E4F2800575
:2029C400789A7401F2789AE26003022A597896E22402FA08E23400FB08E2FF8A828B838FE3
:2029E400F0122DE7FAA3122DE7FBA3122DE7FF7896E2F58208E2F58308E2F5F0122DE7F584
:202A0400227896E22405FC08E23400FD08E2FE8C828D838EF0122DE7FC8CF0E52284E5F0DE
:202A2400FC2AFAE43BFB8A828B838FF07899E2122D1C7896E2F58208E2F58308E2F5F012C7
:202A44002DE7FF0F7896E2F58208E2F58308E2F5F0EF122D1C7888799EE2F3789B7490F279
:202A64000874F2F208E4F2749044F27001227A907BF27C00749044F26052749044F26026A8
:202A8400C002C003C00490F290E0FC90F29175F000122DE7FBECC39BFC8C22752300D00402
:202AA400D003D0028005E4F522F523AF2274052AFAE43BFB8A828B838CF0122DE7FA789F80
:202AC400EFB5020474018001E4F28005789F7401F2789FE2600122789BE22402FA08E234CA
:202AE40000FB08E2FC8A828B838CF0122DE7FAA3122DE7FBA3122DE7FC789BE2F58208E25C
:202B0400F58308E2F5F0122DE7F522789BE22405FD08E23400FE08E2FF8D828E838FF0125C
:202B24002DE7FD8DF0E52284E5F02AFAE43BFB8A828B838CF0789EE2122D1C789BE2F58210
:202B440008E2F58308E2F5F0122DE7FF0F789BE2F58208E2F58308E2F5F0EF022D1C749031
:202B640044F2602C749044F2601790F290E0FF90F29175F000122DE7FEEFC39EFE7F008004
:202B8400047E007F0078A1EEB40100E433F2800578A17401F278A1E2600122C2AF78A279E4
:202BA4002CE3F20809E3F20809E3F20809E3F2D2AF786E7401F2749044F2602C749044F290
:202BC400601790F290E0FF90F29175F000122DE7FEEFC39EFE7F0080047E007F0078A0EE99
:202BE400B40100E433F2800578A07401F278A0E2704F90F0B4E0704975C9A875C958C2AF9C
:202C0400782C79A2E3F5F0C3E295F0FC09E3F5F008E295F0FD09E3F5F008E295F0FE09E39C
:202C2400F5F008E295F0FF78A6C374889C74139DE49EE49FE433F2D2AF78A6E27003022B71
:202C4400BA7872E2604C90F0B4E0704675C9A875C958C2AF782C79A2E3F5F0C3E295F0FCDA
:202C640009E3F5F008E295F0FD09E3F5F008E295F0FE09E3F5F008E295F0FF78A7C37488B8
:202C84009C74139DE49EE49FE433F2D2AF78A7E260AF786EE4F222AD82AE83AFF08D828E57
:202CA400838FF0122DE7FC60188C82C007C006C005122405D005D006D0070DBD00DF0E8020
:042CC400DC022B62A1
:0600BA00E478FFF6D8FD1A
:202CC800AFF0AE83E58278ABF208EEF208EFF278ABE2FA08E2FB08E2FC78A9E2F52108E202
:202CE800F522AE21AF22152174FFB521021522EE4F60138A828B838CF078A8E2122D1CA317
:142D0800AA82AB8380DC78ABE2F58208E2F58308E2F5F02232
:20009800792EE94400601B7A01902E1C78167593F3E493F2A308B800020593D9F4DAF275A7
:0200B80093FFB4
:1B2D1C0020F71130F6138883A88220F509F6A8837583002280FEF280F5F022B6
:202D3700AE82E583FF33E433FD6009C3E49EFBE49FFC80048E038F0478B0E233E433FF601B
:202D57001078AFE2D3F43400FA08E2F43400FE800778AFE2FA08E2FE78B1EAF208EEF28B54
:202D7700828C83C007C005122D9CAC82AE83D005D007EF6D600AC3E49CF582E49EF583229D
:052D97008C828E8322F6
:2000C00078B3E84400600A79007593F0E4F309D8FC7863E84402600C790390F0B3E4F0A39F
:0400E000D8FCD9FA75
:202D9C00AE82AF837C007D007B10EF235401FAEE2EFEEF33FFEC2CFCED33FDEA60034304D0
:202DBC000178B1C3E2F5F0EC95F008E2F5F0ED95F0401178B1D3E29CF4B3FCB308E29DF4F5
:0B2DDC00FD430601DBC48E828F8322C2
:02008900E4731E
:0D008B00758128122E03E5826003020086B5
:1C2DE70020F71430F6148883A88220F507E6A88375830022E280F7E49322E022FB
:042E030075820022B2
:00000001FF
