:020000040000fa
:100000000200d2021003000000000002100b0000ea
:10001000000000021013000000000002101b00008e
:10002000000000021023000000000002102b00005e
:10003000000000021033000000000002103b00002e
:10004000000000021043000000000002104b0000fe
:10005000000000021053000000000002105b0000ce
:10006000000000021063000000000002106b00009e
:10007000000000021073000000000002107b00006e
:10008000000000021083000000000002108b00003e
:10009000000000020db8e490000278a4790180020b
:1000a000f0a3d8fcd9fa7aa57b009000e47809790e
:1000b000018015e493a3ad82ae838a828b83f0a383
:1000c000aa82ab838d828e83d8e9d9e71203b1125d
:1000d0000dd775d00075813f751c8075931e5392a6
:1000e000fe0200960010000000000200bb0102e7c3
:1000f00022c0925392fec082c08389828a83bb0051
:1001000003e08002e493d083d082d09222bb00151a
:10011000c0925392fec082c0838a838982f0d083ca
:10012000d082d09222bb0101f722cac0e0e6f309d7
:1001300008dafad0e0fa22cac0e0e0f208a3dafa5c
:10014000d0e0fa22600c08c6c313c618c613c6d581
:10015000e0f422700422600d18c6c333c608c6330b
:10016000c6d5e0f41822e4735392fed083d08225e2
:100170001cf8c51cc39824fbcef208e520f208e960
:10018000c0e07908e709f208defad0e0f9eff208fa
:10019000d0e0fed0e0f208eef208e473a81ce2fe24
:1001a00008e208f520e9c0e07908e208f709dffa7b
:1001b000e208ffd0e0f9e208c0e0e208c0e0881cf5
:1001c0005392fe22e584f208e585f222e208f584e6
:1001d000e2f585227403800474028000c9c0e0e562
:1001e0001cc399f51cc912012ad0e0f922740380be
:1001f00000c8c0e0e51cc398f51cc8120137d0e068
:10020000f82275bc0075bc005392fe22800f8a82d2
:100210008b835392fee0f5bda3aa82ab83ecf8ed8d
:10022000f9e824ff1ce934fffde84970e15392fe30
:1002300022e5bdf9e5bcfae9fb5392fe227400f514
:10024000d374022408f5d25392fe22a2afe433f80d
:10025000c2af5392fe906270e0a2e740f5e9c3336b
:10026000906272f0906270e0d2e0f0e0a2e740fbb2
:10027000e8a2e092af2274fa120168a2af33f8c28a
:10028000afed900002f0eca3f0a37462f0a37473de
:10029000f0a3e4f0e9a3f0a37412f0a37442f0eb2e
:1002a000906272f0ea906271f07400f5d575d40234
:1002b00075d601906270e0d2e1f0e0a2e740fbe881
:1002c000a2e092af7f0102019c5392fe906276e021
:1002d00075c6807480659e70fa9062707408f02212
:1002e000c008c0098908750900740b780812015309
:1002f000fae5094480fbd009d0085392fe2274f736
:10030000120168909093e064bf7063e5c7f508122e
:10031000020275c7007c937d007a007b9012020c6c
:100320007c5d7d077aa37b9012020c909094e01480
:10033000f5097f00801674032ffef91202e0eec467
:10034000540ff5c77c007d0812020c0fefc395090e
:1003500040e48508c71202318a088b09a808a90958
:10036000909095e0687003a3e069703e8038e5c71f
:10037000f5087fa57e02eef91202e08a828b83eef9
:10038000c4540ff5c778007908e02fffa3e824ffd5
:1003900018e934fff9e84970f00eeec3943040d606
:1003a0008508c7ef70047901800279007f0402019b
:1003b0009c5392fe900001e090001af0e59d5418c5
:1003c00064107005e0a2e04035e5c7f8790075c714
:1003d00000909000e0640270010988c7e9a2e05033
:1003e0001d1202fee960179000017403f00592905f
:1003f00000a5e0f582a3e0f58305921201661202e2
:10040000c9900001e4f012023d12069e1206ce12bf
:10041000071e80fb74f8120168151c151ca81c121d
:1004200001c490620ee0fee4f0906211e0ffa2e4ed
:1004300050197480f09000227407f01206276006ad
:10044000120643120166900022e4f0efa2e2500b84
:10045000906211e4f0900022f08060900022e0f8b9
:100460007402687042906216e0ff9000391201ed4c
:10047000eff97a207b621206da051c051c051c8f39
:100480000890003c12061c12060f2f1206321206ac
:100490002a6004744080027448906211f0e8496058
:1004a000030205fc0205df7406687006120643129b
:1004b0000166900022e06003020589efa2e040039c
:1004c0000205fc750831750900750a0078081201eb
:1004d000d479087a207b621206da051c051c051cfb
:1004e00090003ee4f0a3f0900031e054e0600e2470
:1004f000e0606a24a0604024e06071807ea3e01484
:10050000602624fe601d24fe600a24fc601f24fe79
:1005100060208067120a9f900022e0640470647477
:10052000608062120a9980ef120a9380ea120bcf60
:1005300080e5120d0680e0a3e0600e24fa600f242f
:10054000fe601024fe601180321208cf80c9120aaa
:10055000e780c4120ba980bf120ca880ba90003e9d
:100560007446f0a37407f012074680ab90003e7407
:100570001df0a37408f012081d809c9000227404e2
:10058000f0809c7440906211f0900022e0f87401b9
:1005900068705e7f0290003ce0f8a3e0f9c3e89445
:1005a00020e994005007e8f50a7f0a8003750a20c5
:1005b0009000391201eda90a7a207b621206f30538
:1005c0001c051c051c850a0812060f250812063298
:1005d00012061cef906211f0e50ac39420501d1220
:1005e00006276006120643120166900022e4f0809e
:1005f0000b7405687006120643120166ee90620ed7
:10060000f0a81c1201cc051c051c7f0302019c9064
:100610000039e0f9a3e0faa3e0fbe922c3e0950882
:10062000f0a3e09400f02290003ee0f8a3e0f9e8a7
:100630004922f9e43afa900039e9f0a3eaf0a3eb91
:10064000f0a322059290003ee0f582a3e0f5830539
:100650009222c008c0097800742328f582e434008f
:10066000f583e95392fef008e8c3940540ea780068
:10067000742828f582e43400f583e9f008e8c3948f
:100680000540edd009d008225392fe90001b740261
:10069000f0a3e4f0900022f0790312065222c00881
:1006a000c00975082175090078081201d87c007d01
:1006b000007a407b00120ddb051c051c90001b74aa
:1006c00002f090620f04f0e0a2e750fb80b553f413
:1006d000fed29043fe015392fe2212070c6010538b
:1006e00092fee012010de9240109e43afadcf0532c
:1006f00092fe2212070c60101200ec5392fef0e9f9
:10070000240109e43afadcf05392fe228a828b83b8
:10071000e9fca81ce2f908e2fa08e2fbec22eec0d0
:10072000e05392fe906206e0f8906202e0fe906272
:1007300004e0e8a2e25003120688eea2e0500312a1
:100740000414d0e0fe2274f7120168900032e070c9
:100750000302080214600302081290001a7401f0e8
:10076000900022e0f87038900037e0f8a3e0f9e854
:1007700049700d9000ab7402f0900022e40208175b
:100780009000397461f0a37400f0a3e4f0a3e8f0e2
:10079000a3e9f09000227402f09000ab048078741a
:1007a0000268706e900033e02440f508a3e0340046
:1007b000f509c39408400c900022e4f09000ab745b
:1007c0000a8054e508541f701285080a85090b74c5
:1007d00005780a120144a90a12024b900037e0245e
:1007e0000354fcf97c617d0074047808120153aa5b
:1007f00008ab09120276900022e4f09000ab740579
:10080000801590001a7402f0900022e4f075c90877
:1008100080069000227404f07f0402019c5392fe33
:10082000900032e06403701a90003974a7f0a3744a
:1008300000f0a3e4f0a37406f0a3e4f09000220417
:10084000f02280009000227404f0225392fe900067
:10085000a1e4f0a3740ff02274fa120168151c15bc
:100860001ca81c1201c4eafcebf87a007b0008808b
:1008700038e8604d05929000a1e0fda3e0f5838d7e
:1008800082a3e493fdec6d6034e96d70099000a1e2
:10089000e0faa3e0fb189000a1e02efea3e03400f4
:1008a000ff9000a1eef0a3eff09000a1e0f584a38b
:1008b000e0f585e4059293fe70b7e860047a007b6a
:1008c00000a81c1201cc051c051c7f0102019cc064
:1008d00008120c9a60030209a7a3e0f8a3e06003e2
:1008e0000209a7a3e064027002a3e060030209a763
:1008f000900031e02480600914604f14605c0209ac
:10090000a7e860030209a790002ee0600478018048
:100910000278009000a3e8f0a3e4f090002de060de
:100920000a9000a3e04402f0a3e4f0900022e06407
:1009300004601490003974a3f0a37400f0a3e4f0f1
:10094000a37402120cfdf0d0082290001be0640496
:1009500070559000a3e4f0a380d0e8547ff5089090
:10096000001be064047040e508c394065039741b12
:100970002508f582e43400f583e854806018a3a3c9
:10098000a3a3a3a3a3e0640370047801800278000a
:100990009000a3e88091e582240cf5825002058343
:1009a000e0640370e980e39000227404809874f995
:1009b000120168151c151ca81c1201c4e9fa90004c
:1009c00037120ca06003020a7d90001be0640460f3
:1009d0000b900035120ca06003020a7d900031e0fc
:1009e000541f6009146023146012020a7d900033c2
:1009f000e064017015ea90002d020a82900035e053
:100a0000547ff508900033e0600479008077e508b2
:100a1000c394065068e50890620ef0741b2508f533
:100a200084e43400f585900035e054806021ea606c
:100a300004741080027440906211f0ea6004740340
:100a40008001e40592a3a3a3a3a3a3a3f08025eab6
:100a50006004742080027480906214f0ea60047470
:100a6000038001e4c0e0e584240cf582e43585f5db
:100a700083d0e0f05392fe90620ee4800590002255
:100a80007404f07901a81c1201cc051c051c7f021e
:100a900002019c79001209ae2279011209ae22539b
:100aa00092fe900035120ca07018a3120ca07012c8
:100ab000900033e0f8a3e0f9e85480fae9fbea4b50
:100ac0006002801ce8906200f090001b6009e06406
:100ad00002700c7403f022e0640370037402f022cd
:100ae0009000227404f02274f812016812084b90ee
:100af0000033e0faa3e0f914600814600d146031cb
:100b000080377b007a0079018033eafb7a00790232
:100b1000120858120b94e92402f9e43afa89828afd
:100b200083e493f8740193f990003ce8f0a3e98022
:100b30001ceafb7a00790380047b007a00120858d3
:100b4000120b94a37b801200eca3f0a3e4f09000be
:100b500039e0fca3e0fda3e0feec4d4e90002270d6
:100b60000474048029e064046025900037e0faa34f
:100b7000e0fb90003ce0f8a3e0f9c3ea98eb995061
:100b80000890003ceaf0a3ebf09000227401f07fa3
:100b90000302019c900039eaf0a3ebf0a37480f00b
:100ba000900039e0f9a3e0fa22120c9a7010a31217
:100bb0000ca0700aa3e064017002a3e06003020ac3
:100bc000e0900039741cf0a37400120cf3f022744e
:100bd000f812016890001be064027003020c81901f
:100be0000035120ca06003020c81a3120ca060035c
:100bf000020c81900034e06003020c8112084b90db
:100c00000033e07003020c897b007a00790212083d
:100c1000588a088b09ae08af09ee4f606490003324
:100c2000e0f88e828f83a3a3a3a3a3e493c0e0e89c
:100c3000fad0e06a70d290001b7404f0e8a3f0755b
:100c40000a008e828f83a3a3a3a3e493f8e50ac3cb
:100c5000985044850a08741d2508f582e43400f58f
:100c600083e4f07b007a0079041208588a828b832f
:100c7000e58245836007a3a3a3e49370e6050a8099
:100c8000c19000227404f0800e90001cf090001bb4
:100c90007403f0f9120652020b8f5392fe90003348
:100ca000e0f8a3e0f9e8492274f812016890001b0b
:100cb000e064047019900031e064817011120c9da1
:100cc000700c900037e064017002a3e060079000b0
:100cd000227404801a900035e0241df508a3e03446
:100ce00000f509900039e508f0a3e509120cf3f0ce
:100cf000020b8ff0a3e4f0a304120cfd22f0a3e496
:100d0000f0900022042274f9120168151c151ca829
:100d10001c1201c490001be064046003020dab9040
:100d20000031e064016003020dab900037120ca0ab
:100d3000707912084b7b007a0079021208588a8277
:100d40008b83e5824583600fa3a3a3a3a3e493f859
:100d500090001ce06870de7b007a0279041208586b
:100d60008a828b83e582458360410592900033e05f
:100d7000f8a3e0f9900035e0faa3e0fb85828485d2
:100d80008385a3a3e493fcea6c7001eb600d0592ec
:100d9000a3a3a3e493fce86c4970bc741d2af582fc
:100da00074003bf583e85392fe80059000227404a2
:100db000f0020a855392fe2274fa120168151c157e
:100dc0001ceafeebffa81ceef208eff2aa1cab93a4
:100dd0007901120db480ee1200932274fa120168a8
:100de000e51c2406f8e2fe08e2ffee4f6014ecf882
:100df0008a828b83e8f0a3ee24ff1eef34ffff4ec0
:100e000070f27f0102019cffffffffffffffffff6a
:100e1000ffffffffffffffffffffffffffffffffe2
:100e2000ffffffffffffffffffffffffffffffffd2
:100e3000ffffffffffffffffffffffffffffffffc2
:100e4000ffffffffffffffffffffffffffffffffb2
:100e5000ffffffffffffffffffffffffffffffffa2
:100e6000ffffffffffffffffffffffffffffffff92
:100e7000ffffffffffffffffffffffffffffffff82
:100e8000ffffffffffffffffffffffffffffffff72
:100e9000ffffffffffffffffffffffffffffffff62
:100ea000ffffffffffffffffffffffffffffffff52
:100eb000ffffffffffffffffffffffffffffffff42
:100ec000ffffffffffffffffffffffffffffffff32
:100ed000ffffffffffffffffffffffffffffffff22
:100ee000ffffffffffffffffffffffffffffffff12
:100ef000ffffffffffffffffffffffffffffffff02
:100f000012010002000000205824feff0000010230
:100f1000030109021b0001010480250904000000ef
:100f2000fe01020409210d03e84000010104030948
:100f300004120342006c00750065006700690067d9
:100f400000610016034c006f007700200045006e22
:100f50000065007200670079000a03310032003337
:100f6000003400080344004600550000ffffffff67
:100f7000ffffffffffffffffffffffffffffffff81
:100f8000ffffffffffffffffffffffffffffffff71
:100f9000ffffffffffffffffffffffffffffffff61
:100fa000ffffffffffffffffffffffffffffffff51
:100fb000ffffffffffffffffffffffffffffffff41
:100fc000ffffffffffffffffffffffffffffffff31
:100fd000ffffffffffffffffffffffffffffffff21
:100fe000ffffffffffffffffffffffffffffffff11
:100ff000ffffffffffffffffffffffffffffffff01
:10100000021108023164ffffffffff023d54ffffa2
:10101000ffffff023e03ffffffffff023ebaffff9d
:10102000ffffff0225e8ffffffffff023b1affff64
:10103000ffffffffffffffffffffff023e5affff23
:10104000ffffff023ddeffffffffffffffffffff90
:10105000ffffff02314affffffffffffffffffff20
:10106000ffffffffffffffffffffff023c91ffffbe
:10107000ffffff023f2cffffffffff023d14ffffba
:10108000ffffff02316fffffffffffffffffffffcb
:10109000ffffffbf2c1f64000000000000000000e5
:1010a00000008275823e7583ef7402121123e47989
:1010b000347802b800028004f709d8fce4900302f7
:1010c000785d79068002f0a3d8fcd9fa7a5e7b08b5
:1010d000901144786779028015e493a3ad82ae83c2
:1010e0008a828b83f0a3aa82ab838d828e83d8e918
:1010f000d9e77582fe7583fe74011211237582f2a1
:101100007583ff740112112375d00075813f75310d
:1011100000753202753303759f007593005392fe7c
:101120000210aec09ff59fe473d09f225392fed071
:1011300083d082c09fe493c0e0740193c0e0740246
:1011400093f59f220300000201020300000f00c379
:10115000a88ee8b19dcf7f5eb98b9f41efb055f46b
:1011600001fa00960064004b0032001e001400d605
:10117000be898e000106021213151429417671fff3
:10118000c1fbe84c90728be7b3518963ab23230218
:10119000841872aa612f3b51a8e53749fbc9ca0cd4
:1011a00018532cfd45e37102000040420f0000403f
:1011b0000000fffffffffaffffff0000800062005a
:1011c0000000ff7f0000050006000700000001008e
:1011d0000100000100010202030002000000000003
:1011e000020201000219000000093d0000e4ffffb7
:1011f000fffb349b5f8000008000100000000000b7
:101200000002000000ff00000000000805010000cf
:1012100000000001080500000000000007030000b6
:1012200000800001000080000004000000000007b2
:10123000090000000d00000104070000000000028a
:1012400001000002020000070a321b381b3e1b444b
:101250001b4a1b501bba1adc1cbe1c421d2a1d3027
:101260001d800004058000040606000000800004c4
:101270000280000404800002000b000000800006d1
:10128000004217d013761954143c1de21cf81b4879
:101290001db41ace0601ffffff0000000080ffff13
:1012a000ffff00000000c000000012112c02c40269
:1012b00012112c1ac40212112c45c40212112c92c4
:1012c000c40212112caac40212112cd2c40212118f
:1012d0002c22c50212112c52c50212112cb3c502c8
:1012e00012112ccfc50212112cebc50212112c10b9
:1012f000c60212112c69c60212112cf8ca02121170
:101300002caccb0212112c6aeb0212112c82eb02d4
:1013100012112cf3eb0212112c36ec0212112c7468
:10132000d70212112c08d80212112c7ed8021211e9
:101330002c94d80212112cc0d80212112cd5d8022c
:1013400012112c2ed90212112c4fd90212112cadd0
:10135000d90212112cf2d90212112c63da021211e5
:101360002c8eda0212112c12db0212112c41db023c
:1013700012112c60db0212112c74db0212112cb939
:10138000db0212112c07dc0212112cbad20212114c
:101390002cd6d20212112c0cd30212112c1ad30209
:1013a00012112c4bd30212112c78d30212112c8162
:1013b000d30212112cc4d30212112c4ad4021211de
:1013c0002cb7d40212112c08d50212112c37d502d9
:1013d00012112c8bd50212112c5dd60212112c6821
:1013e000d60212112c9bd60212112cccd60212114d
:1013f0002c1dd70212112c5ad70212112ce6ed0225
:1014000012112c06ee0212112c2fee0212112cf9e1
:10141000ec0212112c0ded0212112c67ed021211cb
:101420002c19ef0212112c617f0012112c8e7f00fb
:1014300012112caab00212112c17b10212112c5d3c
:10144000b10212112c86b10212112c92b1021211aa
:101450002cb5b10212112cf9b10212112c40b202ba
:1014600012112c9eb20212112cf1b30212112cc7d0
:10147000b40212112c6eb50212112c94b502121185
:101480002cd8b50212112c71b60212112c86b6029c
:1014900012112cc4b60212112ce4b60212112c4601
:1014a000b70212112c59b70212112c69b70212118e
:1014b0002c58b80212112c68b90212112cdab90298
:1014c00012112c8eba0212112c00800112112ca6be
:1014d000810112112c2a820112112c7e830112111a
:1014e0002ced830112112c27840112112cf184019f
:1014f00012112c72850112112c5a860112112c6bbb
:10150000870112112c5d880112112c97890112118b
:101510002cf0890112112c588a0112112cd58a0144
:1015200012112c768b0112112ce88b0112112c81d7
:101530008c0112112ce78c0112112c558d01121106
:101540002caa8d0112112c328e0112112ce88e0161
:1015500012112c9e8f0112112c60910112112c8ef0
:10156000930112112cd5930112112c5194011211d7
:101570002cba940112112c08950112112cb4960169
:1015800012112c54970112112ce0970112112c21e9
:10159000980112112ca2990112112c039a01121117
:1015a0002c179b0112112c0d9c0112112c3c9d013a
:1015b00012112c779e0112112c4fa00112112c0533
:1015c000a30112112ca3a30112112c4fa40112117b
:1015d0002c40a50112112cb3a50112112c1faa0138
:1015e00012112ca1ac0112112c6fad0112112cc1e2
:1015f000af0112112ce1b00112112c0ab20112112b
:101600002c21b20112112c3bdf0212112c7adf02c5
:1016100012112ca7df0212112cd4df0212112cc1df
:10162000e00212112c98e10212112c4f7e001211cf
:101630002ca87e0012112c097f0012112c0a4000e8
:1016400012112c28400012112c45400012112c625e
:10165000400012112c8a410012112cf84100121185
:101660002c10440012112c76440012112cff44005f
:1016700012112c3f450012112c73450012112cb58c
:10168000450012112c23460012112cd146001211d4
:101690002cdf460012112c1a480012112c504a005f
:1016a00012112cd64a0012112c0a4b0012112c4e8a
:1016b0004c0012112c774d0012112c974d00121175
:1016c0002cbe4d0012112cfa4d0012112c2d4e0083
:1016d00012112c3b520012112c63520012112caf2c
:1016e000520012112c29590012112c755900121197
:1016f0002cb6590012112c625a0012112c295b00d1
:1017000012112cb65d0012112c235f0012112c93c4
:101710005f0012112cd0610012112c4762001211cf
:101720002c8b620012112cd7620012112c2f630037
:1017300012112cd0630012112c1a640012112c7596
:10174000640012112c7f640012112cb66500121176
:101750002c5e660012112ce4660012112c3f67000b
:1017600012112cff670012112ca0680012112c3de1
:101770006a0012112c5e6a0012112c986c00121172
:101780002cca6d0012112c6f6e0012112cd06e003d
:1017900012112ca96f0012112caa700012112ca288
:1017a000710012112cb3710012112cbd71001211b5
:1017b0002cba730012112c17740012112c467400ed
:1017c00012112cad740012112cdc740012112c6f4c
:1017d000750012112c03760012112c647600121180
:1017e0002cda760012112c10770012112c4577009c
:1017f00012112c64770012112cbd770012112cd716
:10180000770012112c04780012112c12780012119a
:101810002c3b780012112caa780012112cf5e7024b
:1018200012112cb1e80212112cd3e80212112c1e55
:10183000e90212112c61e90212112cfbee021211c5
:101840002c1ce30112112c48e30112112c90e3012e
:1018500012112cece30112112c4de40112112c1287
:10186000e50112112c2de60112112cbfe701121116
:101870002c68eb0112112c46ed0112112c48f001dd
:1018800012112c8cf00112112c78f10112112c7d07
:10189000f20112112cf7f30112112c6cf401121148
:1018a0002c96f50112112c0ddc0212112c39dc02e0
:1018b00012112c50dc0212112c54dc0212112ceeed
:1018c000dc0212112ca2de0212112c008002121175
:1018d0002c66800212112c83800212112cb080021f
:1018e00012112cdc800212112c10810212112c5fbb
:1018f000810212112c8e810212112cf1810212111f
:101900002c4e820212112c1c830212112c9683027f
:1019100012112c37850212112cef850212112c8224
:10192000880212112c098c0212112c4d8c021211fa
:101930002ca68c0212112c5c8d0212112c278f0206
:1019400012112cb78f0212112cf88f0212112c4e8b
:10195000900212112ca6900212112ccb900212119f
:101960002c1e910212112c5f910212112cda92029c
:1019700012112cfb930212112c0c940212112ca5a3
:10198000950212112cbb950212112ce39502121133
:101990002c85960212112c9a960212112ccc9602ca
:1019a00012112cd2970212112c69980212112c9f3d
:1019b000980212112ce7980212112cdb99021211d5
:1019c0002c369a0212112c1d9b0212112c909b0294
:1019d00012112cd49b0212112cba9c0212112c222f
:1019e0009f0212112c529f0212112cd29f0212112f
:1019f0002c3ba00212112cb3e90212112cc0e902f7
:101a000012112ce3e90212112c26eb0212112c33d5
:101a1000eb0212112c61eb0212112c7079001211e1
:101a20002c8f790012112c5a7a0012112c007c0094
:101a300012112c5e7c0012112cb37d0012112c1c93
:101a40007e0012112c64ec0212112c92ec02121185
:101a50002cbcec0212112cdee10212112c67e20206
:101a600012112c99e20212112c09e30212112cab73
:101a7000e30212112cd9e30212112c97ee0212117b
:101a80002ca3ee0212112c2cb90112112c82b901d7
:101a900012112c4bba0112112c5ebc0112112cfc3c
:101aa000bd0112112cc2be0112112cd2bf011211a4
:101ab0002c72c00112112cefc00112112ca5c10112
:101ac00012112c0dc40112112c8dc40112112cf114
:101ad000c40112112c9bc50112112c9bc6011211bd
:101ae0002ca0c70112112c2fcc0112112c80ce0179
:101af00012112c37d10112112ce8d30112112ce64e
:101b0000d60112112cf0d80112112c92db01121106
:101b10002c36e00112112c8ce10112112c1be20178
:101b200012112ca5e20112112cf9e20112112c174d
:101b3000e60212112c95e60212112cabe6021211ec
:101b40002cc1e60212112cd7e60212112cf8e60283
:101b500012112c0ee70212112c24e70212112cb8dc
:101b6000f50112112c48f60112112ccbf6011211bd
:101b70002cf1f60112112cbdf70112112c73f80192
:101b800012112cb3f80112112c39f90112112cabde
:101b9000f90112112c0dfa0112112c8afa011211fd
:101ba0002c9dfa0112112cb1fa0112112ce6fa0146
:101bb00012112c18fb0112112c4afb0112112c904e
:101bc000fb0112112cd0fb0112112c24fc0112116b
:101bd0002c33fc0112112c3cfc0112112ccffc0106
:101be00012112c06fe0112112cc8cb0212112cd797
:101bf000cb0212112cd5cc0212112ce7cc021211ff
:101c00002c85ce0212112c3acf0212112ca3cf0236
:101c100012112cbccf0212112cd2cf0212112c0c9b
:101c2000d00212112c4fd00212112c99d002121195
:101c30002ce2d00212112cadd10212112cbbd10218
:101c400012112cc3d10212112cebd10212112c044f
:101c5000d20212112c29d20212112c3cd2021211e2
:101c60002c5cd20212112c6cd20212112c7ed202e8
:101c700012112c8cd20212112c9ad20212112caaff
:101c8000d20212112c28fe0112112c55fe01121144
:101c90002c4ca00212112c70a00212112c85a00253
:101ca00012112c23a10212112c49a10212112c7c19
:101cb000a10212112ce9ad0212112c1bae0212115d
:101cc0002c22b00212112c2ae40212112c8ce402f4
:101cd00012112cb0e40212112cffe40212112c5349
:101ce000e50212112cf4e50212112c0de60212117c
:101cf0002cc4bb0212112ce1bb0212112cf1bc024c
:101d000012112c50bd0212112cf8bd0212112c77a9
:101d1000bf0212112c23c00212112c71c002121129
:101d20002cd6c00212112c3cc10212112c8ec10201
:101d300012112c1ac20212112c95c20212112c6e11
:101d4000c30212112c30ef0212112c34ef021211c7
:101d50002c36ef0212112c3cef0212112ca31000b2
:101d600012112c79ed0212112c44ee0212112ccc1e
:101d7000ee02e066701008a3e066700a08a3e06651
:101d8000700408a3e06622c3e7960809e7960809ed
:101d9000e7960809e796a2d265d03322c3e09608f9
:101da000a3e09608a3e09608a3e096a2d265d033fc
:101db00022c021c3e096f52108a3e096422108a3a2
:101dc000e096422108a3e0964221a2d265d033e5f5
:101dd000217001d3d02122c3e7960809e7960809ac
:101de000e7960809e79622c3e09608a3e09608a3c1
:101df000e09608a3e09622c021c3e096f52108a34f
:101e0000e096422108a3e096422108a3e0964521ee
:101e10007001d3d02122080808eac0e0ebc0e086b8
:101e2000f0e7a4fa180986f0e7a42afa180986f060
:101e3000e7a42afa180986f0e7a42afa1986f0e737
:101e4000a4fbe5f02afa190886f0e7a42bfbe5f0dd
:101e50003afa190886f0e7a42bfbe5f03afa1818cd
:101e60000986f0e7a4c5f02bfbe43afa1908e7c5a8
:101e7000f0c6a426f6e5f03bfbe43afa1886f0e754
:101e8000a4f6e5f00826f6e43b08f6e43a08f6d0b6
:101e9000e0fbd0e0fa22e4cfc0e0e4cec0e0e4cd45
:101ea000c0e0e4ccc0e075f020e626f608e633f6a4
:101eb00008e633f608e633f6181818ec33fced3371
:101ec000fdee33feef33ffc3ec9709ed9709ee9774
:101ed00009ef97191919400fffec97fc09ed97fdd1
:101ee00009ee97fe191906d5f0bfecf709edf709d1
:101ef000eef709eff7191919d0e0fcd0e0fdd0e0ba
:101f0000fed0e0ff22121f6d181818121e96121f25
:101f10005c19191922121f5c191919080808e6180a
:101f2000181820e7e0121e96121f6d1818182209c3
:101f30000909e719191920e7dc080808e618181834
:101f400020e703021e96121f6d181818121e961213
:101f50001f6d181818121f5c19191922e4c397f77e
:101f600009e497f709e497f709e497f722e4c396a1
:101f7000f608e496f608e496f608e496f62260176a
:101f8000080808c6a2e713c618c613c618c613c6a3
:101f900018c613c6d5e0e9226016080808c6c313a0
:101fa000c618c613c618c613c618c613c6d5e0eaa7
:101fb000227009080808226016181818c6c333c60c
:101fc00008c633c608c633c608c633c6d5e0ea22fb
:101fd000e627f60809e637f60809e637f60809e6bf
:101fe00037f622e026f608a3e036f608a3e036f638
:101ff00008a3e036f622e026f008a3e036f008a3b6
:10200000e036f008a3e036f022c3e697f60809e6ca
:1020100097f60809e697f60809e697f622c3e0c6a0
:1020200096f608a3e0c696f608a3e0c696f608a3bf
:10203000e0c696f622e056f608a3e056f608a3e0be
:1020400056f608a3e056f622e647f60809e647f6f4
:102050000809e647f60809e647f622e046f608a32f
:10206000e046f608a3e046f608a3e046f622e0467e
:10207000f008a3e046f008a3e046f008a3e046f02d
:1020800022e066f608a3e066f608a3e066f608a379
:10209000e066f622e0f608a3e0f608a3e0f608a35f
:1020a000e0f622e6f008a3e6f008a3e6f008a3e6cf
:1020b000f022e0faa3e0fba3e0fca3e0fd22eaf0bb
:1020c000a3ebf0a3ecf0a3edf022e0fca3e0fda372
:1020d000e0fea3e0ff22ecf0a3edf0a3eef0a3ef0f
:1020e000f022e0f8a3e0f9a3e0faa3e0fb22e8f095
:1020f000a3e9f0a3eaf0a3ebf022cac0e0e6f0a364
:1021000008dafad0e0fa22cac0e0e0a30592f0a310
:102110000592daf6d0e0ca225392fefae9fb792161
:10212000e7f0a309dafae8f0a3ebf9f0a3ecf0a3e7
:10213000edf0a3eef0a3eff0a3e520f0a3e5f0f0bf
:10214000a3e592f0a3e584f0a3e585f0a3e581f093
:10215000a3e531f0a3e532f0a3e533f0a3d0e0fa34
:10216000d0e0f0a3caf0eac0e0e0c0e07a007b0073
:10217000225392fecac0e0ebc0e07921e0f7a30948
:10218000dafae0f8a3e0f9a3e0fca3e0fda3e0fea7
:10219000a3e0ffa3e0f520a3e0f5f0a3e0c0e0a3f7
:1021a000e0f584a3e0f585a3d0e0f592d0e0fbd084
:1021b000e0fae0f581a3e0f531a3e0f532a3e0f524
:1021c00033a3d0e0d0e0e0c0e0a3e0c0e0ea4b7091
:1021d000027a0122b90010bb0008e88af084f8aa4c
:1021e000f022e4fbc8fa22eb70227b10c833c8c986
:1021f00033c9335007c39ac3dbf280069a50012ad1
:10220000dbeac833f4c8c933f4c9fa2275f008e42c
:10221000c833c8c933c933c99ac99b5004c92ac92c
:102220003bd5f0ecfbc833f4c8e4c9fa22600d08d2
:10223000c6a2e713c618c613c6d5e0f322600c0881
:10224000c6c313c618c613c6d5e0f42270042260b4
:102250000d18c6c333c608c633c6d5e0f418222508
:102260003210af08f532400c15338008f5324002c9
:102270001533d2af2200c0d0253210af08f532504e
:102280000c05338008f53250020533d2afd0d0228e
:102290002532f58210af08f532400c15338008f571
:1022a0003240021533d2af85338322c5822532c531
:1022b00082c583353310af07f5338582328007f549
:1022c00033858232d2afc583222532f582e435339d
:1022d000f583222532f584e43533f585222532f85d
:1022e000e43533f9222532fae43533fb222532fc7a
:1022f000e43533fd22e4735392fe2532c582c0e0fb
:10230000e53334ffc583c0e0e532c3958224f8107d
:10231000af08858333858232800885833385823296
:10232000d2afcef0a3e520f0a37821e608f0a3de3b
:10233000faeff0a3e58124faf8e608f0a3e608f046
:10234000a3e608f0a30808e608f0a3e608f0a31542
:10235000811581d0e0fed0e0f8158115811581e866
:10236000c0e0eec0e0225392fe2532c582c0e0e517
:102370003334ffc583c0e0e532c3958224f910af42
:10238000088583338582328008858333858232d203
:10239000afcef0a3e520f0a37821e608f0a3defaa3
:1023a000eff0a3e58124fbf8e608f0a3e608f0a32c
:1023b0000808e608f0a3e608f0a315811581d0e02f
:1023c000fed0e0f815811581e8c0e0eec0e02253b0
:1023d00092fe853383853282e0a3fee0a3f5207868
:1023e00021e0a3f608dffae0a3ffe0a3c0e0e0a34a
:1023f000c0e0e0a3c0e0e0a3c0e0e0a3c0e010af15
:10240000088582328583338008858232858333d282
:10241000afd083d0825392fe0211295392fe8533ae
:1024200083853282e0a3fee0a3f5207821e0a3f6c5
:1024300008dffae0a3ffe0a3c0e0e0a3c0e0e0a370
:10244000c0e0e0a3c0e010af08858232858333800e
:1024500008858232858333d2afd083d0825392fef7
:1024600022c0925392fec0d02532c582c0e0e5332f
:1024700034ffc583c0e0e532c3958224f210af0873
:102480008583338582328008858333858232d2af5b
:10249000c8f0a3e9f0a3eaf0a3ebf0a37921e709e0
:1024a000f0a3d8faecf0a3edf0a3eef0a3eff0a3c5
:1024b000d0e0f0a3d0e0f0a3d0e0f0a3e520f0a3bb
:1024c000e5f0f0a3d0e0f0225392fe85338385320d
:1024d00082e0c0e0a3e0f9a3e0faa3e0fba3782147
:1024e000e0f608a3dffae0fca3e0fda3e0fea3e032
:1024f000ffa3e0c0e0a3e0c0e0a3e0f5d0a3e0f5d7
:1025000020a3e0a3f5f0e0a3c0e010af088583337b
:102510008582328008858333858232d2afd0e0d085
:1025200082d083f592d0e0f8d0e032e584f0a3e5e4
:1025300085f022e0a3f584e0f5852274048006741a
:102540000280027401c0e0f404122290d0e0122054
:10255000fa2274048006740280027401c0e0f4045c
:10256000122290d0e012210722d083d082c5f0e45d
:1025700093a3c5f0c395f0f5f0e493a3c395f040a1
:1025800005e5f0048001e475f002a42582f582e5fa
:10259000f03583f583e493a3c0e0e493c0e022d058
:1025a00083d082e9c0e0e493a3c386f0c5f095f040
:1025b000f908e493a386f0c5f095f0700be493a3bb
:1025c000c3994005e9048002a3e475f002a42582c2
:1025d000f582e5f03583f583d0e0f9e493a3c0e01c
:1025e000e493c0e022ffffffc0e0c0d075d008c078
:1025f00092c082c083c0f0759800e5a8f8c2af53be
:1026000092fe9004e0e0d2e1f0753400e8a2e7e445
:1026100033fee8a2e792af1212f2d0f0d083d0825c
:10262000d092d0d0d0e032c082c0835392fe9004ca
:10263000ade4f0a3f0a3f0a3f0d083d0822274f72e
:1026400012236679001219f49003ef12385eeac380
:1026500098f8eb99f9e82404fee439ff9003fc12a2
:102660002fb1c3ee9cef9d40299003fa122fb19039
:1026700003fee02af8a3e03bf9e8c39cf8e99df9e2
:10268000122ce3a3ecf0a3edf09003fcecf0a3ed2f
:1026900080239003ef122b539003fc122caf900376
:1026a000fc12385e9003f1122ce69003f8e07004ff
:1026b0007402800114f07aed7b03123868800ff009
:1026c00085328285338312253374021222757f028c
:1026d00002241b74f7122366e9fe9003f9e0f8ee7a
:1026e000600924fe601d14601a80329003f6e0a297
:1026f000e35009e860279003f9148020c2e2f0d289
:10270000e380199003f6e0a2e2500c740868600db3
:102710009003f9e0048005c2e3f0d2e2f09003f701
:10272000e070089003f574fff0804990600a122869
:10273000db49703d90618fe0c0e09003f9e0f874f0
:1027400008c398f8d0e0b800028004c313d8fcf5a1
:102750002174ff6521700990600ae4f0a3048010e1
:10276000e5212401f8e43400f990600ae8f0a3e9d7
:10277000f012263e0226ce74f7122366e9fe24fcf0
:10278000600624fe602a800d9004c6e06401705d3e
:1027900012170c805890041ae0640170139004140e
:1027a000e4f0ee700b7b091230abfa7900123bc9f2
:1027b000900414e0700890041274fff0802f906170
:1027c0008fe0ff79001219f48b22a922900416e001
:1027d0002af8a3e039f9740f5ffae82af8e439f926
:1027e00090040c122ce67a0a7b041238680226ce7a
:1027f00074f712236674fe12229012252b90046443
:102800001228db2412fae439fb90605ce060088a4d
:10281000828b83e0d2e1f0e82430fce439fde82447
:1028200032f584e439f58590605ae0700690605e78
:10283000e0603a8a828b83e0a2e1401dd2e1f0e8b9
:102840002422f582e439f583122b4912224c8c8222
:102850008d83e521f0a3e522f0e40592f0a3f07961
:10286000008532828533835392fe0226c6e8241ef9
:10287000f582e439f583123855858482858583e0b5
:102880002ef0a3e03ff08c828d830592e0fca3e064
:10289000fdc30592e09ca3e09d50c488828983a378
:1028a000a3a3a3a3a3a3a3a38582848583858a82ec
:1028b0008b83e0a2e1500474088002743e0592f01c
:1028c0007b02888289830592a3a3a3a3a3a3a3a3c6
:1028d000e0fa7900123bc979018086123862e82259
:1028e00074f512236674fe12229012252b122f917a
:1028f000f584e43ff5850592e0fc7003022b44ee7d
:10290000242ef582e43ff583059212385e8e828f85
:1029100083a3a3a3a3a3a3a3a38582238583248e38
:10292000828f83a3a3a3a3a3a3a3a3a3aa82ab83fe
:10293000ee24341235f5687003a3e069702d74023b
:102940006c7003022add74016c70030229d9740cc7
:102950006c7003022b44740d6c7003022b447409d9
:102960006c60258a828b8374228059ec14606a140f
:102970007003022add24fa601c14600c14604614f3
:102980007003022b20022b44906008e0a2e6500363
:10299000022b448030ee2439f582e43ff583801326
:1029a00088828983a3a3a3e064037003022b448875
:1029b0008289831228db4970e78a828b83e0641363
:1029c00070037416f07b02852382852483e0fa79f4
:1029d00000123bc97901022b46ee24551232e2ee79
:1029e000244cfce43ffdea24fff521eb34fff52203
:1029f000e521687003e522697079ee244d122bdc25
:102a00008e828f83122b518c828d83e025e0f8e437
:102a100033f9e82403f85001098e828f83a3a3a31e
:102a2000a3122ce7900495e0a2e0500d8e828f83d4
:102a3000a3a3a3a3a3a3122ce69004b5e4f0a3f0f0
:102a4000a3f0a37402f0900495e0a2e04003022bef
:102a500044906062e4f08c828d83e0f875f0e2a42b
:102a6000c8aaf075f004a42af9e8122f86122ce601
:102a7000022b44ea687002eb696003022b44752163
:102a800009752200782112253fee241bfae43ffb52
:102a9000121d667402122275900495e0a2e05007a0
:102aa000eefaeffb1232eee40592f0ee2422f5820c
:102ab000e43ff5830592122b4912224cee2430f5a7
:102ac00082e43ff583e521f0a3e522f0ee2432f520
:102ad00082e43ff583e4f0a3f07b08805ae8240108
:102ae00008500109ee245c1235f5687003a3e06913
:102af0007052752105752200782112253fee24576a
:102b0000fce43ffdee2424fae43ffb121d66740250
:102b1000122275eefaeffb121706e40592f08024fc
:102b2000eefaeffb1212f8e40592f005929004958c
:102b3000e0a2e0500f7b07852382852483e0fa79a9
:102b400000123bc979000230bd122cdb74037821de
:102b500022a3a3e028f0a3e039f02274f812236640
:102b600074fe12229012252b122bd11228e0e9704c
:102b7000501227f0e9704ae584242ef582e4358569
:102b8000f583e02401f0a3e03400f0906008e0c099
:102b9000e0e5842436f582e43585f583d0e0f0e580
:102ba00084241ef582e43585122be00592a3a3e070
:102bb00028f0a3e039f005929004641232e812384c
:102bc0006885328285338312253374021222758020
:102bd0003f900464e0f584a3e0f58522f582e43fac
:102be000f583122be622e0f8a3e0f9e828f8e933b0
:102bf000f922ee241ef582e43ff583122f9d24fc7a
:102c0000f8e934fff98e828f83a3a3a3a3122ce6e5
:102c10007f0102241b74f712236674fe12229012a5
:102c2000252b9004d3eaf0a3ebf09004d3e0f8a3b3
:102c3000e0f5838882a3a3ac82ad839004bac82454
:102c40001ef584e438f5850592e0f8a3e0f9e8285c
:102c5000f8e933f9900497e0f521a3e0f522122c6e
:102c6000c50592e028f8a3e039f98c828d83122cf7
:102c7000e69004b5122cb88c828d83122caf900490
:102c8000b7122cb87a207b4e1221d4882189228c4d
:102c9000828d83e09521f0a3e09522f09004bc1290
:102ca0002cb8e828f8e933f9e8122f7e0226bfc3d2
:102cb000e098f0a3e099f022123862900497122c69
:102cc000db122cc522e88521f0a4c8aaf08522f0e9
:102cd000a42afa8521f0e9a42af922e0f521a3e04b
:102ce000f522229003efe8f0a3e9f02274f3122317
:102cf0006674fe12229012252b122f91f523e43fc9
:102d0000f524852382f583e0640c7011906008e05f
:102d100054036009852382852483740df0ee241208
:102d2000f584e43ff5850592e0a2e35008c2e3f0a4
:102d30000592022f628e828f830592a3a385822142
:102d4000858322906062e0601079101219f4852169
:102d500082852283eaf0a3ebf01228e0e960030207
:102d60002f6b1227f0e96003022f6b906008e0c020
:102d7000e0ee2436f582e43ff583d0e0f09061d5b3
:102d8000e0f89061d7e06805926005e0d2e2800348
:102d9000e0c2e2f005929004b71232e8906062e07f
:102da0006016ea24c0faeb3437fb123b9e9004bc59
:102db000122f9d122f7e8012123b889004bc122b82
:102dc000e2906064e028f0a3e039122fb724fff00e
:102dd000a3e034fff0ee242b1235f59004b9f0eea9
:102de00024201232e2ee242ef525e43ff526ee24cf
:102df0005cf584e43ff585ea4b7003022ea0900455
:102e000099e0f8852382852483e0fc7028122fa2a4
:102e10006003022ea0ee2439122fa56003022ea01b
:102e2000e8a2e0407bea2401f8e43bf9900497e84b
:102e3000f0a3e98055740d6c7066122fa27061eedc
:102e40002439122fa57059e8a2e040548584828568
:102e500085838525848526850592e0f8a3e0f9051c
:102e600092e0c398f8a3e099f9ea24010a50010b13
:102e7000c398eb999004975006eaf0a3eb800b12ed
:102e80002ce68523828524837402122fb7f8a3e0f1
:102e9000f99004ba122ce6eefaeffb122c15805ac8
:102ea0009004977401f0a3e4f0ee241e122bdc854d
:102eb0002182852283122b539004b512385e85211e
:102ec00082852283122caf852382852483e0640cc3
:102ed0007028852582852683e02402f8a3e034004b
:102ee000f90592e0faa3e0fbc3e89ae99b400b8561
:102ef000238285248374020592f08e828f835392fd
:102f0000fea3a3a3a3a3a385828485838590606485
:102f100012385e7a717b021221d48922e82405f8e6
:102f2000e43522f9858482858583122ce68e828f92
:102f300083a3a3a3a31232e8858482858583e0f866
:102f4000c3ea98eb99a2d265d0335007ea0592f014
:102f5000a3ebf05392fe12385b85258285268312ff
:102f60002b539004641232e812386885328285331c
:102f70008312253374021222757f0602241b122f3e
:102f800086e8f0a3e92224eaf8e93402f9906064c3
:102f900022900464e0fea3e0ffee240a22122be656
:102fa000e822ee2432f582e43ff583122fb1ec4d96
:102fb00022e0fca3e0fd22f0852182852283e0222d
:102fc00074f512236674fe12229012252b8031c2f2
:102fd000e51230a6c0e09004c4e012308bd0e0f0df
:102fe0009004c4e004f0a3e004f0a3e004f0900433
:102ff000c8e0700c7401f07b007a007900123bc9c4
:1030000090605ae0f521906002e0a2e05004780060
:10301000800590605de0f89004c5e0fae52128f8ad
:10302000e43400f9e86a7001e960589004c4e0f5fe
:103030002374012523547ff521e52312308be0f81a
:1030400008089004c4e028f074802521f582e43457
:1030500060f5830592900464e0f8a3e0c82408f5c5
:1030600084e438f585e0a2e70592e04003022fcf23
:10307000d2e5f012309d24db1230a6fa12309d4ac0
:10308000022fdf853282853383803b12308f2254ba
:103090007ff8748028f582e43460f583229004c4bc
:1030a000e012308fe022f01230ab22900464e0f89e
:1030b000a3e0c82408f582e438f583e02285328253
:1030c0008533835392fe12253374021222757f04d6
:1030d00002241b74f512236674fe12229012252b13
:1030e00089210592900464e0f582a3e0f58385824e
:1030f00084858385a3a3a3a3a3a3a3a3e0a2e740fe
:10310000469004c7e0f8906054e0c398f52290041c
:10311000c7e02522f0ae82af838011ee2439fae4b5
:103120003ffb121628ea4b600312183285222374e3
:10313000ff2523f5220470e3e521a2e6400979008a
:10314000eefaeffb1217960230bdc0e074f11224c4
:10315000618535c675a70075a1007950121a127fd6
:10316000010224c8c0d075d01875bf00d0d032c0bd
:10317000e0c0d075d018c092c082c083c0f0853541
:10318000c6e591fe759b00f4f5915392fe906002a6
:10319000e0a2e050047800800278087900e8440159
:1031a0005e6003122fc0eea2e55004f91230d3ee98
:1031b000a2e75029e5a8f8c2af9004e0e0d2e0f021
:1031c000753400e8a2e7e433f9e8a2e792afe594aa
:1031d000a2e24009759403e594a2e250faeea2e659
:1031e00040030232af906061e0f99004c5e4f090d2
:1031f00004c7f09004641232e88a828b83a3a3a3ed
:10320000a3a3a3a3a3e02410601224fc600924fc60
:10321000700f1226d38066122777806112164c80b9
:103220005c900494e060051460148023906060e07a
:103230006480601be0c0e01232ccd0e0801090606f
:1032400058e0f890605ce028f81232cce028f0906a
:103250006060e064806016e0c0e0900464e0f8a381
:10326000e0c82413f582e438f583d0e0f0900495ab
:10327000e0a2e05005122cec8003122b5b90605909
:10328000e0f89004ade028f0906058e0f89004aecb
:10329000e028f090605a1232c390605e1232c39000
:1032a000605ce0f89004b0e028f012163a8004a2c6
:1032b000e75003123955d0f0d083d082d092d0d0cd
:1032c000d0e032e0f89004afe028f022ea242cf5b8
:1032d00082e43bf583e0fa746f2af582e43404f566
:1032e0008322f582e43ff583e0faa3e0fb22c0826b
:1032f000c0835392fe9004b7e4f0a3f09004b5f0bd
:10330000a3f01216529004bceaf0a3eb0226387424
:10331000f712236674fe12229012252b9004641279
:103320002fb112385bec2429f582e43df583ec24bf
:103330002bfae43dfb8a848b85740168497012e0a6
:10334000f80592e028fac39425402974db2afa8014
:1033500023e0f521e88521f0a4f8aaf08521f0e921
:10336000a42af90592e0fae82af8e439f97a257beb
:10337000001221d4eaf0ea131313541ff8ec28f8d2
:10338000e43df9e82424f582e439f5830592e0c0b0
:10339000e074075af8d0e0b800028004c313d8fce8
:1033a000a2e040288005e8cac39afaec24e5f58239
:1033b000e43df583e0f8eac39850ebec2af8e43ded
:1033c000f9e824c0f582e439f583e0faec242cf521
:1033d00082e43df583ea0226bf74f612236674fe8a
:1033e00012229012252b90041be09060026004745e
:1033f0000e8002740ff0900415e0906001f09008c8
:10340000891220e29061951220ee1217a290041a00
:10341000e0f521740165219004137040e05402f935
:103420007a1c7b04121670900413e0a2e050097a13
:10343000a17b0475214080077a9b7b04752100a243
:10344000e150047e8080027e0075230678231225d9
:10345000437c1c7d04e5214e44018068e0a2e050dd
:10346000087aa17b04784080067a9b7b047800056b
:103470009290044112255a7c227d04748d2521f5f9
:1034800082e43408f5830592e048f9121676740157
:1034900012227590041ae0f86005740268702e908c
:1034a0000413e0a2e050087aa17b04784080067af9
:1034b0009b7b047800059290046112255a7c427d22
:1034c00004e84404f912167674011222759004136c
:1034d000e0a2e0e433f912166a75910090041be053
:1034e000906182600474c8800274c0f08532828565
:1034f000338312253374021222757f0302241bc00a
:1035000082c0835392fe906002740ff09003f8e043
:1035100004f064037002e4f0e02425906000f09071
:1035200008891220e29061951220ee9003f6e05493
:1035300020f912166a1217a29003f6e0a2e15004d5
:10354000d2f08002c2f0a2f0e43390600cf090035d
:10355000f6e0a2e1503575d90da2e550047840801f
:10356000027800e84403f5d9e0a2e550067aa17b91
:103570000480047a9b7b047906121640740675d980
:10358000001470fae5e170fc75e1957591009061a9
:103590008274c102263874f812236674fe122290d7
:1035a00012252b1236361217a212362c1220e29058
:1035b00061951220ee12366412330f12365df584d7
:1035c000e43ff585858482858583123645121796fa
:1035d000ee24121235f5a2e250180592e0f8a3e0ad
:1035e000f58388820592a3a3e02402f89061d5e0d8
:1035f00028f0022bc1f582e43ff583e02274f81233
:1036000023661236361217a212362c1220e290616f
:10361000951220ee12366412330f12365df582e4f5
:103620003ff583123645121796022bf2ee2414f55d
:1036300082e43ff58322900464e0fea3e0ff906003
:1036400002740ff022123862ee2437f582e43ff55f
:1036500083e8f0a3e9f07900eefaeffb221236ad31
:10366000ee243922ee24361235f5906008f0ee246f
:10367000181235f5906005f0ee24191235f59060ba
:1036800006f0ee241a1235f5906007f02274f81255
:1036900023661236361217a212362c1220e29061df
:1036a000951220ee1236641236ad022bf2ee242c67
:1036b000f582e43ff583e0906000f075910090049e
:1036c000d2e0906182f02274f112236674fe12221d
:1036d0009012252b7521007522007c6b7d04801fc4
:1036e000888289831238558c828d83eef0a3eff0a7
:1036f00088828983e521f0a3e522f0882189228c44
:10370000828d83123855ee4f70398c828d83eaf0aa
:10371000a3ebf08a828b83e4f0a3f0aa21ab22858d
:10372000328285338312253374021222757f080298
:10373000241be5232527f8e5243528f98a828b8385
:10374000122b51eef8eff988828983a3a38a848b28
:10375000850592a3a3e0f523a3e0f5240592e0c339
:103760009523f523a3e09524f5248a828b83a3a3d4
:10377000a3a3a3a3e0f525a3e0f526c3e5239525a0
:10378000e5249526a2d265d033403e8a828b8312ef
:103790002ce68a828b83a3a3a3a385828485838559
:1037a00012385ec3e52398e52499a2d265d0335040
:1037b0000d858482858583e523f0a3e524f08c8242
:1037c0008d83eaf0a3eb02371a88828983a3a3a32f
:1037d000a3a3a3e0f527a3e0f528c3e49527f525e7
:1037e000e49528f526c3e5259523e5269524a2d260
:1037f00065d03350288a828b83a3a3a3a3a3a3a35a
:10380000a3e0a2e7500302373288828983a3a3a3ef
:10381000a3a3a3a3a3e0a2e750030236e088828912
:1038200083a3a3a3a3858284858385c3e49523fc16
:10383000e49524fd123855c3ec9eed9fa2d265d0cd
:1038400033500b858482858583ecf0a3edf0e8fc92
:10385000e9fd0236ffe0fea3e0ff22900497123854
:103860006222e0f8a3e0f92274f712236674fe12d4
:10387000229012252bea4b6031a2afe433fec2af97
:103880001236c78a828b838016aa82ab8385828494
:103890008583850592e0f582a3e0f5831236c7e5be
:1038a00082458370e4eea2e092af0226c074f81263
:1038b000236674fe12229012252beaf8ebf9e849f0
:1038c0007003023950a2afe433f521c2af90046b0c
:1038d000e0faa3e0ca2408f582e43af583e0601533
:1038e000a2e7501188828983a3a3a3a3a3a3a3a3c0
:1038f000e0a2e74055900464123855eefaeffb8ad7
:10390000828b83a3a3888489850592a3a3e0fca36b
:10391000e0fd0592e0c39cfca3e09dfdc3ec940593
:10392000ed123af54024eefceffdec2412f582e4b2
:103930003df583e0d2e4f088828983eaf0a3ebf0de
:1039400090046b122ce679018008e521a2e092af89
:103950007900022bc174f512236674fe12229012b4
:10396000252b79001219f48a238b247977121a12e5
:103970009061b1e4f0e070f87403f0e0640370f873
:1039800090046b12385e900464122ce6e8497012c1
:10399000123afde594a2e24003023aed759400026a
:1039a0003aed888289831232e890046beaf0a3eb47
:1039b000f088828983a3a3122cdb88828983a3a346
:1039c000a3a3e02521f8a3e03522f9e824fdfee9d0
:1039d00034ffff9060607480f0e521c39523e522f9
:1039e0009524fb122bd1e5232401f8e43524f98535
:1039f0008482858583a3a3a3a3a3a3a3a3e0241008
:103a0000604d24fc600624fc600880631233d902f8
:103a10003a9890046b122bd4e5844585602c05926e
:103a2000a3a3a3a3a3a3a3a3e0a2e7401d123af379
:103a3000501888218922c3e89ee99f4008e82401a4
:103a4000fee43522ff0592122ce31234ff80491266
:103a50003af3501688218922c3e89ee99f4008e87e
:103a60002401fee43522ff122ce31217a8802990ce
:103a70000495e0a2e05005123596801ca985e584e6
:103a80002412f582e439f583e0a2e45008c2e4f0a0
:103a900012368d80031235fdaa21ab227930121a1d
:103aa00006eefaeffb7940121a067954121a12e563
:103ab00021c39523f8e5229524f9c3e89401e9127e
:103ac0003af5500c1217bae5e170fc75e121801d42
:103ad000900367e0a2e04012aa21ab22121a0090e4
:103ae00004b11220be123afd80031217ba1218c296
:103af000023083c3eb9400a2d265d03322e5a8f84c
:103b0000c2af9004e0e0c2e0f0753400e8a2e7a2a2
:103b1000e792af22853487c2af22c0e0c0d075d013
:103b200018c092c082c083c0f074fc12225f53920e
:103b3000fe9004e1e0601c121664900367e05411eb
:103b40007008e5c654384487f5c69004e1e4f0c235
:103b5000c78020c2c7aa32ab331217b4e964017020
:103b6000129004e17401f08532828533831220b211
:103b70001218b67534007404122275d0f0d083d0b8
:103b800082d092d0d0d0e03275c3007420c39afaac
:103b9000744e9bfbeaf5a2ebf5a35392fe22c021e3
:103ba00075c301e5a2f521e5a375c300f9e521245c
:103bb00020f8e9344ef9e8c39af8e99bf9e8f5a250
:103bc000e9f5a3d0215392fe2274f5122366e9fe93
:103bd000eaff8b21753400a2afe433f522c2af9027
:103be0000584e0f52474012524540ff52390058302
:103bf000e0652370057900121a6ce52475f003a4c2
:103c0000f8a9f0741128f8740539f9e82442f5820e
:103c1000e439f583eef0e82443f582e439f583efe7
:103c2000f0e82444f582e439f583e521f0e52390ba
:103c30000584f0e522a2e092af7f0402241bc0823b
:103c4000c08374fc12225fe5a8f8c2afe595853207
:103c5000828533835392fef0e596c0e07401122210
:103c6000c9d0e0f0e597c0e074021222c9d0e0f0bc
:103c7000e8a2e7a2e792af74031222c9e4f085320a
:103c8000828533831220b27404122275d083d082cd
:103c900022c0e0c0d075d018c092c082c083c0f0ee
:103ca000121be6123c3e9006181220bee58955ab69
:103cb00090061cf0e58090061ff090061ce0f4f5dd
:103cc000899062d0e0f8a2e1502790061ce0a2e5be
:103cd000501f53abdf9062d0e0a2e0e433900622a5
:103ce000f090061ce0c2e5f07b307a007906123bca
:103cf000c990061ce0600e7b007a007906123bc971
:103d00007900121bf2c2c5d0f0d083d082d092d0fd
:103d1000d0d0e032c0e0c0d075d008c092c082c020
:103d200083c0f0121be6123c3e9006181220bee53e
:103d30008a558df890061df0e590900620f0e8f485
:103d4000f58a7b017a007906123bc97901121bf2d0
:103d5000c2eb80b3c0e074f01224619061a9e0600e
:103d600017c2afe589f8e5abf975ab00e4f09062f6
:103d70004bf0888989abd2af900627e0640f7012b0
:103d8000e5c7f8900368e0f5c790ff1ce0f4f5aed6
:103d900088c7e5bbf8e5baf521e8fb900627e025e2
:103da000e0f8e433f9742828f582740639f583e5e0
:103db00021f0a3ebf0900627e02410fb7a007906af
:103dc000123bc9e5a8f8c2af9004e0e0c2e2f0758a
:103dd0003400e8a2e7a2e792af7f020224c8c0e065
:103de000c0d075d018c092c0f0e5d1f875d100c22e
:103df000c0a2e350097b037a007904123bc9d0f0da
:103e0000023d0dc0e0c0d075d010c092c021c022cc
:103e1000c082c083c0f05392fe900790123f1e6094
:103e20002a90074be0700c7401f07b007a00790453
:103e3000123bc9ee900790f0e5c1c0e074922521d5
:103e4000f582e43407f583d0e0800be5c4a2e650a8
:103e50000690074a7401f0023f0dc0e0c0d075d053
:103e600010c092c021c022c082c083c0f0c2e953fa
:103e700092fe90074de0fa90074ce09a543ff860ac
:103e800029744e2af582e43407f583e0f974012a97
:103e9000543f90074df089c190078ee06870197b00
:103ea000027a007904123bc9800ee5a8f8c2af90ef
:103eb00004e0e0c2e3123f8c8053c0e0c0d075d074
:103ec00010c092c021c022c082c083c0f05392feb5
:103ed00090081a123f1e60299007d5e0700b7401fc
:103ee000f07b00fa7904123bc9ee90081af0e5f96c
:103ef000c0e0741c2521f582e43408f583d0e0800d
:103f00000be5fba2e650069007d47401f0d0f0d088
:103f100083d082d022d021d092d0d0d0e032e0f530
:103f20002174012521543ffea3e06e22c0e0c0d0e1
:103f300075d010c092c021c022c082c083c0f0c220
:103f4000ea5392fe9007d7e0fa9007d6e09a543fe2
:103f5000f8602974d82af582e43407f583e0f9740f
:103f6000012a543f9007d7f089f9900818e068704b
:103f7000197b027a017904123bc9800ee5a8f8c2c8
:103f8000af9004e0e0c2e4123f8c8081f075340011
:103f9000e8a2e7e433f9e8a2e792af2203060302be
:103fa00002030302060203030105020201000101ec
:103fb00001010100000302000005000207070002e2
:103fc000030101010202010f0008030505020704b5
:103fd000060806060503040401030602020101099e
:103fe00001010201010201020101030500010002b9
:103ff00000000003020201050503010000000201a8
:104000000404020302040104010074f61222f7758d
:10401000210c752200782112253f7c007d007a5406
:104020007b60121d6c027706c082c0838a828b83fc
:1040300080075392fee0f5d9a3e9f874ff2819042c
:1040400070f0026721c082c0838a828b838007e57b
:10405000d95392fef0a3e9f874ff28190470f00216
:10406000672174f61222f774fe12229012252be9b2
:1040700070169004c6e06401700e9003f7e06401ce
:10408000700612170002416d9003f7e07024124190
:104090007b60160592a3a3a3a3a3a3a3a3e0f91295
:1040a00017c6900404e4f0a3f09003f574fff00247
:1040b000416d9004081266da900406e0687003a36c
:1040c000e0697900701c1219f48b22ea2402f8e4ea
:1040d0003522f99003ef124c499004061241700208
:1040e00041651219f49003ef1266daeac398f8eb0f
:1040f00099f9e82404f521e439f5229003fc125bd8
:1041000023c3e5219ce5229d402c900406125b23ed
:10411000a3e02af8a3e03bf9e8c39cf8e99df990f5
:1041200003ef124c499003fcecf0a3edf09003f187
:10413000ecf0a3ed802f9003efe028f0a3e039f03e
:104140009003fc1270879003fc124170f0900404fd
:10415000e0f8a3e0c8242bf582e438f583e070048e
:104160007402800114f07aed7b031238680276fd48
:104170001266de9003f1e8f0a3e922900404e0f572
:1041800084a3e0f585e58445852274f01222f7eae0
:10419000241ef582e43bf583124812e4f523f5244e
:1041a000ea242af582e43bf583e0124a4174792837
:1041b000f582740839f583e02432f525a3e0340054
:1041c000f526e4f527f52878217925121e169008a2
:1041d000c0782512209478217925121e169008c4e3
:1041e000782512209478217925121e96e521240243
:1041f000fae43522fb026c9374f41222f774fe1277
:10420000229012252b74fc12225f8a848b858532c2
:1042100082853383e41278a4a3f090618fe0c0e03c
:104220008532828533837821122094e5842521f517
:1042300082e585126a0ed0e0f090092778211220dd
:10424000948532828533837821121ff69009437852
:10425000211220948532828533837821121de74014
:10426000b98584828585831220e2853282853383f5
:104270001220ee7a008532828533837821122094d1
:10428000e521543ff8743f68601fe8601c85328266
:10429000853383782112209474017821121f98129b
:1042a00043fa0aeac3941b40cceac3941b500302ae
:1042b000420e858482858583782112209490088916
:1042c000782112208185328285338378211220a3c0
:1042d00079007a0085328285338375210175220049
:1042e000ea782112224ce5223395e0f523f5247873
:1042f00021122035e5214522452345246001090a84
:10430000eac3942040cee9c39402500302420e0552
:1043100092e0f88584828585830592a3e068701c0d
:10432000858482858583a3a3e06870108584828557
:104330008583a3a3a3e068700302420e858482856f
:1043400085831220e28532828533831220ee790044
:104350007a1f8532828533837821122094e5215497
:1043600003f874026860057401687001098532827f
:10437000853383782112209474017821121f9812ba
:1043800043fa1aea70cce9c39419400302420e853d
:1043900084828585837821122094741a7821121fd3
:1043a0009885328285338378211220a379007a059b
:1043b0008532828533837821122094e5215403f8d5
:1043c0007402686005740168700109853282853362
:1043d00083782112209474017821121f98853282eb
:1043e00085338378211220a31aea70c4e9c39402aa
:1043f000500302420e74040275ed853282853383c8
:10440000e521f0a3e522f0a3e523f0a3e524f022c3
:1044100074f61222f774fe12229012252b8a848bd6
:1044200085e9701e752108752200782112253f7cd0
:10443000007d00121d6c740212227574010592f049
:1044400080280592e0a2e0e433f075210775220090
:104450000592782112253f7c007d000592a3aa8455
:10446000ab85121d6c7402122275853282853383ee
:104470005392fe02770374f61222f79004e0e0a252
:10448000e04079d2f090ff34e0a2e730f001b34091
:1044900008a2e330f001b350031217487930121923
:1044a000f48a218b22ae21af229061b1e4f0e0705a
:1044b000f87403f0e0640370f81217ba9004e0e0b7
:1044c000d2e0f0753400e59ea2e640fae594a2e25f
:1044d0004009759403e594a2e250fa79001219f4a8
:1044e0008a218b22c3ee9521feef9522ff54807026
:1044f00004ee4f7007e5e170fc75e12102770b7463
:10450000f61222f7e9fe60067ca17d0480047c9b04
:104510007d04752106752200782112253f7a167bcd
:1045200060121d667402122275906015e0c2e0f000
:10453000ee6004780180027800e048f002770b74a6
:10454000f61222f7e9fe7521067522007821122560
:104550003feafcebfd7a1c7b60121d66740212229e
:1045600075906015e0c2e1f0ee6004780280027898
:104570000080c674f71222f774fe12229012252bc7
:10458000e9fe8c848d85740b1222c9e0ff74072f1d
:10459000f5d98ed979061216408007439201e0f5cd
:1045a000d9a3eff874ff281f0470f0e5e170fc75e3
:1045b000e195026eba74f61222f7e9fe90046412d5
:1045c0006a376004793a8058906022e0f874ff6896
:1045d00070047907804a7f0080040fc313f8e8a2b3
:1045e000e040f7752106752200782112253feafc8c
:1045f000ebfdef1246c1121d667402122275752181
:1046000001ef782112224caf21eff4f8906023e003
:1046100058f0ee6003e04ff0906022e04ff0790038
:1046200002770b74f31222f774fe12229012252bdc
:1046300089258a848b85900464126a376004793aec
:104640008066906022e0f522a3e0ff7521017e00e4
:10465000e52255216043e5256007852182a88280f7
:10466000027800ef552168703075230675240078b4
:104670002312253fac84ad85ee1246c1121d607435
:10468000021222758b24ea4524700ee521f4f8907d
:104690006022e058f07900800f0ee521c333f52148
:1046a000eec3940840aa791285328285338312259d
:1046b0003374021222757f050223cf7cc97d04e585
:1046c0002275f006a4f8a9f0742428fa746039fb66
:1046d00022c082c0835392fe906022e4024db674e1
:1046e000f01222f774fe12229012252b8c278d28af
:1046f000eafcebfdea24faf8eb1248094003024712
:10470000e8e52724faf8e52812480940030247e8bb
:10471000c3e5279ae5289b50030247e87416122246
:10472000c91275d7c3ee94f5ef940140030247e830
:1047300074141222c9124812e52124f6f8e5221257
:104740004ad09477e9940c40030247e89004d0e003
:10475000f8c394024037e8c333f88882858225ec99
:10476000f8edf9aa257b001221d48a238b24a823f3
:10477000a924e8496017ec2525fae43dfbeac39833
:10478000fceb99fdc3e5279ce5289d405b7403780d
:104790002112224cc021c022ee2401f525e43ff570
:1047a00026e4f527f5288c218d22f523f52478259c
:1047b0007921121e16d022d02178217925122009c4
:1047c0008521258522268523278524289009b478ec
:1047d00025122035e525452645274528700ae5217f
:1047e0004522452345247004791280117412122247
:1047f000c9124a48ec0592f0a3edf07900853282a7
:104800008533835392fe026c8b124ad0947be994d9
:104810000c22e0f521a3e0f5222274f01222f774b5
:10482000fe12229012252b74fb12225fe985328240
:10483000853383f074031222c9ecf0a3edf08a27cc
:104840008b28900495e0a2e040079003f5e0f46027
:1048500005790c024a3e741c1222c9e0f523a3e03c
:10486000f524741e1222c9124812782112253f78ad
:104870002312253f74051222dd882589267825120a
:10488000253f74201222c9125b23741e1222c91202
:104890006fa312168e7406122275e96003024a3e57
:1048a0001217cc8a258b26ae25af26ee4f700579e0
:1048b00009024a3e8e828f83a3a3a3a3a3a3a3a32b
:1048c000e0c0e074031222c9124a48d0e00592f019
:1048d000e52745286044752506752600059278254c
:1048e00012253fac27ad28ee240bfae43ffb121d46
:1048f000667402122275ee2412125d9f8532828543
:104900003383e005926005e0d2e08003e0c2e0f08e
:104910000592906014e0c2e380080592906014e074
:10492000d2e3f074171222c9e060047801800278a3
:1049300000900499e054fdfaa3e0fbe8124a41ea32
:1049400048f8eb49f9900499e8f0a3e9125f06ee04
:104950002414fae43ffb1216587a0090618fe0c0ed
:10496000e0125ef42418f582e439f583d0e0f00a11
:10497000eac3940340e5124d68ee1267f93ff585ee
:1049800074011222c9126eadee2422f582e43ff5c5
:1049900083e523f0a3e524f01261aa125857e5211c
:1049a000f0a3e522f01261a07405f0ee241bf5825d
:1049b000e43ff5837402f00592e0f8a3e0f9126198
:1049c0008ce80592124c4a9004c3e0c0e0ee24e566
:1049d000f582e43ff583d0e0f0752105752200787b
:1049e0002112253f7cbe7d04ee2424fae43ffb1215
:1049f0001d667402122275eefaeffb121706906123
:104a00008fe054072405c0e012737ed0e0f0e5a8e3
:104a1000f8c2af900406126fa39003fc126739909e
:104a200003f1eaf0a3eb12658f900404eef0a3ef1c
:104a3000f09003f574f0124d5c12178a7900026c45
:104a40008025e0f8e433f922e0f584a3e0f585223f
:104a500074f71222f7e9feec4d602cea4b6028ea6d
:104a600024e0f8eb124ac7500aec24e0f8ed124ab1
:104a7000c740047900804dec2af8ed3bc313f9e8f8
:104a800013900416124c4aee6004900415f0740959
:104a90001222c9e090041af0740b1222c9e09004ab
:104aa000136005e0d2e08003e0c2e0f0906014e023
:104ab00054fcf0740a1222c9e0f86006906014e019
:104ac00048f07901026ecb124ad094e1e9943f227a
:104ad00034fff9c3e82274f61222f7e99004136058
:104ae00005e0d2e18003e0c2e1f075210675220005
:104af000782112253feafcebfd7a1c7b04121d662f
:104b00007402122275790002770b74f61222f77480
:104b1000fe12229012252b74ff12225fe9fe9004f0
:104b2000147077e0606fa2afe433f521c2af900458
:104b300064e0640a7004a3e0640470171270974084
:104b400009759403e594a2e250fae5e170fc75e181
:104b500042800d90041274fff07a0a7b04121784cd
:104b6000900414e4f0e521a2e092af900412124dfb
:104b70007264f460f690041812417e60180592a3e6
:104b8000a3a3a3a3a3a3a3e0f91217c6900418e458
:104b9000f0a312658679000276f8e06004793a8025
:104ba000f6eec3940290041b400474018001e4f00b
:104bb00090041ae0f87403686052740268604d90c3
:104bc00004d1e06004790c80ce1217cc8a218b22ac
:104bd000a821a922900418124c49e84970047909c7
:104be00080b5900495e04401f0900499e054fdfafa
:104bf000a3e0fb900413e0a2e0e43325e0f8ea48e8
:104c0000f8ebf9900499e8f0a3e98006900418e421
:104c1000f0a3f074016e90040e7007e4f0a3740822
:104c20008005740af0a3e4f09004147401f0900479
:104c30001274f4f07a0a7b0412178a024b95e5216c
:104c40002434f582e43522f583e81275e82274f500
:104c50001222f774fe12229012252b74ff12225f8b
:104c6000e9feeaffee7073a2afe433f523c2af9022
:104c70000464e064ed7004a3e0640370171270979d
:104c80004009759403e594a2e250fae5e170fc75e1
:104c9000e14280309003f7e06401702812417b60ac
:104ca000160592a3a3a3a3a3a3a3a3e0f91217c677
:104cb000900404e4f0a3f09003f574fff07aed7b28
:104cc000031217849003f7e4f0e523a2e092af907b
:104cd00003f5124d72f4600c80f59003f5e0f87462
:104ce000f868701a79007401122275853282853352
:104cf0008312253374021222757f030223cf74ffbf
:104d0000686004793a80df9003f8e4f0906009f07d
:104d1000eb9003f66005e0d2e48003e0c2e4f0909b
:104d20006014e0c2e2f0ef6004e0d2e2f09003f938
:104d3000e4f09003f6e054b3f090600a124d6b90eb
:104d400003fa1266daa3124c499003f1124c49900f
:104d500003f574f8124d5c12178a8088f09003f7ff
:104d60007401f07aed7b03229004977401f0a3e4c0
:104d7000f02212584ee022c082c083e95392fe9086
:104d8000619a700e7433f0a37455f09061a0743a78
:104d90008003125214801fc082c083e9c3940f4065
:104da00002790ee9c454f0f85392fe906186e05403
:104db0000f488002f0a3f0d083d08202112974f64c
:104dc0001222f7e9ffc3942040027f1fe5a8fec22c
:104dd000af8f21752200782112253feafcebfd7a86
:104de000227b04121d667402122275ef900441f0ba
:104df000eea2e7a2e792af02770b74f61222f7e970
:104e0000ffc3942040027f1fe5a8fec2af8f21752b
:104e10002200782112253feafcebfd7a427b041246
:104e20001d667402122275ef90046180c274f41240
:104e300022f774fe12229012252b749f12225fe932
:104e4000fee5c7f521900368e0f5c7900367e0a28f
:104e5000e0401ae0d2e0f005929008c81225527b9b
:104e60000a7a007900121a24740412227574ff6ef3
:104e700070069004d0e08001ee853282853383f0a5
:104e80007523e6752400782312253f7c007d007a87
:104e9000ed7b03121d6c74021222758532828533fc
:104ea00083e09004d0f0752366782312253f7c00c0
:104eb0007d007a007b60121d6c74021222759004d2
:104ec00016e4f0a37402f09004157407f090041235
:104ed00074fff09003fe744b124d6d9003f1743229
:104ee000124d6d9003f6f09003f37404124d6d9023
:104ef00004107405124d6d752325782312253f7c0f
:104f0000007d007a6f7b04121d6c7402122275758d
:104f10002304782312253f7cff7d007abe7b041298
:104f20001d6c74021222759004c2741ff090046b01
:104f3000e4f0a3f0900404f0a3f074ff6e6011eeaf
:104f400075f0e6a4faabf012131090046212673900
:104f50009004621275dd9004d1e41252338018e59a
:104f60008424e6f8e43585f9858482858583e8f034
:104f7000a3e9125221e004f0e0fa1263b8ee24ff34
:104f8000f8e434fff9c3ea98e499a2d265d033403b
:104f9000ce858482858583e4f0a312522190040a91
:104fa000e4f0a3f090041274f4f09003ede4125ec8
:104fb000fc79107cc7fd74011222e51214007523e0
:104fc00006782312253f7c0e7d7874031222e512a9
:104fd0001d667402122275752310782312253f7cfa
:104fe000697d0874131222c9aa82ab83121d6674ec
:104ff00002122275781074011222c9e582125db185
:105000003583f583e064bff008e8c3942040e7747b
:10501000011222dd88238924782312253f7403128c
:1050200022ed74131222c9aa82ab831212da74021f
:1050300012227579107cd77dff74111222c9aa82c1
:10504000ab83121400752310752400782312253fba
:1050500074131222c9ac82ad8374031222e5121daf
:105060006074021222758b24ea45247005800c12ac
:1050700017cceeff74ff2f1e0470f4121a0c1218d6
:10508000389061c67401f09061807440f090619135
:105090007448f09061bc7407f090619a125214f059
:1050a00090618674e1f0a37419f09061bce4f09013
:1050b0000367e0a2e7403879017c017dffaa32abab
:1050c00033121400853282853383e0c4540ff0c359
:1050d000940f4003740ef0e0c454f0f0906186e049
:1050e000540ff8853282853383e048906186f074ee
:1050f000ff6e7007906192e0d2e7f0906022e4f0da
:10510000906009f043a90143b901759b00759100b6
:10511000439a01c2a890f7f4e0a2e3500474e1803e
:105120000274c09004d2f0906181e4f0a374801204
:105130004d6d794074211222ed7a037b0012189292
:10514000e9fb74ff6b60367a00802d74211222c94e
:10515000e5822af584e43583f58585848285858317
:10516000a3e0c0e00592e0f87480125db13461f50f
:1051700083d0e00592f00a0aeac39b40ce122627ac
:1051800012163a12179c9004c4e4f09004c6f090f2
:1051900004c5f09004c7f0906002740ff090f7f42b
:1051a000e0a2e45004740580027402906003f09061
:1051b0000464e4f0a3f0900499e054fdf09004132b
:1051c000e4f079067cea7dff7a9b7b04121400757b
:1051d0002306752400782312253f7c007d007aa7e2
:1051e0007b04121d6c74021222759004a77401f0e6
:1051f000121a488521c7d2f090ff34e0a2e730f0c0
:1052000001b34008a2e330f001b350031217487411
:10521000610275ed743ff0a3745af09061a0747f41
:1052200022125233e00592a3a3a3a3a3a3a3a3f046
:10523000059222f08532828533832274f61222f79a
:10524000e5a8fec2af752106752200782112253f20
:10525000eafcebfd7aa17b04121d66740212227532
:10526000024df074f71222f774fe12229012252bd1
:10527000e975f0e6a4fcadf0900462e02cf584a39f
:10528000e03df585ea858482858583a3a3a3a3a356
:10529000a3a3a3a3f00592a3a3a3a3a3a3a3a3a340
:1052a000a3740af08532828533830592026ec3743b
:1052b000f01222f774fe12229012252b74ff122294
:1052c0005f8a278b281258473528f583e0547f12d0
:1052d0006598ae82af838a828b830592a3a3a3a332
:1052e00012584e1268968a828b83a3a3a3a3a3ac01
:1052f00082ad83ee240af525e43ff526ee2411f570
:1053000021e43ff522853282853383e07003025524
:10531000061470030254c214700302543014700354
:105320000256691470030257701470030257cd14ab
:1053300070030257d414700302557e147003025395
:10534000e51460661470030255881470030255c496
:1053500014600914700302555502581a7523057517
:105360002400782312253fee243ffae43ffb121d70
:10537000667402122275852582852683e064077093
:1053800002e4f0852182852283e0d2e1f0a2e040b0
:105390000dac27ad28eefaeffb1217ae8007aa2757
:1053a000ab281218327b0302580585258285268397
:1053b000e064066003025582852182852283e0d263
:1053c000e2126e4ee4f0752108f522782112253f95
:1053d000aa23ab24121d667402122275aa27ab28d9
:1053e0001218328046852182852283e0d2e2f07550
:1053f0002108752200782112253faa23ab24121d13
:105400006674021222757901aa23ab2412165e7803
:1054100021122543782312253f7909ac27ad28eec8
:10542000faeffb1216f474031222757b040258057e
:105430001258d47409f0121832900495e0a2e0409a
:105440000302584279001219f48b24ea2403f8e489
:105450003524f98e828f83a3a3124c498821892297
:10546000900464e0f8a3e0f5838882a3a3a3a3e0fb
:105470002521fea3e03522ff0a0a0aab2279301269
:105480001a06eefaeffb7940121a067954121a1234
:10549000c3500c1217bae5e170fc75e121801d9034
:1054a0000367e0a2e04012aa21ab22121a00900486
:1054b000b11220be1258ea80031217ba1218c202a3
:1054c0005842ee125857126a378525828526836026
:1054d00004740c80027402f0752107752200782193
:1054e00012253fee2457fae43ffb121d66740212a8
:1054f0002275aa27ab28121832ee245c12590560d7
:105500003a1258be80358525828526837401f07550
:10551000210b752200782112253fee244cfae43f3e
:10552000fb121d667402122275aa27ab28121832cc
:10553000ee245512590560031258bee5a8f521c2a4
:10554000af7901eefaeffb121796e521a2e7a2e789
:1055500092af0258421258d4e064037021e4f085ff
:105560002182852283e054e7f07b078e828f83a31c
:10557000a3a3a3a3a3a3a3e0fa7900123bc9aa277c
:10558000ab28121832025842852182852283e0d24c
:10559000e4f07523007823122543e4f524782312e0
:1055a000253f790bac27ad28eefaeffb1216f47409
:1055b00003122275852182852283e0c2e6f0d2e3c0
:1055c000f0025842852182852283e0d2e412623fb4
:1055d000852182852283e05005c2e7f080a0543ff8
:1055e000f07521007821122543e4f5227821122557
:1055f0003f790bac27ad28eefaeffb1216f47403db
:10560000122275752108782112253f1258af121dfc
:10561000667402122275752104782112253f1258f2
:10562000a0121d667402122275782112253f1258ad
:1056300091121d6674021222758525828526837457
:1056400003f07521167821122543ee245ef521e43e
:105650003ff522782112253f7403c0e012182cea8e
:10566000fcebfdd0e0f9025836852582852683744f
:1056700004f0ee242ef584e43ff5857800797d1260
:1056800073b0126fa31221d489240592e028f8a3e5
:10569000e03524f9e8240108500109126e32e805ca
:1056a00092124c4a752316752400782312253fee7a
:1056b000245efae43ffb121d66740212227579081b
:1056c000ee2474fae43ffb121a4e7904ee247cfabd
:1056d000e43ffb121a4e752308782312253f125817
:1056e000af121d667402122275782312253f1258dc
:1056f00082121d6674021222757523047823122506
:105700003f1258a0121d66740212227578231225ca
:105710003f125891121d66740212227578231225c9
:105720003f125873121d66740212227578231225d7
:105730003f125864121d66740212227585218285fb
:105740002283e04418f075210c7821122543ee24c1
:1057500074f521e43ff522782112253f7904ac2726
:10576000ad28eefaeffb1216f47403122275806076
:10577000852182852283e0d2e4f075210c75220018
:10578000782112253fee2474fae43ffb121d667463
:1057900002122275752108782112253f12588212b3
:1057a0001d667402122275752104782112253f129c
:1057b0005873121d667402122275782112253f1249
:1057c0005864121d66740212227502557e12183238
:1057d0007b068031121832900495e0a2e050118ec1
:1057e000828f83a3a3a3a3a3a3a3a3e0f9121718f3
:1057f000852182852283e054e7126e4e740b12627b
:105800003f403f7b078e828f83a3a3a3a3a3a3a3c1
:10581000a3e0fa7900123bc9802875210178211292
:10582000254374011222dd88218922782112253f27
:105830007907ac27ad28eefaeffb1216f4740312c9
:1058400022757401026c82ea2424f582e422e08548
:105850003282853383f02212585b222420f582e4c1
:105860003ff58322ee247cfce43ffdee24aafae41b
:105870003ffb22ee247cfce43ffdee24bafae43f39
:10588000fb22ee2474fce43ffdee2498fae43ffb97
:1058900022ee2470fce43ffdee24a6fae43ffb2256
:1058a000ee2470fce43ffdee24b6fae43ffb22ee6a
:1058b0002468fce43ffdee2490fae43ffb228e8254
:1058c0008f83a3a3a3a3a3a3a3a3a37428126e4ea1
:1058d000740af0228c828d83e08e828f83a3a3a32f
:1058e000a3a3a3a3a3a3126e4e22e5a8f8c2af9070
:1058f00004e0e0c2e01258f922f0753400e8a2e7b3
:10590000a2e792af22f584e43ff58512707d12661e
:10591000de0592e0c398f8a3e099f9ee12585b0512
:1059200092e028a3e03954802274f71222f774fe23
:1059300012229012252beafeebffa2afe433f521f1
:10594000c2af125a58eefceffd125a3912162e123f
:105950005a43700988828983eef0a3eff07901aa97
:1059600084ab85121796e521a2e092af853282853d
:105970003383026ec374f71222f71258473bf58344
:10598000e0547ffe12599c243dfae439fb12162e96
:105990007b05eefa7900123bc9026ecbeafcebfd07
:1059a000ee75f0e6a4f8a9f09004621259af221245
:1059b0006c5b39f9e82274f71222f774fe12229018
:1059c00012252beafeebffee4f60618e828f83a3e0
:1059d000a3e070051218328053125a58a2afe43374
:1059e000f521c2af125a2f125b1d402ca2e3eefc30
:1059f000effd401f125a3912162e125a43700988b1
:105a0000828983eef0a3eff07901aa84ab851217a7
:105a100096801312162e800eeefceffd12162eaaa3
:105a200084ab851212f8e521a2e092af02596ce531
:105a300084243bfae43585fb22e5842439fae435f5
:105a400085fb22e5842437f8e43585f9888289834b
:105a5000e0faa3e0fbea4b22125d97e0547f126369
:105a6000bc2274f41222f774fe12229012252b8aa3
:105a7000848b85ecfeedffee4f7003025b1a85848c
:105a800082858583a3a3a3a3a3a3a3a3e0c0e0125d
:105a90005d93d0e0125da87403f074101222c9e087
:105aa000f523740125238e828f83a3a3125da8a3ff
:105ab000e9f0e523601f752400782312253f741058
:105ac0001222c9125b23ee2405fae43ffb121d6685
:105ad0007402122275a2afe433f521c2af125b1d2e
